{
	"src/ConveyorSwapAggregator.sol": {
		"ConveyorSwapAggregator": {
			"abi": [
				{
					"inputs": [
						{
							"internalType": "address",
							"name": "_weth",
							"type": "address"
						}
					],
					"stateMutability": "nonpayable",
					"type": "constructor"
				},
				{
					"inputs": [
						{
							"internalType": "uint256",
							"name": "amountOut",
							"type": "uint256"
						},
						{
							"internalType": "uint256",
							"name": "expectedAmountOut",
							"type": "uint256"
						}
					],
					"name": "InsufficientOutputAmount",
					"type": "error"
				},
				{
					"inputs": [],
					"name": "CONVEYOR_SWAP_EXECUTOR",
					"outputs": [
						{
							"internalType": "address",
							"name": "",
							"type": "address"
						}
					],
					"stateMutability": "view",
					"type": "function"
				},
				{
					"inputs": [],
					"name": "WETH",
					"outputs": [
						{
							"internalType": "address",
							"name": "",
							"type": "address"
						}
					],
					"stateMutability": "view",
					"type": "function"
				},
				{
					"inputs": [
						{
							"internalType": "address",
							"name": "tokenIn",
							"type": "address"
						},
						{
							"internalType": "uint256",
							"name": "amountIn",
							"type": "uint256"
						},
						{
							"internalType": "address",
							"name": "tokenOut",
							"type": "address"
						},
						{
							"internalType": "uint256",
							"name": "amountOutMin",
							"type": "uint256"
						},
						{
							"components": [
								{
									"internalType": "address",
									"name": "tokenInDestination",
									"type": "address"
								},
								{
									"components": [
										{
											"internalType": "address",
											"name": "target",
											"type": "address"
										},
										{
											"internalType": "bytes",
											"name": "callData",
											"type": "bytes"
										}
									],
									"internalType": "struct ConveyorSwapAggregator.Call[]",
									"name": "calls",
									"type": "tuple[]"
								}
							],
							"internalType": "struct ConveyorSwapAggregator.SwapAggregatorMulticall",
							"name": "swapAggregatorMulticall",
							"type": "tuple"
						}
					],
					"name": "swap",
					"outputs": [],
					"stateMutability": "nonpayable",
					"type": "function"
				},
				{
					"inputs": [
						{
							"internalType": "address",
							"name": "tokenOut",
							"type": "address"
						},
						{
							"internalType": "uint256",
							"name": "amountOutMin",
							"type": "uint256"
						},
						{
							"components": [
								{
									"internalType": "address",
									"name": "tokenInDestination",
									"type": "address"
								},
								{
									"components": [
										{
											"internalType": "address",
											"name": "target",
											"type": "address"
										},
										{
											"internalType": "bytes",
											"name": "callData",
											"type": "bytes"
										}
									],
									"internalType": "struct ConveyorSwapAggregator.Call[]",
									"name": "calls",
									"type": "tuple[]"
								}
							],
							"internalType": "struct ConveyorSwapAggregator.SwapAggregatorMulticall",
							"name": "swapAggregatorMulticall",
							"type": "tuple"
						}
					],
					"name": "swapExactEthForToken",
					"outputs": [],
					"stateMutability": "payable",
					"type": "function"
				},
				{
					"inputs": [
						{
							"internalType": "address",
							"name": "tokenIn",
							"type": "address"
						},
						{
							"internalType": "uint256",
							"name": "amountIn",
							"type": "uint256"
						},
						{
							"internalType": "uint256",
							"name": "amountOutMin",
							"type": "uint256"
						},
						{
							"components": [
								{
									"internalType": "address",
									"name": "tokenInDestination",
									"type": "address"
								},
								{
									"components": [
										{
											"internalType": "address",
											"name": "target",
											"type": "address"
										},
										{
											"internalType": "bytes",
											"name": "callData",
											"type": "bytes"
										}
									],
									"internalType": "struct ConveyorSwapAggregator.Call[]",
									"name": "calls",
									"type": "tuple[]"
								}
							],
							"internalType": "struct ConveyorSwapAggregator.SwapAggregatorMulticall",
							"name": "swapAggregatorMulticall",
							"type": "tuple"
						}
					],
					"name": "swapExactTokenForEth",
					"outputs": [],
					"stateMutability": "nonpayable",
					"type": "function"
				},
				{
					"stateMutability": "payable",
					"type": "receive"
				}
			],
			"devdoc": {
				"author": "0xKitsune, 0xOsiris, Conveyor Labs",
				"kind": "dev",
				"methods": {},
				"title": "ConveyorSwapAggregator",
				"version": 1
			},
			"evm": {
				"assembly": "    /* \"src/ConveyorSwapAggregator.sol\":397:5466  contract ConveyorSwapAggregator {... */\n  mstore(0x40, 0xc0)\n    /* \"src/ConveyorSwapAggregator.sol\":524:650  constructor(address _weth) {... */\n  callvalue\n  dup1\n  iszero\n  tag_1\n  jumpi\n  0x00\n  dup1\n  revert\ntag_1:\n  pop\n  mload(0x40)\n  sub(codesize, bytecodeSize)\n  dup1\n  bytecodeSize\n  dup4\n  codecopy\n  dup2\n  dup2\n  add\n  0x40\n  mstore\n  dup2\n  add\n  swap1\n  tag_2\n  swap2\n  swap1\n  tag_3\n  jump\t// in\ntag_2:\n    /* \"src/ConveyorSwapAggregator.sol\":568:573  _weth */\n  dup1\n    /* \"src/ConveyorSwapAggregator.sol\":561:573  WETH = _weth */\n  0xffffffffffffffffffffffffffffffffffffffff\n  and\n  0xa0\n  dup2\n  0xffffffffffffffffffffffffffffffffffffffff\n  and\n  dup2\n  mstore\n  pop\n  pop\n    /* \"src/ConveyorSwapAggregator.sol\":616:642  new ConveyorSwapExecutor() */\n  mload(0x40)\n  tag_6\n  swap1\n  tag_7\n  jump\t// in\ntag_6:\n  mload(0x40)\n  dup1\n  swap2\n  sub\n  swap1\n  0x00\n  create\n  dup1\n  iszero\n  dup1\n  iszero\n  tag_8\n  jumpi\n  returndatasize\n  0x00\n  dup1\n  returndatacopy\n  revert(0x00, returndatasize)\ntag_8:\n  pop\n    /* \"src/ConveyorSwapAggregator.sol\":583:643  CONVEYOR_SWAP_EXECUTOR = address(new ConveyorSwapExecutor()) */\n  0xffffffffffffffffffffffffffffffffffffffff\n  and\n  0x80\n  dup2\n  0xffffffffffffffffffffffffffffffffffffffff\n  and\n  dup2\n  mstore\n  pop\n  pop\n    /* \"src/ConveyorSwapAggregator.sol\":524:650  constructor(address _weth) {... */\n  pop\n    /* \"src/ConveyorSwapAggregator.sol\":397:5466  contract ConveyorSwapAggregator {... */\n  jump(tag_9)\ntag_7:\n  dataSize(sub_1)\n  dup1\n  dataOffset(sub_1)\n  dup4\n  codecopy\n  add\n  swap1\n  jump\t// out\n    /* \"#utility.yul\":88:205   */\ntag_11:\n    /* \"#utility.yul\":197:198   */\n  0x00\n    /* \"#utility.yul\":194:195   */\n  dup1\n    /* \"#utility.yul\":187:199   */\n  revert\n    /* \"#utility.yul\":334:460   */\ntag_13:\n    /* \"#utility.yul\":371:378   */\n  0x00\n    /* \"#utility.yul\":411:453   */\n  0xffffffffffffffffffffffffffffffffffffffff\n    /* \"#utility.yul\":404:409   */\n  dup3\n    /* \"#utility.yul\":400:454   */\n  and\n    /* \"#utility.yul\":389:454   */\n  swap1\n  pop\n    /* \"#utility.yul\":334:460   */\n  swap2\n  swap1\n  pop\n  jump\t// out\n    /* \"#utility.yul\":466:562   */\ntag_14:\n    /* \"#utility.yul\":503:510   */\n  0x00\n    /* \"#utility.yul\":532:556   */\n  tag_23\n    /* \"#utility.yul\":550:555   */\n  dup3\n    /* \"#utility.yul\":532:556   */\n  tag_13\n  jump\t// in\ntag_23:\n    /* \"#utility.yul\":521:556   */\n  swap1\n  pop\n    /* \"#utility.yul\":466:562   */\n  swap2\n  swap1\n  pop\n  jump\t// out\n    /* \"#utility.yul\":568:690   */\ntag_15:\n    /* \"#utility.yul\":641:665   */\n  tag_25\n    /* \"#utility.yul\":659:664   */\n  dup2\n    /* \"#utility.yul\":641:665   */\n  tag_14\n  jump\t// in\ntag_25:\n    /* \"#utility.yul\":634:639   */\n  dup2\n    /* \"#utility.yul\":631:666   */\n  eq\n    /* \"#utility.yul\":621:684   */\n  tag_26\n  jumpi\n    /* \"#utility.yul\":680:681   */\n  0x00\n    /* \"#utility.yul\":677:678   */\n  dup1\n    /* \"#utility.yul\":670:682   */\n  revert\n    /* \"#utility.yul\":621:684   */\ntag_26:\n    /* \"#utility.yul\":568:690   */\n  pop\n  jump\t// out\n    /* \"#utility.yul\":696:839   */\ntag_16:\n    /* \"#utility.yul\":753:758   */\n  0x00\n    /* \"#utility.yul\":784:790   */\n  dup2\n    /* \"#utility.yul\":778:791   */\n  mload\n    /* \"#utility.yul\":769:791   */\n  swap1\n  pop\n    /* \"#utility.yul\":800:833   */\n  tag_28\n    /* \"#utility.yul\":827:832   */\n  dup2\n    /* \"#utility.yul\":800:833   */\n  tag_15\n  jump\t// in\ntag_28:\n    /* \"#utility.yul\":696:839   */\n  swap3\n  swap2\n  pop\n  pop\n  jump\t// out\n    /* \"#utility.yul\":845:1196   */\ntag_3:\n    /* \"#utility.yul\":915:921   */\n  0x00\n    /* \"#utility.yul\":964:966   */\n  0x20\n    /* \"#utility.yul\":952:961   */\n  dup3\n    /* \"#utility.yul\":943:950   */\n  dup5\n    /* \"#utility.yul\":939:962   */\n  sub\n    /* \"#utility.yul\":935:967   */\n  slt\n    /* \"#utility.yul\":932:1051   */\n  iszero\n  tag_30\n  jumpi\n    /* \"#utility.yul\":970:1049   */\n  tag_31\n  tag_11\n  jump\t// in\ntag_31:\n    /* \"#utility.yul\":932:1051   */\ntag_30:\n    /* \"#utility.yul\":1090:1091   */\n  0x00\n    /* \"#utility.yul\":1115:1179   */\n  tag_32\n    /* \"#utility.yul\":1171:1178   */\n  dup5\n    /* \"#utility.yul\":1162:1168   */\n  dup3\n    /* \"#utility.yul\":1151:1160   */\n  dup6\n    /* \"#utility.yul\":1147:1169   */\n  add\n    /* \"#utility.yul\":1115:1179   */\n  tag_16\n  jump\t// in\ntag_32:\n    /* \"#utility.yul\":1105:1179   */\n  swap2\n  pop\n    /* \"#utility.yul\":1061:1189   */\n  pop\n    /* \"#utility.yul\":845:1196   */\n  swap3\n  swap2\n  pop\n  pop\n  jump\t// out\n    /* \"src/ConveyorSwapAggregator.sol\":397:5466  contract ConveyorSwapAggregator {... */\ntag_9:\n  mload(0x80)\n  mload(0xa0)\n  codecopy(0x00, dataOffset(sub_0), dataSize(sub_0))\n  0x00\n  assignImmutable(\"0x3ac7ca38fd21a491cc5fb19169926fdbe6b54822181a3fae6f9aebec8e42713d\")\n  0x00\n  assignImmutable(\"0x74b0a73c8e019485c6bf7a8191beea41ecaf2ae440157a94156a991a62e7d3a5\")\n  return(0x00, dataSize(sub_0))\nstop\n\nsub_0: assembly {\n        /* \"src/ConveyorSwapAggregator.sol\":397:5466  contract ConveyorSwapAggregator {... */\n      mstore(0x40, 0x80)\n      jumpi(tag_1, lt(calldatasize, 0x04))\n      shr(0xe0, calldataload(0x00))\n      dup1\n      0x9450ccfd\n      eq\n      tag_3\n      jumpi\n      dup1\n      0xa9b3f320\n      eq\n      tag_4\n      jumpi\n      dup1\n      0xad5c4648\n      eq\n      tag_5\n      jumpi\n      dup1\n      0xca8b88d8\n      eq\n      tag_6\n      jumpi\n      dup1\n      0xdba3df9c\n      eq\n      tag_7\n      jumpi\n      jump(tag_2)\n    tag_1:\n      jumpi(tag_2, calldatasize)\n      stop\n    tag_2:\n      0x00\n      dup1\n      revert\n        /* \"src/ConveyorSwapAggregator.sol\":3151:5429  function swapExactTokenForEth(... */\n    tag_3:\n      callvalue\n      dup1\n      iszero\n      tag_10\n      jumpi\n      0x00\n      dup1\n      revert\n    tag_10:\n      pop\n      tag_11\n      0x04\n      dup1\n      calldatasize\n      sub\n      dup2\n      add\n      swap1\n      tag_12\n      swap2\n      swap1\n      tag_13\n      jump\t// in\n    tag_12:\n      tag_14\n      jump\t// in\n    tag_11:\n      stop\n        /* \"src/ConveyorSwapAggregator.sol\":1730:3145  function swapExactEthForToken(... */\n    tag_4:\n      tag_15\n      0x04\n      dup1\n      calldatasize\n      sub\n      dup2\n      add\n      swap1\n      tag_16\n      swap2\n      swap1\n      tag_17\n      jump\t// in\n    tag_16:\n      tag_18\n      jump\t// in\n    tag_15:\n      stop\n        /* \"src/ConveyorSwapAggregator.sol\":488:517  address public immutable WETH */\n    tag_5:\n      callvalue\n      dup1\n      iszero\n      tag_19\n      jumpi\n      0x00\n      dup1\n      revert\n    tag_19:\n      pop\n      tag_20\n      tag_21\n      jump\t// in\n    tag_20:\n      mload(0x40)\n      tag_22\n      swap2\n      swap1\n      tag_23\n      jump\t// in\n    tag_22:\n      mload(0x40)\n      dup1\n      swap2\n      sub\n      swap1\n      return\n        /* \"src/ConveyorSwapAggregator.sol\":831:1724  function swap(... */\n    tag_6:\n      callvalue\n      dup1\n      iszero\n      tag_24\n      jumpi\n      0x00\n      dup1\n      revert\n    tag_24:\n      pop\n      tag_25\n      0x04\n      dup1\n      calldatasize\n      sub\n      dup2\n      add\n      swap1\n      tag_26\n      swap2\n      swap1\n      tag_27\n      jump\t// in\n    tag_26:\n      tag_28\n      jump\t// in\n    tag_25:\n      stop\n        /* \"src/ConveyorSwapAggregator.sol\":435:482  address public immutable CONVEYOR_SWAP_EXECUTOR */\n    tag_7:\n      callvalue\n      dup1\n      iszero\n      tag_29\n      jumpi\n      0x00\n      dup1\n      revert\n    tag_29:\n      pop\n      tag_30\n      tag_31\n      jump\t// in\n    tag_30:\n      mload(0x40)\n      tag_32\n      swap2\n      swap1\n      tag_23\n      jump\t// in\n    tag_32:\n      mload(0x40)\n      dup1\n      swap2\n      sub\n      swap1\n      return\n        /* \"src/ConveyorSwapAggregator.sol\":3151:5429  function swapExactTokenForEth(... */\n    tag_14:\n        /* \"src/ConveyorSwapAggregator.sol\":3360:3367  tokenIn */\n      dup4\n        /* \"src/ConveyorSwapAggregator.sol\":3353:3381  IERC20(tokenIn).transferFrom */\n      0xffffffffffffffffffffffffffffffffffffffff\n      and\n      0x23b872dd\n        /* \"src/ConveyorSwapAggregator.sol\":3395:3405  msg.sender */\n      caller\n        /* \"src/ConveyorSwapAggregator.sol\":3419:3442  swapAggregatorMulticall */\n      dup4\n        /* \"src/ConveyorSwapAggregator.sol\":3419:3461  swapAggregatorMulticall.tokenInDestination */\n      0x00\n      add\n      0x20\n      dup2\n      add\n      swap1\n      tag_34\n      swap2\n      swap1\n      tag_35\n      jump\t// in\n    tag_34:\n        /* \"src/ConveyorSwapAggregator.sol\":3475:3483  amountIn */\n      dup7\n        /* \"src/ConveyorSwapAggregator.sol\":3353:3493  IERC20(tokenIn).transferFrom(... */\n      mload(0x40)\n      dup5\n      0xffffffff\n      and\n      0xe0\n      shl\n      dup2\n      mstore\n      0x04\n      add\n      tag_36\n      swap4\n      swap3\n      swap2\n      swap1\n      tag_37\n      jump\t// in\n    tag_36:\n      0x20\n      mload(0x40)\n      dup1\n      dup4\n      sub\n      dup2\n      0x00\n      dup8\n      gas\n      call\n      iszero\n      dup1\n      iszero\n      tag_39\n      jumpi\n      returndatasize\n      0x00\n      dup1\n      returndatacopy\n      revert(0x00, returndatasize)\n    tag_39:\n      pop\n      pop\n      pop\n      pop\n      mload(0x40)\n      returndatasize\n      not(0x1f)\n      0x1f\n      dup3\n      add\n      and\n      dup3\n      add\n      dup1\n      0x40\n      mstore\n      pop\n      dup2\n      add\n      swap1\n      tag_40\n      swap2\n      swap1\n      tag_41\n      jump\t// in\n    tag_40:\n      pop\n        /* \"src/ConveyorSwapAggregator.sol\":3504:3529  uint256 amountOutRequired */\n      0x00\n        /* \"src/ConveyorSwapAggregator.sol\":3602:3614  amountOutMin */\n      dup3\n        /* \"src/ConveyorSwapAggregator.sol\":3587:3600  selfbalance() */\n      selfbalance\n        /* \"src/ConveyorSwapAggregator.sol\":3583:3615  add(selfbalance(), amountOutMin) */\n      add\n        /* \"src/ConveyorSwapAggregator.sol\":3562:3615  amountOutRequired := add(selfbalance(), amountOutMin) */\n      swap1\n      pop\n        /* \"src/ConveyorSwapAggregator.sol\":3657:3679  CONVEYOR_SWAP_EXECUTOR */\n      immutable(\"0x74b0a73c8e019485c6bf7a8191beea41ecaf2ae440157a94156a991a62e7d3a5\")\n        /* \"src/ConveyorSwapAggregator.sol\":3635:3697  IConveyorSwapExecutor(CONVEYOR_SWAP_EXECUTOR).executeMulticall */\n      0xffffffffffffffffffffffffffffffffffffffff\n      and\n      0x1706756f\n        /* \"src/ConveyorSwapAggregator.sol\":3711:3734  swapAggregatorMulticall */\n      dup4\n        /* \"src/ConveyorSwapAggregator.sol\":3711:3740  swapAggregatorMulticall.calls */\n      dup1\n      0x20\n      add\n      swap1\n      tag_42\n      swap2\n      swap1\n      tag_43\n      jump\t// in\n    tag_42:\n        /* \"src/ConveyorSwapAggregator.sol\":3635:3750  IConveyorSwapExecutor(CONVEYOR_SWAP_EXECUTOR).executeMulticall(... */\n      mload(0x40)\n      dup4\n      0xffffffff\n      and\n      0xe0\n      shl\n      dup2\n      mstore\n      0x04\n      add\n      tag_44\n      swap3\n      swap2\n      swap1\n      tag_45\n      jump\t// in\n    tag_44:\n      0x00\n      mload(0x40)\n      dup1\n      dup4\n      sub\n      dup2\n      0x00\n      dup8\n      dup1\n      extcodesize\n      iszero\n      dup1\n      iszero\n      tag_46\n      jumpi\n      0x00\n      dup1\n      revert\n    tag_46:\n      pop\n      gas\n      call\n      iszero\n      dup1\n      iszero\n      tag_48\n      jumpi\n      returndatasize\n      0x00\n      dup1\n      returndatacopy\n      revert(0x00, returndatasize)\n    tag_48:\n      pop\n      pop\n      pop\n      pop\n        /* \"src/ConveyorSwapAggregator.sol\":3761:3776  bool sufficient */\n      0x00\n        /* \"src/ConveyorSwapAggregator.sol\":3786:3806  bool transferSuccess */\n      dup1\n        /* \"src/ConveyorSwapAggregator.sol\":3816:3835  uint256 balanceWeth */\n      0x00\n        /* \"src/ConveyorSwapAggregator.sol\":3845:3849  WETH */\n      immutable(\"0x3ac7ca38fd21a491cc5fb19169926fdbe6b54822181a3fae6f9aebec8e42713d\")\n        /* \"src/ConveyorSwapAggregator.sol\":3838:3860  IERC20(WETH).balanceOf */\n      0xffffffffffffffffffffffffffffffffffffffff\n      and\n      0x70a08231\n        /* \"src/ConveyorSwapAggregator.sol\":3869:3873  this */\n      address\n        /* \"src/ConveyorSwapAggregator.sol\":3838:3875  IERC20(WETH).balanceOf(address(this)) */\n      mload(0x40)\n      dup3\n      0xffffffff\n      and\n      0xe0\n      shl\n      dup2\n      mstore\n      0x04\n      add\n      tag_49\n      swap2\n      swap1\n      tag_23\n      jump\t// in\n    tag_49:\n      0x20\n      mload(0x40)\n      dup1\n      dup4\n      sub\n      dup2\n      dup7\n      gas\n      staticcall\n      iszero\n      dup1\n      iszero\n      tag_51\n      jumpi\n      returndatasize\n      0x00\n      dup1\n      returndatacopy\n      revert(0x00, returndatasize)\n    tag_51:\n      pop\n      pop\n      pop\n      pop\n      mload(0x40)\n      returndatasize\n      not(0x1f)\n      0x1f\n      dup3\n      add\n      and\n      dup3\n      add\n      dup1\n      0x40\n      mstore\n      pop\n      dup2\n      add\n      swap1\n      tag_52\n      swap2\n      swap1\n      tag_53\n      jump\t// in\n    tag_52:\n        /* \"src/ConveyorSwapAggregator.sol\":3816:3875  uint256 balanceWeth = IERC20(WETH).balanceOf(address(this)) */\n      swap1\n      pop\n        /* \"src/ConveyorSwapAggregator.sol\":3886:3899  address _weth */\n      0x00\n        /* \"src/ConveyorSwapAggregator.sol\":3902:3906  WETH */\n      immutable(\"0x3ac7ca38fd21a491cc5fb19169926fdbe6b54822181a3fae6f9aebec8e42713d\")\n        /* \"src/ConveyorSwapAggregator.sol\":3886:3906  address _weth = WETH */\n      swap1\n      pop\n        /* \"src/ConveyorSwapAggregator.sol\":3960:3970  0x2e1a7d4d */\n      0x2e1a7d4d\n        /* \"src/ConveyorSwapAggregator.sol\":3955:3958  224 */\n      0xe0\n        /* \"src/ConveyorSwapAggregator.sol\":3951:3971  shl(224, 0x2e1a7d4d) */\n      shl\n        /* \"src/ConveyorSwapAggregator.sol\":3946:3949  0x0 */\n      0x00\n        /* \"src/ConveyorSwapAggregator.sol\":3939:3972  mstore(0x0, shl(224, 0x2e1a7d4d)) */\n      mstore\n        /* \"src/ConveyorSwapAggregator.sol\":3995:4006  balanceWeth */\n      dup2\n        /* \"src/ConveyorSwapAggregator.sol\":3992:3993  4 */\n      0x04\n        /* \"src/ConveyorSwapAggregator.sol\":3985:4007  mstore(4, balanceWeth) */\n      mstore\n        /* \"src/ConveyorSwapAggregator.sol\":4270:4271  0 */\n      0x00\n        /* \"src/ConveyorSwapAggregator.sol\":4233:4234  0 */\n      dup1\n        /* \"src/ConveyorSwapAggregator.sol\":4196:4198  68 */\n      0x44\n        /* \"src/ConveyorSwapAggregator.sol\":4160:4161  0 */\n      0x00\n        /* \"src/ConveyorSwapAggregator.sol\":4127:4128  0 */\n      dup1\n        /* \"src/ConveyorSwapAggregator.sol\":4100:4105  _weth */\n      dup6\n        /* \"src/ConveyorSwapAggregator.sol\":4073:4078  gas() */\n      gas\n        /* \"src/ConveyorSwapAggregator.sol\":4047:4304  call(... */\n      call\n        /* \"src/ConveyorSwapAggregator.sol\":4020:4402  if iszero(... */\n      tag_54\n      jumpi\n        /* \"src/ConveyorSwapAggregator.sol\":4376:4387  balanceWeth */\n      dup2\n        /* \"src/ConveyorSwapAggregator.sol\":4344:4374  \"Native Token Withdraw failed\" */\n      0x4e617469766520546f6b656e205769746864726177206661696c656400000000\n        /* \"src/ConveyorSwapAggregator.sol\":4337:4388  revert(\"Native Token Withdraw failed\", balanceWeth) */\n      revert\n        /* \"src/ConveyorSwapAggregator.sol\":4020:4402  if iszero(... */\n    tag_54:\n        /* \"src/ConveyorSwapAggregator.sol\":4459:4472  selfbalance() */\n      selfbalance\n        /* \"src/ConveyorSwapAggregator.sol\":4440:4457  amountOutRequired */\n      dup6\n        /* \"src/ConveyorSwapAggregator.sol\":4437:4473  lt(amountOutRequired, selfbalance()) */\n      lt\n        /* \"src/ConveyorSwapAggregator.sol\":4430:4474  iszero(lt(amountOutRequired, selfbalance())) */\n      iszero\n        /* \"src/ConveyorSwapAggregator.sol\":4416:4474  sufficient := iszero(lt(amountOutRequired, selfbalance())) */\n      swap4\n      pop\n        /* \"src/ConveyorSwapAggregator.sol\":4491:4501  sufficient */\n      dup4\n        /* \"src/ConveyorSwapAggregator.sol\":4488:5166  if sufficient {... */\n      iszero\n      tag_55\n      jumpi\n        /* \"src/ConveyorSwapAggregator.sol\":4574:4640  0xa9059cbb00000000000000000000000000000000000000000000000000000000 */\n      0xa9059cbb00000000000000000000000000000000000000000000000000000000\n        /* \"src/ConveyorSwapAggregator.sol\":4548:4552  0x00 */\n      0x00\n        /* \"src/ConveyorSwapAggregator.sol\":4520:4658  mstore(... */\n      mstore\n        /* \"src/ConveyorSwapAggregator.sol\":4686:4694  caller() */\n      caller\n        /* \"src/ConveyorSwapAggregator.sol\":4683:4684  4 */\n      0x04\n        /* \"src/ConveyorSwapAggregator.sol\":4676:4695  mstore(4, caller()) */\n      mstore\n        /* \"src/ConveyorSwapAggregator.sol\":4723:4736  selfbalance() */\n      selfbalance\n        /* \"src/ConveyorSwapAggregator.sol\":4719:4721  36 */\n      0x24\n        /* \"src/ConveyorSwapAggregator.sol\":4712:4737  mstore(36, selfbalance()) */\n      mstore\n        /* \"src/ConveyorSwapAggregator.sol\":5036:5037  0 */\n      0x00\n        /* \"src/ConveyorSwapAggregator.sol\":4995:4996  0 */\n      dup1\n        /* \"src/ConveyorSwapAggregator.sol\":4954:4956  68 */\n      0x44\n        /* \"src/ConveyorSwapAggregator.sol\":4914:4915  0 */\n      0x00\n        /* \"src/ConveyorSwapAggregator.sol\":4877:4878  0 */\n      dup1\n        /* \"src/ConveyorSwapAggregator.sol\":4841:4842  0 */\n      0x00\n        /* \"src/ConveyorSwapAggregator.sol\":4810:4815  gas() */\n      gas\n        /* \"src/ConveyorSwapAggregator.sol\":4780:5074  call(... */\n      call\n        /* \"src/ConveyorSwapAggregator.sol\":4755:5092  pop(... */\n      pop\n        /* \"src/ConveyorSwapAggregator.sol\":5135:5151  returndatasize() */\n      returndatasize\n        /* \"src/ConveyorSwapAggregator.sol\":5128:5152  iszero(returndatasize()) */\n      iszero\n        /* \"src/ConveyorSwapAggregator.sol\":5109:5152  transferSuccess := iszero(returndatasize()) */\n      swap3\n      pop\n        /* \"src/ConveyorSwapAggregator.sol\":4488:5166  if sufficient {... */\n    tag_55:\n        /* \"src/ConveyorSwapAggregator.sol\":5191:5201  sufficient */\n      dup4\n        /* \"src/ConveyorSwapAggregator.sol\":5186:5362  if (!sufficient) {... */\n      tag_56\n      jumpi\n        /* \"src/ConveyorSwapAggregator.sol\":5286:5307  address(this).balance */\n      selfbalance\n        /* \"src/ConveyorSwapAggregator.sol\":5266:5283  amountOutRequired */\n      dup6\n        /* \"src/ConveyorSwapAggregator.sol\":5266:5307  amountOutRequired - address(this).balance */\n      tag_57\n      swap2\n      swap1\n      tag_58\n      jump\t// in\n    tag_57:\n        /* \"src/ConveyorSwapAggregator.sol\":5325:5337  amountOutMin */\n      dup8\n        /* \"src/ConveyorSwapAggregator.sol\":5224:5351  InsufficientOutputAmount(... */\n      mload(0x40)\n      0xd28d3eb500000000000000000000000000000000000000000000000000000000\n      dup2\n      mstore\n      0x04\n      add\n      tag_59\n      swap3\n      swap2\n      swap1\n      tag_60\n      jump\t// in\n    tag_59:\n      mload(0x40)\n      dup1\n      swap2\n      sub\n      swap1\n      revert\n        /* \"src/ConveyorSwapAggregator.sol\":5186:5362  if (!sufficient) {... */\n    tag_56:\n        /* \"src/ConveyorSwapAggregator.sol\":5380:5395  transferSuccess */\n      dup3\n        /* \"src/ConveyorSwapAggregator.sol\":5372:5422  require(transferSuccess, \"Native transfer failed\") */\n      tag_61\n      jumpi\n      mload(0x40)\n      0x08c379a000000000000000000000000000000000000000000000000000000000\n      dup2\n      mstore\n      0x04\n      add\n      tag_62\n      swap1\n      tag_63\n      jump\t// in\n    tag_62:\n      mload(0x40)\n      dup1\n      swap2\n      sub\n      swap1\n      revert\n    tag_61:\n        /* \"src/ConveyorSwapAggregator.sol\":3343:5429  {... */\n      pop\n      pop\n      pop\n      pop\n      pop\n        /* \"src/ConveyorSwapAggregator.sol\":3151:5429  function swapExactTokenForEth(... */\n      pop\n      pop\n      pop\n      pop\n      jump\t// out\n        /* \"src/ConveyorSwapAggregator.sol\":1730:3145  function swapExactEthForToken(... */\n    tag_18:\n        /* \"src/ConveyorSwapAggregator.sol\":1915:1928  address _weth */\n      0x00\n        /* \"src/ConveyorSwapAggregator.sol\":1931:1935  WETH */\n      immutable(\"0x3ac7ca38fd21a491cc5fb19169926fdbe6b54822181a3fae6f9aebec8e42713d\")\n        /* \"src/ConveyorSwapAggregator.sol\":1915:1935  address _weth = WETH */\n      swap1\n      pop\n        /* \"src/ConveyorSwapAggregator.sol\":1989:1999  0xd0e30db0 */\n      0xd0e30db0\n        /* \"src/ConveyorSwapAggregator.sol\":1984:1987  224 */\n      0xe0\n        /* \"src/ConveyorSwapAggregator.sol\":1980:2000  shl(224, 0xd0e30db0) */\n      shl\n        /* \"src/ConveyorSwapAggregator.sol\":1975:1978  0x0 */\n      0x00\n        /* \"src/ConveyorSwapAggregator.sol\":1968:2001  mstore(0x0, shl(224, 0xd0e30db0)) */\n      mstore\n        /* \"src/ConveyorSwapAggregator.sol\":2223:2224  0 */\n      0x00\n        /* \"src/ConveyorSwapAggregator.sol\":2200:2201  0 */\n      dup1\n        /* \"src/ConveyorSwapAggregator.sol\":2177:2178  0 */\n      0x00\n        /* \"src/ConveyorSwapAggregator.sol\":2154:2155  0 */\n      dup1\n        /* \"src/ConveyorSwapAggregator.sol\":2121:2132  callvalue() */\n      callvalue\n        /* \"src/ConveyorSwapAggregator.sol\":2094:2099  _weth */\n      dup6\n        /* \"src/ConveyorSwapAggregator.sol\":2067:2072  gas() */\n      gas\n        /* \"src/ConveyorSwapAggregator.sol\":2041:2242  call(... */\n      call\n        /* \"src/ConveyorSwapAggregator.sol\":2014:2329  if iszero(... */\n      tag_65\n      jumpi\n        /* \"src/ConveyorSwapAggregator.sol\":2313:2314  0 */\n      0x00\n        /* \"src/ConveyorSwapAggregator.sol\":2282:2311  \"Native token deposit failed\" */\n      0x4e617469766520746f6b656e206465706f736974206661696c65640000000000\n        /* \"src/ConveyorSwapAggregator.sol\":2275:2315  revert(\"Native token deposit failed\", 0) */\n      revert\n        /* \"src/ConveyorSwapAggregator.sol\":2014:2329  if iszero(... */\n    tag_65:\n        /* \"src/ConveyorSwapAggregator.sol\":2375:2379  WETH */\n      immutable(\"0x3ac7ca38fd21a491cc5fb19169926fdbe6b54822181a3fae6f9aebec8e42713d\")\n        /* \"src/ConveyorSwapAggregator.sol\":2368:2389  IERC20(WETH).transfer */\n      0xffffffffffffffffffffffffffffffffffffffff\n      and\n      0xa9059cbb\n        /* \"src/ConveyorSwapAggregator.sol\":2403:2426  swapAggregatorMulticall */\n      dup4\n        /* \"src/ConveyorSwapAggregator.sol\":2403:2445  swapAggregatorMulticall.tokenInDestination */\n      0x00\n      add\n      0x20\n      dup2\n      add\n      swap1\n      tag_66\n      swap2\n      swap1\n      tag_35\n      jump\t// in\n    tag_66:\n        /* \"src/ConveyorSwapAggregator.sol\":2459:2468  msg.value */\n      callvalue\n        /* \"src/ConveyorSwapAggregator.sol\":2368:2478  IERC20(WETH).transfer(... */\n      mload(0x40)\n      dup4\n      0xffffffff\n      and\n      0xe0\n      shl\n      dup2\n      mstore\n      0x04\n      add\n      tag_67\n      swap3\n      swap2\n      swap1\n      tag_68\n      jump\t// in\n    tag_67:\n      0x20\n      mload(0x40)\n      dup1\n      dup4\n      sub\n      dup2\n      0x00\n      dup8\n      gas\n      call\n      iszero\n      dup1\n      iszero\n      tag_70\n      jumpi\n      returndatasize\n      0x00\n      dup1\n      returndatacopy\n      revert(0x00, returndatasize)\n    tag_70:\n      pop\n      pop\n      pop\n      pop\n      mload(0x40)\n      returndatasize\n      not(0x1f)\n      0x1f\n      dup3\n      add\n      and\n      dup3\n      add\n      dup1\n      0x40\n      mstore\n      pop\n      dup2\n      add\n      swap1\n      tag_71\n      swap2\n      swap1\n      tag_41\n      jump\t// in\n    tag_71:\n      pop\n        /* \"src/ConveyorSwapAggregator.sol\":2489:2512  uint256 tokenOutBalance */\n      0x00\n        /* \"src/ConveyorSwapAggregator.sol\":2522:2530  tokenOut */\n      dup5\n        /* \"src/ConveyorSwapAggregator.sol\":2515:2541  IERC20(tokenOut).balanceOf */\n      0xffffffffffffffffffffffffffffffffffffffff\n      and\n      0x70a08231\n        /* \"src/ConveyorSwapAggregator.sol\":2542:2552  msg.sender */\n      caller\n        /* \"src/ConveyorSwapAggregator.sol\":2515:2553  IERC20(tokenOut).balanceOf(msg.sender) */\n      mload(0x40)\n      dup3\n      0xffffffff\n      and\n      0xe0\n      shl\n      dup2\n      mstore\n      0x04\n      add\n      tag_72\n      swap2\n      swap1\n      tag_23\n      jump\t// in\n    tag_72:\n      0x20\n      mload(0x40)\n      dup1\n      dup4\n      sub\n      dup2\n      dup7\n      gas\n      staticcall\n      iszero\n      dup1\n      iszero\n      tag_74\n      jumpi\n      returndatasize\n      0x00\n      dup1\n      returndatacopy\n      revert(0x00, returndatasize)\n    tag_74:\n      pop\n      pop\n      pop\n      pop\n      mload(0x40)\n      returndatasize\n      not(0x1f)\n      0x1f\n      dup3\n      add\n      and\n      dup3\n      add\n      dup1\n      0x40\n      mstore\n      pop\n      dup2\n      add\n      swap1\n      tag_75\n      swap2\n      swap1\n      tag_53\n      jump\t// in\n    tag_75:\n        /* \"src/ConveyorSwapAggregator.sol\":2489:2553  uint256 tokenOutBalance = IERC20(tokenOut).balanceOf(msg.sender) */\n      swap1\n      pop\n        /* \"src/ConveyorSwapAggregator.sol\":2563:2593  uint256 tokenOutAmountRequired */\n      0x00\n        /* \"src/ConveyorSwapAggregator.sol\":2614:2626  amountOutMin */\n      dup5\n        /* \"src/ConveyorSwapAggregator.sol\":2596:2611  tokenOutBalance */\n      dup3\n        /* \"src/ConveyorSwapAggregator.sol\":2596:2626  tokenOutBalance + amountOutMin */\n      tag_76\n      swap2\n      swap1\n      tag_77\n      jump\t// in\n    tag_76:\n        /* \"src/ConveyorSwapAggregator.sol\":2563:2626  uint256 tokenOutAmountRequired = tokenOutBalance + amountOutMin */\n      swap1\n      pop\n        /* \"src/ConveyorSwapAggregator.sol\":2659:2681  CONVEYOR_SWAP_EXECUTOR */\n      immutable(\"0x74b0a73c8e019485c6bf7a8191beea41ecaf2ae440157a94156a991a62e7d3a5\")\n        /* \"src/ConveyorSwapAggregator.sol\":2637:2699  IConveyorSwapExecutor(CONVEYOR_SWAP_EXECUTOR).executeMulticall */\n      0xffffffffffffffffffffffffffffffffffffffff\n      and\n      0x1706756f\n        /* \"src/ConveyorSwapAggregator.sol\":2713:2736  swapAggregatorMulticall */\n      dup6\n        /* \"src/ConveyorSwapAggregator.sol\":2713:2742  swapAggregatorMulticall.calls */\n      dup1\n      0x20\n      add\n      swap1\n      tag_78\n      swap2\n      swap1\n      tag_43\n      jump\t// in\n    tag_78:\n        /* \"src/ConveyorSwapAggregator.sol\":2637:2752  IConveyorSwapExecutor(CONVEYOR_SWAP_EXECUTOR).executeMulticall(... */\n      mload(0x40)\n      dup4\n      0xffffffff\n      and\n      0xe0\n      shl\n      dup2\n      mstore\n      0x04\n      add\n      tag_79\n      swap3\n      swap2\n      swap1\n      tag_45\n      jump\t// in\n    tag_79:\n      0x00\n      mload(0x40)\n      dup1\n      dup4\n      sub\n      dup2\n      0x00\n      dup8\n      dup1\n      extcodesize\n      iszero\n      dup1\n      iszero\n      tag_80\n      jumpi\n      0x00\n      dup1\n      revert\n    tag_80:\n      pop\n      gas\n      call\n      iszero\n      dup1\n      iszero\n      tag_82\n      jumpi\n      returndatasize\n      0x00\n      dup1\n      returndatacopy\n      revert(0x00, returndatasize)\n    tag_82:\n      pop\n      pop\n      pop\n      pop\n        /* \"src/ConveyorSwapAggregator.sol\":2763:2778  bool sufficient */\n      0x00\n        /* \"src/ConveyorSwapAggregator.sol\":2788:2806  uint256 balanceOut */\n      dup1\n        /* \"src/ConveyorSwapAggregator.sol\":2816:2824  tokenOut */\n      dup8\n        /* \"src/ConveyorSwapAggregator.sol\":2809:2835  IERC20(tokenOut).balanceOf */\n      0xffffffffffffffffffffffffffffffffffffffff\n      and\n      0x70a08231\n        /* \"src/ConveyorSwapAggregator.sol\":2836:2846  msg.sender */\n      caller\n        /* \"src/ConveyorSwapAggregator.sol\":2809:2847  IERC20(tokenOut).balanceOf(msg.sender) */\n      mload(0x40)\n      dup3\n      0xffffffff\n      and\n      0xe0\n      shl\n      dup2\n      mstore\n      0x04\n      add\n      tag_83\n      swap2\n      swap1\n      tag_23\n      jump\t// in\n    tag_83:\n      0x20\n      mload(0x40)\n      dup1\n      dup4\n      sub\n      dup2\n      dup7\n      gas\n      staticcall\n      iszero\n      dup1\n      iszero\n      tag_85\n      jumpi\n      returndatasize\n      0x00\n      dup1\n      returndatacopy\n      revert(0x00, returndatasize)\n    tag_85:\n      pop\n      pop\n      pop\n      pop\n      mload(0x40)\n      returndatasize\n      not(0x1f)\n      0x1f\n      dup3\n      add\n      and\n      dup3\n      add\n      dup1\n      0x40\n      mstore\n      pop\n      dup2\n      add\n      swap1\n      tag_86\n      swap2\n      swap1\n      tag_53\n      jump\t// in\n    tag_86:\n        /* \"src/ConveyorSwapAggregator.sol\":2788:2847  uint256 balanceOut = IERC20(tokenOut).balanceOf(msg.sender) */\n      swap1\n      pop\n        /* \"src/ConveyorSwapAggregator.sol\":2929:2939  balanceOut */\n      dup1\n        /* \"src/ConveyorSwapAggregator.sol\":2905:2927  tokenOutAmountRequired */\n      dup4\n        /* \"src/ConveyorSwapAggregator.sol\":2902:2940  lt(tokenOutAmountRequired, balanceOut) */\n      lt\n        /* \"src/ConveyorSwapAggregator.sol\":2895:2941  iszero(lt(tokenOutAmountRequired, balanceOut)) */\n      iszero\n        /* \"src/ConveyorSwapAggregator.sol\":2881:2941  sufficient := iszero(lt(tokenOutAmountRequired, balanceOut)) */\n      swap2\n      pop\n        /* \"src/ConveyorSwapAggregator.sol\":2974:2984  sufficient */\n      dup2\n        /* \"src/ConveyorSwapAggregator.sol\":2969:3139  if (!sufficient) {... */\n      tag_87\n      jumpi\n        /* \"src/ConveyorSwapAggregator.sol\":3074:3084  balanceOut */\n      dup1\n        /* \"src/ConveyorSwapAggregator.sol\":3049:3071  tokenOutAmountRequired */\n      dup4\n        /* \"src/ConveyorSwapAggregator.sol\":3049:3084  tokenOutAmountRequired - balanceOut */\n      tag_88\n      swap2\n      swap1\n      tag_58\n      jump\t// in\n    tag_88:\n        /* \"src/ConveyorSwapAggregator.sol\":3102:3114  amountOutMin */\n      dup8\n        /* \"src/ConveyorSwapAggregator.sol\":3007:3128  InsufficientOutputAmount(... */\n      mload(0x40)\n      0xd28d3eb500000000000000000000000000000000000000000000000000000000\n      dup2\n      mstore\n      0x04\n      add\n      tag_89\n      swap3\n      swap2\n      swap1\n      tag_60\n      jump\t// in\n    tag_89:\n      mload(0x40)\n      dup1\n      swap2\n      sub\n      swap1\n      revert\n        /* \"src/ConveyorSwapAggregator.sol\":2969:3139  if (!sufficient) {... */\n    tag_87:\n        /* \"src/ConveyorSwapAggregator.sol\":1905:3145  {... */\n      pop\n      pop\n      pop\n      pop\n      pop\n        /* \"src/ConveyorSwapAggregator.sol\":1730:3145  function swapExactEthForToken(... */\n      pop\n      pop\n      pop\n      jump\t// out\n        /* \"src/ConveyorSwapAggregator.sol\":488:517  address public immutable WETH */\n    tag_21:\n      immutable(\"0x3ac7ca38fd21a491cc5fb19169926fdbe6b54822181a3fae6f9aebec8e42713d\")\n      dup2\n      jump\t// out\n        /* \"src/ConveyorSwapAggregator.sol\":831:1724  function swap(... */\n    tag_28:\n        /* \"src/ConveyorSwapAggregator.sol\":1050:1057  tokenIn */\n      dup5\n        /* \"src/ConveyorSwapAggregator.sol\":1043:1071  IERC20(tokenIn).transferFrom */\n      0xffffffffffffffffffffffffffffffffffffffff\n      and\n      0x23b872dd\n        /* \"src/ConveyorSwapAggregator.sol\":1085:1095  msg.sender */\n      caller\n        /* \"src/ConveyorSwapAggregator.sol\":1109:1132  swapAggregatorMulticall */\n      dup4\n        /* \"src/ConveyorSwapAggregator.sol\":1109:1151  swapAggregatorMulticall.tokenInDestination */\n      0x00\n      add\n      0x20\n      dup2\n      add\n      swap1\n      tag_91\n      swap2\n      swap1\n      tag_35\n      jump\t// in\n    tag_91:\n        /* \"src/ConveyorSwapAggregator.sol\":1165:1173  amountIn */\n      dup8\n        /* \"src/ConveyorSwapAggregator.sol\":1043:1183  IERC20(tokenIn).transferFrom(... */\n      mload(0x40)\n      dup5\n      0xffffffff\n      and\n      0xe0\n      shl\n      dup2\n      mstore\n      0x04\n      add\n      tag_92\n      swap4\n      swap3\n      swap2\n      swap1\n      tag_37\n      jump\t// in\n    tag_92:\n      0x20\n      mload(0x40)\n      dup1\n      dup4\n      sub\n      dup2\n      0x00\n      dup8\n      gas\n      call\n      iszero\n      dup1\n      iszero\n      tag_94\n      jumpi\n      returndatasize\n      0x00\n      dup1\n      returndatacopy\n      revert(0x00, returndatasize)\n    tag_94:\n      pop\n      pop\n      pop\n      pop\n      mload(0x40)\n      returndatasize\n      not(0x1f)\n      0x1f\n      dup3\n      add\n      and\n      dup3\n      add\n      dup1\n      0x40\n      mstore\n      pop\n      dup2\n      add\n      swap1\n      tag_95\n      swap2\n      swap1\n      tag_41\n      jump\t// in\n    tag_95:\n      pop\n        /* \"src/ConveyorSwapAggregator.sol\":1194:1217  uint256 tokenOutBalance */\n      0x00\n        /* \"src/ConveyorSwapAggregator.sol\":1227:1235  tokenOut */\n      dup4\n        /* \"src/ConveyorSwapAggregator.sol\":1220:1246  IERC20(tokenOut).balanceOf */\n      0xffffffffffffffffffffffffffffffffffffffff\n      and\n      0x70a08231\n        /* \"src/ConveyorSwapAggregator.sol\":1247:1257  msg.sender */\n      caller\n        /* \"src/ConveyorSwapAggregator.sol\":1220:1258  IERC20(tokenOut).balanceOf(msg.sender) */\n      mload(0x40)\n      dup3\n      0xffffffff\n      and\n      0xe0\n      shl\n      dup2\n      mstore\n      0x04\n      add\n      tag_96\n      swap2\n      swap1\n      tag_23\n      jump\t// in\n    tag_96:\n      0x20\n      mload(0x40)\n      dup1\n      dup4\n      sub\n      dup2\n      dup7\n      gas\n      staticcall\n      iszero\n      dup1\n      iszero\n      tag_98\n      jumpi\n      returndatasize\n      0x00\n      dup1\n      returndatacopy\n      revert(0x00, returndatasize)\n    tag_98:\n      pop\n      pop\n      pop\n      pop\n      mload(0x40)\n      returndatasize\n      not(0x1f)\n      0x1f\n      dup3\n      add\n      and\n      dup3\n      add\n      dup1\n      0x40\n      mstore\n      pop\n      dup2\n      add\n      swap1\n      tag_99\n      swap2\n      swap1\n      tag_53\n      jump\t// in\n    tag_99:\n        /* \"src/ConveyorSwapAggregator.sol\":1194:1258  uint256 tokenOutBalance = IERC20(tokenOut).balanceOf(msg.sender) */\n      swap1\n      pop\n        /* \"src/ConveyorSwapAggregator.sol\":1268:1298  uint256 tokenOutAmountRequired */\n      0x00\n        /* \"src/ConveyorSwapAggregator.sol\":1319:1331  amountOutMin */\n      dup4\n        /* \"src/ConveyorSwapAggregator.sol\":1301:1316  tokenOutBalance */\n      dup3\n        /* \"src/ConveyorSwapAggregator.sol\":1301:1331  tokenOutBalance + amountOutMin */\n      tag_100\n      swap2\n      swap1\n      tag_77\n      jump\t// in\n    tag_100:\n        /* \"src/ConveyorSwapAggregator.sol\":1268:1331  uint256 tokenOutAmountRequired = tokenOutBalance + amountOutMin */\n      swap1\n      pop\n        /* \"src/ConveyorSwapAggregator.sol\":1364:1386  CONVEYOR_SWAP_EXECUTOR */\n      immutable(\"0x74b0a73c8e019485c6bf7a8191beea41ecaf2ae440157a94156a991a62e7d3a5\")\n        /* \"src/ConveyorSwapAggregator.sol\":1342:1404  IConveyorSwapExecutor(CONVEYOR_SWAP_EXECUTOR).executeMulticall */\n      0xffffffffffffffffffffffffffffffffffffffff\n      and\n      0x1706756f\n        /* \"src/ConveyorSwapAggregator.sol\":1418:1441  swapAggregatorMulticall */\n      dup5\n        /* \"src/ConveyorSwapAggregator.sol\":1418:1447  swapAggregatorMulticall.calls */\n      dup1\n      0x20\n      add\n      swap1\n      tag_101\n      swap2\n      swap1\n      tag_43\n      jump\t// in\n    tag_101:\n        /* \"src/ConveyorSwapAggregator.sol\":1342:1457  IConveyorSwapExecutor(CONVEYOR_SWAP_EXECUTOR).executeMulticall(... */\n      mload(0x40)\n      dup4\n      0xffffffff\n      and\n      0xe0\n      shl\n      dup2\n      mstore\n      0x04\n      add\n      tag_102\n      swap3\n      swap2\n      swap1\n      tag_45\n      jump\t// in\n    tag_102:\n      0x00\n      mload(0x40)\n      dup1\n      dup4\n      sub\n      dup2\n      0x00\n      dup8\n      dup1\n      extcodesize\n      iszero\n      dup1\n      iszero\n      tag_103\n      jumpi\n      0x00\n      dup1\n      revert\n    tag_103:\n      pop\n      gas\n      call\n      iszero\n      dup1\n      iszero\n      tag_105\n      jumpi\n      returndatasize\n      0x00\n      dup1\n      returndatacopy\n      revert(0x00, returndatasize)\n    tag_105:\n      pop\n      pop\n      pop\n      pop\n        /* \"src/ConveyorSwapAggregator.sol\":1513:1535  tokenOutAmountRequired */\n      dup1\n        /* \"src/ConveyorSwapAggregator.sol\":1479:1487  tokenOut */\n      dup6\n        /* \"src/ConveyorSwapAggregator.sol\":1472:1498  IERC20(tokenOut).balanceOf */\n      0xffffffffffffffffffffffffffffffffffffffff\n      and\n      0x70a08231\n        /* \"src/ConveyorSwapAggregator.sol\":1499:1509  msg.sender */\n      caller\n        /* \"src/ConveyorSwapAggregator.sol\":1472:1510  IERC20(tokenOut).balanceOf(msg.sender) */\n      mload(0x40)\n      dup3\n      0xffffffff\n      and\n      0xe0\n      shl\n      dup2\n      mstore\n      0x04\n      add\n      tag_106\n      swap2\n      swap1\n      tag_23\n      jump\t// in\n    tag_106:\n      0x20\n      mload(0x40)\n      dup1\n      dup4\n      sub\n      dup2\n      dup7\n      gas\n      staticcall\n      iszero\n      dup1\n      iszero\n      tag_108\n      jumpi\n      returndatasize\n      0x00\n      dup1\n      returndatacopy\n      revert(0x00, returndatasize)\n    tag_108:\n      pop\n      pop\n      pop\n      pop\n      mload(0x40)\n      returndatasize\n      not(0x1f)\n      0x1f\n      dup3\n      add\n      and\n      dup3\n      add\n      dup1\n      0x40\n      mstore\n      pop\n      dup2\n      add\n      swap1\n      tag_109\n      swap2\n      swap1\n      tag_53\n      jump\t// in\n    tag_109:\n        /* \"src/ConveyorSwapAggregator.sol\":1472:1535  IERC20(tokenOut).balanceOf(msg.sender) < tokenOutAmountRequired */\n      lt\n        /* \"src/ConveyorSwapAggregator.sol\":1468:1718  if (IERC20(tokenOut).balanceOf(msg.sender) < tokenOutAmountRequired) {... */\n      iszero\n      tag_110\n      jumpi\n        /* \"src/ConveyorSwapAggregator.sol\":1632:1640  tokenOut */\n      dup5\n        /* \"src/ConveyorSwapAggregator.sol\":1625:1651  IERC20(tokenOut).balanceOf */\n      0xffffffffffffffffffffffffffffffffffffffff\n      and\n      0x70a08231\n        /* \"src/ConveyorSwapAggregator.sol\":1652:1662  msg.sender */\n      caller\n        /* \"src/ConveyorSwapAggregator.sol\":1625:1663  IERC20(tokenOut).balanceOf(msg.sender) */\n      mload(0x40)\n      dup3\n      0xffffffff\n      and\n      0xe0\n      shl\n      dup2\n      mstore\n      0x04\n      add\n      tag_111\n      swap2\n      swap1\n      tag_23\n      jump\t// in\n    tag_111:\n      0x20\n      mload(0x40)\n      dup1\n      dup4\n      sub\n      dup2\n      dup7\n      gas\n      staticcall\n      iszero\n      dup1\n      iszero\n      tag_113\n      jumpi\n      returndatasize\n      0x00\n      dup1\n      returndatacopy\n      revert(0x00, returndatasize)\n    tag_113:\n      pop\n      pop\n      pop\n      pop\n      mload(0x40)\n      returndatasize\n      not(0x1f)\n      0x1f\n      dup3\n      add\n      and\n      dup3\n      add\n      dup1\n      0x40\n      mstore\n      pop\n      dup2\n      add\n      swap1\n      tag_114\n      swap2\n      swap1\n      tag_53\n      jump\t// in\n    tag_114:\n        /* \"src/ConveyorSwapAggregator.sol\":1600:1622  tokenOutAmountRequired */\n      dup2\n        /* \"src/ConveyorSwapAggregator.sol\":1600:1663  tokenOutAmountRequired - IERC20(tokenOut).balanceOf(msg.sender) */\n      tag_115\n      swap2\n      swap1\n      tag_58\n      jump\t// in\n    tag_115:\n        /* \"src/ConveyorSwapAggregator.sol\":1681:1693  amountOutMin */\n      dup5\n        /* \"src/ConveyorSwapAggregator.sol\":1558:1707  InsufficientOutputAmount(... */\n      mload(0x40)\n      0xd28d3eb500000000000000000000000000000000000000000000000000000000\n      dup2\n      mstore\n      0x04\n      add\n      tag_116\n      swap3\n      swap2\n      swap1\n      tag_60\n      jump\t// in\n    tag_116:\n      mload(0x40)\n      dup1\n      swap2\n      sub\n      swap1\n      revert\n        /* \"src/ConveyorSwapAggregator.sol\":1468:1718  if (IERC20(tokenOut).balanceOf(msg.sender) < tokenOutAmountRequired) {... */\n    tag_110:\n        /* \"src/ConveyorSwapAggregator.sol\":1033:1724  {... */\n      pop\n      pop\n        /* \"src/ConveyorSwapAggregator.sol\":831:1724  function swap(... */\n      pop\n      pop\n      pop\n      pop\n      pop\n      jump\t// out\n        /* \"src/ConveyorSwapAggregator.sol\":435:482  address public immutable CONVEYOR_SWAP_EXECUTOR */\n    tag_31:\n      immutable(\"0x74b0a73c8e019485c6bf7a8191beea41ecaf2ae440157a94156a991a62e7d3a5\")\n      dup2\n      jump\t// out\n        /* \"#utility.yul\":88:205   */\n    tag_118:\n        /* \"#utility.yul\":197:198   */\n      0x00\n        /* \"#utility.yul\":194:195   */\n      dup1\n        /* \"#utility.yul\":187:199   */\n      revert\n        /* \"#utility.yul\":211:328   */\n    tag_119:\n        /* \"#utility.yul\":320:321   */\n      0x00\n        /* \"#utility.yul\":317:318   */\n      dup1\n        /* \"#utility.yul\":310:322   */\n      revert\n        /* \"#utility.yul\":334:460   */\n    tag_120:\n        /* \"#utility.yul\":371:378   */\n      0x00\n        /* \"#utility.yul\":411:453   */\n      0xffffffffffffffffffffffffffffffffffffffff\n        /* \"#utility.yul\":404:409   */\n      dup3\n        /* \"#utility.yul\":400:454   */\n      and\n        /* \"#utility.yul\":389:454   */\n      swap1\n      pop\n        /* \"#utility.yul\":334:460   */\n      swap2\n      swap1\n      pop\n      jump\t// out\n        /* \"#utility.yul\":466:562   */\n    tag_121:\n        /* \"#utility.yul\":503:510   */\n      0x00\n        /* \"#utility.yul\":532:556   */\n      tag_165\n        /* \"#utility.yul\":550:555   */\n      dup3\n        /* \"#utility.yul\":532:556   */\n      tag_120\n      jump\t// in\n    tag_165:\n        /* \"#utility.yul\":521:556   */\n      swap1\n      pop\n        /* \"#utility.yul\":466:562   */\n      swap2\n      swap1\n      pop\n      jump\t// out\n        /* \"#utility.yul\":568:690   */\n    tag_122:\n        /* \"#utility.yul\":641:665   */\n      tag_167\n        /* \"#utility.yul\":659:664   */\n      dup2\n        /* \"#utility.yul\":641:665   */\n      tag_121\n      jump\t// in\n    tag_167:\n        /* \"#utility.yul\":634:639   */\n      dup2\n        /* \"#utility.yul\":631:666   */\n      eq\n        /* \"#utility.yul\":621:684   */\n      tag_168\n      jumpi\n        /* \"#utility.yul\":680:681   */\n      0x00\n        /* \"#utility.yul\":677:678   */\n      dup1\n        /* \"#utility.yul\":670:682   */\n      revert\n        /* \"#utility.yul\":621:684   */\n    tag_168:\n        /* \"#utility.yul\":568:690   */\n      pop\n      jump\t// out\n        /* \"#utility.yul\":696:835   */\n    tag_123:\n        /* \"#utility.yul\":742:747   */\n      0x00\n        /* \"#utility.yul\":780:786   */\n      dup2\n        /* \"#utility.yul\":767:787   */\n      calldataload\n        /* \"#utility.yul\":758:787   */\n      swap1\n      pop\n        /* \"#utility.yul\":796:829   */\n      tag_170\n        /* \"#utility.yul\":823:828   */\n      dup2\n        /* \"#utility.yul\":796:829   */\n      tag_122\n      jump\t// in\n    tag_170:\n        /* \"#utility.yul\":696:835   */\n      swap3\n      swap2\n      pop\n      pop\n      jump\t// out\n        /* \"#utility.yul\":841:918   */\n    tag_124:\n        /* \"#utility.yul\":878:885   */\n      0x00\n        /* \"#utility.yul\":907:912   */\n      dup2\n        /* \"#utility.yul\":896:912   */\n      swap1\n      pop\n        /* \"#utility.yul\":841:918   */\n      swap2\n      swap1\n      pop\n      jump\t// out\n        /* \"#utility.yul\":924:1046   */\n    tag_125:\n        /* \"#utility.yul\":997:1021   */\n      tag_173\n        /* \"#utility.yul\":1015:1020   */\n      dup2\n        /* \"#utility.yul\":997:1021   */\n      tag_124\n      jump\t// in\n    tag_173:\n        /* \"#utility.yul\":990:995   */\n      dup2\n        /* \"#utility.yul\":987:1022   */\n      eq\n        /* \"#utility.yul\":977:1040   */\n      tag_174\n      jumpi\n        /* \"#utility.yul\":1036:1037   */\n      0x00\n        /* \"#utility.yul\":1033:1034   */\n      dup1\n        /* \"#utility.yul\":1026:1038   */\n      revert\n        /* \"#utility.yul\":977:1040   */\n    tag_174:\n        /* \"#utility.yul\":924:1046   */\n      pop\n      jump\t// out\n        /* \"#utility.yul\":1052:1191   */\n    tag_126:\n        /* \"#utility.yul\":1098:1103   */\n      0x00\n        /* \"#utility.yul\":1136:1142   */\n      dup2\n        /* \"#utility.yul\":1123:1143   */\n      calldataload\n        /* \"#utility.yul\":1114:1143   */\n      swap1\n      pop\n        /* \"#utility.yul\":1152:1185   */\n      tag_176\n        /* \"#utility.yul\":1179:1184   */\n      dup2\n        /* \"#utility.yul\":1152:1185   */\n      tag_125\n      jump\t// in\n    tag_176:\n        /* \"#utility.yul\":1052:1191   */\n      swap3\n      swap2\n      pop\n      pop\n      jump\t// out\n        /* \"#utility.yul\":1197:1314   */\n    tag_127:\n        /* \"#utility.yul\":1306:1307   */\n      0x00\n        /* \"#utility.yul\":1303:1304   */\n      dup1\n        /* \"#utility.yul\":1296:1308   */\n      revert\n        /* \"#utility.yul\":1381:1627   */\n    tag_128:\n        /* \"#utility.yul\":1469:1474   */\n      0x00\n        /* \"#utility.yul\":1510:1512   */\n      0x40\n        /* \"#utility.yul\":1501:1507   */\n      dup3\n        /* \"#utility.yul\":1496:1499   */\n      dup5\n        /* \"#utility.yul\":1492:1508   */\n      sub\n        /* \"#utility.yul\":1488:1513   */\n      slt\n        /* \"#utility.yul\":1485:1597   */\n      iszero\n      tag_179\n      jumpi\n        /* \"#utility.yul\":1516:1595   */\n      tag_180\n      tag_127\n      jump\t// in\n    tag_180:\n        /* \"#utility.yul\":1485:1597   */\n    tag_179:\n        /* \"#utility.yul\":1615:1621   */\n      dup2\n        /* \"#utility.yul\":1606:1621   */\n      swap1\n      pop\n        /* \"#utility.yul\":1381:1627   */\n      swap3\n      swap2\n      pop\n      pop\n      jump\t// out\n        /* \"#utility.yul\":1633:2642   */\n    tag_13:\n        /* \"#utility.yul\":1761:1767   */\n      0x00\n        /* \"#utility.yul\":1769:1775   */\n      dup1\n        /* \"#utility.yul\":1777:1783   */\n      0x00\n        /* \"#utility.yul\":1785:1791   */\n      dup1\n        /* \"#utility.yul\":1834:1837   */\n      0x80\n        /* \"#utility.yul\":1822:1831   */\n      dup6\n        /* \"#utility.yul\":1813:1820   */\n      dup8\n        /* \"#utility.yul\":1809:1832   */\n      sub\n        /* \"#utility.yul\":1805:1838   */\n      slt\n        /* \"#utility.yul\":1802:1922   */\n      iszero\n      tag_182\n      jumpi\n        /* \"#utility.yul\":1841:1920   */\n      tag_183\n      tag_118\n      jump\t// in\n    tag_183:\n        /* \"#utility.yul\":1802:1922   */\n    tag_182:\n        /* \"#utility.yul\":1961:1962   */\n      0x00\n        /* \"#utility.yul\":1986:2039   */\n      tag_184\n        /* \"#utility.yul\":2031:2038   */\n      dup8\n        /* \"#utility.yul\":2022:2028   */\n      dup3\n        /* \"#utility.yul\":2011:2020   */\n      dup9\n        /* \"#utility.yul\":2007:2029   */\n      add\n        /* \"#utility.yul\":1986:2039   */\n      tag_123\n      jump\t// in\n    tag_184:\n        /* \"#utility.yul\":1976:2039   */\n      swap5\n      pop\n        /* \"#utility.yul\":1932:2049   */\n      pop\n        /* \"#utility.yul\":2088:2090   */\n      0x20\n        /* \"#utility.yul\":2114:2167   */\n      tag_185\n        /* \"#utility.yul\":2159:2166   */\n      dup8\n        /* \"#utility.yul\":2150:2156   */\n      dup3\n        /* \"#utility.yul\":2139:2148   */\n      dup9\n        /* \"#utility.yul\":2135:2157   */\n      add\n        /* \"#utility.yul\":2114:2167   */\n      tag_126\n      jump\t// in\n    tag_185:\n        /* \"#utility.yul\":2104:2167   */\n      swap4\n      pop\n        /* \"#utility.yul\":2059:2177   */\n      pop\n        /* \"#utility.yul\":2216:2218   */\n      0x40\n        /* \"#utility.yul\":2242:2295   */\n      tag_186\n        /* \"#utility.yul\":2287:2294   */\n      dup8\n        /* \"#utility.yul\":2278:2284   */\n      dup3\n        /* \"#utility.yul\":2267:2276   */\n      dup9\n        /* \"#utility.yul\":2263:2285   */\n      add\n        /* \"#utility.yul\":2242:2295   */\n      tag_126\n      jump\t// in\n    tag_186:\n        /* \"#utility.yul\":2232:2295   */\n      swap3\n      pop\n        /* \"#utility.yul\":2187:2305   */\n      pop\n        /* \"#utility.yul\":2372:2374   */\n      0x60\n        /* \"#utility.yul\":2361:2370   */\n      dup6\n        /* \"#utility.yul\":2357:2375   */\n      add\n        /* \"#utility.yul\":2344:2376   */\n      calldataload\n        /* \"#utility.yul\":2403:2421   */\n      0xffffffffffffffff\n        /* \"#utility.yul\":2395:2401   */\n      dup2\n        /* \"#utility.yul\":2392:2422   */\n      gt\n        /* \"#utility.yul\":2389:2506   */\n      iszero\n      tag_187\n      jumpi\n        /* \"#utility.yul\":2425:2504   */\n      tag_188\n      tag_119\n      jump\t// in\n    tag_188:\n        /* \"#utility.yul\":2389:2506   */\n    tag_187:\n        /* \"#utility.yul\":2530:2625   */\n      tag_189\n        /* \"#utility.yul\":2617:2624   */\n      dup8\n        /* \"#utility.yul\":2608:2614   */\n      dup3\n        /* \"#utility.yul\":2597:2606   */\n      dup9\n        /* \"#utility.yul\":2593:2615   */\n      add\n        /* \"#utility.yul\":2530:2625   */\n      tag_128\n      jump\t// in\n    tag_189:\n        /* \"#utility.yul\":2520:2625   */\n      swap2\n      pop\n        /* \"#utility.yul\":2315:2635   */\n      pop\n        /* \"#utility.yul\":1633:2642   */\n      swap3\n      swap6\n      swap2\n      swap5\n      pop\n      swap3\n      pop\n      jump\t// out\n        /* \"#utility.yul\":2648:3511   */\n    tag_17:\n        /* \"#utility.yul\":2767:2773   */\n      0x00\n        /* \"#utility.yul\":2775:2781   */\n      dup1\n        /* \"#utility.yul\":2783:2789   */\n      0x00\n        /* \"#utility.yul\":2832:2834   */\n      0x60\n        /* \"#utility.yul\":2820:2829   */\n      dup5\n        /* \"#utility.yul\":2811:2818   */\n      dup7\n        /* \"#utility.yul\":2807:2830   */\n      sub\n        /* \"#utility.yul\":2803:2835   */\n      slt\n        /* \"#utility.yul\":2800:2919   */\n      iszero\n      tag_191\n      jumpi\n        /* \"#utility.yul\":2838:2917   */\n      tag_192\n      tag_118\n      jump\t// in\n    tag_192:\n        /* \"#utility.yul\":2800:2919   */\n    tag_191:\n        /* \"#utility.yul\":2958:2959   */\n      0x00\n        /* \"#utility.yul\":2983:3036   */\n      tag_193\n        /* \"#utility.yul\":3028:3035   */\n      dup7\n        /* \"#utility.yul\":3019:3025   */\n      dup3\n        /* \"#utility.yul\":3008:3017   */\n      dup8\n        /* \"#utility.yul\":3004:3026   */\n      add\n        /* \"#utility.yul\":2983:3036   */\n      tag_123\n      jump\t// in\n    tag_193:\n        /* \"#utility.yul\":2973:3036   */\n      swap4\n      pop\n        /* \"#utility.yul\":2929:3046   */\n      pop\n        /* \"#utility.yul\":3085:3087   */\n      0x20\n        /* \"#utility.yul\":3111:3164   */\n      tag_194\n        /* \"#utility.yul\":3156:3163   */\n      dup7\n        /* \"#utility.yul\":3147:3153   */\n      dup3\n        /* \"#utility.yul\":3136:3145   */\n      dup8\n        /* \"#utility.yul\":3132:3154   */\n      add\n        /* \"#utility.yul\":3111:3164   */\n      tag_126\n      jump\t// in\n    tag_194:\n        /* \"#utility.yul\":3101:3164   */\n      swap3\n      pop\n        /* \"#utility.yul\":3056:3174   */\n      pop\n        /* \"#utility.yul\":3241:3243   */\n      0x40\n        /* \"#utility.yul\":3230:3239   */\n      dup5\n        /* \"#utility.yul\":3226:3244   */\n      add\n        /* \"#utility.yul\":3213:3245   */\n      calldataload\n        /* \"#utility.yul\":3272:3290   */\n      0xffffffffffffffff\n        /* \"#utility.yul\":3264:3270   */\n      dup2\n        /* \"#utility.yul\":3261:3291   */\n      gt\n        /* \"#utility.yul\":3258:3375   */\n      iszero\n      tag_195\n      jumpi\n        /* \"#utility.yul\":3294:3373   */\n      tag_196\n      tag_119\n      jump\t// in\n    tag_196:\n        /* \"#utility.yul\":3258:3375   */\n    tag_195:\n        /* \"#utility.yul\":3399:3494   */\n      tag_197\n        /* \"#utility.yul\":3486:3493   */\n      dup7\n        /* \"#utility.yul\":3477:3483   */\n      dup3\n        /* \"#utility.yul\":3466:3475   */\n      dup8\n        /* \"#utility.yul\":3462:3484   */\n      add\n        /* \"#utility.yul\":3399:3494   */\n      tag_128\n      jump\t// in\n    tag_197:\n        /* \"#utility.yul\":3389:3494   */\n      swap2\n      pop\n        /* \"#utility.yul\":3184:3504   */\n      pop\n        /* \"#utility.yul\":2648:3511   */\n      swap3\n      pop\n      swap3\n      pop\n      swap3\n      jump\t// out\n        /* \"#utility.yul\":3517:3635   */\n    tag_129:\n        /* \"#utility.yul\":3604:3628   */\n      tag_199\n        /* \"#utility.yul\":3622:3627   */\n      dup2\n        /* \"#utility.yul\":3604:3628   */\n      tag_121\n      jump\t// in\n    tag_199:\n        /* \"#utility.yul\":3599:3602   */\n      dup3\n        /* \"#utility.yul\":3592:3629   */\n      mstore\n        /* \"#utility.yul\":3517:3635   */\n      pop\n      pop\n      jump\t// out\n        /* \"#utility.yul\":3641:3863   */\n    tag_23:\n        /* \"#utility.yul\":3734:3738   */\n      0x00\n        /* \"#utility.yul\":3772:3774   */\n      0x20\n        /* \"#utility.yul\":3761:3770   */\n      dup3\n        /* \"#utility.yul\":3757:3775   */\n      add\n        /* \"#utility.yul\":3749:3775   */\n      swap1\n      pop\n        /* \"#utility.yul\":3785:3856   */\n      tag_201\n        /* \"#utility.yul\":3853:3854   */\n      0x00\n        /* \"#utility.yul\":3842:3851   */\n      dup4\n        /* \"#utility.yul\":3838:3855   */\n      add\n        /* \"#utility.yul\":3829:3835   */\n      dup5\n        /* \"#utility.yul\":3785:3856   */\n      tag_129\n      jump\t// in\n    tag_201:\n        /* \"#utility.yul\":3641:3863   */\n      swap3\n      swap2\n      pop\n      pop\n      jump\t// out\n        /* \"#utility.yul\":3869:5024   */\n    tag_27:\n        /* \"#utility.yul\":4006:4012   */\n      0x00\n        /* \"#utility.yul\":4014:4020   */\n      dup1\n        /* \"#utility.yul\":4022:4028   */\n      0x00\n        /* \"#utility.yul\":4030:4036   */\n      dup1\n        /* \"#utility.yul\":4038:4044   */\n      0x00\n        /* \"#utility.yul\":4087:4090   */\n      0xa0\n        /* \"#utility.yul\":4075:4084   */\n      dup7\n        /* \"#utility.yul\":4066:4073   */\n      dup9\n        /* \"#utility.yul\":4062:4085   */\n      sub\n        /* \"#utility.yul\":4058:4091   */\n      slt\n        /* \"#utility.yul\":4055:4175   */\n      iszero\n      tag_203\n      jumpi\n        /* \"#utility.yul\":4094:4173   */\n      tag_204\n      tag_118\n      jump\t// in\n    tag_204:\n        /* \"#utility.yul\":4055:4175   */\n    tag_203:\n        /* \"#utility.yul\":4214:4215   */\n      0x00\n        /* \"#utility.yul\":4239:4292   */\n      tag_205\n        /* \"#utility.yul\":4284:4291   */\n      dup9\n        /* \"#utility.yul\":4275:4281   */\n      dup3\n        /* \"#utility.yul\":4264:4273   */\n      dup10\n        /* \"#utility.yul\":4260:4282   */\n      add\n        /* \"#utility.yul\":4239:4292   */\n      tag_123\n      jump\t// in\n    tag_205:\n        /* \"#utility.yul\":4229:4292   */\n      swap6\n      pop\n        /* \"#utility.yul\":4185:4302   */\n      pop\n        /* \"#utility.yul\":4341:4343   */\n      0x20\n        /* \"#utility.yul\":4367:4420   */\n      tag_206\n        /* \"#utility.yul\":4412:4419   */\n      dup9\n        /* \"#utility.yul\":4403:4409   */\n      dup3\n        /* \"#utility.yul\":4392:4401   */\n      dup10\n        /* \"#utility.yul\":4388:4410   */\n      add\n        /* \"#utility.yul\":4367:4420   */\n      tag_126\n      jump\t// in\n    tag_206:\n        /* \"#utility.yul\":4357:4420   */\n      swap5\n      pop\n        /* \"#utility.yul\":4312:4430   */\n      pop\n        /* \"#utility.yul\":4469:4471   */\n      0x40\n        /* \"#utility.yul\":4495:4548   */\n      tag_207\n        /* \"#utility.yul\":4540:4547   */\n      dup9\n        /* \"#utility.yul\":4531:4537   */\n      dup3\n        /* \"#utility.yul\":4520:4529   */\n      dup10\n        /* \"#utility.yul\":4516:4538   */\n      add\n        /* \"#utility.yul\":4495:4548   */\n      tag_123\n      jump\t// in\n    tag_207:\n        /* \"#utility.yul\":4485:4548   */\n      swap4\n      pop\n        /* \"#utility.yul\":4440:4558   */\n      pop\n        /* \"#utility.yul\":4597:4599   */\n      0x60\n        /* \"#utility.yul\":4623:4676   */\n      tag_208\n        /* \"#utility.yul\":4668:4675   */\n      dup9\n        /* \"#utility.yul\":4659:4665   */\n      dup3\n        /* \"#utility.yul\":4648:4657   */\n      dup10\n        /* \"#utility.yul\":4644:4666   */\n      add\n        /* \"#utility.yul\":4623:4676   */\n      tag_126\n      jump\t// in\n    tag_208:\n        /* \"#utility.yul\":4613:4676   */\n      swap3\n      pop\n        /* \"#utility.yul\":4568:4686   */\n      pop\n        /* \"#utility.yul\":4753:4756   */\n      0x80\n        /* \"#utility.yul\":4742:4751   */\n      dup7\n        /* \"#utility.yul\":4738:4757   */\n      add\n        /* \"#utility.yul\":4725:4758   */\n      calldataload\n        /* \"#utility.yul\":4785:4803   */\n      0xffffffffffffffff\n        /* \"#utility.yul\":4777:4783   */\n      dup2\n        /* \"#utility.yul\":4774:4804   */\n      gt\n        /* \"#utility.yul\":4771:4888   */\n      iszero\n      tag_209\n      jumpi\n        /* \"#utility.yul\":4807:4886   */\n      tag_210\n      tag_119\n      jump\t// in\n    tag_210:\n        /* \"#utility.yul\":4771:4888   */\n    tag_209:\n        /* \"#utility.yul\":4912:5007   */\n      tag_211\n        /* \"#utility.yul\":4999:5006   */\n      dup9\n        /* \"#utility.yul\":4990:4996   */\n      dup3\n        /* \"#utility.yul\":4979:4988   */\n      dup10\n        /* \"#utility.yul\":4975:4997   */\n      add\n        /* \"#utility.yul\":4912:5007   */\n      tag_128\n      jump\t// in\n    tag_211:\n        /* \"#utility.yul\":4902:5007   */\n      swap2\n      pop\n        /* \"#utility.yul\":4696:5017   */\n      pop\n        /* \"#utility.yul\":3869:5024   */\n      swap3\n      swap6\n      pop\n      swap3\n      swap6\n      swap1\n      swap4\n      pop\n      jump\t// out\n        /* \"#utility.yul\":5030:5359   */\n    tag_35:\n        /* \"#utility.yul\":5089:5095   */\n      0x00\n        /* \"#utility.yul\":5138:5140   */\n      0x20\n        /* \"#utility.yul\":5126:5135   */\n      dup3\n        /* \"#utility.yul\":5117:5124   */\n      dup5\n        /* \"#utility.yul\":5113:5136   */\n      sub\n        /* \"#utility.yul\":5109:5141   */\n      slt\n        /* \"#utility.yul\":5106:5225   */\n      iszero\n      tag_213\n      jumpi\n        /* \"#utility.yul\":5144:5223   */\n      tag_214\n      tag_118\n      jump\t// in\n    tag_214:\n        /* \"#utility.yul\":5106:5225   */\n    tag_213:\n        /* \"#utility.yul\":5264:5265   */\n      0x00\n        /* \"#utility.yul\":5289:5342   */\n      tag_215\n        /* \"#utility.yul\":5334:5341   */\n      dup5\n        /* \"#utility.yul\":5325:5331   */\n      dup3\n        /* \"#utility.yul\":5314:5323   */\n      dup6\n        /* \"#utility.yul\":5310:5332   */\n      add\n        /* \"#utility.yul\":5289:5342   */\n      tag_123\n      jump\t// in\n    tag_215:\n        /* \"#utility.yul\":5279:5342   */\n      swap2\n      pop\n        /* \"#utility.yul\":5235:5352   */\n      pop\n        /* \"#utility.yul\":5030:5359   */\n      swap3\n      swap2\n      pop\n      pop\n      jump\t// out\n        /* \"#utility.yul\":5365:5483   */\n    tag_130:\n        /* \"#utility.yul\":5452:5476   */\n      tag_217\n        /* \"#utility.yul\":5470:5475   */\n      dup2\n        /* \"#utility.yul\":5452:5476   */\n      tag_124\n      jump\t// in\n    tag_217:\n        /* \"#utility.yul\":5447:5450   */\n      dup3\n        /* \"#utility.yul\":5440:5477   */\n      mstore\n        /* \"#utility.yul\":5365:5483   */\n      pop\n      pop\n      jump\t// out\n        /* \"#utility.yul\":5489:5931   */\n    tag_37:\n        /* \"#utility.yul\":5638:5642   */\n      0x00\n        /* \"#utility.yul\":5676:5678   */\n      0x60\n        /* \"#utility.yul\":5665:5674   */\n      dup3\n        /* \"#utility.yul\":5661:5679   */\n      add\n        /* \"#utility.yul\":5653:5679   */\n      swap1\n      pop\n        /* \"#utility.yul\":5689:5760   */\n      tag_219\n        /* \"#utility.yul\":5757:5758   */\n      0x00\n        /* \"#utility.yul\":5746:5755   */\n      dup4\n        /* \"#utility.yul\":5742:5759   */\n      add\n        /* \"#utility.yul\":5733:5739   */\n      dup7\n        /* \"#utility.yul\":5689:5760   */\n      tag_129\n      jump\t// in\n    tag_219:\n        /* \"#utility.yul\":5770:5842   */\n      tag_220\n        /* \"#utility.yul\":5838:5840   */\n      0x20\n        /* \"#utility.yul\":5827:5836   */\n      dup4\n        /* \"#utility.yul\":5823:5841   */\n      add\n        /* \"#utility.yul\":5814:5820   */\n      dup6\n        /* \"#utility.yul\":5770:5842   */\n      tag_129\n      jump\t// in\n    tag_220:\n        /* \"#utility.yul\":5852:5924   */\n      tag_221\n        /* \"#utility.yul\":5920:5922   */\n      0x40\n        /* \"#utility.yul\":5909:5918   */\n      dup4\n        /* \"#utility.yul\":5905:5923   */\n      add\n        /* \"#utility.yul\":5896:5902   */\n      dup5\n        /* \"#utility.yul\":5852:5924   */\n      tag_130\n      jump\t// in\n    tag_221:\n        /* \"#utility.yul\":5489:5931   */\n      swap5\n      swap4\n      pop\n      pop\n      pop\n      pop\n      jump\t// out\n        /* \"#utility.yul\":5937:6027   */\n    tag_131:\n        /* \"#utility.yul\":5971:5978   */\n      0x00\n        /* \"#utility.yul\":6014:6019   */\n      dup2\n        /* \"#utility.yul\":6007:6020   */\n      iszero\n        /* \"#utility.yul\":6000:6021   */\n      iszero\n        /* \"#utility.yul\":5989:6021   */\n      swap1\n      pop\n        /* \"#utility.yul\":5937:6027   */\n      swap2\n      swap1\n      pop\n      jump\t// out\n        /* \"#utility.yul\":6033:6149   */\n    tag_132:\n        /* \"#utility.yul\":6103:6124   */\n      tag_224\n        /* \"#utility.yul\":6118:6123   */\n      dup2\n        /* \"#utility.yul\":6103:6124   */\n      tag_131\n      jump\t// in\n    tag_224:\n        /* \"#utility.yul\":6096:6101   */\n      dup2\n        /* \"#utility.yul\":6093:6125   */\n      eq\n        /* \"#utility.yul\":6083:6143   */\n      tag_225\n      jumpi\n        /* \"#utility.yul\":6139:6140   */\n      0x00\n        /* \"#utility.yul\":6136:6137   */\n      dup1\n        /* \"#utility.yul\":6129:6141   */\n      revert\n        /* \"#utility.yul\":6083:6143   */\n    tag_225:\n        /* \"#utility.yul\":6033:6149   */\n      pop\n      jump\t// out\n        /* \"#utility.yul\":6155:6292   */\n    tag_133:\n        /* \"#utility.yul\":6209:6214   */\n      0x00\n        /* \"#utility.yul\":6240:6246   */\n      dup2\n        /* \"#utility.yul\":6234:6247   */\n      mload\n        /* \"#utility.yul\":6225:6247   */\n      swap1\n      pop\n        /* \"#utility.yul\":6256:6286   */\n      tag_227\n        /* \"#utility.yul\":6280:6285   */\n      dup2\n        /* \"#utility.yul\":6256:6286   */\n      tag_132\n      jump\t// in\n    tag_227:\n        /* \"#utility.yul\":6155:6292   */\n      swap3\n      swap2\n      pop\n      pop\n      jump\t// out\n        /* \"#utility.yul\":6298:6643   */\n    tag_41:\n        /* \"#utility.yul\":6365:6371   */\n      0x00\n        /* \"#utility.yul\":6414:6416   */\n      0x20\n        /* \"#utility.yul\":6402:6411   */\n      dup3\n        /* \"#utility.yul\":6393:6400   */\n      dup5\n        /* \"#utility.yul\":6389:6412   */\n      sub\n        /* \"#utility.yul\":6385:6417   */\n      slt\n        /* \"#utility.yul\":6382:6501   */\n      iszero\n      tag_229\n      jumpi\n        /* \"#utility.yul\":6420:6499   */\n      tag_230\n      tag_118\n      jump\t// in\n    tag_230:\n        /* \"#utility.yul\":6382:6501   */\n    tag_229:\n        /* \"#utility.yul\":6540:6541   */\n      0x00\n        /* \"#utility.yul\":6565:6626   */\n      tag_231\n        /* \"#utility.yul\":6618:6625   */\n      dup5\n        /* \"#utility.yul\":6609:6615   */\n      dup3\n        /* \"#utility.yul\":6598:6607   */\n      dup6\n        /* \"#utility.yul\":6594:6616   */\n      add\n        /* \"#utility.yul\":6565:6626   */\n      tag_133\n      jump\t// in\n    tag_231:\n        /* \"#utility.yul\":6555:6626   */\n      swap2\n      pop\n        /* \"#utility.yul\":6511:6636   */\n      pop\n        /* \"#utility.yul\":6298:6643   */\n      swap3\n      swap2\n      pop\n      pop\n      jump\t// out\n        /* \"#utility.yul\":6649:6766   */\n    tag_134:\n        /* \"#utility.yul\":6758:6759   */\n      0x00\n        /* \"#utility.yul\":6755:6756   */\n      dup1\n        /* \"#utility.yul\":6748:6760   */\n      revert\n        /* \"#utility.yul\":6772:6889   */\n    tag_135:\n        /* \"#utility.yul\":6881:6882   */\n      0x00\n        /* \"#utility.yul\":6878:6879   */\n      dup1\n        /* \"#utility.yul\":6871:6883   */\n      revert\n        /* \"#utility.yul\":6895:7012   */\n    tag_136:\n        /* \"#utility.yul\":7004:7005   */\n      0x00\n        /* \"#utility.yul\":7001:7002   */\n      dup1\n        /* \"#utility.yul\":6994:7006   */\n      revert\n        /* \"#utility.yul\":7018:7781   */\n    tag_43:\n        /* \"#utility.yul\":7134:7138   */\n      0x00\n        /* \"#utility.yul\":7140:7146   */\n      dup1\n        /* \"#utility.yul\":7196:7207   */\n      dup4\n        /* \"#utility.yul\":7183:7208   */\n      calldataload\n        /* \"#utility.yul\":7296:7297   */\n      0x01\n        /* \"#utility.yul\":7290:7294   */\n      0x20\n        /* \"#utility.yul\":7286:7298   */\n      sub\n        /* \"#utility.yul\":7275:7283   */\n      dup5\n        /* \"#utility.yul\":7259:7273   */\n      calldatasize\n        /* \"#utility.yul\":7255:7284   */\n      sub\n        /* \"#utility.yul\":7251:7299   */\n      sub\n        /* \"#utility.yul\":7231:7249   */\n      dup2\n        /* \"#utility.yul\":7227:7300   */\n      slt\n        /* \"#utility.yul\":7217:7385   */\n      tag_236\n      jumpi\n        /* \"#utility.yul\":7304:7383   */\n      tag_237\n      tag_134\n      jump\t// in\n    tag_237:\n        /* \"#utility.yul\":7217:7385   */\n    tag_236:\n        /* \"#utility.yul\":7416:7434   */\n      dup1\n        /* \"#utility.yul\":7406:7414   */\n      dup5\n        /* \"#utility.yul\":7402:7435   */\n      add\n        /* \"#utility.yul\":7394:7435   */\n      swap3\n      pop\n        /* \"#utility.yul\":7468:7472   */\n      dup3\n        /* \"#utility.yul\":7455:7473   */\n      calldataload\n        /* \"#utility.yul\":7445:7473   */\n      swap2\n      pop\n        /* \"#utility.yul\":7496:7514   */\n      0xffffffffffffffff\n        /* \"#utility.yul\":7488:7494   */\n      dup3\n        /* \"#utility.yul\":7485:7515   */\n      gt\n        /* \"#utility.yul\":7482:7599   */\n      iszero\n      tag_238\n      jumpi\n        /* \"#utility.yul\":7518:7597   */\n      tag_239\n      tag_135\n      jump\t// in\n    tag_239:\n        /* \"#utility.yul\":7482:7599   */\n    tag_238:\n        /* \"#utility.yul\":7626:7628   */\n      0x20\n        /* \"#utility.yul\":7620:7624   */\n      dup4\n        /* \"#utility.yul\":7616:7629   */\n      add\n        /* \"#utility.yul\":7608:7629   */\n      swap3\n      pop\n        /* \"#utility.yul\":7683:7687   */\n      0x20\n        /* \"#utility.yul\":7675:7681   */\n      dup3\n        /* \"#utility.yul\":7671:7688   */\n      mul\n        /* \"#utility.yul\":7655:7669   */\n      calldatasize\n        /* \"#utility.yul\":7651:7689   */\n      sub\n        /* \"#utility.yul\":7645:7649   */\n      dup4\n        /* \"#utility.yul\":7641:7690   */\n      sgt\n        /* \"#utility.yul\":7638:7774   */\n      iszero\n      tag_240\n      jumpi\n        /* \"#utility.yul\":7693:7772   */\n      tag_241\n      tag_136\n      jump\t// in\n    tag_241:\n        /* \"#utility.yul\":7638:7774   */\n    tag_240:\n        /* \"#utility.yul\":7147:7781   */\n      pop\n        /* \"#utility.yul\":7018:7781   */\n      swap3\n      pop\n      swap3\n      swap1\n      pop\n      jump\t// out\n        /* \"#utility.yul\":7787:7992   */\n    tag_137:\n        /* \"#utility.yul\":7907:7918   */\n      0x00\n        /* \"#utility.yul\":7941:7947   */\n      dup3\n        /* \"#utility.yul\":7936:7939   */\n      dup3\n        /* \"#utility.yul\":7929:7948   */\n      mstore\n        /* \"#utility.yul\":7981:7985   */\n      0x20\n        /* \"#utility.yul\":7976:7979   */\n      dup3\n        /* \"#utility.yul\":7972:7986   */\n      add\n        /* \"#utility.yul\":7957:7986   */\n      swap1\n      pop\n        /* \"#utility.yul\":7787:7992   */\n      swap3\n      swap2\n      pop\n      pop\n      jump\t// out\n        /* \"#utility.yul\":7998:8123   */\n    tag_138:\n        /* \"#utility.yul\":8090:8094   */\n      0x00\n        /* \"#utility.yul\":8113:8116   */\n      dup2\n        /* \"#utility.yul\":8105:8116   */\n      swap1\n      pop\n        /* \"#utility.yul\":7998:8123   */\n      swap2\n      swap1\n      pop\n      jump\t// out\n        /* \"#utility.yul\":8129:8251   */\n    tag_139:\n        /* \"#utility.yul\":8181:8186   */\n      0x00\n        /* \"#utility.yul\":8206:8245   */\n      tag_245\n        /* \"#utility.yul\":8241:8243   */\n      0x20\n        /* \"#utility.yul\":8236:8239   */\n      dup5\n        /* \"#utility.yul\":8232:8244   */\n      add\n        /* \"#utility.yul\":8227:8230   */\n      dup5\n        /* \"#utility.yul\":8206:8245   */\n      tag_123\n      jump\t// in\n    tag_245:\n        /* \"#utility.yul\":8197:8245   */\n      swap1\n      pop\n        /* \"#utility.yul\":8129:8251   */\n      swap3\n      swap2\n      pop\n      pop\n      jump\t// out\n        /* \"#utility.yul\":8257:8365   */\n    tag_140:\n        /* \"#utility.yul\":8334:8358   */\n      tag_247\n        /* \"#utility.yul\":8352:8357   */\n      dup2\n        /* \"#utility.yul\":8334:8358   */\n      tag_121\n      jump\t// in\n    tag_247:\n        /* \"#utility.yul\":8329:8332   */\n      dup3\n        /* \"#utility.yul\":8322:8359   */\n      mstore\n        /* \"#utility.yul\":8257:8365   */\n      pop\n      pop\n      jump\t// out\n        /* \"#utility.yul\":8371:8488   */\n    tag_141:\n        /* \"#utility.yul\":8480:8481   */\n      0x00\n        /* \"#utility.yul\":8477:8478   */\n      dup1\n        /* \"#utility.yul\":8470:8482   */\n      revert\n        /* \"#utility.yul\":8494:8611   */\n    tag_142:\n        /* \"#utility.yul\":8603:8604   */\n      0x00\n        /* \"#utility.yul\":8600:8601   */\n      dup1\n        /* \"#utility.yul\":8593:8605   */\n      revert\n        /* \"#utility.yul\":8617:8734   */\n    tag_143:\n        /* \"#utility.yul\":8726:8727   */\n      0x00\n        /* \"#utility.yul\":8723:8724   */\n      dup1\n        /* \"#utility.yul\":8716:8728   */\n      revert\n        /* \"#utility.yul\":8740:9451   */\n    tag_144:\n        /* \"#utility.yul\":8804:8809   */\n      0x00\n        /* \"#utility.yul\":8811:8817   */\n      dup1\n        /* \"#utility.yul\":8867:8870   */\n      dup4\n        /* \"#utility.yul\":8854:8871   */\n      calldataload\n        /* \"#utility.yul\":8959:8960   */\n      0x01\n        /* \"#utility.yul\":8953:8957   */\n      0x20\n        /* \"#utility.yul\":8949:8961   */\n      sub\n        /* \"#utility.yul\":8938:8946   */\n      dup5\n        /* \"#utility.yul\":8922:8936   */\n      calldatasize\n        /* \"#utility.yul\":8918:8947   */\n      sub\n        /* \"#utility.yul\":8914:8962   */\n      sub\n        /* \"#utility.yul\":8894:8912   */\n      dup2\n        /* \"#utility.yul\":8890:8963   */\n      slt\n        /* \"#utility.yul\":8880:9048   */\n      tag_252\n      jumpi\n        /* \"#utility.yul\":8967:9046   */\n      tag_253\n      tag_143\n      jump\t// in\n    tag_253:\n        /* \"#utility.yul\":8880:9048   */\n    tag_252:\n        /* \"#utility.yul\":9090:9098   */\n      dup4\n        /* \"#utility.yul\":9070:9088   */\n      dup2\n        /* \"#utility.yul\":9066:9099   */\n      add\n        /* \"#utility.yul\":9057:9099   */\n      swap3\n      pop\n        /* \"#utility.yul\":9132:9137   */\n      dup3\n        /* \"#utility.yul\":9119:9138   */\n      calldataload\n        /* \"#utility.yul\":9109:9138   */\n      swap2\n      pop\n        /* \"#utility.yul\":9167:9171   */\n      0x20\n        /* \"#utility.yul\":9160:9165   */\n      dup4\n        /* \"#utility.yul\":9156:9172   */\n      add\n        /* \"#utility.yul\":9147:9172   */\n      swap3\n      pop\n        /* \"#utility.yul\":9195:9213   */\n      0xffffffffffffffff\n        /* \"#utility.yul\":9187:9193   */\n      dup3\n        /* \"#utility.yul\":9184:9214   */\n      gt\n        /* \"#utility.yul\":9181:9298   */\n      iszero\n      tag_254\n      jumpi\n        /* \"#utility.yul\":9217:9296   */\n      tag_255\n      tag_141\n      jump\t// in\n    tag_255:\n        /* \"#utility.yul\":9181:9298   */\n    tag_254:\n        /* \"#utility.yul\":9353:9357   */\n      0x01\n        /* \"#utility.yul\":9345:9351   */\n      dup3\n        /* \"#utility.yul\":9341:9358   */\n      mul\n        /* \"#utility.yul\":9325:9339   */\n      calldatasize\n        /* \"#utility.yul\":9321:9359   */\n      sub\n        /* \"#utility.yul\":9314:9319   */\n      dup4\n        /* \"#utility.yul\":9310:9360   */\n      sgt\n        /* \"#utility.yul\":9307:9444   */\n      iszero\n      tag_256\n      jumpi\n        /* \"#utility.yul\":9363:9442   */\n      tag_257\n      tag_142\n      jump\t// in\n    tag_257:\n        /* \"#utility.yul\":9307:9444   */\n    tag_256:\n        /* \"#utility.yul\":8818:9451   */\n      pop\n        /* \"#utility.yul\":8740:9451   */\n      swap3\n      pop\n      swap3\n      swap1\n      pop\n      jump\t// out\n        /* \"#utility.yul\":9457:9615   */\n    tag_145:\n        /* \"#utility.yul\":9530:9541   */\n      0x00\n        /* \"#utility.yul\":9564:9570   */\n      dup3\n        /* \"#utility.yul\":9559:9562   */\n      dup3\n        /* \"#utility.yul\":9552:9571   */\n      mstore\n        /* \"#utility.yul\":9604:9608   */\n      0x20\n        /* \"#utility.yul\":9599:9602   */\n      dup3\n        /* \"#utility.yul\":9595:9609   */\n      add\n        /* \"#utility.yul\":9580:9609   */\n      swap1\n      pop\n        /* \"#utility.yul\":9457:9615   */\n      swap3\n      swap2\n      pop\n      pop\n      jump\t// out\n        /* \"#utility.yul\":9621:9767   */\n    tag_146:\n        /* \"#utility.yul\":9718:9724   */\n      dup3\n        /* \"#utility.yul\":9713:9716   */\n      dup2\n        /* \"#utility.yul\":9708:9711   */\n      dup4\n        /* \"#utility.yul\":9695:9725   */\n      calldatacopy\n        /* \"#utility.yul\":9759:9760   */\n      0x00\n        /* \"#utility.yul\":9750:9756   */\n      dup4\n        /* \"#utility.yul\":9745:9748   */\n      dup4\n        /* \"#utility.yul\":9741:9757   */\n      add\n        /* \"#utility.yul\":9734:9761   */\n      mstore\n        /* \"#utility.yul\":9621:9767   */\n      pop\n      pop\n      pop\n      jump\t// out\n        /* \"#utility.yul\":9773:9875   */\n    tag_147:\n        /* \"#utility.yul\":9814:9820   */\n      0x00\n        /* \"#utility.yul\":9865:9867   */\n      0x1f\n        /* \"#utility.yul\":9861:9868   */\n      not\n        /* \"#utility.yul\":9856:9858   */\n      0x1f\n        /* \"#utility.yul\":9849:9854   */\n      dup4\n        /* \"#utility.yul\":9845:9859   */\n      add\n        /* \"#utility.yul\":9841:9869   */\n      and\n        /* \"#utility.yul\":9831:9869   */\n      swap1\n      pop\n        /* \"#utility.yul\":9773:9875   */\n      swap2\n      swap1\n      pop\n      jump\t// out\n        /* \"#utility.yul\":9903:10197   */\n    tag_148:\n        /* \"#utility.yul\":9989:9992   */\n      0x00\n        /* \"#utility.yul\":10010:10070   */\n      tag_262\n        /* \"#utility.yul\":10063:10069   */\n      dup4\n        /* \"#utility.yul\":10058:10061   */\n      dup6\n        /* \"#utility.yul\":10010:10070   */\n      tag_145\n      jump\t// in\n    tag_262:\n        /* \"#utility.yul\":10003:10070   */\n      swap4\n      pop\n        /* \"#utility.yul\":10080:10136   */\n      tag_263\n        /* \"#utility.yul\":10129:10135   */\n      dup4\n        /* \"#utility.yul\":10124:10127   */\n      dup6\n        /* \"#utility.yul\":10117:10122   */\n      dup5\n        /* \"#utility.yul\":10080:10136   */\n      tag_146\n      jump\t// in\n    tag_263:\n        /* \"#utility.yul\":10161:10190   */\n      tag_264\n        /* \"#utility.yul\":10183:10189   */\n      dup4\n        /* \"#utility.yul\":10161:10190   */\n      tag_147\n      jump\t// in\n    tag_264:\n        /* \"#utility.yul\":10156:10159   */\n      dup5\n        /* \"#utility.yul\":10152:10191   */\n      add\n        /* \"#utility.yul\":10145:10191   */\n      swap1\n      pop\n        /* \"#utility.yul\":9903:10197   */\n      swap4\n      swap3\n      pop\n      pop\n      pop\n      jump\t// out\n        /* \"#utility.yul\":10283:10972   */\n    tag_149:\n        /* \"#utility.yul\":10386:10389   */\n      0x00\n        /* \"#utility.yul\":10422:10426   */\n      0x40\n        /* \"#utility.yul\":10417:10420   */\n      dup4\n        /* \"#utility.yul\":10413:10427   */\n      add\n        /* \"#utility.yul\":10494:10544   */\n      tag_266\n        /* \"#utility.yul\":10538:10542   */\n      0x00\n        /* \"#utility.yul\":10531:10536   */\n      dup5\n        /* \"#utility.yul\":10527:10543   */\n      add\n        /* \"#utility.yul\":10520:10525   */\n      dup5\n        /* \"#utility.yul\":10494:10544   */\n      tag_139\n      jump\t// in\n    tag_266:\n        /* \"#utility.yul\":10557:10620   */\n      tag_267\n        /* \"#utility.yul\":10614:10618   */\n      0x00\n        /* \"#utility.yul\":10609:10612   */\n      dup7\n        /* \"#utility.yul\":10605:10619   */\n      add\n        /* \"#utility.yul\":10591:10603   */\n      dup3\n        /* \"#utility.yul\":10557:10620   */\n      tag_140\n      jump\t// in\n    tag_267:\n        /* \"#utility.yul\":10437:10630   */\n      pop\n        /* \"#utility.yul\":10713:10774   */\n      tag_268\n        /* \"#utility.yul\":10768:10772   */\n      0x20\n        /* \"#utility.yul\":10761:10766   */\n      dup5\n        /* \"#utility.yul\":10757:10773   */\n      add\n        /* \"#utility.yul\":10750:10755   */\n      dup5\n        /* \"#utility.yul\":10713:10774   */\n      tag_144\n      jump\t// in\n    tag_268:\n        /* \"#utility.yul\":10821:10824   */\n      dup6\n        /* \"#utility.yul\":10815:10819   */\n      dup4\n        /* \"#utility.yul\":10811:10825   */\n      sub\n        /* \"#utility.yul\":10804:10808   */\n      0x20\n        /* \"#utility.yul\":10799:10802   */\n      dup8\n        /* \"#utility.yul\":10795:10809   */\n      add\n        /* \"#utility.yul\":10788:10826   */\n      mstore\n        /* \"#utility.yul\":10847:10934   */\n      tag_269\n        /* \"#utility.yul\":10929:10933   */\n      dup4\n        /* \"#utility.yul\":10915:10927   */\n      dup3\n        /* \"#utility.yul\":10901:10913   */\n      dup5\n        /* \"#utility.yul\":10847:10934   */\n      tag_148\n      jump\t// in\n    tag_269:\n        /* \"#utility.yul\":10839:10934   */\n      swap3\n      pop\n        /* \"#utility.yul\":10640:10945   */\n      pop\n      pop\n        /* \"#utility.yul\":10962:10966   */\n      dup1\n        /* \"#utility.yul\":10955:10966   */\n      swap2\n      pop\n        /* \"#utility.yul\":10391:10972   */\n      pop\n        /* \"#utility.yul\":10283:10972   */\n      swap3\n      swap2\n      pop\n      pop\n      jump\t// out\n        /* \"#utility.yul\":10978:11222   */\n    tag_150:\n        /* \"#utility.yul\":11091:11101   */\n      0x00\n        /* \"#utility.yul\":11126:11216   */\n      tag_271\n        /* \"#utility.yul\":11212:11215   */\n      dup4\n        /* \"#utility.yul\":11204:11210   */\n      dup4\n        /* \"#utility.yul\":11126:11216   */\n      tag_149\n      jump\t// in\n    tag_271:\n        /* \"#utility.yul\":11112:11216   */\n      swap1\n      pop\n        /* \"#utility.yul\":10978:11222   */\n      swap3\n      swap2\n      pop\n      pop\n      jump\t// out\n        /* \"#utility.yul\":11228:11598   */\n    tag_151:\n        /* \"#utility.yul\":11304:11309   */\n      0x00\n        /* \"#utility.yul\":11359:11362   */\n      dup3\n        /* \"#utility.yul\":11346:11363   */\n      calldataload\n        /* \"#utility.yul\":11451:11452   */\n      0x01\n        /* \"#utility.yul\":11445:11449   */\n      0x40\n        /* \"#utility.yul\":11441:11453   */\n      sub\n        /* \"#utility.yul\":11430:11438   */\n      dup4\n        /* \"#utility.yul\":11414:11428   */\n      calldatasize\n        /* \"#utility.yul\":11410:11439   */\n      sub\n        /* \"#utility.yul\":11406:11454   */\n      sub\n        /* \"#utility.yul\":11386:11404   */\n      dup2\n        /* \"#utility.yul\":11382:11455   */\n      slt\n        /* \"#utility.yul\":11372:11540   */\n      tag_273\n      jumpi\n        /* \"#utility.yul\":11459:11538   */\n      tag_274\n      tag_143\n      jump\t// in\n    tag_274:\n        /* \"#utility.yul\":11372:11540   */\n    tag_273:\n        /* \"#utility.yul\":11582:11590   */\n      dup3\n        /* \"#utility.yul\":11562:11580   */\n      dup2\n        /* \"#utility.yul\":11558:11591   */\n      add\n        /* \"#utility.yul\":11549:11591   */\n      swap2\n      pop\n        /* \"#utility.yul\":11310:11598   */\n      pop\n        /* \"#utility.yul\":11228:11598   */\n      swap3\n      swap2\n      pop\n      pop\n      jump\t// out\n        /* \"#utility.yul\":11604:11742   */\n    tag_152:\n        /* \"#utility.yul\":11699:11703   */\n      0x00\n        /* \"#utility.yul\":11731:11735   */\n      0x20\n        /* \"#utility.yul\":11726:11729   */\n      dup3\n        /* \"#utility.yul\":11722:11736   */\n      add\n        /* \"#utility.yul\":11714:11736   */\n      swap1\n      pop\n        /* \"#utility.yul\":11604:11742   */\n      swap2\n      swap1\n      pop\n      jump\t// out\n        /* \"#utility.yul\":11832:12888   */\n    tag_153:\n        /* \"#utility.yul\":12005:12008   */\n      0x00\n        /* \"#utility.yul\":12028:12135   */\n      tag_277\n        /* \"#utility.yul\":12128:12134   */\n      dup4\n        /* \"#utility.yul\":12123:12126   */\n      dup6\n        /* \"#utility.yul\":12028:12135   */\n      tag_137\n      jump\t// in\n    tag_277:\n        /* \"#utility.yul\":12021:12135   */\n      swap4\n      pop\n        /* \"#utility.yul\":12161:12164   */\n      dup4\n        /* \"#utility.yul\":12206:12210   */\n      0x20\n        /* \"#utility.yul\":12198:12204   */\n      dup5\n        /* \"#utility.yul\":12194:12211   */\n      mul\n        /* \"#utility.yul\":12189:12192   */\n      dup6\n        /* \"#utility.yul\":12185:12212   */\n      add\n        /* \"#utility.yul\":12236:12317   */\n      tag_278\n        /* \"#utility.yul\":12311:12316   */\n      dup5\n        /* \"#utility.yul\":12236:12317   */\n      tag_138\n      jump\t// in\n    tag_278:\n        /* \"#utility.yul\":12340:12347   */\n      dup1\n        /* \"#utility.yul\":12371:12372   */\n      0x00\n        /* \"#utility.yul\":12356:12843   */\n    tag_279:\n        /* \"#utility.yul\":12381:12387   */\n      dup8\n        /* \"#utility.yul\":12378:12379   */\n      dup2\n        /* \"#utility.yul\":12375:12388   */\n      lt\n        /* \"#utility.yul\":12356:12843   */\n      iszero\n      tag_281\n      jumpi\n        /* \"#utility.yul\":12452:12461   */\n      dup5\n        /* \"#utility.yul\":12446:12450   */\n      dup5\n        /* \"#utility.yul\":12442:12462   */\n      sub\n        /* \"#utility.yul\":12437:12440   */\n      dup10\n        /* \"#utility.yul\":12430:12463   */\n      mstore\n        /* \"#utility.yul\":12497:12562   */\n      tag_282\n        /* \"#utility.yul\":12555:12561   */\n      dup3\n        /* \"#utility.yul\":12546:12553   */\n      dup5\n        /* \"#utility.yul\":12497:12562   */\n      tag_151\n      jump\t// in\n    tag_282:\n        /* \"#utility.yul\":12583:12691   */\n      tag_283\n        /* \"#utility.yul\":12686:12690   */\n      dup6\n        /* \"#utility.yul\":12671:12684   */\n      dup3\n        /* \"#utility.yul\":12583:12691   */\n      tag_150\n      jump\t// in\n    tag_283:\n        /* \"#utility.yul\":12575:12691   */\n      swap5\n      pop\n        /* \"#utility.yul\":12714:12799   */\n      tag_284\n        /* \"#utility.yul\":12792:12798   */\n      dup4\n        /* \"#utility.yul\":12714:12799   */\n      tag_152\n      jump\t// in\n    tag_284:\n        /* \"#utility.yul\":12704:12799   */\n      swap3\n      pop\n        /* \"#utility.yul\":12828:12832   */\n      0x20\n        /* \"#utility.yul\":12823:12826   */\n      dup11\n        /* \"#utility.yul\":12819:12833   */\n      add\n        /* \"#utility.yul\":12812:12833   */\n      swap10\n      pop\n        /* \"#utility.yul\":12416:12843   */\n      pop\n        /* \"#utility.yul\":12403:12404   */\n      0x01\n        /* \"#utility.yul\":12400:12401   */\n      dup2\n        /* \"#utility.yul\":12396:12405   */\n      add\n        /* \"#utility.yul\":12391:12405   */\n      swap1\n      pop\n        /* \"#utility.yul\":12356:12843   */\n      jump(tag_279)\n    tag_281:\n        /* \"#utility.yul\":12360:12374   */\n      pop\n        /* \"#utility.yul\":12859:12863   */\n      dup3\n        /* \"#utility.yul\":12852:12863   */\n      swap8\n      pop\n        /* \"#utility.yul\":12879:12882   */\n      dup8\n        /* \"#utility.yul\":12872:12882   */\n      swap5\n      pop\n        /* \"#utility.yul\":12010:12888   */\n      pop\n      pop\n      pop\n      pop\n        /* \"#utility.yul\":11832:12888   */\n      swap4\n      swap3\n      pop\n      pop\n      pop\n      jump\t// out\n        /* \"#utility.yul\":12894:13375   */\n    tag_45:\n        /* \"#utility.yul\":13091:13095   */\n      0x00\n        /* \"#utility.yul\":13129:13131   */\n      0x20\n        /* \"#utility.yul\":13118:13127   */\n      dup3\n        /* \"#utility.yul\":13114:13132   */\n      add\n        /* \"#utility.yul\":13106:13132   */\n      swap1\n      pop\n        /* \"#utility.yul\":13178:13187   */\n      dup2\n        /* \"#utility.yul\":13172:13176   */\n      dup2\n        /* \"#utility.yul\":13168:13188   */\n      sub\n        /* \"#utility.yul\":13164:13165   */\n      0x00\n        /* \"#utility.yul\":13153:13162   */\n      dup4\n        /* \"#utility.yul\":13149:13166   */\n      add\n        /* \"#utility.yul\":13142:13189   */\n      mstore\n        /* \"#utility.yul\":13206:13368   */\n      tag_286\n        /* \"#utility.yul\":13363:13367   */\n      dup2\n        /* \"#utility.yul\":13354:13360   */\n      dup5\n        /* \"#utility.yul\":13346:13352   */\n      dup7\n        /* \"#utility.yul\":13206:13368   */\n      tag_153\n      jump\t// in\n    tag_286:\n        /* \"#utility.yul\":13198:13368   */\n      swap1\n      pop\n        /* \"#utility.yul\":12894:13375   */\n      swap4\n      swap3\n      pop\n      pop\n      pop\n      jump\t// out\n        /* \"#utility.yul\":13381:13524   */\n    tag_154:\n        /* \"#utility.yul\":13438:13443   */\n      0x00\n        /* \"#utility.yul\":13469:13475   */\n      dup2\n        /* \"#utility.yul\":13463:13476   */\n      mload\n        /* \"#utility.yul\":13454:13476   */\n      swap1\n      pop\n        /* \"#utility.yul\":13485:13518   */\n      tag_288\n        /* \"#utility.yul\":13512:13517   */\n      dup2\n        /* \"#utility.yul\":13485:13518   */\n      tag_125\n      jump\t// in\n    tag_288:\n        /* \"#utility.yul\":13381:13524   */\n      swap3\n      swap2\n      pop\n      pop\n      jump\t// out\n        /* \"#utility.yul\":13530:13881   */\n    tag_53:\n        /* \"#utility.yul\":13600:13606   */\n      0x00\n        /* \"#utility.yul\":13649:13651   */\n      0x20\n        /* \"#utility.yul\":13637:13646   */\n      dup3\n        /* \"#utility.yul\":13628:13635   */\n      dup5\n        /* \"#utility.yul\":13624:13647   */\n      sub\n        /* \"#utility.yul\":13620:13652   */\n      slt\n        /* \"#utility.yul\":13617:13736   */\n      iszero\n      tag_290\n      jumpi\n        /* \"#utility.yul\":13655:13734   */\n      tag_291\n      tag_118\n      jump\t// in\n    tag_291:\n        /* \"#utility.yul\":13617:13736   */\n    tag_290:\n        /* \"#utility.yul\":13775:13776   */\n      0x00\n        /* \"#utility.yul\":13800:13864   */\n      tag_292\n        /* \"#utility.yul\":13856:13863   */\n      dup5\n        /* \"#utility.yul\":13847:13853   */\n      dup3\n        /* \"#utility.yul\":13836:13845   */\n      dup6\n        /* \"#utility.yul\":13832:13854   */\n      add\n        /* \"#utility.yul\":13800:13864   */\n      tag_154\n      jump\t// in\n    tag_292:\n        /* \"#utility.yul\":13790:13864   */\n      swap2\n      pop\n        /* \"#utility.yul\":13746:13874   */\n      pop\n        /* \"#utility.yul\":13530:13881   */\n      swap3\n      swap2\n      pop\n      pop\n      jump\t// out\n        /* \"#utility.yul\":13887:14067   */\n    tag_155:\n        /* \"#utility.yul\":13935:14012   */\n      0x4e487b7100000000000000000000000000000000000000000000000000000000\n        /* \"#utility.yul\":13932:13933   */\n      0x00\n        /* \"#utility.yul\":13925:14013   */\n      mstore\n        /* \"#utility.yul\":14032:14036   */\n      0x11\n        /* \"#utility.yul\":14029:14030   */\n      0x04\n        /* \"#utility.yul\":14022:14037   */\n      mstore\n        /* \"#utility.yul\":14056:14060   */\n      0x24\n        /* \"#utility.yul\":14053:14054   */\n      0x00\n        /* \"#utility.yul\":14046:14061   */\n      revert\n        /* \"#utility.yul\":14073:14267   */\n    tag_58:\n        /* \"#utility.yul\":14113:14117   */\n      0x00\n        /* \"#utility.yul\":14133:14153   */\n      tag_295\n        /* \"#utility.yul\":14151:14152   */\n      dup3\n        /* \"#utility.yul\":14133:14153   */\n      tag_124\n      jump\t// in\n    tag_295:\n        /* \"#utility.yul\":14128:14153   */\n      swap2\n      pop\n        /* \"#utility.yul\":14167:14187   */\n      tag_296\n        /* \"#utility.yul\":14185:14186   */\n      dup4\n        /* \"#utility.yul\":14167:14187   */\n      tag_124\n      jump\t// in\n    tag_296:\n        /* \"#utility.yul\":14162:14187   */\n      swap3\n      pop\n        /* \"#utility.yul\":14211:14212   */\n      dup3\n        /* \"#utility.yul\":14208:14209   */\n      dup3\n        /* \"#utility.yul\":14204:14213   */\n      sub\n        /* \"#utility.yul\":14196:14213   */\n      swap1\n      pop\n        /* \"#utility.yul\":14235:14236   */\n      dup2\n        /* \"#utility.yul\":14229:14233   */\n      dup2\n        /* \"#utility.yul\":14226:14237   */\n      gt\n        /* \"#utility.yul\":14223:14260   */\n      iszero\n      tag_297\n      jumpi\n        /* \"#utility.yul\":14240:14258   */\n      tag_298\n      tag_155\n      jump\t// in\n    tag_298:\n        /* \"#utility.yul\":14223:14260   */\n    tag_297:\n        /* \"#utility.yul\":14073:14267   */\n      swap3\n      swap2\n      pop\n      pop\n      jump\t// out\n        /* \"#utility.yul\":14273:14605   */\n    tag_60:\n        /* \"#utility.yul\":14394:14398   */\n      0x00\n        /* \"#utility.yul\":14432:14434   */\n      0x40\n        /* \"#utility.yul\":14421:14430   */\n      dup3\n        /* \"#utility.yul\":14417:14435   */\n      add\n        /* \"#utility.yul\":14409:14435   */\n      swap1\n      pop\n        /* \"#utility.yul\":14445:14516   */\n      tag_300\n        /* \"#utility.yul\":14513:14514   */\n      0x00\n        /* \"#utility.yul\":14502:14511   */\n      dup4\n        /* \"#utility.yul\":14498:14515   */\n      add\n        /* \"#utility.yul\":14489:14495   */\n      dup6\n        /* \"#utility.yul\":14445:14516   */\n      tag_130\n      jump\t// in\n    tag_300:\n        /* \"#utility.yul\":14526:14598   */\n      tag_301\n        /* \"#utility.yul\":14594:14596   */\n      0x20\n        /* \"#utility.yul\":14583:14592   */\n      dup4\n        /* \"#utility.yul\":14579:14597   */\n      add\n        /* \"#utility.yul\":14570:14576   */\n      dup5\n        /* \"#utility.yul\":14526:14598   */\n      tag_130\n      jump\t// in\n    tag_301:\n        /* \"#utility.yul\":14273:14605   */\n      swap4\n      swap3\n      pop\n      pop\n      pop\n      jump\t// out\n        /* \"#utility.yul\":14611:14780   */\n    tag_156:\n        /* \"#utility.yul\":14695:14706   */\n      0x00\n        /* \"#utility.yul\":14729:14735   */\n      dup3\n        /* \"#utility.yul\":14724:14727   */\n      dup3\n        /* \"#utility.yul\":14717:14736   */\n      mstore\n        /* \"#utility.yul\":14769:14773   */\n      0x20\n        /* \"#utility.yul\":14764:14767   */\n      dup3\n        /* \"#utility.yul\":14760:14774   */\n      add\n        /* \"#utility.yul\":14745:14774   */\n      swap1\n      pop\n        /* \"#utility.yul\":14611:14780   */\n      swap3\n      swap2\n      pop\n      pop\n      jump\t// out\n        /* \"#utility.yul\":14786:14958   */\n    tag_157:\n        /* \"#utility.yul\":14926:14950   */\n      0x4e6174697665207472616e73666572206661696c656400000000000000000000\n        /* \"#utility.yul\":14922:14923   */\n      0x00\n        /* \"#utility.yul\":14914:14920   */\n      dup3\n        /* \"#utility.yul\":14910:14924   */\n      add\n        /* \"#utility.yul\":14903:14951   */\n      mstore\n        /* \"#utility.yul\":14786:14958   */\n      pop\n      jump\t// out\n        /* \"#utility.yul\":14964:15330   */\n    tag_158:\n        /* \"#utility.yul\":15106:15109   */\n      0x00\n        /* \"#utility.yul\":15127:15194   */\n      tag_305\n        /* \"#utility.yul\":15191:15193   */\n      0x16\n        /* \"#utility.yul\":15186:15189   */\n      dup4\n        /* \"#utility.yul\":15127:15194   */\n      tag_156\n      jump\t// in\n    tag_305:\n        /* \"#utility.yul\":15120:15194   */\n      swap2\n      pop\n        /* \"#utility.yul\":15203:15296   */\n      tag_306\n        /* \"#utility.yul\":15292:15295   */\n      dup3\n        /* \"#utility.yul\":15203:15296   */\n      tag_157\n      jump\t// in\n    tag_306:\n        /* \"#utility.yul\":15321:15323   */\n      0x20\n        /* \"#utility.yul\":15316:15319   */\n      dup3\n        /* \"#utility.yul\":15312:15324   */\n      add\n        /* \"#utility.yul\":15305:15324   */\n      swap1\n      pop\n        /* \"#utility.yul\":14964:15330   */\n      swap2\n      swap1\n      pop\n      jump\t// out\n        /* \"#utility.yul\":15336:15755   */\n    tag_63:\n        /* \"#utility.yul\":15502:15506   */\n      0x00\n        /* \"#utility.yul\":15540:15542   */\n      0x20\n        /* \"#utility.yul\":15529:15538   */\n      dup3\n        /* \"#utility.yul\":15525:15543   */\n      add\n        /* \"#utility.yul\":15517:15543   */\n      swap1\n      pop\n        /* \"#utility.yul\":15589:15598   */\n      dup2\n        /* \"#utility.yul\":15583:15587   */\n      dup2\n        /* \"#utility.yul\":15579:15599   */\n      sub\n        /* \"#utility.yul\":15575:15576   */\n      0x00\n        /* \"#utility.yul\":15564:15573   */\n      dup4\n        /* \"#utility.yul\":15560:15577   */\n      add\n        /* \"#utility.yul\":15553:15600   */\n      mstore\n        /* \"#utility.yul\":15617:15748   */\n      tag_308\n        /* \"#utility.yul\":15743:15747   */\n      dup2\n        /* \"#utility.yul\":15617:15748   */\n      tag_158\n      jump\t// in\n    tag_308:\n        /* \"#utility.yul\":15609:15748   */\n      swap1\n      pop\n        /* \"#utility.yul\":15336:15755   */\n      swap2\n      swap1\n      pop\n      jump\t// out\n        /* \"#utility.yul\":15761:16093   */\n    tag_68:\n        /* \"#utility.yul\":15882:15886   */\n      0x00\n        /* \"#utility.yul\":15920:15922   */\n      0x40\n        /* \"#utility.yul\":15909:15918   */\n      dup3\n        /* \"#utility.yul\":15905:15923   */\n      add\n        /* \"#utility.yul\":15897:15923   */\n      swap1\n      pop\n        /* \"#utility.yul\":15933:16004   */\n      tag_310\n        /* \"#utility.yul\":16001:16002   */\n      0x00\n        /* \"#utility.yul\":15990:15999   */\n      dup4\n        /* \"#utility.yul\":15986:16003   */\n      add\n        /* \"#utility.yul\":15977:15983   */\n      dup6\n        /* \"#utility.yul\":15933:16004   */\n      tag_129\n      jump\t// in\n    tag_310:\n        /* \"#utility.yul\":16014:16086   */\n      tag_311\n        /* \"#utility.yul\":16082:16084   */\n      0x20\n        /* \"#utility.yul\":16071:16080   */\n      dup4\n        /* \"#utility.yul\":16067:16085   */\n      add\n        /* \"#utility.yul\":16058:16064   */\n      dup5\n        /* \"#utility.yul\":16014:16086   */\n      tag_130\n      jump\t// in\n    tag_311:\n        /* \"#utility.yul\":15761:16093   */\n      swap4\n      swap3\n      pop\n      pop\n      pop\n      jump\t// out\n        /* \"#utility.yul\":16099:16290   */\n    tag_77:\n        /* \"#utility.yul\":16139:16142   */\n      0x00\n        /* \"#utility.yul\":16158:16178   */\n      tag_313\n        /* \"#utility.yul\":16176:16177   */\n      dup3\n        /* \"#utility.yul\":16158:16178   */\n      tag_124\n      jump\t// in\n    tag_313:\n        /* \"#utility.yul\":16153:16178   */\n      swap2\n      pop\n        /* \"#utility.yul\":16192:16212   */\n      tag_314\n        /* \"#utility.yul\":16210:16211   */\n      dup4\n        /* \"#utility.yul\":16192:16212   */\n      tag_124\n      jump\t// in\n    tag_314:\n        /* \"#utility.yul\":16187:16212   */\n      swap3\n      pop\n        /* \"#utility.yul\":16235:16236   */\n      dup3\n        /* \"#utility.yul\":16232:16233   */\n      dup3\n        /* \"#utility.yul\":16228:16237   */\n      add\n        /* \"#utility.yul\":16221:16237   */\n      swap1\n      pop\n        /* \"#utility.yul\":16256:16259   */\n      dup1\n        /* \"#utility.yul\":16253:16254   */\n      dup3\n        /* \"#utility.yul\":16250:16260   */\n      gt\n        /* \"#utility.yul\":16247:16283   */\n      iszero\n      tag_315\n      jumpi\n        /* \"#utility.yul\":16263:16281   */\n      tag_316\n      tag_155\n      jump\t// in\n    tag_316:\n        /* \"#utility.yul\":16247:16283   */\n    tag_315:\n        /* \"#utility.yul\":16099:16290   */\n      swap3\n      swap2\n      pop\n      pop\n      jump\t// out\n\n    auxdata: 0xa2646970667358221220eb6dbe9b8e14286b4bd170069e0c27f9d3fab556ed8ca6ab813d7e926b25917264736f6c63430008100033\n}\n\nsub_1: assembly {\n        /* \"src/ConveyorSwapAggregator.sol\":5468:7063  contract ConveyorSwapExecutor {... */\n      mstore(0x40, 0x80)\n      callvalue\n      dup1\n      iszero\n      tag_1\n      jumpi\n      0x00\n      dup1\n      revert\n    tag_1:\n      pop\n      dataSize(sub_0)\n      dup1\n      dataOffset(sub_0)\n      0x00\n      codecopy\n      0x00\n      return\n    stop\n\n    sub_0: assembly {\n            /* \"src/ConveyorSwapAggregator.sol\":5468:7063  contract ConveyorSwapExecutor {... */\n          mstore(0x40, 0x80)\n          callvalue\n          dup1\n          iszero\n          tag_1\n          jumpi\n          0x00\n          dup1\n          revert\n        tag_1:\n          pop\n          jumpi(tag_2, lt(calldatasize, 0x04))\n          shr(0xe0, calldataload(0x00))\n          dup1\n          0x1706756f\n          eq\n          tag_3\n          jumpi\n          dup1\n          0xfa461e33\n          eq\n          tag_4\n          jumpi\n        tag_2:\n          0x00\n          dup1\n          revert\n            /* \"src/ConveyorSwapAggregator.sol\":5504:5940  function executeMulticall(ConveyorSwapAggregator.Call[] calldata calls)... */\n        tag_3:\n          tag_5\n          0x04\n          dup1\n          calldatasize\n          sub\n          dup2\n          add\n          swap1\n          tag_6\n          swap2\n          swap1\n          tag_7\n          jump\t// in\n        tag_6:\n          tag_8\n          jump\t// in\n        tag_5:\n          stop\n            /* \"src/ConveyorSwapAggregator.sol\":6234:7061  function uniswapV3SwapCallback(... */\n        tag_4:\n          tag_9\n          0x04\n          dup1\n          calldatasize\n          sub\n          dup2\n          add\n          swap1\n          tag_10\n          swap2\n          swap1\n          tag_11\n          jump\t// in\n        tag_10:\n          tag_12\n          jump\t// in\n        tag_9:\n          stop\n            /* \"src/ConveyorSwapAggregator.sol\":5504:5940  function executeMulticall(ConveyorSwapAggregator.Call[] calldata calls)... */\n        tag_8:\n            /* \"src/ConveyorSwapAggregator.sol\":5605:5624  uint256 callsLength */\n          0x00\n            /* \"src/ConveyorSwapAggregator.sol\":5627:5632  calls */\n          dup3\n          dup3\n            /* \"src/ConveyorSwapAggregator.sol\":5627:5639  calls.length */\n          swap1\n          pop\n            /* \"src/ConveyorSwapAggregator.sol\":5605:5639  uint256 callsLength = calls.length */\n          swap1\n          pop\n            /* \"src/ConveyorSwapAggregator.sol\":5654:5663  uint256 i */\n          0x00\n            /* \"src/ConveyorSwapAggregator.sol\":5649:5934  for (uint256 i = 0; i < callsLength; ) {... */\n        tag_14:\n            /* \"src/ConveyorSwapAggregator.sol\":5673:5684  callsLength */\n          dup2\n            /* \"src/ConveyorSwapAggregator.sol\":5669:5670  i */\n          dup2\n            /* \"src/ConveyorSwapAggregator.sol\":5669:5684  i < callsLength */\n          lt\n            /* \"src/ConveyorSwapAggregator.sol\":5649:5934  for (uint256 i = 0; i < callsLength; ) {... */\n          iszero\n          tag_15\n          jumpi\n            /* \"src/ConveyorSwapAggregator.sol\":5702:5741  ConveyorSwapAggregator.Call memory call */\n          0x00\n            /* \"src/ConveyorSwapAggregator.sol\":5744:5749  calls */\n          dup5\n          dup5\n            /* \"src/ConveyorSwapAggregator.sol\":5750:5751  i */\n          dup4\n            /* \"src/ConveyorSwapAggregator.sol\":5744:5752  calls[i] */\n          dup2\n          dup2\n          lt\n          tag_17\n          jumpi\n          tag_18\n          tag_19\n          jump\t// in\n        tag_18:\n        tag_17:\n          swap1\n          pop\n          0x20\n          mul\n          dup2\n          add\n          swap1\n          tag_20\n          swap2\n          swap1\n          tag_21\n          jump\t// in\n        tag_20:\n            /* \"src/ConveyorSwapAggregator.sol\":5702:5752  ConveyorSwapAggregator.Call memory call = calls[i] */\n          tag_22\n          swap1\n          tag_23\n          jump\t// in\n        tag_22:\n          swap1\n          pop\n            /* \"src/ConveyorSwapAggregator.sol\":5768:5780  bool success */\n          0x00\n            /* \"src/ConveyorSwapAggregator.sol\":5786:5790  call */\n          dup2\n            /* \"src/ConveyorSwapAggregator.sol\":5786:5797  call.target */\n          0x00\n          add\n          mload\n            /* \"src/ConveyorSwapAggregator.sol\":5786:5802  call.target.call */\n          0xffffffffffffffffffffffffffffffffffffffff\n          and\n            /* \"src/ConveyorSwapAggregator.sol\":5803:5807  call */\n          dup3\n            /* \"src/ConveyorSwapAggregator.sol\":5803:5816  call.callData */\n          0x20\n          add\n          mload\n            /* \"src/ConveyorSwapAggregator.sol\":5786:5817  call.target.call(call.callData) */\n          mload(0x40)\n          tag_24\n          swap2\n          swap1\n          tag_25\n          jump\t// in\n        tag_24:\n          0x00\n          mload(0x40)\n          dup1\n          dup4\n          sub\n          dup2\n          0x00\n          dup7\n          gas\n          call\n          swap2\n          pop\n          pop\n          returndatasize\n          dup1\n          0x00\n          dup2\n          eq\n          tag_28\n          jumpi\n          mload(0x40)\n          swap2\n          pop\n          and(add(returndatasize, 0x3f), not(0x1f))\n          dup3\n          add\n          0x40\n          mstore\n          returndatasize\n          dup3\n          mstore\n          returndatasize\n          0x00\n          0x20\n          dup5\n          add\n          returndatacopy\n          jump(tag_27)\n        tag_28:\n          0x60\n          swap2\n          pop\n        tag_27:\n          pop\n            /* \"src/ConveyorSwapAggregator.sol\":5767:5817  (bool success, ) = call.target.call(call.callData) */\n          pop\n          swap1\n          pop\n            /* \"src/ConveyorSwapAggregator.sol\":5840:5847  success */\n          dup1\n            /* \"src/ConveyorSwapAggregator.sol\":5832:5863  require(success, \"call failed\") */\n          tag_29\n          jumpi\n          mload(0x40)\n          0x08c379a000000000000000000000000000000000000000000000000000000000\n          dup2\n          mstore\n          0x04\n          add\n          tag_30\n          swap1\n          tag_31\n          jump\t// in\n        tag_30:\n          mload(0x40)\n          dup1\n          swap2\n          sub\n          swap1\n          revert\n        tag_29:\n            /* \"src/ConveyorSwapAggregator.sol\":5906:5909  ++i */\n          dup3\n          0x01\n          add\n          swap3\n          pop\n            /* \"src/ConveyorSwapAggregator.sol\":5688:5934  {... */\n          pop\n          pop\n            /* \"src/ConveyorSwapAggregator.sol\":5649:5934  for (uint256 i = 0; i < callsLength; ) {... */\n          jump(tag_14)\n        tag_15:\n          pop\n            /* \"src/ConveyorSwapAggregator.sol\":5595:5940  {... */\n          pop\n            /* \"src/ConveyorSwapAggregator.sol\":5504:5940  function executeMulticall(ConveyorSwapAggregator.Call[] calldata calls)... */\n          pop\n          pop\n          jump\t// out\n            /* \"src/ConveyorSwapAggregator.sol\":6234:7061  function uniswapV3SwapCallback(... */\n        tag_12:\n            /* \"src/ConveyorSwapAggregator.sol\":6426:6442  bool _zeroForOne */\n          0x00\n            /* \"src/ConveyorSwapAggregator.sol\":6444:6459  address tokenIn */\n          dup1\n            /* \"src/ConveyorSwapAggregator.sol\":6461:6476  address _sender */\n          0x00\n            /* \"src/ConveyorSwapAggregator.sol\":6504:6508  data */\n          dup5\n          dup5\n            /* \"src/ConveyorSwapAggregator.sol\":6480:6556  abi.decode(... */\n          dup2\n          add\n          swap1\n          tag_33\n          swap2\n          swap1\n          tag_34\n          jump\t// in\n        tag_33:\n            /* \"src/ConveyorSwapAggregator.sol\":6425:6556  (bool _zeroForOne, address tokenIn, address _sender) = abi.decode(... */\n          swap3\n          pop\n          swap3\n          pop\n          swap3\n          pop\n            /* \"src/ConveyorSwapAggregator.sol\":6653:6669  uint256 amountIn */\n          0x00\n            /* \"src/ConveyorSwapAggregator.sol\":6672:6683  _zeroForOne */\n          dup4\n            /* \"src/ConveyorSwapAggregator.sol\":6672:6755  _zeroForOne... */\n          tag_35\n          jumpi\n            /* \"src/ConveyorSwapAggregator.sol\":6742:6754  amount1Delta */\n          dup7\n            /* \"src/ConveyorSwapAggregator.sol\":6672:6755  _zeroForOne... */\n          jump(tag_36)\n        tag_35:\n            /* \"src/ConveyorSwapAggregator.sol\":6706:6718  amount0Delta */\n          dup8\n            /* \"src/ConveyorSwapAggregator.sol\":6672:6755  _zeroForOne... */\n        tag_36:\n            /* \"src/ConveyorSwapAggregator.sol\":6653:6755  uint256 amountIn = _zeroForOne... */\n          swap1\n          pop\n            /* \"src/ConveyorSwapAggregator.sol\":6791:6795  this */\n          address\n            /* \"src/ConveyorSwapAggregator.sol\":6772:6796  _sender == address(this) */\n          0xffffffffffffffffffffffffffffffffffffffff\n          and\n            /* \"src/ConveyorSwapAggregator.sol\":6772:6779  _sender */\n          dup3\n            /* \"src/ConveyorSwapAggregator.sol\":6772:6796  _sender == address(this) */\n          0xffffffffffffffffffffffffffffffffffffffff\n          and\n          eq\n            /* \"src/ConveyorSwapAggregator.sol\":6766:7055  if (!(_sender == address(this))) {... */\n          tag_37\n          jumpi\n            /* \"src/ConveyorSwapAggregator.sol\":6915:6922  tokenIn */\n          dup3\n            /* \"src/ConveyorSwapAggregator.sol\":6908:6936  IERC20(tokenIn).transferFrom */\n          0xffffffffffffffffffffffffffffffffffffffff\n          and\n          0x23b872dd\n            /* \"src/ConveyorSwapAggregator.sol\":6937:6944  _sender */\n          dup4\n            /* \"src/ConveyorSwapAggregator.sol\":6946:6956  msg.sender */\n          caller\n            /* \"src/ConveyorSwapAggregator.sol\":6958:6966  amountIn */\n          dup5\n            /* \"src/ConveyorSwapAggregator.sol\":6908:6967  IERC20(tokenIn).transferFrom(_sender, msg.sender, amountIn) */\n          mload(0x40)\n          dup5\n          0xffffffff\n          and\n          0xe0\n          shl\n          dup2\n          mstore\n          0x04\n          add\n          tag_38\n          swap4\n          swap3\n          swap2\n          swap1\n          tag_39\n          jump\t// in\n        tag_38:\n          0x20\n          mload(0x40)\n          dup1\n          dup4\n          sub\n          dup2\n          0x00\n          dup8\n          gas\n          call\n          iszero\n          dup1\n          iszero\n          tag_41\n          jumpi\n          returndatasize\n          0x00\n          dup1\n          returndatacopy\n          revert(0x00, returndatasize)\n        tag_41:\n          pop\n          pop\n          pop\n          pop\n          mload(0x40)\n          returndatasize\n          not(0x1f)\n          0x1f\n          dup3\n          add\n          and\n          dup3\n          add\n          dup1\n          0x40\n          mstore\n          pop\n          dup2\n          add\n          swap1\n          tag_42\n          swap2\n          swap1\n          tag_43\n          jump\t// in\n        tag_42:\n          pop\n            /* \"src/ConveyorSwapAggregator.sol\":6766:7055  if (!(_sender == address(this))) {... */\n          jump(tag_44)\n        tag_37:\n            /* \"src/ConveyorSwapAggregator.sol\":7005:7012  tokenIn */\n          dup3\n            /* \"src/ConveyorSwapAggregator.sol\":6998:7022  IERC20(tokenIn).transfer */\n          0xffffffffffffffffffffffffffffffffffffffff\n          and\n          0xa9059cbb\n            /* \"src/ConveyorSwapAggregator.sol\":7023:7033  msg.sender */\n          caller\n            /* \"src/ConveyorSwapAggregator.sol\":7035:7043  amountIn */\n          dup4\n            /* \"src/ConveyorSwapAggregator.sol\":6998:7044  IERC20(tokenIn).transfer(msg.sender, amountIn) */\n          mload(0x40)\n          dup4\n          0xffffffff\n          and\n          0xe0\n          shl\n          dup2\n          mstore\n          0x04\n          add\n          tag_45\n          swap3\n          swap2\n          swap1\n          tag_46\n          jump\t// in\n        tag_45:\n          0x20\n          mload(0x40)\n          dup1\n          dup4\n          sub\n          dup2\n          0x00\n          dup8\n          gas\n          call\n          iszero\n          dup1\n          iszero\n          tag_48\n          jumpi\n          returndatasize\n          0x00\n          dup1\n          returndatacopy\n          revert(0x00, returndatasize)\n        tag_48:\n          pop\n          pop\n          pop\n          pop\n          mload(0x40)\n          returndatasize\n          not(0x1f)\n          0x1f\n          dup3\n          add\n          and\n          dup3\n          add\n          dup1\n          0x40\n          mstore\n          pop\n          dup2\n          add\n          swap1\n          tag_49\n          swap2\n          swap1\n          tag_43\n          jump\t// in\n        tag_49:\n          pop\n            /* \"src/ConveyorSwapAggregator.sol\":6766:7055  if (!(_sender == address(this))) {... */\n        tag_44:\n            /* \"src/ConveyorSwapAggregator.sol\":6367:7061  {... */\n          pop\n          pop\n          pop\n          pop\n            /* \"src/ConveyorSwapAggregator.sol\":6234:7061  function uniswapV3SwapCallback(... */\n          pop\n          pop\n          pop\n          pop\n          jump\t// out\n            /* \"#utility.yul\":7:82   */\n        tag_50:\n            /* \"#utility.yul\":40:46   */\n          0x00\n            /* \"#utility.yul\":73:75   */\n          0x40\n            /* \"#utility.yul\":67:76   */\n          mload\n            /* \"#utility.yul\":57:76   */\n          swap1\n          pop\n            /* \"#utility.yul\":7:82   */\n          swap1\n          jump\t// out\n            /* \"#utility.yul\":88:205   */\n        tag_51:\n            /* \"#utility.yul\":197:198   */\n          0x00\n            /* \"#utility.yul\":194:195   */\n          dup1\n            /* \"#utility.yul\":187:199   */\n          revert\n            /* \"#utility.yul\":211:328   */\n        tag_52:\n            /* \"#utility.yul\":320:321   */\n          0x00\n            /* \"#utility.yul\":317:318   */\n          dup1\n            /* \"#utility.yul\":310:322   */\n          revert\n            /* \"#utility.yul\":334:451   */\n        tag_53:\n            /* \"#utility.yul\":443:444   */\n          0x00\n            /* \"#utility.yul\":440:441   */\n          dup1\n            /* \"#utility.yul\":433:445   */\n          revert\n            /* \"#utility.yul\":457:574   */\n        tag_54:\n            /* \"#utility.yul\":566:567   */\n          0x00\n            /* \"#utility.yul\":563:564   */\n          dup1\n            /* \"#utility.yul\":556:568   */\n          revert\n            /* \"#utility.yul\":580:697   */\n        tag_55:\n            /* \"#utility.yul\":689:690   */\n          0x00\n            /* \"#utility.yul\":686:687   */\n          dup1\n            /* \"#utility.yul\":679:691   */\n          revert\n            /* \"#utility.yul\":747:1338   */\n        tag_56:\n            /* \"#utility.yul\":843:851   */\n          0x00\n            /* \"#utility.yul\":853:859   */\n          dup1\n            /* \"#utility.yul\":903:906   */\n          dup4\n            /* \"#utility.yul\":896:900   */\n          0x1f\n            /* \"#utility.yul\":888:894   */\n          dup5\n            /* \"#utility.yul\":884:901   */\n          add\n            /* \"#utility.yul\":880:907   */\n          slt\n            /* \"#utility.yul\":870:992   */\n          tag_105\n          jumpi\n            /* \"#utility.yul\":911:990   */\n          tag_106\n          tag_53\n          jump\t// in\n        tag_106:\n            /* \"#utility.yul\":870:992   */\n        tag_105:\n            /* \"#utility.yul\":1024:1030   */\n          dup3\n            /* \"#utility.yul\":1011:1031   */\n          calldataload\n            /* \"#utility.yul\":1001:1031   */\n          swap1\n          pop\n            /* \"#utility.yul\":1054:1072   */\n          0xffffffffffffffff\n            /* \"#utility.yul\":1046:1052   */\n          dup2\n            /* \"#utility.yul\":1043:1073   */\n          gt\n            /* \"#utility.yul\":1040:1157   */\n          iszero\n          tag_107\n          jumpi\n            /* \"#utility.yul\":1076:1155   */\n          tag_108\n          tag_54\n          jump\t// in\n        tag_108:\n            /* \"#utility.yul\":1040:1157   */\n        tag_107:\n            /* \"#utility.yul\":1190:1194   */\n          0x20\n            /* \"#utility.yul\":1182:1188   */\n          dup4\n            /* \"#utility.yul\":1178:1195   */\n          add\n            /* \"#utility.yul\":1166:1195   */\n          swap2\n          pop\n            /* \"#utility.yul\":1244:1247   */\n          dup4\n            /* \"#utility.yul\":1236:1240   */\n          0x20\n            /* \"#utility.yul\":1228:1234   */\n          dup3\n            /* \"#utility.yul\":1224:1241   */\n          mul\n            /* \"#utility.yul\":1214:1222   */\n          dup4\n            /* \"#utility.yul\":1210:1242   */\n          add\n            /* \"#utility.yul\":1207:1248   */\n          gt\n            /* \"#utility.yul\":1204:1332   */\n          iszero\n          tag_109\n          jumpi\n            /* \"#utility.yul\":1251:1330   */\n          tag_110\n          tag_55\n          jump\t// in\n        tag_110:\n            /* \"#utility.yul\":1204:1332   */\n        tag_109:\n            /* \"#utility.yul\":747:1338   */\n          swap3\n          pop\n          swap3\n          swap1\n          pop\n          jump\t// out\n            /* \"#utility.yul\":1344:1949   */\n        tag_7:\n            /* \"#utility.yul\":1453:1459   */\n          0x00\n            /* \"#utility.yul\":1461:1467   */\n          dup1\n            /* \"#utility.yul\":1510:1512   */\n          0x20\n            /* \"#utility.yul\":1498:1507   */\n          dup4\n            /* \"#utility.yul\":1489:1496   */\n          dup6\n            /* \"#utility.yul\":1485:1508   */\n          sub\n            /* \"#utility.yul\":1481:1513   */\n          slt\n            /* \"#utility.yul\":1478:1597   */\n          iszero\n          tag_112\n          jumpi\n            /* \"#utility.yul\":1516:1595   */\n          tag_113\n          tag_51\n          jump\t// in\n        tag_113:\n            /* \"#utility.yul\":1478:1597   */\n        tag_112:\n            /* \"#utility.yul\":1664:1665   */\n          0x00\n            /* \"#utility.yul\":1653:1662   */\n          dup4\n            /* \"#utility.yul\":1649:1666   */\n          add\n            /* \"#utility.yul\":1636:1667   */\n          calldataload\n            /* \"#utility.yul\":1694:1712   */\n          0xffffffffffffffff\n            /* \"#utility.yul\":1686:1692   */\n          dup2\n            /* \"#utility.yul\":1683:1713   */\n          gt\n            /* \"#utility.yul\":1680:1797   */\n          iszero\n          tag_114\n          jumpi\n            /* \"#utility.yul\":1716:1795   */\n          tag_115\n          tag_52\n          jump\t// in\n        tag_115:\n            /* \"#utility.yul\":1680:1797   */\n        tag_114:\n            /* \"#utility.yul\":1829:1932   */\n          tag_116\n            /* \"#utility.yul\":1924:1931   */\n          dup6\n            /* \"#utility.yul\":1915:1921   */\n          dup3\n            /* \"#utility.yul\":1904:1913   */\n          dup7\n            /* \"#utility.yul\":1900:1922   */\n          add\n            /* \"#utility.yul\":1829:1932   */\n          tag_56\n          jump\t// in\n        tag_116:\n            /* \"#utility.yul\":1811:1932   */\n          swap3\n          pop\n          swap3\n          pop\n            /* \"#utility.yul\":1607:1942   */\n          pop\n            /* \"#utility.yul\":1344:1949   */\n          swap3\n          pop\n          swap3\n          swap1\n          pop\n          jump\t// out\n            /* \"#utility.yul\":1955:2031   */\n        tag_57:\n            /* \"#utility.yul\":1991:1998   */\n          0x00\n            /* \"#utility.yul\":2020:2025   */\n          dup2\n            /* \"#utility.yul\":2009:2025   */\n          swap1\n          pop\n            /* \"#utility.yul\":1955:2031   */\n          swap2\n          swap1\n          pop\n          jump\t// out\n            /* \"#utility.yul\":2037:2157   */\n        tag_58:\n            /* \"#utility.yul\":2109:2132   */\n          tag_119\n            /* \"#utility.yul\":2126:2131   */\n          dup2\n            /* \"#utility.yul\":2109:2132   */\n          tag_57\n          jump\t// in\n        tag_119:\n            /* \"#utility.yul\":2102:2107   */\n          dup2\n            /* \"#utility.yul\":2099:2133   */\n          eq\n            /* \"#utility.yul\":2089:2151   */\n          tag_120\n          jumpi\n            /* \"#utility.yul\":2147:2148   */\n          0x00\n            /* \"#utility.yul\":2144:2145   */\n          dup1\n            /* \"#utility.yul\":2137:2149   */\n          revert\n            /* \"#utility.yul\":2089:2151   */\n        tag_120:\n            /* \"#utility.yul\":2037:2157   */\n          pop\n          jump\t// out\n            /* \"#utility.yul\":2163:2300   */\n        tag_59:\n            /* \"#utility.yul\":2208:2213   */\n          0x00\n            /* \"#utility.yul\":2246:2252   */\n          dup2\n            /* \"#utility.yul\":2233:2253   */\n          calldataload\n            /* \"#utility.yul\":2224:2253   */\n          swap1\n          pop\n            /* \"#utility.yul\":2262:2294   */\n          tag_122\n            /* \"#utility.yul\":2288:2293   */\n          dup2\n            /* \"#utility.yul\":2262:2294   */\n          tag_58\n          jump\t// in\n        tag_122:\n            /* \"#utility.yul\":2163:2300   */\n          swap3\n          swap2\n          pop\n          pop\n          jump\t// out\n            /* \"#utility.yul\":2319:2871   */\n        tag_60:\n            /* \"#utility.yul\":2376:2384   */\n          0x00\n            /* \"#utility.yul\":2386:2392   */\n          dup1\n            /* \"#utility.yul\":2436:2439   */\n          dup4\n            /* \"#utility.yul\":2429:2433   */\n          0x1f\n            /* \"#utility.yul\":2421:2427   */\n          dup5\n            /* \"#utility.yul\":2417:2434   */\n          add\n            /* \"#utility.yul\":2413:2440   */\n          slt\n            /* \"#utility.yul\":2403:2525   */\n          tag_124\n          jumpi\n            /* \"#utility.yul\":2444:2523   */\n          tag_125\n          tag_53\n          jump\t// in\n        tag_125:\n            /* \"#utility.yul\":2403:2525   */\n        tag_124:\n            /* \"#utility.yul\":2557:2563   */\n          dup3\n            /* \"#utility.yul\":2544:2564   */\n          calldataload\n            /* \"#utility.yul\":2534:2564   */\n          swap1\n          pop\n            /* \"#utility.yul\":2587:2605   */\n          0xffffffffffffffff\n            /* \"#utility.yul\":2579:2585   */\n          dup2\n            /* \"#utility.yul\":2576:2606   */\n          gt\n            /* \"#utility.yul\":2573:2690   */\n          iszero\n          tag_126\n          jumpi\n            /* \"#utility.yul\":2609:2688   */\n          tag_127\n          tag_54\n          jump\t// in\n        tag_127:\n            /* \"#utility.yul\":2573:2690   */\n        tag_126:\n            /* \"#utility.yul\":2723:2727   */\n          0x20\n            /* \"#utility.yul\":2715:2721   */\n          dup4\n            /* \"#utility.yul\":2711:2728   */\n          add\n            /* \"#utility.yul\":2699:2728   */\n          swap2\n          pop\n            /* \"#utility.yul\":2777:2780   */\n          dup4\n            /* \"#utility.yul\":2769:2773   */\n          0x01\n            /* \"#utility.yul\":2761:2767   */\n          dup3\n            /* \"#utility.yul\":2757:2774   */\n          mul\n            /* \"#utility.yul\":2747:2755   */\n          dup4\n            /* \"#utility.yul\":2743:2775   */\n          add\n            /* \"#utility.yul\":2740:2781   */\n          gt\n            /* \"#utility.yul\":2737:2865   */\n          iszero\n          tag_128\n          jumpi\n            /* \"#utility.yul\":2784:2863   */\n          tag_129\n          tag_55\n          jump\t// in\n        tag_129:\n            /* \"#utility.yul\":2737:2865   */\n        tag_128:\n            /* \"#utility.yul\":2319:2871   */\n          swap3\n          pop\n          swap3\n          swap1\n          pop\n          jump\t// out\n            /* \"#utility.yul\":2877:3690   */\n        tag_11:\n            /* \"#utility.yul\":2963:2969   */\n          0x00\n            /* \"#utility.yul\":2971:2977   */\n          dup1\n            /* \"#utility.yul\":2979:2985   */\n          0x00\n            /* \"#utility.yul\":2987:2993   */\n          dup1\n            /* \"#utility.yul\":3036:3038   */\n          0x60\n            /* \"#utility.yul\":3024:3033   */\n          dup6\n            /* \"#utility.yul\":3015:3022   */\n          dup8\n            /* \"#utility.yul\":3011:3034   */\n          sub\n            /* \"#utility.yul\":3007:3039   */\n          slt\n            /* \"#utility.yul\":3004:3123   */\n          iszero\n          tag_131\n          jumpi\n            /* \"#utility.yul\":3042:3121   */\n          tag_132\n          tag_51\n          jump\t// in\n        tag_132:\n            /* \"#utility.yul\":3004:3123   */\n        tag_131:\n            /* \"#utility.yul\":3162:3163   */\n          0x00\n            /* \"#utility.yul\":3187:3239   */\n          tag_133\n            /* \"#utility.yul\":3231:3238   */\n          dup8\n            /* \"#utility.yul\":3222:3228   */\n          dup3\n            /* \"#utility.yul\":3211:3220   */\n          dup9\n            /* \"#utility.yul\":3207:3229   */\n          add\n            /* \"#utility.yul\":3187:3239   */\n          tag_59\n          jump\t// in\n        tag_133:\n            /* \"#utility.yul\":3177:3239   */\n          swap5\n          pop\n            /* \"#utility.yul\":3133:3249   */\n          pop\n            /* \"#utility.yul\":3288:3290   */\n          0x20\n            /* \"#utility.yul\":3314:3366   */\n          tag_134\n            /* \"#utility.yul\":3358:3365   */\n          dup8\n            /* \"#utility.yul\":3349:3355   */\n          dup3\n            /* \"#utility.yul\":3338:3347   */\n          dup9\n            /* \"#utility.yul\":3334:3356   */\n          add\n            /* \"#utility.yul\":3314:3366   */\n          tag_59\n          jump\t// in\n        tag_134:\n            /* \"#utility.yul\":3304:3366   */\n          swap4\n          pop\n            /* \"#utility.yul\":3259:3376   */\n          pop\n            /* \"#utility.yul\":3443:3445   */\n          0x40\n            /* \"#utility.yul\":3432:3441   */\n          dup6\n            /* \"#utility.yul\":3428:3446   */\n          add\n            /* \"#utility.yul\":3415:3447   */\n          calldataload\n            /* \"#utility.yul\":3474:3492   */\n          0xffffffffffffffff\n            /* \"#utility.yul\":3466:3472   */\n          dup2\n            /* \"#utility.yul\":3463:3493   */\n          gt\n            /* \"#utility.yul\":3460:3577   */\n          iszero\n          tag_135\n          jumpi\n            /* \"#utility.yul\":3496:3575   */\n          tag_136\n          tag_52\n          jump\t// in\n        tag_136:\n            /* \"#utility.yul\":3460:3577   */\n        tag_135:\n            /* \"#utility.yul\":3609:3673   */\n          tag_137\n            /* \"#utility.yul\":3665:3672   */\n          dup8\n            /* \"#utility.yul\":3656:3662   */\n          dup3\n            /* \"#utility.yul\":3645:3654   */\n          dup9\n            /* \"#utility.yul\":3641:3663   */\n          add\n            /* \"#utility.yul\":3609:3673   */\n          tag_60\n          jump\t// in\n        tag_137:\n            /* \"#utility.yul\":3591:3673   */\n          swap3\n          pop\n          swap3\n          pop\n            /* \"#utility.yul\":3386:3683   */\n          pop\n            /* \"#utility.yul\":2877:3690   */\n          swap3\n          swap6\n          swap2\n          swap5\n          pop\n          swap3\n          pop\n          jump\t// out\n            /* \"#utility.yul\":3696:3876   */\n        tag_19:\n            /* \"#utility.yul\":3744:3821   */\n          0x4e487b7100000000000000000000000000000000000000000000000000000000\n            /* \"#utility.yul\":3741:3742   */\n          0x00\n            /* \"#utility.yul\":3734:3822   */\n          mstore\n            /* \"#utility.yul\":3841:3845   */\n          0x32\n            /* \"#utility.yul\":3838:3839   */\n          0x04\n            /* \"#utility.yul\":3831:3846   */\n          mstore\n            /* \"#utility.yul\":3865:3869   */\n          0x24\n            /* \"#utility.yul\":3862:3863   */\n          0x00\n            /* \"#utility.yul\":3855:3870   */\n          revert\n            /* \"#utility.yul\":3882:3999   */\n        tag_61:\n            /* \"#utility.yul\":3991:3992   */\n          0x00\n            /* \"#utility.yul\":3988:3989   */\n          dup1\n            /* \"#utility.yul\":3981:3993   */\n          revert\n            /* \"#utility.yul\":4251:4640   */\n        tag_21:\n            /* \"#utility.yul\":4340:4344   */\n          0x00\n            /* \"#utility.yul\":4394:4405   */\n          dup3\n            /* \"#utility.yul\":4381:4406   */\n          calldataload\n            /* \"#utility.yul\":4494:4495   */\n          0x01\n            /* \"#utility.yul\":4488:4492   */\n          0x40\n            /* \"#utility.yul\":4484:4496   */\n          sub\n            /* \"#utility.yul\":4473:4481   */\n          dup4\n            /* \"#utility.yul\":4457:4471   */\n          calldatasize\n            /* \"#utility.yul\":4453:4482   */\n          sub\n            /* \"#utility.yul\":4449:4497   */\n          sub\n            /* \"#utility.yul\":4429:4447   */\n          dup2\n            /* \"#utility.yul\":4425:4498   */\n          slt\n            /* \"#utility.yul\":4415:4583   */\n          tag_143\n          jumpi\n            /* \"#utility.yul\":4502:4581   */\n          tag_144\n          tag_61\n          jump\t// in\n        tag_144:\n            /* \"#utility.yul\":4415:4583   */\n        tag_143:\n            /* \"#utility.yul\":4614:4632   */\n          dup1\n            /* \"#utility.yul\":4604:4612   */\n          dup4\n            /* \"#utility.yul\":4600:4633   */\n          add\n            /* \"#utility.yul\":4592:4633   */\n          swap2\n          pop\n            /* \"#utility.yul\":4345:4640   */\n          pop\n            /* \"#utility.yul\":4251:4640   */\n          swap3\n          swap2\n          pop\n          pop\n          jump\t// out\n            /* \"#utility.yul\":4646:4763   */\n        tag_64:\n            /* \"#utility.yul\":4755:4756   */\n          0x00\n            /* \"#utility.yul\":4752:4753   */\n          dup1\n            /* \"#utility.yul\":4745:4757   */\n          revert\n            /* \"#utility.yul\":4769:4871   */\n        tag_65:\n            /* \"#utility.yul\":4810:4816   */\n          0x00\n            /* \"#utility.yul\":4861:4863   */\n          0x1f\n            /* \"#utility.yul\":4857:4864   */\n          not\n            /* \"#utility.yul\":4852:4854   */\n          0x1f\n            /* \"#utility.yul\":4845:4850   */\n          dup4\n            /* \"#utility.yul\":4841:4855   */\n          add\n            /* \"#utility.yul\":4837:4865   */\n          and\n            /* \"#utility.yul\":4827:4865   */\n          swap1\n          pop\n            /* \"#utility.yul\":4769:4871   */\n          swap2\n          swap1\n          pop\n          jump\t// out\n            /* \"#utility.yul\":4877:5057   */\n        tag_66:\n            /* \"#utility.yul\":4925:5002   */\n          0x4e487b7100000000000000000000000000000000000000000000000000000000\n            /* \"#utility.yul\":4922:4923   */\n          0x00\n            /* \"#utility.yul\":4915:5003   */\n          mstore\n            /* \"#utility.yul\":5022:5026   */\n          0x41\n            /* \"#utility.yul\":5019:5020   */\n          0x04\n            /* \"#utility.yul\":5012:5027   */\n          mstore\n            /* \"#utility.yul\":5046:5050   */\n          0x24\n            /* \"#utility.yul\":5043:5044   */\n          0x00\n            /* \"#utility.yul\":5036:5051   */\n          revert\n            /* \"#utility.yul\":5063:5344   */\n        tag_67:\n            /* \"#utility.yul\":5146:5173   */\n          tag_149\n            /* \"#utility.yul\":5168:5172   */\n          dup3\n            /* \"#utility.yul\":5146:5173   */\n          tag_65\n          jump\t// in\n        tag_149:\n            /* \"#utility.yul\":5138:5144   */\n          dup2\n            /* \"#utility.yul\":5134:5174   */\n          add\n            /* \"#utility.yul\":5276:5282   */\n          dup2\n            /* \"#utility.yul\":5264:5274   */\n          dup2\n            /* \"#utility.yul\":5261:5283   */\n          lt\n            /* \"#utility.yul\":5240:5258   */\n          0xffffffffffffffff\n            /* \"#utility.yul\":5228:5238   */\n          dup3\n            /* \"#utility.yul\":5225:5259   */\n          gt\n            /* \"#utility.yul\":5222:5284   */\n          or\n            /* \"#utility.yul\":5219:5307   */\n          iszero\n          tag_150\n          jumpi\n            /* \"#utility.yul\":5287:5305   */\n          tag_151\n          tag_66\n          jump\t// in\n        tag_151:\n            /* \"#utility.yul\":5219:5307   */\n        tag_150:\n            /* \"#utility.yul\":5327:5337   */\n          dup1\n            /* \"#utility.yul\":5323:5325   */\n          0x40\n            /* \"#utility.yul\":5316:5338   */\n          mstore\n            /* \"#utility.yul\":5106:5344   */\n          pop\n            /* \"#utility.yul\":5063:5344   */\n          pop\n          pop\n          jump\t// out\n            /* \"#utility.yul\":5350:5479   */\n        tag_68:\n            /* \"#utility.yul\":5384:5390   */\n          0x00\n            /* \"#utility.yul\":5411:5431   */\n          tag_153\n          tag_50\n          jump\t// in\n        tag_153:\n            /* \"#utility.yul\":5401:5431   */\n          swap1\n          pop\n            /* \"#utility.yul\":5440:5473   */\n          tag_154\n            /* \"#utility.yul\":5468:5472   */\n          dup3\n            /* \"#utility.yul\":5460:5466   */\n          dup3\n            /* \"#utility.yul\":5440:5473   */\n          tag_67\n          jump\t// in\n        tag_154:\n            /* \"#utility.yul\":5350:5479   */\n          swap2\n          swap1\n          pop\n          jump\t// out\n            /* \"#utility.yul\":5485:5602   */\n        tag_69:\n            /* \"#utility.yul\":5594:5595   */\n          0x00\n            /* \"#utility.yul\":5591:5592   */\n          dup1\n            /* \"#utility.yul\":5584:5596   */\n          revert\n            /* \"#utility.yul\":5608:5734   */\n        tag_70:\n            /* \"#utility.yul\":5645:5652   */\n          0x00\n            /* \"#utility.yul\":5685:5727   */\n          0xffffffffffffffffffffffffffffffffffffffff\n            /* \"#utility.yul\":5678:5683   */\n          dup3\n            /* \"#utility.yul\":5674:5728   */\n          and\n            /* \"#utility.yul\":5663:5728   */\n          swap1\n          pop\n            /* \"#utility.yul\":5608:5734   */\n          swap2\n          swap1\n          pop\n          jump\t// out\n            /* \"#utility.yul\":5740:5836   */\n        tag_71:\n            /* \"#utility.yul\":5777:5784   */\n          0x00\n            /* \"#utility.yul\":5806:5830   */\n          tag_158\n            /* \"#utility.yul\":5824:5829   */\n          dup3\n            /* \"#utility.yul\":5806:5830   */\n          tag_70\n          jump\t// in\n        tag_158:\n            /* \"#utility.yul\":5795:5830   */\n          swap1\n          pop\n            /* \"#utility.yul\":5740:5836   */\n          swap2\n          swap1\n          pop\n          jump\t// out\n            /* \"#utility.yul\":5842:5964   */\n        tag_72:\n            /* \"#utility.yul\":5915:5939   */\n          tag_160\n            /* \"#utility.yul\":5933:5938   */\n          dup2\n            /* \"#utility.yul\":5915:5939   */\n          tag_71\n          jump\t// in\n        tag_160:\n            /* \"#utility.yul\":5908:5913   */\n          dup2\n            /* \"#utility.yul\":5905:5940   */\n          eq\n            /* \"#utility.yul\":5895:5958   */\n          tag_161\n          jumpi\n            /* \"#utility.yul\":5954:5955   */\n          0x00\n            /* \"#utility.yul\":5951:5952   */\n          dup1\n            /* \"#utility.yul\":5944:5956   */\n          revert\n            /* \"#utility.yul\":5895:5958   */\n        tag_161:\n            /* \"#utility.yul\":5842:5964   */\n          pop\n          jump\t// out\n            /* \"#utility.yul\":5970:6109   */\n        tag_73:\n            /* \"#utility.yul\":6016:6021   */\n          0x00\n            /* \"#utility.yul\":6054:6060   */\n          dup2\n            /* \"#utility.yul\":6041:6061   */\n          calldataload\n            /* \"#utility.yul\":6032:6061   */\n          swap1\n          pop\n            /* \"#utility.yul\":6070:6103   */\n          tag_163\n            /* \"#utility.yul\":6097:6102   */\n          dup2\n            /* \"#utility.yul\":6070:6103   */\n          tag_72\n          jump\t// in\n        tag_163:\n            /* \"#utility.yul\":5970:6109   */\n          swap3\n          swap2\n          pop\n          pop\n          jump\t// out\n            /* \"#utility.yul\":6115:6232   */\n        tag_74:\n            /* \"#utility.yul\":6224:6225   */\n          0x00\n            /* \"#utility.yul\":6221:6222   */\n          dup1\n            /* \"#utility.yul\":6214:6226   */\n          revert\n            /* \"#utility.yul\":6238:6545   */\n        tag_75:\n            /* \"#utility.yul\":6299:6303   */\n          0x00\n            /* \"#utility.yul\":6389:6407   */\n          0xffffffffffffffff\n            /* \"#utility.yul\":6381:6387   */\n          dup3\n            /* \"#utility.yul\":6378:6408   */\n          gt\n            /* \"#utility.yul\":6375:6431   */\n          iszero\n          tag_166\n          jumpi\n            /* \"#utility.yul\":6411:6429   */\n          tag_167\n          tag_66\n          jump\t// in\n        tag_167:\n            /* \"#utility.yul\":6375:6431   */\n        tag_166:\n            /* \"#utility.yul\":6449:6478   */\n          tag_168\n            /* \"#utility.yul\":6471:6477   */\n          dup3\n            /* \"#utility.yul\":6449:6478   */\n          tag_65\n          jump\t// in\n        tag_168:\n            /* \"#utility.yul\":6441:6478   */\n          swap1\n          pop\n            /* \"#utility.yul\":6533:6537   */\n          0x20\n            /* \"#utility.yul\":6527:6531   */\n          dup2\n            /* \"#utility.yul\":6523:6538   */\n          add\n            /* \"#utility.yul\":6515:6538   */\n          swap1\n          pop\n            /* \"#utility.yul\":6238:6545   */\n          swap2\n          swap1\n          pop\n          jump\t// out\n            /* \"#utility.yul\":6551:6697   */\n        tag_76:\n            /* \"#utility.yul\":6648:6654   */\n          dup3\n            /* \"#utility.yul\":6643:6646   */\n          dup2\n            /* \"#utility.yul\":6638:6641   */\n          dup4\n            /* \"#utility.yul\":6625:6655   */\n          calldatacopy\n            /* \"#utility.yul\":6689:6690   */\n          0x00\n            /* \"#utility.yul\":6680:6686   */\n          dup4\n            /* \"#utility.yul\":6675:6678   */\n          dup4\n            /* \"#utility.yul\":6671:6687   */\n          add\n            /* \"#utility.yul\":6664:6691   */\n          mstore\n            /* \"#utility.yul\":6551:6697   */\n          pop\n          pop\n          pop\n          jump\t// out\n            /* \"#utility.yul\":6703:7126   */\n        tag_77:\n            /* \"#utility.yul\":6780:6785   */\n          0x00\n            /* \"#utility.yul\":6805:6870   */\n          tag_171\n            /* \"#utility.yul\":6821:6869   */\n          tag_172\n            /* \"#utility.yul\":6862:6868   */\n          dup5\n            /* \"#utility.yul\":6821:6869   */\n          tag_75\n          jump\t// in\n        tag_172:\n            /* \"#utility.yul\":6805:6870   */\n          tag_68\n          jump\t// in\n        tag_171:\n            /* \"#utility.yul\":6796:6870   */\n          swap1\n          pop\n            /* \"#utility.yul\":6893:6899   */\n          dup3\n            /* \"#utility.yul\":6886:6891   */\n          dup2\n            /* \"#utility.yul\":6879:6900   */\n          mstore\n            /* \"#utility.yul\":6931:6935   */\n          0x20\n            /* \"#utility.yul\":6924:6929   */\n          dup2\n            /* \"#utility.yul\":6920:6936   */\n          add\n            /* \"#utility.yul\":6969:6972   */\n          dup5\n            /* \"#utility.yul\":6960:6966   */\n          dup5\n            /* \"#utility.yul\":6955:6958   */\n          dup5\n            /* \"#utility.yul\":6951:6967   */\n          add\n            /* \"#utility.yul\":6948:6973   */\n          gt\n            /* \"#utility.yul\":6945:7057   */\n          iszero\n          tag_173\n          jumpi\n            /* \"#utility.yul\":6976:7055   */\n          tag_174\n          tag_74\n          jump\t// in\n        tag_174:\n            /* \"#utility.yul\":6945:7057   */\n        tag_173:\n            /* \"#utility.yul\":7066:7120   */\n          tag_175\n            /* \"#utility.yul\":7113:7119   */\n          dup5\n            /* \"#utility.yul\":7108:7111   */\n          dup3\n            /* \"#utility.yul\":7103:7106   */\n          dup6\n            /* \"#utility.yul\":7066:7120   */\n          tag_76\n          jump\t// in\n        tag_175:\n            /* \"#utility.yul\":6786:7126   */\n          pop\n            /* \"#utility.yul\":6703:7126   */\n          swap4\n          swap3\n          pop\n          pop\n          pop\n          jump\t// out\n            /* \"#utility.yul\":7145:7483   */\n        tag_78:\n            /* \"#utility.yul\":7200:7205   */\n          0x00\n            /* \"#utility.yul\":7249:7252   */\n          dup3\n            /* \"#utility.yul\":7242:7246   */\n          0x1f\n            /* \"#utility.yul\":7234:7240   */\n          dup4\n            /* \"#utility.yul\":7230:7247   */\n          add\n            /* \"#utility.yul\":7226:7253   */\n          slt\n            /* \"#utility.yul\":7216:7338   */\n          tag_177\n          jumpi\n            /* \"#utility.yul\":7257:7336   */\n          tag_178\n          tag_53\n          jump\t// in\n        tag_178:\n            /* \"#utility.yul\":7216:7338   */\n        tag_177:\n            /* \"#utility.yul\":7374:7380   */\n          dup2\n            /* \"#utility.yul\":7361:7381   */\n          calldataload\n            /* \"#utility.yul\":7399:7477   */\n          tag_179\n            /* \"#utility.yul\":7473:7476   */\n          dup5\n            /* \"#utility.yul\":7465:7471   */\n          dup3\n            /* \"#utility.yul\":7458:7462   */\n          0x20\n            /* \"#utility.yul\":7450:7456   */\n          dup7\n            /* \"#utility.yul\":7446:7463   */\n          add\n            /* \"#utility.yul\":7399:7477   */\n          tag_77\n          jump\t// in\n        tag_179:\n            /* \"#utility.yul\":7390:7477   */\n          swap2\n          pop\n            /* \"#utility.yul\":7206:7483   */\n          pop\n            /* \"#utility.yul\":7145:7483   */\n          swap3\n          swap2\n          pop\n          pop\n          jump\t// out\n            /* \"#utility.yul\":7531:8276   */\n        tag_79:\n            /* \"#utility.yul\":7601:7606   */\n          0x00\n            /* \"#utility.yul\":7645:7649   */\n          0x40\n            /* \"#utility.yul\":7633:7642   */\n          dup3\n            /* \"#utility.yul\":7628:7631   */\n          dup5\n            /* \"#utility.yul\":7624:7643   */\n          sub\n            /* \"#utility.yul\":7620:7650   */\n          slt\n            /* \"#utility.yul\":7617:7734   */\n          iszero\n          tag_181\n          jumpi\n            /* \"#utility.yul\":7653:7732   */\n          tag_182\n          tag_64\n          jump\t// in\n        tag_182:\n            /* \"#utility.yul\":7617:7734   */\n        tag_181:\n            /* \"#utility.yul\":7752:7773   */\n          tag_183\n            /* \"#utility.yul\":7768:7772   */\n          0x40\n            /* \"#utility.yul\":7752:7773   */\n          tag_68\n          jump\t// in\n        tag_183:\n            /* \"#utility.yul\":7743:7773   */\n          swap1\n          pop\n            /* \"#utility.yul\":7834:7835   */\n          0x00\n            /* \"#utility.yul\":7874:7923   */\n          tag_184\n            /* \"#utility.yul\":7919:7922   */\n          dup5\n            /* \"#utility.yul\":7910:7916   */\n          dup3\n            /* \"#utility.yul\":7899:7908   */\n          dup6\n            /* \"#utility.yul\":7895:7917   */\n          add\n            /* \"#utility.yul\":7874:7923   */\n          tag_73\n          jump\t// in\n        tag_184:\n            /* \"#utility.yul\":7867:7871   */\n          0x00\n            /* \"#utility.yul\":7860:7865   */\n          dup4\n            /* \"#utility.yul\":7856:7872   */\n          add\n            /* \"#utility.yul\":7849:7924   */\n          mstore\n            /* \"#utility.yul\":7783:7935   */\n          pop\n            /* \"#utility.yul\":8026:8028   */\n          0x20\n            /* \"#utility.yul\":8015:8024   */\n          dup3\n            /* \"#utility.yul\":8011:8029   */\n          add\n            /* \"#utility.yul\":7998:8030   */\n          calldataload\n            /* \"#utility.yul\":8057:8075   */\n          0xffffffffffffffff\n            /* \"#utility.yul\":8049:8055   */\n          dup2\n            /* \"#utility.yul\":8046:8076   */\n          gt\n            /* \"#utility.yul\":8043:8160   */\n          iszero\n          tag_185\n          jumpi\n            /* \"#utility.yul\":8079:8158   */\n          tag_186\n          tag_69\n          jump\t// in\n        tag_186:\n            /* \"#utility.yul\":8043:8160   */\n        tag_185:\n            /* \"#utility.yul\":8199:8257   */\n          tag_187\n            /* \"#utility.yul\":8253:8256   */\n          dup5\n            /* \"#utility.yul\":8244:8250   */\n          dup3\n            /* \"#utility.yul\":8233:8242   */\n          dup6\n            /* \"#utility.yul\":8229:8251   */\n          add\n            /* \"#utility.yul\":8199:8257   */\n          tag_78\n          jump\t// in\n        tag_187:\n            /* \"#utility.yul\":8192:8196   */\n          0x20\n            /* \"#utility.yul\":8185:8190   */\n          dup4\n            /* \"#utility.yul\":8181:8197   */\n          add\n            /* \"#utility.yul\":8174:8258   */\n          mstore\n            /* \"#utility.yul\":7945:8269   */\n          pop\n            /* \"#utility.yul\":7531:8276   */\n          swap3\n          swap2\n          pop\n          pop\n          jump\t// out\n            /* \"#utility.yul\":8282:8481   */\n        tag_23:\n            /* \"#utility.yul\":8376:8385   */\n          0x00\n            /* \"#utility.yul\":8410:8474   */\n          tag_189\n            /* \"#utility.yul\":8459:8473   */\n          calldatasize\n            /* \"#utility.yul\":8452:8457   */\n          dup4\n            /* \"#utility.yul\":8410:8474   */\n          tag_79\n          jump\t// in\n        tag_189:\n            /* \"#utility.yul\":8397:8474   */\n          swap1\n          pop\n            /* \"#utility.yul\":8282:8481   */\n          swap2\n          swap1\n          pop\n          jump\t// out\n            /* \"#utility.yul\":8487:8585   */\n        tag_80:\n            /* \"#utility.yul\":8538:8544   */\n          0x00\n            /* \"#utility.yul\":8572:8577   */\n          dup2\n            /* \"#utility.yul\":8566:8578   */\n          mload\n            /* \"#utility.yul\":8556:8578   */\n          swap1\n          pop\n            /* \"#utility.yul\":8487:8585   */\n          swap2\n          swap1\n          pop\n          jump\t// out\n            /* \"#utility.yul\":8591:8738   */\n        tag_81:\n            /* \"#utility.yul\":8692:8703   */\n          0x00\n            /* \"#utility.yul\":8729:8732   */\n          dup2\n            /* \"#utility.yul\":8714:8732   */\n          swap1\n          pop\n            /* \"#utility.yul\":8591:8738   */\n          swap3\n          swap2\n          pop\n          pop\n          jump\t// out\n            /* \"#utility.yul\":8744:8990   */\n        tag_82:\n            /* \"#utility.yul\":8825:8826   */\n          0x00\n            /* \"#utility.yul\":8835:8948   */\n        tag_193:\n            /* \"#utility.yul\":8849:8855   */\n          dup4\n            /* \"#utility.yul\":8846:8847   */\n          dup2\n            /* \"#utility.yul\":8843:8856   */\n          lt\n            /* \"#utility.yul\":8835:8948   */\n          iszero\n          tag_195\n          jumpi\n            /* \"#utility.yul\":8934:8935   */\n          dup1\n            /* \"#utility.yul\":8929:8932   */\n          dup3\n            /* \"#utility.yul\":8925:8936   */\n          add\n            /* \"#utility.yul\":8919:8937   */\n          mload\n            /* \"#utility.yul\":8915:8916   */\n          dup2\n            /* \"#utility.yul\":8910:8913   */\n          dup5\n            /* \"#utility.yul\":8906:8917   */\n          add\n            /* \"#utility.yul\":8899:8938   */\n          mstore\n            /* \"#utility.yul\":8871:8873   */\n          0x20\n            /* \"#utility.yul\":8868:8869   */\n          dup2\n            /* \"#utility.yul\":8864:8874   */\n          add\n            /* \"#utility.yul\":8859:8874   */\n          swap1\n          pop\n            /* \"#utility.yul\":8835:8948   */\n          jump(tag_193)\n        tag_195:\n            /* \"#utility.yul\":8982:8983   */\n          0x00\n            /* \"#utility.yul\":8973:8979   */\n          dup5\n            /* \"#utility.yul\":8968:8971   */\n          dup5\n            /* \"#utility.yul\":8964:8980   */\n          add\n            /* \"#utility.yul\":8957:8984   */\n          mstore\n            /* \"#utility.yul\":8806:8990   */\n          pop\n            /* \"#utility.yul\":8744:8990   */\n          pop\n          pop\n          pop\n          jump\t// out\n            /* \"#utility.yul\":8996:9382   */\n        tag_83:\n            /* \"#utility.yul\":9100:9103   */\n          0x00\n            /* \"#utility.yul\":9128:9166   */\n          tag_197\n            /* \"#utility.yul\":9160:9165   */\n          dup3\n            /* \"#utility.yul\":9128:9166   */\n          tag_80\n          jump\t// in\n        tag_197:\n            /* \"#utility.yul\":9182:9270   */\n          tag_198\n            /* \"#utility.yul\":9263:9269   */\n          dup2\n            /* \"#utility.yul\":9258:9261   */\n          dup6\n            /* \"#utility.yul\":9182:9270   */\n          tag_81\n          jump\t// in\n        tag_198:\n            /* \"#utility.yul\":9175:9270   */\n          swap4\n          pop\n            /* \"#utility.yul\":9279:9344   */\n          tag_199\n            /* \"#utility.yul\":9337:9343   */\n          dup2\n            /* \"#utility.yul\":9332:9335   */\n          dup6\n            /* \"#utility.yul\":9325:9329   */\n          0x20\n            /* \"#utility.yul\":9318:9323   */\n          dup7\n            /* \"#utility.yul\":9314:9330   */\n          add\n            /* \"#utility.yul\":9279:9344   */\n          tag_82\n          jump\t// in\n        tag_199:\n            /* \"#utility.yul\":9369:9375   */\n          dup1\n            /* \"#utility.yul\":9364:9367   */\n          dup5\n            /* \"#utility.yul\":9360:9376   */\n          add\n            /* \"#utility.yul\":9353:9376   */\n          swap2\n          pop\n            /* \"#utility.yul\":9104:9382   */\n          pop\n            /* \"#utility.yul\":8996:9382   */\n          swap3\n          swap2\n          pop\n          pop\n          jump\t// out\n            /* \"#utility.yul\":9388:9659   */\n        tag_25:\n            /* \"#utility.yul\":9518:9521   */\n          0x00\n            /* \"#utility.yul\":9540:9633   */\n          tag_201\n            /* \"#utility.yul\":9629:9632   */\n          dup3\n            /* \"#utility.yul\":9620:9626   */\n          dup5\n            /* \"#utility.yul\":9540:9633   */\n          tag_83\n          jump\t// in\n        tag_201:\n            /* \"#utility.yul\":9533:9633   */\n          swap2\n          pop\n            /* \"#utility.yul\":9650:9653   */\n          dup2\n            /* \"#utility.yul\":9643:9653   */\n          swap1\n          pop\n            /* \"#utility.yul\":9388:9659   */\n          swap3\n          swap2\n          pop\n          pop\n          jump\t// out\n            /* \"#utility.yul\":9665:9834   */\n        tag_84:\n            /* \"#utility.yul\":9749:9760   */\n          0x00\n            /* \"#utility.yul\":9783:9789   */\n          dup3\n            /* \"#utility.yul\":9778:9781   */\n          dup3\n            /* \"#utility.yul\":9771:9790   */\n          mstore\n            /* \"#utility.yul\":9823:9827   */\n          0x20\n            /* \"#utility.yul\":9818:9821   */\n          dup3\n            /* \"#utility.yul\":9814:9828   */\n          add\n            /* \"#utility.yul\":9799:9828   */\n          swap1\n          pop\n            /* \"#utility.yul\":9665:9834   */\n          swap3\n          swap2\n          pop\n          pop\n          jump\t// out\n            /* \"#utility.yul\":9840:10001   */\n        tag_85:\n            /* \"#utility.yul\":9980:9993   */\n          0x63616c6c206661696c6564000000000000000000000000000000000000000000\n            /* \"#utility.yul\":9976:9977   */\n          0x00\n            /* \"#utility.yul\":9968:9974   */\n          dup3\n            /* \"#utility.yul\":9964:9978   */\n          add\n            /* \"#utility.yul\":9957:9994   */\n          mstore\n            /* \"#utility.yul\":9840:10001   */\n          pop\n          jump\t// out\n            /* \"#utility.yul\":10007:10373   */\n        tag_86:\n            /* \"#utility.yul\":10149:10152   */\n          0x00\n            /* \"#utility.yul\":10170:10237   */\n          tag_205\n            /* \"#utility.yul\":10234:10236   */\n          0x0b\n            /* \"#utility.yul\":10229:10232   */\n          dup4\n            /* \"#utility.yul\":10170:10237   */\n          tag_84\n          jump\t// in\n        tag_205:\n            /* \"#utility.yul\":10163:10237   */\n          swap2\n          pop\n            /* \"#utility.yul\":10246:10339   */\n          tag_206\n            /* \"#utility.yul\":10335:10338   */\n          dup3\n            /* \"#utility.yul\":10246:10339   */\n          tag_85\n          jump\t// in\n        tag_206:\n            /* \"#utility.yul\":10364:10366   */\n          0x20\n            /* \"#utility.yul\":10359:10362   */\n          dup3\n            /* \"#utility.yul\":10355:10367   */\n          add\n            /* \"#utility.yul\":10348:10367   */\n          swap1\n          pop\n            /* \"#utility.yul\":10007:10373   */\n          swap2\n          swap1\n          pop\n          jump\t// out\n            /* \"#utility.yul\":10379:10798   */\n        tag_31:\n            /* \"#utility.yul\":10545:10549   */\n          0x00\n            /* \"#utility.yul\":10583:10585   */\n          0x20\n            /* \"#utility.yul\":10572:10581   */\n          dup3\n            /* \"#utility.yul\":10568:10586   */\n          add\n            /* \"#utility.yul\":10560:10586   */\n          swap1\n          pop\n            /* \"#utility.yul\":10632:10641   */\n          dup2\n            /* \"#utility.yul\":10626:10630   */\n          dup2\n            /* \"#utility.yul\":10622:10642   */\n          sub\n            /* \"#utility.yul\":10618:10619   */\n          0x00\n            /* \"#utility.yul\":10607:10616   */\n          dup4\n            /* \"#utility.yul\":10603:10620   */\n          add\n            /* \"#utility.yul\":10596:10643   */\n          mstore\n            /* \"#utility.yul\":10660:10791   */\n          tag_208\n            /* \"#utility.yul\":10786:10790   */\n          dup2\n            /* \"#utility.yul\":10660:10791   */\n          tag_86\n          jump\t// in\n        tag_208:\n            /* \"#utility.yul\":10652:10791   */\n          swap1\n          pop\n            /* \"#utility.yul\":10379:10798   */\n          swap2\n          swap1\n          pop\n          jump\t// out\n            /* \"#utility.yul\":10804:10894   */\n        tag_87:\n            /* \"#utility.yul\":10838:10845   */\n          0x00\n            /* \"#utility.yul\":10881:10886   */\n          dup2\n            /* \"#utility.yul\":10874:10887   */\n          iszero\n            /* \"#utility.yul\":10867:10888   */\n          iszero\n            /* \"#utility.yul\":10856:10888   */\n          swap1\n          pop\n            /* \"#utility.yul\":10804:10894   */\n          swap2\n          swap1\n          pop\n          jump\t// out\n            /* \"#utility.yul\":10900:11016   */\n        tag_88:\n            /* \"#utility.yul\":10970:10991   */\n          tag_211\n            /* \"#utility.yul\":10985:10990   */\n          dup2\n            /* \"#utility.yul\":10970:10991   */\n          tag_87\n          jump\t// in\n        tag_211:\n            /* \"#utility.yul\":10963:10968   */\n          dup2\n            /* \"#utility.yul\":10960:10992   */\n          eq\n            /* \"#utility.yul\":10950:11010   */\n          tag_212\n          jumpi\n            /* \"#utility.yul\":11006:11007   */\n          0x00\n            /* \"#utility.yul\":11003:11004   */\n          dup1\n            /* \"#utility.yul\":10996:11008   */\n          revert\n            /* \"#utility.yul\":10950:11010   */\n        tag_212:\n            /* \"#utility.yul\":10900:11016   */\n          pop\n          jump\t// out\n            /* \"#utility.yul\":11022:11155   */\n        tag_89:\n            /* \"#utility.yul\":11065:11070   */\n          0x00\n            /* \"#utility.yul\":11103:11109   */\n          dup2\n            /* \"#utility.yul\":11090:11110   */\n          calldataload\n            /* \"#utility.yul\":11081:11110   */\n          swap1\n          pop\n            /* \"#utility.yul\":11119:11149   */\n          tag_214\n            /* \"#utility.yul\":11143:11148   */\n          dup2\n            /* \"#utility.yul\":11119:11149   */\n          tag_88\n          jump\t// in\n        tag_214:\n            /* \"#utility.yul\":11022:11155   */\n          swap3\n          swap2\n          pop\n          pop\n          jump\t// out\n            /* \"#utility.yul\":11161:11265   */\n        tag_90:\n            /* \"#utility.yul\":11206:11213   */\n          0x00\n            /* \"#utility.yul\":11235:11259   */\n          tag_216\n            /* \"#utility.yul\":11253:11258   */\n          dup3\n            /* \"#utility.yul\":11235:11259   */\n          tag_70\n          jump\t// in\n        tag_216:\n            /* \"#utility.yul\":11224:11259   */\n          swap1\n          pop\n            /* \"#utility.yul\":11161:11265   */\n          swap2\n          swap1\n          pop\n          jump\t// out\n            /* \"#utility.yul\":11271:11409   */\n        tag_91:\n            /* \"#utility.yul\":11352:11384   */\n          tag_218\n            /* \"#utility.yul\":11378:11383   */\n          dup2\n            /* \"#utility.yul\":11352:11384   */\n          tag_90\n          jump\t// in\n        tag_218:\n            /* \"#utility.yul\":11345:11350   */\n          dup2\n            /* \"#utility.yul\":11342:11385   */\n          eq\n            /* \"#utility.yul\":11332:11403   */\n          tag_219\n          jumpi\n            /* \"#utility.yul\":11399:11400   */\n          0x00\n            /* \"#utility.yul\":11396:11397   */\n          dup1\n            /* \"#utility.yul\":11389:11401   */\n          revert\n            /* \"#utility.yul\":11332:11403   */\n        tag_219:\n            /* \"#utility.yul\":11271:11409   */\n          pop\n          jump\t// out\n            /* \"#utility.yul\":11415:11570   */\n        tag_92:\n            /* \"#utility.yul\":11469:11474   */\n          0x00\n            /* \"#utility.yul\":11507:11513   */\n          dup2\n            /* \"#utility.yul\":11494:11514   */\n          calldataload\n            /* \"#utility.yul\":11485:11514   */\n          swap1\n          pop\n            /* \"#utility.yul\":11523:11564   */\n          tag_221\n            /* \"#utility.yul\":11558:11563   */\n          dup2\n            /* \"#utility.yul\":11523:11564   */\n          tag_91\n          jump\t// in\n        tag_221:\n            /* \"#utility.yul\":11415:11570   */\n          swap3\n          swap2\n          pop\n          pop\n          jump\t// out\n            /* \"#utility.yul\":11576:12221   */\n        tag_34:\n            /* \"#utility.yul\":11666:11672   */\n          0x00\n            /* \"#utility.yul\":11674:11680   */\n          dup1\n            /* \"#utility.yul\":11682:11688   */\n          0x00\n            /* \"#utility.yul\":11731:11733   */\n          0x60\n            /* \"#utility.yul\":11719:11728   */\n          dup5\n            /* \"#utility.yul\":11710:11717   */\n          dup7\n            /* \"#utility.yul\":11706:11729   */\n          sub\n            /* \"#utility.yul\":11702:11734   */\n          slt\n            /* \"#utility.yul\":11699:11818   */\n          iszero\n          tag_223\n          jumpi\n            /* \"#utility.yul\":11737:11816   */\n          tag_224\n          tag_51\n          jump\t// in\n        tag_224:\n            /* \"#utility.yul\":11699:11818   */\n        tag_223:\n            /* \"#utility.yul\":11857:11858   */\n          0x00\n            /* \"#utility.yul\":11882:11932   */\n          tag_225\n            /* \"#utility.yul\":11924:11931   */\n          dup7\n            /* \"#utility.yul\":11915:11921   */\n          dup3\n            /* \"#utility.yul\":11904:11913   */\n          dup8\n            /* \"#utility.yul\":11900:11922   */\n          add\n            /* \"#utility.yul\":11882:11932   */\n          tag_89\n          jump\t// in\n        tag_225:\n            /* \"#utility.yul\":11872:11932   */\n          swap4\n          pop\n            /* \"#utility.yul\":11828:11942   */\n          pop\n            /* \"#utility.yul\":11981:11983   */\n          0x20\n            /* \"#utility.yul\":12007:12068   */\n          tag_226\n            /* \"#utility.yul\":12060:12067   */\n          dup7\n            /* \"#utility.yul\":12051:12057   */\n          dup3\n            /* \"#utility.yul\":12040:12049   */\n          dup8\n            /* \"#utility.yul\":12036:12058   */\n          add\n            /* \"#utility.yul\":12007:12068   */\n          tag_92\n          jump\t// in\n        tag_226:\n            /* \"#utility.yul\":11997:12068   */\n          swap3\n          pop\n            /* \"#utility.yul\":11952:12078   */\n          pop\n            /* \"#utility.yul\":12117:12119   */\n          0x40\n            /* \"#utility.yul\":12143:12204   */\n          tag_227\n            /* \"#utility.yul\":12196:12203   */\n          dup7\n            /* \"#utility.yul\":12187:12193   */\n          dup3\n            /* \"#utility.yul\":12176:12185   */\n          dup8\n            /* \"#utility.yul\":12172:12194   */\n          add\n            /* \"#utility.yul\":12143:12204   */\n          tag_92\n          jump\t// in\n        tag_227:\n            /* \"#utility.yul\":12133:12204   */\n          swap2\n          pop\n            /* \"#utility.yul\":12088:12214   */\n          pop\n            /* \"#utility.yul\":11576:12221   */\n          swap3\n          pop\n          swap3\n          pop\n          swap3\n          jump\t// out\n            /* \"#utility.yul\":12227:12345   */\n        tag_93:\n            /* \"#utility.yul\":12314:12338   */\n          tag_229\n            /* \"#utility.yul\":12332:12337   */\n          dup2\n            /* \"#utility.yul\":12314:12338   */\n          tag_71\n          jump\t// in\n        tag_229:\n            /* \"#utility.yul\":12309:12312   */\n          dup3\n            /* \"#utility.yul\":12302:12339   */\n          mstore\n            /* \"#utility.yul\":12227:12345   */\n          pop\n          pop\n          jump\t// out\n            /* \"#utility.yul\":12351:12428   */\n        tag_94:\n            /* \"#utility.yul\":12388:12395   */\n          0x00\n            /* \"#utility.yul\":12417:12422   */\n          dup2\n            /* \"#utility.yul\":12406:12422   */\n          swap1\n          pop\n            /* \"#utility.yul\":12351:12428   */\n          swap2\n          swap1\n          pop\n          jump\t// out\n            /* \"#utility.yul\":12434:12552   */\n        tag_95:\n            /* \"#utility.yul\":12521:12545   */\n          tag_232\n            /* \"#utility.yul\":12539:12544   */\n          dup2\n            /* \"#utility.yul\":12521:12545   */\n          tag_94\n          jump\t// in\n        tag_232:\n            /* \"#utility.yul\":12516:12519   */\n          dup3\n            /* \"#utility.yul\":12509:12546   */\n          mstore\n            /* \"#utility.yul\":12434:12552   */\n          pop\n          pop\n          jump\t// out\n            /* \"#utility.yul\":12558:13000   */\n        tag_39:\n            /* \"#utility.yul\":12707:12711   */\n          0x00\n            /* \"#utility.yul\":12745:12747   */\n          0x60\n            /* \"#utility.yul\":12734:12743   */\n          dup3\n            /* \"#utility.yul\":12730:12748   */\n          add\n            /* \"#utility.yul\":12722:12748   */\n          swap1\n          pop\n            /* \"#utility.yul\":12758:12829   */\n          tag_234\n            /* \"#utility.yul\":12826:12827   */\n          0x00\n            /* \"#utility.yul\":12815:12824   */\n          dup4\n            /* \"#utility.yul\":12811:12828   */\n          add\n            /* \"#utility.yul\":12802:12808   */\n          dup7\n            /* \"#utility.yul\":12758:12829   */\n          tag_93\n          jump\t// in\n        tag_234:\n            /* \"#utility.yul\":12839:12911   */\n          tag_235\n            /* \"#utility.yul\":12907:12909   */\n          0x20\n            /* \"#utility.yul\":12896:12905   */\n          dup4\n            /* \"#utility.yul\":12892:12910   */\n          add\n            /* \"#utility.yul\":12883:12889   */\n          dup6\n            /* \"#utility.yul\":12839:12911   */\n          tag_93\n          jump\t// in\n        tag_235:\n            /* \"#utility.yul\":12921:12993   */\n          tag_236\n            /* \"#utility.yul\":12989:12991   */\n          0x40\n            /* \"#utility.yul\":12978:12987   */\n          dup4\n            /* \"#utility.yul\":12974:12992   */\n          add\n            /* \"#utility.yul\":12965:12971   */\n          dup5\n            /* \"#utility.yul\":12921:12993   */\n          tag_95\n          jump\t// in\n        tag_236:\n            /* \"#utility.yul\":12558:13000   */\n          swap5\n          swap4\n          pop\n          pop\n          pop\n          pop\n          jump\t// out\n            /* \"#utility.yul\":13006:13143   */\n        tag_96:\n            /* \"#utility.yul\":13060:13065   */\n          0x00\n            /* \"#utility.yul\":13091:13097   */\n          dup2\n            /* \"#utility.yul\":13085:13098   */\n          mload\n            /* \"#utility.yul\":13076:13098   */\n          swap1\n          pop\n            /* \"#utility.yul\":13107:13137   */\n          tag_238\n            /* \"#utility.yul\":13131:13136   */\n          dup2\n            /* \"#utility.yul\":13107:13137   */\n          tag_88\n          jump\t// in\n        tag_238:\n            /* \"#utility.yul\":13006:13143   */\n          swap3\n          swap2\n          pop\n          pop\n          jump\t// out\n            /* \"#utility.yul\":13149:13494   */\n        tag_43:\n            /* \"#utility.yul\":13216:13222   */\n          0x00\n            /* \"#utility.yul\":13265:13267   */\n          0x20\n            /* \"#utility.yul\":13253:13262   */\n          dup3\n            /* \"#utility.yul\":13244:13251   */\n          dup5\n            /* \"#utility.yul\":13240:13263   */\n          sub\n            /* \"#utility.yul\":13236:13268   */\n          slt\n            /* \"#utility.yul\":13233:13352   */\n          iszero\n          tag_240\n          jumpi\n            /* \"#utility.yul\":13271:13350   */\n          tag_241\n          tag_51\n          jump\t// in\n        tag_241:\n            /* \"#utility.yul\":13233:13352   */\n        tag_240:\n            /* \"#utility.yul\":13391:13392   */\n          0x00\n            /* \"#utility.yul\":13416:13477   */\n          tag_242\n            /* \"#utility.yul\":13469:13476   */\n          dup5\n            /* \"#utility.yul\":13460:13466   */\n          dup3\n            /* \"#utility.yul\":13449:13458   */\n          dup6\n            /* \"#utility.yul\":13445:13467   */\n          add\n            /* \"#utility.yul\":13416:13477   */\n          tag_96\n          jump\t// in\n        tag_242:\n            /* \"#utility.yul\":13406:13477   */\n          swap2\n          pop\n            /* \"#utility.yul\":13362:13487   */\n          pop\n            /* \"#utility.yul\":13149:13494   */\n          swap3\n          swap2\n          pop\n          pop\n          jump\t// out\n            /* \"#utility.yul\":13500:13832   */\n        tag_46:\n            /* \"#utility.yul\":13621:13625   */\n          0x00\n            /* \"#utility.yul\":13659:13661   */\n          0x40\n            /* \"#utility.yul\":13648:13657   */\n          dup3\n            /* \"#utility.yul\":13644:13662   */\n          add\n            /* \"#utility.yul\":13636:13662   */\n          swap1\n          pop\n            /* \"#utility.yul\":13672:13743   */\n          tag_244\n            /* \"#utility.yul\":13740:13741   */\n          0x00\n            /* \"#utility.yul\":13729:13738   */\n          dup4\n            /* \"#utility.yul\":13725:13742   */\n          add\n            /* \"#utility.yul\":13716:13722   */\n          dup6\n            /* \"#utility.yul\":13672:13743   */\n          tag_93\n          jump\t// in\n        tag_244:\n            /* \"#utility.yul\":13753:13825   */\n          tag_245\n            /* \"#utility.yul\":13821:13823   */\n          0x20\n            /* \"#utility.yul\":13810:13819   */\n          dup4\n            /* \"#utility.yul\":13806:13824   */\n          add\n            /* \"#utility.yul\":13797:13803   */\n          dup5\n            /* \"#utility.yul\":13753:13825   */\n          tag_95\n          jump\t// in\n        tag_245:\n            /* \"#utility.yul\":13500:13832   */\n          swap4\n          swap3\n          pop\n          pop\n          pop\n          jump\t// out\n\n        auxdata: 0xa2646970667358221220f66c4c0e2016538cc786e57a4b3a94343a73e76f919f328074ca57df54395e7764736f6c63430008100033\n    }\n}\n",
				"bytecode": {
					"linkReferences": {},
					"object": "60c06040523480156200001157600080fd5b5060405162001e8138038062001e81833981810160405281019062000037919062000149565b8073ffffffffffffffffffffffffffffffffffffffff1660a08173ffffffffffffffffffffffffffffffffffffffff16815250506040516200007990620000d1565b604051809103906000f08015801562000096573d6000803e3d6000fd5b5073ffffffffffffffffffffffffffffffffffffffff1660808173ffffffffffffffffffffffffffffffffffffffff1681525050506200017b565b610a26806200145b83390190565b600080fd5b600073ffffffffffffffffffffffffffffffffffffffff82169050919050565b60006200011182620000e4565b9050919050565b620001238162000104565b81146200012f57600080fd5b50565b600081519050620001438162000118565b92915050565b600060208284031215620001625762000161620000df565b5b6000620001728482850162000132565b91505092915050565b60805160a051611289620001d26000396000818161025a015281816102f801528181610443015281816104a4015261075c0152600081816101ba015281816105e3015281816108a10152610a8901526112896000f3fe60806040526004361061004e5760003560e01c80639450ccfd1461005a578063a9b3f32014610083578063ad5c46481461009f578063ca8b88d8146100ca578063dba3df9c146100f357610055565b3661005557005b600080fd5b34801561006657600080fd5b50610081600480360381019061007c9190610b6d565b61011e565b005b61009d60048036038101906100989190610bf0565b61043f565b005b3480156100ab57600080fd5b506100b461075a565b6040516100c19190610c6e565b60405180910390f35b3480156100d657600080fd5b506100f160048036038101906100ec9190610c89565b61077e565b005b3480156100ff57600080fd5b50610108610a87565b6040516101159190610c6e565b60405180910390f35b8373ffffffffffffffffffffffffffffffffffffffff166323b872dd3383600001602081019061014e9190610d20565b866040518463ffffffff1660e01b815260040161016d93929190610d5c565b6020604051808303816000875af115801561018c573d6000803e3d6000fd5b505050506040513d601f19601f820116820180604052508101906101b09190610dcb565b50600082470190507f000000000000000000000000000000000000000000000000000000000000000073ffffffffffffffffffffffffffffffffffffffff16631706756f8380602001906102049190610e07565b6040518363ffffffff1660e01b8152600401610221929190611087565b600060405180830381600087803b15801561023b57600080fd5b505af115801561024f573d6000803e3d6000fd5b5050505060008060007f000000000000000000000000000000000000000000000000000000000000000073ffffffffffffffffffffffffffffffffffffffff166370a08231306040518263ffffffff1660e01b81526004016102b19190610c6e565b602060405180830381865afa1580156102ce573d6000803e3d6000fd5b505050506040513d601f19601f820116820180604052508101906102f291906110c0565b905060007f00000000000000000000000000000000000000000000000000000000000000009050632e1a7d4d60e01b600052816004526000806044600080855af161035b57817f4e617469766520546f6b656e205769746864726177206661696c656400000000fd5b47851015935083156103a5577fa9059cbb000000000000000000000000000000000000000000000000000000006000523360045247602452600080604460008060005af1503d1592505b836103f45747856103b6919061111c565b876040517fd28d3eb50000000000000000000000000000000000000000000000000000000081526004016103eb929190611150565b60405180910390fd5b82610434576040517f08c379a000000000000000000000000000000000000000000000000000000000815260040161042b906111d6565b60405180910390fd5b505050505050505050565b60007f0000000000000000000000000000000000000000000000000000000000000000905063d0e30db060e01b60005260008060008034855af16104a25760007f4e617469766520746f6b656e206465706f736974206661696c65640000000000fd5b7f000000000000000000000000000000000000000000000000000000000000000073ffffffffffffffffffffffffffffffffffffffff1663a9059cbb8360000160208101906104f19190610d20565b346040518363ffffffff1660e01b815260040161050f9291906111f6565b6020604051808303816000875af115801561052e573d6000803e3d6000fd5b505050506040513d601f19601f820116820180604052508101906105529190610dcb565b5060008473ffffffffffffffffffffffffffffffffffffffff166370a08231336040518263ffffffff1660e01b815260040161058e9190610c6e565b602060405180830381865afa1580156105ab573d6000803e3d6000fd5b505050506040513d601f19601f820116820180604052508101906105cf91906110c0565b9050600084826105df919061121f565b90507f000000000000000000000000000000000000000000000000000000000000000073ffffffffffffffffffffffffffffffffffffffff16631706756f85806020019061062d9190610e07565b6040518363ffffffff1660e01b815260040161064a929190611087565b600060405180830381600087803b15801561066457600080fd5b505af1158015610678573d6000803e3d6000fd5b505050506000808773ffffffffffffffffffffffffffffffffffffffff166370a08231336040518263ffffffff1660e01b81526004016106b89190610c6e565b602060405180830381865afa1580156106d5573d6000803e3d6000fd5b505050506040513d601f19601f820116820180604052508101906106f991906110c0565b905080831015915081610750578083610712919061111c565b876040517fd28d3eb5000000000000000000000000000000000000000000000000000000008152600401610747929190611150565b60405180910390fd5b5050505050505050565b7f000000000000000000000000000000000000000000000000000000000000000081565b8473ffffffffffffffffffffffffffffffffffffffff166323b872dd338360000160208101906107ae9190610d20565b876040518463ffffffff1660e01b81526004016107cd93929190610d5c565b6020604051808303816000875af11580156107ec573d6000803e3d6000fd5b505050506040513d601f19601f820116820180604052508101906108109190610dcb565b5060008373ffffffffffffffffffffffffffffffffffffffff166370a08231336040518263ffffffff1660e01b815260040161084c9190610c6e565b602060405180830381865afa158015610869573d6000803e3d6000fd5b505050506040513d601f19601f8201168201806040525081019061088d91906110c0565b90506000838261089d919061121f565b90507f000000000000000000000000000000000000000000000000000000000000000073ffffffffffffffffffffffffffffffffffffffff16631706756f8480602001906108eb9190610e07565b6040518363ffffffff1660e01b8152600401610908929190611087565b600060405180830381600087803b15801561092257600080fd5b505af1158015610936573d6000803e3d6000fd5b50505050808573ffffffffffffffffffffffffffffffffffffffff166370a08231336040518263ffffffff1660e01b81526004016109749190610c6e565b602060405180830381865afa158015610991573d6000803e3d6000fd5b505050506040513d601f19601f820116820180604052508101906109b591906110c0565b1015610a7e578473ffffffffffffffffffffffffffffffffffffffff166370a08231336040518263ffffffff1660e01b81526004016109f49190610c6e565b602060405180830381865afa158015610a11573d6000803e3d6000fd5b505050506040513d601f19601f82011682018060405250810190610a3591906110c0565b81610a40919061111c565b846040517fd28d3eb5000000000000000000000000000000000000000000000000000000008152600401610a75929190611150565b60405180910390fd5b50505050505050565b7f000000000000000000000000000000000000000000000000000000000000000081565b600080fd5b600080fd5b600073ffffffffffffffffffffffffffffffffffffffff82169050919050565b6000610ae082610ab5565b9050919050565b610af081610ad5565b8114610afb57600080fd5b50565b600081359050610b0d81610ae7565b92915050565b6000819050919050565b610b2681610b13565b8114610b3157600080fd5b50565b600081359050610b4381610b1d565b92915050565b600080fd5b600060408284031215610b6457610b63610b49565b5b81905092915050565b60008060008060808587031215610b8757610b86610aab565b5b6000610b9587828801610afe565b9450506020610ba687828801610b34565b9350506040610bb787828801610b34565b925050606085013567ffffffffffffffff811115610bd857610bd7610ab0565b5b610be487828801610b4e565b91505092959194509250565b600080600060608486031215610c0957610c08610aab565b5b6000610c1786828701610afe565b9350506020610c2886828701610b34565b925050604084013567ffffffffffffffff811115610c4957610c48610ab0565b5b610c5586828701610b4e565b9150509250925092565b610c6881610ad5565b82525050565b6000602082019050610c836000830184610c5f565b92915050565b600080600080600060a08688031215610ca557610ca4610aab565b5b6000610cb388828901610afe565b9550506020610cc488828901610b34565b9450506040610cd588828901610afe565b9350506060610ce688828901610b34565b925050608086013567ffffffffffffffff811115610d0757610d06610ab0565b5b610d1388828901610b4e565b9150509295509295909350565b600060208284031215610d3657610d35610aab565b5b6000610d4484828501610afe565b91505092915050565b610d5681610b13565b82525050565b6000606082019050610d716000830186610c5f565b610d7e6020830185610c5f565b610d8b6040830184610d4d565b949350505050565b60008115159050919050565b610da881610d93565b8114610db357600080fd5b50565b600081519050610dc581610d9f565b92915050565b600060208284031215610de157610de0610aab565b5b6000610def84828501610db6565b91505092915050565b600080fd5b600080fd5b600080fd5b60008083356001602003843603038112610e2457610e23610df8565b5b80840192508235915067ffffffffffffffff821115610e4657610e45610dfd565b5b602083019250602082023603831315610e6257610e61610e02565b5b509250929050565b600082825260208201905092915050565b6000819050919050565b6000610e946020840184610afe565b905092915050565b610ea581610ad5565b82525050565b600080fd5b600080fd5b600080fd5b60008083356001602003843603038112610ed757610ed6610eb5565b5b83810192508235915060208301925067ffffffffffffffff821115610eff57610efe610eab565b5b600182023603831315610f1557610f14610eb0565b5b509250929050565b600082825260208201905092915050565b82818337600083830152505050565b6000601f19601f8301169050919050565b6000610f5a8385610f1d565b9350610f67838584610f2e565b610f7083610f3d565b840190509392505050565b600060408301610f8e6000840184610e85565b610f9b6000860182610e9c565b50610fa96020840184610eba565b8583036020870152610fbc838284610f4e565b925050508091505092915050565b6000610fd68383610f7b565b905092915050565b600082356001604003833603038112610ffa57610ff9610eb5565b5b82810191505092915050565b6000602082019050919050565b600061101f8385610e6a565b93508360208402850161103184610e7b565b8060005b8781101561107557848403895261104c8284610fde565b6110568582610fca565b945061106183611006565b925060208a01995050600181019050611035565b50829750879450505050509392505050565b600060208201905081810360008301526110a2818486611013565b90509392505050565b6000815190506110ba81610b1d565b92915050565b6000602082840312156110d6576110d5610aab565b5b60006110e4848285016110ab565b91505092915050565b7f4e487b7100000000000000000000000000000000000000000000000000000000600052601160045260246000fd5b600061112782610b13565b915061113283610b13565b925082820390508181111561114a576111496110ed565b5b92915050565b60006040820190506111656000830185610d4d565b6111726020830184610d4d565b9392505050565b600082825260208201905092915050565b7f4e6174697665207472616e73666572206661696c656400000000000000000000600082015250565b60006111c0601683611179565b91506111cb8261118a565b602082019050919050565b600060208201905081810360008301526111ef816111b3565b9050919050565b600060408201905061120b6000830185610c5f565b6112186020830184610d4d565b9392505050565b600061122a82610b13565b915061123583610b13565b925082820190508082111561124d5761124c6110ed565b5b9291505056fea2646970667358221220eb6dbe9b8e14286b4bd170069e0c27f9d3fab556ed8ca6ab813d7e926b25917264736f6c63430008100033608060405234801561001057600080fd5b50610a06806100206000396000f3fe608060405234801561001057600080fd5b50600436106100365760003560e01c80631706756f1461003b578063fa461e3314610057575b600080fd5b61005560048036038101906100509190610367565b610073565b005b610071600480360381019061006c9190610440565b610180565b005b600082829050905060005b8181101561017a57600084848381811061009b5761009a6104b4565b5b90506020028101906100ad91906104e8565b6100b690610725565b90506000816000015173ffffffffffffffffffffffffffffffffffffffff1682602001516040516100e791906107a9565b6000604051808303816000865af19150503d8060008114610124576040519150601f19603f3d011682016040523d82523d6000602084013e610129565b606091505b505090508061016d576040517f08c379a00000000000000000000000000000000000000000000000000000000081526004016101649061081d565b60405180910390fd5b826001019250505061007e565b50505050565b6000806000848481019061019491906108b3565b9250925092506000836101a757866101a9565b875b90503073ffffffffffffffffffffffffffffffffffffffff168273ffffffffffffffffffffffffffffffffffffffff1614610264578273ffffffffffffffffffffffffffffffffffffffff166323b872dd8333846040518463ffffffff1660e01b815260040161021b9392919061092e565b6020604051808303816000875af115801561023a573d6000803e3d6000fd5b505050506040513d601f19601f8201168201806040525081019061025e919061097a565b506102e4565b8273ffffffffffffffffffffffffffffffffffffffff1663a9059cbb33836040518363ffffffff1660e01b815260040161029f9291906109a7565b6020604051808303816000875af11580156102be573d6000803e3d6000fd5b505050506040513d601f19601f820116820180604052508101906102e2919061097a565b505b5050505050505050565b6000604051905090565b600080fd5b600080fd5b600080fd5b600080fd5b600080fd5b60008083601f84011261032757610326610302565b5b8235905067ffffffffffffffff81111561034457610343610307565b5b6020830191508360208202830111156103605761035f61030c565b5b9250929050565b6000806020838503121561037e5761037d6102f8565b5b600083013567ffffffffffffffff81111561039c5761039b6102fd565b5b6103a885828601610311565b92509250509250929050565b6000819050919050565b6103c7816103b4565b81146103d257600080fd5b50565b6000813590506103e4816103be565b92915050565b60008083601f840112610400576103ff610302565b5b8235905067ffffffffffffffff81111561041d5761041c610307565b5b6020830191508360018202830111156104395761043861030c565b5b9250929050565b6000806000806060858703121561045a576104596102f8565b5b6000610468878288016103d5565b9450506020610479878288016103d5565b935050604085013567ffffffffffffffff81111561049a576104996102fd565b5b6104a6878288016103ea565b925092505092959194509250565b7f4e487b7100000000000000000000000000000000000000000000000000000000600052603260045260246000fd5b600080fd5b600082356001604003833603038112610504576105036104e3565b5b80830191505092915050565b600080fd5b6000601f19601f8301169050919050565b7f4e487b7100000000000000000000000000000000000000000000000000000000600052604160045260246000fd5b61055e82610515565b810181811067ffffffffffffffff8211171561057d5761057c610526565b5b80604052505050565b60006105906102ee565b905061059c8282610555565b919050565b600080fd5b600073ffffffffffffffffffffffffffffffffffffffff82169050919050565b60006105d1826105a6565b9050919050565b6105e1816105c6565b81146105ec57600080fd5b50565b6000813590506105fe816105d8565b92915050565b600080fd5b600067ffffffffffffffff82111561062457610623610526565b5b61062d82610515565b9050602081019050919050565b82818337600083830152505050565b600061065c61065784610609565b610586565b90508281526020810184848401111561067857610677610604565b5b61068384828561063a565b509392505050565b600082601f8301126106a05761069f610302565b5b81356106b0848260208601610649565b91505092915050565b6000604082840312156106cf576106ce610510565b5b6106d96040610586565b905060006106e9848285016105ef565b600083015250602082013567ffffffffffffffff81111561070d5761070c6105a1565b5b6107198482850161068b565b60208301525092915050565b600061073136836106b9565b9050919050565b600081519050919050565b600081905092915050565b60005b8381101561076c578082015181840152602081019050610751565b60008484015250505050565b600061078382610738565b61078d8185610743565b935061079d81856020860161074e565b80840191505092915050565b60006107b58284610778565b915081905092915050565b600082825260208201905092915050565b7f63616c6c206661696c6564000000000000000000000000000000000000000000600082015250565b6000610807600b836107c0565b9150610812826107d1565b602082019050919050565b60006020820190508181036000830152610836816107fa565b9050919050565b60008115159050919050565b6108528161083d565b811461085d57600080fd5b50565b60008135905061086f81610849565b92915050565b6000610880826105a6565b9050919050565b61089081610875565b811461089b57600080fd5b50565b6000813590506108ad81610887565b92915050565b6000806000606084860312156108cc576108cb6102f8565b5b60006108da86828701610860565b93505060206108eb8682870161089e565b92505060406108fc8682870161089e565b9150509250925092565b61090f816105c6565b82525050565b6000819050919050565b61092881610915565b82525050565b60006060820190506109436000830186610906565b6109506020830185610906565b61095d604083018461091f565b949350505050565b60008151905061097481610849565b92915050565b6000602082840312156109905761098f6102f8565b5b600061099e84828501610965565b91505092915050565b60006040820190506109bc6000830185610906565b6109c9602083018461091f565b939250505056fea2646970667358221220f66c4c0e2016538cc786e57a4b3a94343a73e76f919f328074ca57df54395e7764736f6c63430008100033",
					"opcodes": "PUSH1 0xC0 PUSH1 0x40 MSTORE CALLVALUE DUP1 ISZERO PUSH3 0x11 JUMPI PUSH1 0x0 DUP1 REVERT JUMPDEST POP PUSH1 0x40 MLOAD PUSH3 0x1E81 CODESIZE SUB DUP1 PUSH3 0x1E81 DUP4 CODECOPY DUP2 DUP2 ADD PUSH1 0x40 MSTORE DUP2 ADD SWAP1 PUSH3 0x37 SWAP2 SWAP1 PUSH3 0x149 JUMP JUMPDEST DUP1 PUSH20 0xFFFFFFFFFFFFFFFFFFFFFFFFFFFFFFFFFFFFFFFF AND PUSH1 0xA0 DUP2 PUSH20 0xFFFFFFFFFFFFFFFFFFFFFFFFFFFFFFFFFFFFFFFF AND DUP2 MSTORE POP POP PUSH1 0x40 MLOAD PUSH3 0x79 SWAP1 PUSH3 0xD1 JUMP JUMPDEST PUSH1 0x40 MLOAD DUP1 SWAP2 SUB SWAP1 PUSH1 0x0 CREATE DUP1 ISZERO DUP1 ISZERO PUSH3 0x96 JUMPI RETURNDATASIZE PUSH1 0x0 DUP1 RETURNDATACOPY RETURNDATASIZE PUSH1 0x0 REVERT JUMPDEST POP PUSH20 0xFFFFFFFFFFFFFFFFFFFFFFFFFFFFFFFFFFFFFFFF AND PUSH1 0x80 DUP2 PUSH20 0xFFFFFFFFFFFFFFFFFFFFFFFFFFFFFFFFFFFFFFFF AND DUP2 MSTORE POP POP POP PUSH3 0x17B JUMP JUMPDEST PUSH2 0xA26 DUP1 PUSH3 0x145B DUP4 CODECOPY ADD SWAP1 JUMP JUMPDEST PUSH1 0x0 DUP1 REVERT JUMPDEST PUSH1 0x0 PUSH20 0xFFFFFFFFFFFFFFFFFFFFFFFFFFFFFFFFFFFFFFFF DUP3 AND SWAP1 POP SWAP2 SWAP1 POP JUMP JUMPDEST PUSH1 0x0 PUSH3 0x111 DUP3 PUSH3 0xE4 JUMP JUMPDEST SWAP1 POP SWAP2 SWAP1 POP JUMP JUMPDEST PUSH3 0x123 DUP2 PUSH3 0x104 JUMP JUMPDEST DUP2 EQ PUSH3 0x12F JUMPI PUSH1 0x0 DUP1 REVERT JUMPDEST POP JUMP JUMPDEST PUSH1 0x0 DUP2 MLOAD SWAP1 POP PUSH3 0x143 DUP2 PUSH3 0x118 JUMP JUMPDEST SWAP3 SWAP2 POP POP JUMP JUMPDEST PUSH1 0x0 PUSH1 0x20 DUP3 DUP5 SUB SLT ISZERO PUSH3 0x162 JUMPI PUSH3 0x161 PUSH3 0xDF JUMP JUMPDEST JUMPDEST PUSH1 0x0 PUSH3 0x172 DUP5 DUP3 DUP6 ADD PUSH3 0x132 JUMP JUMPDEST SWAP2 POP POP SWAP3 SWAP2 POP POP JUMP JUMPDEST PUSH1 0x80 MLOAD PUSH1 0xA0 MLOAD PUSH2 0x1289 PUSH3 0x1D2 PUSH1 0x0 CODECOPY PUSH1 0x0 DUP2 DUP2 PUSH2 0x25A ADD MSTORE DUP2 DUP2 PUSH2 0x2F8 ADD MSTORE DUP2 DUP2 PUSH2 0x443 ADD MSTORE DUP2 DUP2 PUSH2 0x4A4 ADD MSTORE PUSH2 0x75C ADD MSTORE PUSH1 0x0 DUP2 DUP2 PUSH2 0x1BA ADD MSTORE DUP2 DUP2 PUSH2 0x5E3 ADD MSTORE DUP2 DUP2 PUSH2 0x8A1 ADD MSTORE PUSH2 0xA89 ADD MSTORE PUSH2 0x1289 PUSH1 0x0 RETURN INVALID PUSH1 0x80 PUSH1 0x40 MSTORE PUSH1 0x4 CALLDATASIZE LT PUSH2 0x4E JUMPI PUSH1 0x0 CALLDATALOAD PUSH1 0xE0 SHR DUP1 PUSH4 0x9450CCFD EQ PUSH2 0x5A JUMPI DUP1 PUSH4 0xA9B3F320 EQ PUSH2 0x83 JUMPI DUP1 PUSH4 0xAD5C4648 EQ PUSH2 0x9F JUMPI DUP1 PUSH4 0xCA8B88D8 EQ PUSH2 0xCA JUMPI DUP1 PUSH4 0xDBA3DF9C EQ PUSH2 0xF3 JUMPI PUSH2 0x55 JUMP JUMPDEST CALLDATASIZE PUSH2 0x55 JUMPI STOP JUMPDEST PUSH1 0x0 DUP1 REVERT JUMPDEST CALLVALUE DUP1 ISZERO PUSH2 0x66 JUMPI PUSH1 0x0 DUP1 REVERT JUMPDEST POP PUSH2 0x81 PUSH1 0x4 DUP1 CALLDATASIZE SUB DUP2 ADD SWAP1 PUSH2 0x7C SWAP2 SWAP1 PUSH2 0xB6D JUMP JUMPDEST PUSH2 0x11E JUMP JUMPDEST STOP JUMPDEST PUSH2 0x9D PUSH1 0x4 DUP1 CALLDATASIZE SUB DUP2 ADD SWAP1 PUSH2 0x98 SWAP2 SWAP1 PUSH2 0xBF0 JUMP JUMPDEST PUSH2 0x43F JUMP JUMPDEST STOP JUMPDEST CALLVALUE DUP1 ISZERO PUSH2 0xAB JUMPI PUSH1 0x0 DUP1 REVERT JUMPDEST POP PUSH2 0xB4 PUSH2 0x75A JUMP JUMPDEST PUSH1 0x40 MLOAD PUSH2 0xC1 SWAP2 SWAP1 PUSH2 0xC6E JUMP JUMPDEST PUSH1 0x40 MLOAD DUP1 SWAP2 SUB SWAP1 RETURN JUMPDEST CALLVALUE DUP1 ISZERO PUSH2 0xD6 JUMPI PUSH1 0x0 DUP1 REVERT JUMPDEST POP PUSH2 0xF1 PUSH1 0x4 DUP1 CALLDATASIZE SUB DUP2 ADD SWAP1 PUSH2 0xEC SWAP2 SWAP1 PUSH2 0xC89 JUMP JUMPDEST PUSH2 0x77E JUMP JUMPDEST STOP JUMPDEST CALLVALUE DUP1 ISZERO PUSH2 0xFF JUMPI PUSH1 0x0 DUP1 REVERT JUMPDEST POP PUSH2 0x108 PUSH2 0xA87 JUMP JUMPDEST PUSH1 0x40 MLOAD PUSH2 0x115 SWAP2 SWAP1 PUSH2 0xC6E JUMP JUMPDEST PUSH1 0x40 MLOAD DUP1 SWAP2 SUB SWAP1 RETURN JUMPDEST DUP4 PUSH20 0xFFFFFFFFFFFFFFFFFFFFFFFFFFFFFFFFFFFFFFFF AND PUSH4 0x23B872DD CALLER DUP4 PUSH1 0x0 ADD PUSH1 0x20 DUP2 ADD SWAP1 PUSH2 0x14E SWAP2 SWAP1 PUSH2 0xD20 JUMP JUMPDEST DUP7 PUSH1 0x40 MLOAD DUP5 PUSH4 0xFFFFFFFF AND PUSH1 0xE0 SHL DUP2 MSTORE PUSH1 0x4 ADD PUSH2 0x16D SWAP4 SWAP3 SWAP2 SWAP1 PUSH2 0xD5C JUMP JUMPDEST PUSH1 0x20 PUSH1 0x40 MLOAD DUP1 DUP4 SUB DUP2 PUSH1 0x0 DUP8 GAS CALL ISZERO DUP1 ISZERO PUSH2 0x18C JUMPI RETURNDATASIZE PUSH1 0x0 DUP1 RETURNDATACOPY RETURNDATASIZE PUSH1 0x0 REVERT JUMPDEST POP POP POP POP PUSH1 0x40 MLOAD RETURNDATASIZE PUSH1 0x1F NOT PUSH1 0x1F DUP3 ADD AND DUP3 ADD DUP1 PUSH1 0x40 MSTORE POP DUP2 ADD SWAP1 PUSH2 0x1B0 SWAP2 SWAP1 PUSH2 0xDCB JUMP JUMPDEST POP PUSH1 0x0 DUP3 SELFBALANCE ADD SWAP1 POP PUSH32 0x0 PUSH20 0xFFFFFFFFFFFFFFFFFFFFFFFFFFFFFFFFFFFFFFFF AND PUSH4 0x1706756F DUP4 DUP1 PUSH1 0x20 ADD SWAP1 PUSH2 0x204 SWAP2 SWAP1 PUSH2 0xE07 JUMP JUMPDEST PUSH1 0x40 MLOAD DUP4 PUSH4 0xFFFFFFFF AND PUSH1 0xE0 SHL DUP2 MSTORE PUSH1 0x4 ADD PUSH2 0x221 SWAP3 SWAP2 SWAP1 PUSH2 0x1087 JUMP JUMPDEST PUSH1 0x0 PUSH1 0x40 MLOAD DUP1 DUP4 SUB DUP2 PUSH1 0x0 DUP8 DUP1 EXTCODESIZE ISZERO DUP1 ISZERO PUSH2 0x23B JUMPI PUSH1 0x0 DUP1 REVERT JUMPDEST POP GAS CALL ISZERO DUP1 ISZERO PUSH2 0x24F JUMPI RETURNDATASIZE PUSH1 0x0 DUP1 RETURNDATACOPY RETURNDATASIZE PUSH1 0x0 REVERT JUMPDEST POP POP POP POP PUSH1 0x0 DUP1 PUSH1 0x0 PUSH32 0x0 PUSH20 0xFFFFFFFFFFFFFFFFFFFFFFFFFFFFFFFFFFFFFFFF AND PUSH4 0x70A08231 ADDRESS PUSH1 0x40 MLOAD DUP3 PUSH4 0xFFFFFFFF AND PUSH1 0xE0 SHL DUP2 MSTORE PUSH1 0x4 ADD PUSH2 0x2B1 SWAP2 SWAP1 PUSH2 0xC6E JUMP JUMPDEST PUSH1 0x20 PUSH1 0x40 MLOAD DUP1 DUP4 SUB DUP2 DUP7 GAS STATICCALL ISZERO DUP1 ISZERO PUSH2 0x2CE JUMPI RETURNDATASIZE PUSH1 0x0 DUP1 RETURNDATACOPY RETURNDATASIZE PUSH1 0x0 REVERT JUMPDEST POP POP POP POP PUSH1 0x40 MLOAD RETURNDATASIZE PUSH1 0x1F NOT PUSH1 0x1F DUP3 ADD AND DUP3 ADD DUP1 PUSH1 0x40 MSTORE POP DUP2 ADD SWAP1 PUSH2 0x2F2 SWAP2 SWAP1 PUSH2 0x10C0 JUMP JUMPDEST SWAP1 POP PUSH1 0x0 PUSH32 0x0 SWAP1 POP PUSH4 0x2E1A7D4D PUSH1 0xE0 SHL PUSH1 0x0 MSTORE DUP2 PUSH1 0x4 MSTORE PUSH1 0x0 DUP1 PUSH1 0x44 PUSH1 0x0 DUP1 DUP6 GAS CALL PUSH2 0x35B JUMPI DUP2 PUSH32 0x4E617469766520546F6B656E205769746864726177206661696C656400000000 REVERT JUMPDEST SELFBALANCE DUP6 LT ISZERO SWAP4 POP DUP4 ISZERO PUSH2 0x3A5 JUMPI PUSH32 0xA9059CBB00000000000000000000000000000000000000000000000000000000 PUSH1 0x0 MSTORE CALLER PUSH1 0x4 MSTORE SELFBALANCE PUSH1 0x24 MSTORE PUSH1 0x0 DUP1 PUSH1 0x44 PUSH1 0x0 DUP1 PUSH1 0x0 GAS CALL POP RETURNDATASIZE ISZERO SWAP3 POP JUMPDEST DUP4 PUSH2 0x3F4 JUMPI SELFBALANCE DUP6 PUSH2 0x3B6 SWAP2 SWAP1 PUSH2 0x111C JUMP JUMPDEST DUP8 PUSH1 0x40 MLOAD PUSH32 0xD28D3EB500000000000000000000000000000000000000000000000000000000 DUP2 MSTORE PUSH1 0x4 ADD PUSH2 0x3EB SWAP3 SWAP2 SWAP1 PUSH2 0x1150 JUMP JUMPDEST PUSH1 0x40 MLOAD DUP1 SWAP2 SUB SWAP1 REVERT JUMPDEST DUP3 PUSH2 0x434 JUMPI PUSH1 0x40 MLOAD PUSH32 0x8C379A000000000000000000000000000000000000000000000000000000000 DUP2 MSTORE PUSH1 0x4 ADD PUSH2 0x42B SWAP1 PUSH2 0x11D6 JUMP JUMPDEST PUSH1 0x40 MLOAD DUP1 SWAP2 SUB SWAP1 REVERT JUMPDEST POP POP POP POP POP POP POP POP POP JUMP JUMPDEST PUSH1 0x0 PUSH32 0x0 SWAP1 POP PUSH4 0xD0E30DB0 PUSH1 0xE0 SHL PUSH1 0x0 MSTORE PUSH1 0x0 DUP1 PUSH1 0x0 DUP1 CALLVALUE DUP6 GAS CALL PUSH2 0x4A2 JUMPI PUSH1 0x0 PUSH32 0x4E617469766520746F6B656E206465706F736974206661696C65640000000000 REVERT JUMPDEST PUSH32 0x0 PUSH20 0xFFFFFFFFFFFFFFFFFFFFFFFFFFFFFFFFFFFFFFFF AND PUSH4 0xA9059CBB DUP4 PUSH1 0x0 ADD PUSH1 0x20 DUP2 ADD SWAP1 PUSH2 0x4F1 SWAP2 SWAP1 PUSH2 0xD20 JUMP JUMPDEST CALLVALUE PUSH1 0x40 MLOAD DUP4 PUSH4 0xFFFFFFFF AND PUSH1 0xE0 SHL DUP2 MSTORE PUSH1 0x4 ADD PUSH2 0x50F SWAP3 SWAP2 SWAP1 PUSH2 0x11F6 JUMP JUMPDEST PUSH1 0x20 PUSH1 0x40 MLOAD DUP1 DUP4 SUB DUP2 PUSH1 0x0 DUP8 GAS CALL ISZERO DUP1 ISZERO PUSH2 0x52E JUMPI RETURNDATASIZE PUSH1 0x0 DUP1 RETURNDATACOPY RETURNDATASIZE PUSH1 0x0 REVERT JUMPDEST POP POP POP POP PUSH1 0x40 MLOAD RETURNDATASIZE PUSH1 0x1F NOT PUSH1 0x1F DUP3 ADD AND DUP3 ADD DUP1 PUSH1 0x40 MSTORE POP DUP2 ADD SWAP1 PUSH2 0x552 SWAP2 SWAP1 PUSH2 0xDCB JUMP JUMPDEST POP PUSH1 0x0 DUP5 PUSH20 0xFFFFFFFFFFFFFFFFFFFFFFFFFFFFFFFFFFFFFFFF AND PUSH4 0x70A08231 CALLER PUSH1 0x40 MLOAD DUP3 PUSH4 0xFFFFFFFF AND PUSH1 0xE0 SHL DUP2 MSTORE PUSH1 0x4 ADD PUSH2 0x58E SWAP2 SWAP1 PUSH2 0xC6E JUMP JUMPDEST PUSH1 0x20 PUSH1 0x40 MLOAD DUP1 DUP4 SUB DUP2 DUP7 GAS STATICCALL ISZERO DUP1 ISZERO PUSH2 0x5AB JUMPI RETURNDATASIZE PUSH1 0x0 DUP1 RETURNDATACOPY RETURNDATASIZE PUSH1 0x0 REVERT JUMPDEST POP POP POP POP PUSH1 0x40 MLOAD RETURNDATASIZE PUSH1 0x1F NOT PUSH1 0x1F DUP3 ADD AND DUP3 ADD DUP1 PUSH1 0x40 MSTORE POP DUP2 ADD SWAP1 PUSH2 0x5CF SWAP2 SWAP1 PUSH2 0x10C0 JUMP JUMPDEST SWAP1 POP PUSH1 0x0 DUP5 DUP3 PUSH2 0x5DF SWAP2 SWAP1 PUSH2 0x121F JUMP JUMPDEST SWAP1 POP PUSH32 0x0 PUSH20 0xFFFFFFFFFFFFFFFFFFFFFFFFFFFFFFFFFFFFFFFF AND PUSH4 0x1706756F DUP6 DUP1 PUSH1 0x20 ADD SWAP1 PUSH2 0x62D SWAP2 SWAP1 PUSH2 0xE07 JUMP JUMPDEST PUSH1 0x40 MLOAD DUP4 PUSH4 0xFFFFFFFF AND PUSH1 0xE0 SHL DUP2 MSTORE PUSH1 0x4 ADD PUSH2 0x64A SWAP3 SWAP2 SWAP1 PUSH2 0x1087 JUMP JUMPDEST PUSH1 0x0 PUSH1 0x40 MLOAD DUP1 DUP4 SUB DUP2 PUSH1 0x0 DUP8 DUP1 EXTCODESIZE ISZERO DUP1 ISZERO PUSH2 0x664 JUMPI PUSH1 0x0 DUP1 REVERT JUMPDEST POP GAS CALL ISZERO DUP1 ISZERO PUSH2 0x678 JUMPI RETURNDATASIZE PUSH1 0x0 DUP1 RETURNDATACOPY RETURNDATASIZE PUSH1 0x0 REVERT JUMPDEST POP POP POP POP PUSH1 0x0 DUP1 DUP8 PUSH20 0xFFFFFFFFFFFFFFFFFFFFFFFFFFFFFFFFFFFFFFFF AND PUSH4 0x70A08231 CALLER PUSH1 0x40 MLOAD DUP3 PUSH4 0xFFFFFFFF AND PUSH1 0xE0 SHL DUP2 MSTORE PUSH1 0x4 ADD PUSH2 0x6B8 SWAP2 SWAP1 PUSH2 0xC6E JUMP JUMPDEST PUSH1 0x20 PUSH1 0x40 MLOAD DUP1 DUP4 SUB DUP2 DUP7 GAS STATICCALL ISZERO DUP1 ISZERO PUSH2 0x6D5 JUMPI RETURNDATASIZE PUSH1 0x0 DUP1 RETURNDATACOPY RETURNDATASIZE PUSH1 0x0 REVERT JUMPDEST POP POP POP POP PUSH1 0x40 MLOAD RETURNDATASIZE PUSH1 0x1F NOT PUSH1 0x1F DUP3 ADD AND DUP3 ADD DUP1 PUSH1 0x40 MSTORE POP DUP2 ADD SWAP1 PUSH2 0x6F9 SWAP2 SWAP1 PUSH2 0x10C0 JUMP JUMPDEST SWAP1 POP DUP1 DUP4 LT ISZERO SWAP2 POP DUP2 PUSH2 0x750 JUMPI DUP1 DUP4 PUSH2 0x712 SWAP2 SWAP1 PUSH2 0x111C JUMP JUMPDEST DUP8 PUSH1 0x40 MLOAD PUSH32 0xD28D3EB500000000000000000000000000000000000000000000000000000000 DUP2 MSTORE PUSH1 0x4 ADD PUSH2 0x747 SWAP3 SWAP2 SWAP1 PUSH2 0x1150 JUMP JUMPDEST PUSH1 0x40 MLOAD DUP1 SWAP2 SUB SWAP1 REVERT JUMPDEST POP POP POP POP POP POP POP POP JUMP JUMPDEST PUSH32 0x0 DUP2 JUMP JUMPDEST DUP5 PUSH20 0xFFFFFFFFFFFFFFFFFFFFFFFFFFFFFFFFFFFFFFFF AND PUSH4 0x23B872DD CALLER DUP4 PUSH1 0x0 ADD PUSH1 0x20 DUP2 ADD SWAP1 PUSH2 0x7AE SWAP2 SWAP1 PUSH2 0xD20 JUMP JUMPDEST DUP8 PUSH1 0x40 MLOAD DUP5 PUSH4 0xFFFFFFFF AND PUSH1 0xE0 SHL DUP2 MSTORE PUSH1 0x4 ADD PUSH2 0x7CD SWAP4 SWAP3 SWAP2 SWAP1 PUSH2 0xD5C JUMP JUMPDEST PUSH1 0x20 PUSH1 0x40 MLOAD DUP1 DUP4 SUB DUP2 PUSH1 0x0 DUP8 GAS CALL ISZERO DUP1 ISZERO PUSH2 0x7EC JUMPI RETURNDATASIZE PUSH1 0x0 DUP1 RETURNDATACOPY RETURNDATASIZE PUSH1 0x0 REVERT JUMPDEST POP POP POP POP PUSH1 0x40 MLOAD RETURNDATASIZE PUSH1 0x1F NOT PUSH1 0x1F DUP3 ADD AND DUP3 ADD DUP1 PUSH1 0x40 MSTORE POP DUP2 ADD SWAP1 PUSH2 0x810 SWAP2 SWAP1 PUSH2 0xDCB JUMP JUMPDEST POP PUSH1 0x0 DUP4 PUSH20 0xFFFFFFFFFFFFFFFFFFFFFFFFFFFFFFFFFFFFFFFF AND PUSH4 0x70A08231 CALLER PUSH1 0x40 MLOAD DUP3 PUSH4 0xFFFFFFFF AND PUSH1 0xE0 SHL DUP2 MSTORE PUSH1 0x4 ADD PUSH2 0x84C SWAP2 SWAP1 PUSH2 0xC6E JUMP JUMPDEST PUSH1 0x20 PUSH1 0x40 MLOAD DUP1 DUP4 SUB DUP2 DUP7 GAS STATICCALL ISZERO DUP1 ISZERO PUSH2 0x869 JUMPI RETURNDATASIZE PUSH1 0x0 DUP1 RETURNDATACOPY RETURNDATASIZE PUSH1 0x0 REVERT JUMPDEST POP POP POP POP PUSH1 0x40 MLOAD RETURNDATASIZE PUSH1 0x1F NOT PUSH1 0x1F DUP3 ADD AND DUP3 ADD DUP1 PUSH1 0x40 MSTORE POP DUP2 ADD SWAP1 PUSH2 0x88D SWAP2 SWAP1 PUSH2 0x10C0 JUMP JUMPDEST SWAP1 POP PUSH1 0x0 DUP4 DUP3 PUSH2 0x89D SWAP2 SWAP1 PUSH2 0x121F JUMP JUMPDEST SWAP1 POP PUSH32 0x0 PUSH20 0xFFFFFFFFFFFFFFFFFFFFFFFFFFFFFFFFFFFFFFFF AND PUSH4 0x1706756F DUP5 DUP1 PUSH1 0x20 ADD SWAP1 PUSH2 0x8EB SWAP2 SWAP1 PUSH2 0xE07 JUMP JUMPDEST PUSH1 0x40 MLOAD DUP4 PUSH4 0xFFFFFFFF AND PUSH1 0xE0 SHL DUP2 MSTORE PUSH1 0x4 ADD PUSH2 0x908 SWAP3 SWAP2 SWAP1 PUSH2 0x1087 JUMP JUMPDEST PUSH1 0x0 PUSH1 0x40 MLOAD DUP1 DUP4 SUB DUP2 PUSH1 0x0 DUP8 DUP1 EXTCODESIZE ISZERO DUP1 ISZERO PUSH2 0x922 JUMPI PUSH1 0x0 DUP1 REVERT JUMPDEST POP GAS CALL ISZERO DUP1 ISZERO PUSH2 0x936 JUMPI RETURNDATASIZE PUSH1 0x0 DUP1 RETURNDATACOPY RETURNDATASIZE PUSH1 0x0 REVERT JUMPDEST POP POP POP POP DUP1 DUP6 PUSH20 0xFFFFFFFFFFFFFFFFFFFFFFFFFFFFFFFFFFFFFFFF AND PUSH4 0x70A08231 CALLER PUSH1 0x40 MLOAD DUP3 PUSH4 0xFFFFFFFF AND PUSH1 0xE0 SHL DUP2 MSTORE PUSH1 0x4 ADD PUSH2 0x974 SWAP2 SWAP1 PUSH2 0xC6E JUMP JUMPDEST PUSH1 0x20 PUSH1 0x40 MLOAD DUP1 DUP4 SUB DUP2 DUP7 GAS STATICCALL ISZERO DUP1 ISZERO PUSH2 0x991 JUMPI RETURNDATASIZE PUSH1 0x0 DUP1 RETURNDATACOPY RETURNDATASIZE PUSH1 0x0 REVERT JUMPDEST POP POP POP POP PUSH1 0x40 MLOAD RETURNDATASIZE PUSH1 0x1F NOT PUSH1 0x1F DUP3 ADD AND DUP3 ADD DUP1 PUSH1 0x40 MSTORE POP DUP2 ADD SWAP1 PUSH2 0x9B5 SWAP2 SWAP1 PUSH2 0x10C0 JUMP JUMPDEST LT ISZERO PUSH2 0xA7E JUMPI DUP5 PUSH20 0xFFFFFFFFFFFFFFFFFFFFFFFFFFFFFFFFFFFFFFFF AND PUSH4 0x70A08231 CALLER PUSH1 0x40 MLOAD DUP3 PUSH4 0xFFFFFFFF AND PUSH1 0xE0 SHL DUP2 MSTORE PUSH1 0x4 ADD PUSH2 0x9F4 SWAP2 SWAP1 PUSH2 0xC6E JUMP JUMPDEST PUSH1 0x20 PUSH1 0x40 MLOAD DUP1 DUP4 SUB DUP2 DUP7 GAS STATICCALL ISZERO DUP1 ISZERO PUSH2 0xA11 JUMPI RETURNDATASIZE PUSH1 0x0 DUP1 RETURNDATACOPY RETURNDATASIZE PUSH1 0x0 REVERT JUMPDEST POP POP POP POP PUSH1 0x40 MLOAD RETURNDATASIZE PUSH1 0x1F NOT PUSH1 0x1F DUP3 ADD AND DUP3 ADD DUP1 PUSH1 0x40 MSTORE POP DUP2 ADD SWAP1 PUSH2 0xA35 SWAP2 SWAP1 PUSH2 0x10C0 JUMP JUMPDEST DUP2 PUSH2 0xA40 SWAP2 SWAP1 PUSH2 0x111C JUMP JUMPDEST DUP5 PUSH1 0x40 MLOAD PUSH32 0xD28D3EB500000000000000000000000000000000000000000000000000000000 DUP2 MSTORE PUSH1 0x4 ADD PUSH2 0xA75 SWAP3 SWAP2 SWAP1 PUSH2 0x1150 JUMP JUMPDEST PUSH1 0x40 MLOAD DUP1 SWAP2 SUB SWAP1 REVERT JUMPDEST POP POP POP POP POP POP POP JUMP JUMPDEST PUSH32 0x0 DUP2 JUMP JUMPDEST PUSH1 0x0 DUP1 REVERT JUMPDEST PUSH1 0x0 DUP1 REVERT JUMPDEST PUSH1 0x0 PUSH20 0xFFFFFFFFFFFFFFFFFFFFFFFFFFFFFFFFFFFFFFFF DUP3 AND SWAP1 POP SWAP2 SWAP1 POP JUMP JUMPDEST PUSH1 0x0 PUSH2 0xAE0 DUP3 PUSH2 0xAB5 JUMP JUMPDEST SWAP1 POP SWAP2 SWAP1 POP JUMP JUMPDEST PUSH2 0xAF0 DUP2 PUSH2 0xAD5 JUMP JUMPDEST DUP2 EQ PUSH2 0xAFB JUMPI PUSH1 0x0 DUP1 REVERT JUMPDEST POP JUMP JUMPDEST PUSH1 0x0 DUP2 CALLDATALOAD SWAP1 POP PUSH2 0xB0D DUP2 PUSH2 0xAE7 JUMP JUMPDEST SWAP3 SWAP2 POP POP JUMP JUMPDEST PUSH1 0x0 DUP2 SWAP1 POP SWAP2 SWAP1 POP JUMP JUMPDEST PUSH2 0xB26 DUP2 PUSH2 0xB13 JUMP JUMPDEST DUP2 EQ PUSH2 0xB31 JUMPI PUSH1 0x0 DUP1 REVERT JUMPDEST POP JUMP JUMPDEST PUSH1 0x0 DUP2 CALLDATALOAD SWAP1 POP PUSH2 0xB43 DUP2 PUSH2 0xB1D JUMP JUMPDEST SWAP3 SWAP2 POP POP JUMP JUMPDEST PUSH1 0x0 DUP1 REVERT JUMPDEST PUSH1 0x0 PUSH1 0x40 DUP3 DUP5 SUB SLT ISZERO PUSH2 0xB64 JUMPI PUSH2 0xB63 PUSH2 0xB49 JUMP JUMPDEST JUMPDEST DUP2 SWAP1 POP SWAP3 SWAP2 POP POP JUMP JUMPDEST PUSH1 0x0 DUP1 PUSH1 0x0 DUP1 PUSH1 0x80 DUP6 DUP8 SUB SLT ISZERO PUSH2 0xB87 JUMPI PUSH2 0xB86 PUSH2 0xAAB JUMP JUMPDEST JUMPDEST PUSH1 0x0 PUSH2 0xB95 DUP8 DUP3 DUP9 ADD PUSH2 0xAFE JUMP JUMPDEST SWAP5 POP POP PUSH1 0x20 PUSH2 0xBA6 DUP8 DUP3 DUP9 ADD PUSH2 0xB34 JUMP JUMPDEST SWAP4 POP POP PUSH1 0x40 PUSH2 0xBB7 DUP8 DUP3 DUP9 ADD PUSH2 0xB34 JUMP JUMPDEST SWAP3 POP POP PUSH1 0x60 DUP6 ADD CALLDATALOAD PUSH8 0xFFFFFFFFFFFFFFFF DUP2 GT ISZERO PUSH2 0xBD8 JUMPI PUSH2 0xBD7 PUSH2 0xAB0 JUMP JUMPDEST JUMPDEST PUSH2 0xBE4 DUP8 DUP3 DUP9 ADD PUSH2 0xB4E JUMP JUMPDEST SWAP2 POP POP SWAP3 SWAP6 SWAP2 SWAP5 POP SWAP3 POP JUMP JUMPDEST PUSH1 0x0 DUP1 PUSH1 0x0 PUSH1 0x60 DUP5 DUP7 SUB SLT ISZERO PUSH2 0xC09 JUMPI PUSH2 0xC08 PUSH2 0xAAB JUMP JUMPDEST JUMPDEST PUSH1 0x0 PUSH2 0xC17 DUP7 DUP3 DUP8 ADD PUSH2 0xAFE JUMP JUMPDEST SWAP4 POP POP PUSH1 0x20 PUSH2 0xC28 DUP7 DUP3 DUP8 ADD PUSH2 0xB34 JUMP JUMPDEST SWAP3 POP POP PUSH1 0x40 DUP5 ADD CALLDATALOAD PUSH8 0xFFFFFFFFFFFFFFFF DUP2 GT ISZERO PUSH2 0xC49 JUMPI PUSH2 0xC48 PUSH2 0xAB0 JUMP JUMPDEST JUMPDEST PUSH2 0xC55 DUP7 DUP3 DUP8 ADD PUSH2 0xB4E JUMP JUMPDEST SWAP2 POP POP SWAP3 POP SWAP3 POP SWAP3 JUMP JUMPDEST PUSH2 0xC68 DUP2 PUSH2 0xAD5 JUMP JUMPDEST DUP3 MSTORE POP POP JUMP JUMPDEST PUSH1 0x0 PUSH1 0x20 DUP3 ADD SWAP1 POP PUSH2 0xC83 PUSH1 0x0 DUP4 ADD DUP5 PUSH2 0xC5F JUMP JUMPDEST SWAP3 SWAP2 POP POP JUMP JUMPDEST PUSH1 0x0 DUP1 PUSH1 0x0 DUP1 PUSH1 0x0 PUSH1 0xA0 DUP7 DUP9 SUB SLT ISZERO PUSH2 0xCA5 JUMPI PUSH2 0xCA4 PUSH2 0xAAB JUMP JUMPDEST JUMPDEST PUSH1 0x0 PUSH2 0xCB3 DUP9 DUP3 DUP10 ADD PUSH2 0xAFE JUMP JUMPDEST SWAP6 POP POP PUSH1 0x20 PUSH2 0xCC4 DUP9 DUP3 DUP10 ADD PUSH2 0xB34 JUMP JUMPDEST SWAP5 POP POP PUSH1 0x40 PUSH2 0xCD5 DUP9 DUP3 DUP10 ADD PUSH2 0xAFE JUMP JUMPDEST SWAP4 POP POP PUSH1 0x60 PUSH2 0xCE6 DUP9 DUP3 DUP10 ADD PUSH2 0xB34 JUMP JUMPDEST SWAP3 POP POP PUSH1 0x80 DUP7 ADD CALLDATALOAD PUSH8 0xFFFFFFFFFFFFFFFF DUP2 GT ISZERO PUSH2 0xD07 JUMPI PUSH2 0xD06 PUSH2 0xAB0 JUMP JUMPDEST JUMPDEST PUSH2 0xD13 DUP9 DUP3 DUP10 ADD PUSH2 0xB4E JUMP JUMPDEST SWAP2 POP POP SWAP3 SWAP6 POP SWAP3 SWAP6 SWAP1 SWAP4 POP JUMP JUMPDEST PUSH1 0x0 PUSH1 0x20 DUP3 DUP5 SUB SLT ISZERO PUSH2 0xD36 JUMPI PUSH2 0xD35 PUSH2 0xAAB JUMP JUMPDEST JUMPDEST PUSH1 0x0 PUSH2 0xD44 DUP5 DUP3 DUP6 ADD PUSH2 0xAFE JUMP JUMPDEST SWAP2 POP POP SWAP3 SWAP2 POP POP JUMP JUMPDEST PUSH2 0xD56 DUP2 PUSH2 0xB13 JUMP JUMPDEST DUP3 MSTORE POP POP JUMP JUMPDEST PUSH1 0x0 PUSH1 0x60 DUP3 ADD SWAP1 POP PUSH2 0xD71 PUSH1 0x0 DUP4 ADD DUP7 PUSH2 0xC5F JUMP JUMPDEST PUSH2 0xD7E PUSH1 0x20 DUP4 ADD DUP6 PUSH2 0xC5F JUMP JUMPDEST PUSH2 0xD8B PUSH1 0x40 DUP4 ADD DUP5 PUSH2 0xD4D JUMP JUMPDEST SWAP5 SWAP4 POP POP POP POP JUMP JUMPDEST PUSH1 0x0 DUP2 ISZERO ISZERO SWAP1 POP SWAP2 SWAP1 POP JUMP JUMPDEST PUSH2 0xDA8 DUP2 PUSH2 0xD93 JUMP JUMPDEST DUP2 EQ PUSH2 0xDB3 JUMPI PUSH1 0x0 DUP1 REVERT JUMPDEST POP JUMP JUMPDEST PUSH1 0x0 DUP2 MLOAD SWAP1 POP PUSH2 0xDC5 DUP2 PUSH2 0xD9F JUMP JUMPDEST SWAP3 SWAP2 POP POP JUMP JUMPDEST PUSH1 0x0 PUSH1 0x20 DUP3 DUP5 SUB SLT ISZERO PUSH2 0xDE1 JUMPI PUSH2 0xDE0 PUSH2 0xAAB JUMP JUMPDEST JUMPDEST PUSH1 0x0 PUSH2 0xDEF DUP5 DUP3 DUP6 ADD PUSH2 0xDB6 JUMP JUMPDEST SWAP2 POP POP SWAP3 SWAP2 POP POP JUMP JUMPDEST PUSH1 0x0 DUP1 REVERT JUMPDEST PUSH1 0x0 DUP1 REVERT JUMPDEST PUSH1 0x0 DUP1 REVERT JUMPDEST PUSH1 0x0 DUP1 DUP4 CALLDATALOAD PUSH1 0x1 PUSH1 0x20 SUB DUP5 CALLDATASIZE SUB SUB DUP2 SLT PUSH2 0xE24 JUMPI PUSH2 0xE23 PUSH2 0xDF8 JUMP JUMPDEST JUMPDEST DUP1 DUP5 ADD SWAP3 POP DUP3 CALLDATALOAD SWAP2 POP PUSH8 0xFFFFFFFFFFFFFFFF DUP3 GT ISZERO PUSH2 0xE46 JUMPI PUSH2 0xE45 PUSH2 0xDFD JUMP JUMPDEST JUMPDEST PUSH1 0x20 DUP4 ADD SWAP3 POP PUSH1 0x20 DUP3 MUL CALLDATASIZE SUB DUP4 SGT ISZERO PUSH2 0xE62 JUMPI PUSH2 0xE61 PUSH2 0xE02 JUMP JUMPDEST JUMPDEST POP SWAP3 POP SWAP3 SWAP1 POP JUMP JUMPDEST PUSH1 0x0 DUP3 DUP3 MSTORE PUSH1 0x20 DUP3 ADD SWAP1 POP SWAP3 SWAP2 POP POP JUMP JUMPDEST PUSH1 0x0 DUP2 SWAP1 POP SWAP2 SWAP1 POP JUMP JUMPDEST PUSH1 0x0 PUSH2 0xE94 PUSH1 0x20 DUP5 ADD DUP5 PUSH2 0xAFE JUMP JUMPDEST SWAP1 POP SWAP3 SWAP2 POP POP JUMP JUMPDEST PUSH2 0xEA5 DUP2 PUSH2 0xAD5 JUMP JUMPDEST DUP3 MSTORE POP POP JUMP JUMPDEST PUSH1 0x0 DUP1 REVERT JUMPDEST PUSH1 0x0 DUP1 REVERT JUMPDEST PUSH1 0x0 DUP1 REVERT JUMPDEST PUSH1 0x0 DUP1 DUP4 CALLDATALOAD PUSH1 0x1 PUSH1 0x20 SUB DUP5 CALLDATASIZE SUB SUB DUP2 SLT PUSH2 0xED7 JUMPI PUSH2 0xED6 PUSH2 0xEB5 JUMP JUMPDEST JUMPDEST DUP4 DUP2 ADD SWAP3 POP DUP3 CALLDATALOAD SWAP2 POP PUSH1 0x20 DUP4 ADD SWAP3 POP PUSH8 0xFFFFFFFFFFFFFFFF DUP3 GT ISZERO PUSH2 0xEFF JUMPI PUSH2 0xEFE PUSH2 0xEAB JUMP JUMPDEST JUMPDEST PUSH1 0x1 DUP3 MUL CALLDATASIZE SUB DUP4 SGT ISZERO PUSH2 0xF15 JUMPI PUSH2 0xF14 PUSH2 0xEB0 JUMP JUMPDEST JUMPDEST POP SWAP3 POP SWAP3 SWAP1 POP JUMP JUMPDEST PUSH1 0x0 DUP3 DUP3 MSTORE PUSH1 0x20 DUP3 ADD SWAP1 POP SWAP3 SWAP2 POP POP JUMP JUMPDEST DUP3 DUP2 DUP4 CALLDATACOPY PUSH1 0x0 DUP4 DUP4 ADD MSTORE POP POP POP JUMP JUMPDEST PUSH1 0x0 PUSH1 0x1F NOT PUSH1 0x1F DUP4 ADD AND SWAP1 POP SWAP2 SWAP1 POP JUMP JUMPDEST PUSH1 0x0 PUSH2 0xF5A DUP4 DUP6 PUSH2 0xF1D JUMP JUMPDEST SWAP4 POP PUSH2 0xF67 DUP4 DUP6 DUP5 PUSH2 0xF2E JUMP JUMPDEST PUSH2 0xF70 DUP4 PUSH2 0xF3D JUMP JUMPDEST DUP5 ADD SWAP1 POP SWAP4 SWAP3 POP POP POP JUMP JUMPDEST PUSH1 0x0 PUSH1 0x40 DUP4 ADD PUSH2 0xF8E PUSH1 0x0 DUP5 ADD DUP5 PUSH2 0xE85 JUMP JUMPDEST PUSH2 0xF9B PUSH1 0x0 DUP7 ADD DUP3 PUSH2 0xE9C JUMP JUMPDEST POP PUSH2 0xFA9 PUSH1 0x20 DUP5 ADD DUP5 PUSH2 0xEBA JUMP JUMPDEST DUP6 DUP4 SUB PUSH1 0x20 DUP8 ADD MSTORE PUSH2 0xFBC DUP4 DUP3 DUP5 PUSH2 0xF4E JUMP JUMPDEST SWAP3 POP POP POP DUP1 SWAP2 POP POP SWAP3 SWAP2 POP POP JUMP JUMPDEST PUSH1 0x0 PUSH2 0xFD6 DUP4 DUP4 PUSH2 0xF7B JUMP JUMPDEST SWAP1 POP SWAP3 SWAP2 POP POP JUMP JUMPDEST PUSH1 0x0 DUP3 CALLDATALOAD PUSH1 0x1 PUSH1 0x40 SUB DUP4 CALLDATASIZE SUB SUB DUP2 SLT PUSH2 0xFFA JUMPI PUSH2 0xFF9 PUSH2 0xEB5 JUMP JUMPDEST JUMPDEST DUP3 DUP2 ADD SWAP2 POP POP SWAP3 SWAP2 POP POP JUMP JUMPDEST PUSH1 0x0 PUSH1 0x20 DUP3 ADD SWAP1 POP SWAP2 SWAP1 POP JUMP JUMPDEST PUSH1 0x0 PUSH2 0x101F DUP4 DUP6 PUSH2 0xE6A JUMP JUMPDEST SWAP4 POP DUP4 PUSH1 0x20 DUP5 MUL DUP6 ADD PUSH2 0x1031 DUP5 PUSH2 0xE7B JUMP JUMPDEST DUP1 PUSH1 0x0 JUMPDEST DUP8 DUP2 LT ISZERO PUSH2 0x1075 JUMPI DUP5 DUP5 SUB DUP10 MSTORE PUSH2 0x104C DUP3 DUP5 PUSH2 0xFDE JUMP JUMPDEST PUSH2 0x1056 DUP6 DUP3 PUSH2 0xFCA JUMP JUMPDEST SWAP5 POP PUSH2 0x1061 DUP4 PUSH2 0x1006 JUMP JUMPDEST SWAP3 POP PUSH1 0x20 DUP11 ADD SWAP10 POP POP PUSH1 0x1 DUP2 ADD SWAP1 POP PUSH2 0x1035 JUMP JUMPDEST POP DUP3 SWAP8 POP DUP8 SWAP5 POP POP POP POP POP SWAP4 SWAP3 POP POP POP JUMP JUMPDEST PUSH1 0x0 PUSH1 0x20 DUP3 ADD SWAP1 POP DUP2 DUP2 SUB PUSH1 0x0 DUP4 ADD MSTORE PUSH2 0x10A2 DUP2 DUP5 DUP7 PUSH2 0x1013 JUMP JUMPDEST SWAP1 POP SWAP4 SWAP3 POP POP POP JUMP JUMPDEST PUSH1 0x0 DUP2 MLOAD SWAP1 POP PUSH2 0x10BA DUP2 PUSH2 0xB1D JUMP JUMPDEST SWAP3 SWAP2 POP POP JUMP JUMPDEST PUSH1 0x0 PUSH1 0x20 DUP3 DUP5 SUB SLT ISZERO PUSH2 0x10D6 JUMPI PUSH2 0x10D5 PUSH2 0xAAB JUMP JUMPDEST JUMPDEST PUSH1 0x0 PUSH2 0x10E4 DUP5 DUP3 DUP6 ADD PUSH2 0x10AB JUMP JUMPDEST SWAP2 POP POP SWAP3 SWAP2 POP POP JUMP JUMPDEST PUSH32 0x4E487B7100000000000000000000000000000000000000000000000000000000 PUSH1 0x0 MSTORE PUSH1 0x11 PUSH1 0x4 MSTORE PUSH1 0x24 PUSH1 0x0 REVERT JUMPDEST PUSH1 0x0 PUSH2 0x1127 DUP3 PUSH2 0xB13 JUMP JUMPDEST SWAP2 POP PUSH2 0x1132 DUP4 PUSH2 0xB13 JUMP JUMPDEST SWAP3 POP DUP3 DUP3 SUB SWAP1 POP DUP2 DUP2 GT ISZERO PUSH2 0x114A JUMPI PUSH2 0x1149 PUSH2 0x10ED JUMP JUMPDEST JUMPDEST SWAP3 SWAP2 POP POP JUMP JUMPDEST PUSH1 0x0 PUSH1 0x40 DUP3 ADD SWAP1 POP PUSH2 0x1165 PUSH1 0x0 DUP4 ADD DUP6 PUSH2 0xD4D JUMP JUMPDEST PUSH2 0x1172 PUSH1 0x20 DUP4 ADD DUP5 PUSH2 0xD4D JUMP JUMPDEST SWAP4 SWAP3 POP POP POP JUMP JUMPDEST PUSH1 0x0 DUP3 DUP3 MSTORE PUSH1 0x20 DUP3 ADD SWAP1 POP SWAP3 SWAP2 POP POP JUMP JUMPDEST PUSH32 0x4E6174697665207472616E73666572206661696C656400000000000000000000 PUSH1 0x0 DUP3 ADD MSTORE POP JUMP JUMPDEST PUSH1 0x0 PUSH2 0x11C0 PUSH1 0x16 DUP4 PUSH2 0x1179 JUMP JUMPDEST SWAP2 POP PUSH2 0x11CB DUP3 PUSH2 0x118A JUMP JUMPDEST PUSH1 0x20 DUP3 ADD SWAP1 POP SWAP2 SWAP1 POP JUMP JUMPDEST PUSH1 0x0 PUSH1 0x20 DUP3 ADD SWAP1 POP DUP2 DUP2 SUB PUSH1 0x0 DUP4 ADD MSTORE PUSH2 0x11EF DUP2 PUSH2 0x11B3 JUMP JUMPDEST SWAP1 POP SWAP2 SWAP1 POP JUMP JUMPDEST PUSH1 0x0 PUSH1 0x40 DUP3 ADD SWAP1 POP PUSH2 0x120B PUSH1 0x0 DUP4 ADD DUP6 PUSH2 0xC5F JUMP JUMPDEST PUSH2 0x1218 PUSH1 0x20 DUP4 ADD DUP5 PUSH2 0xD4D JUMP JUMPDEST SWAP4 SWAP3 POP POP POP JUMP JUMPDEST PUSH1 0x0 PUSH2 0x122A DUP3 PUSH2 0xB13 JUMP JUMPDEST SWAP2 POP PUSH2 0x1235 DUP4 PUSH2 0xB13 JUMP JUMPDEST SWAP3 POP DUP3 DUP3 ADD SWAP1 POP DUP1 DUP3 GT ISZERO PUSH2 0x124D JUMPI PUSH2 0x124C PUSH2 0x10ED JUMP JUMPDEST JUMPDEST SWAP3 SWAP2 POP POP JUMP INVALID LOG2 PUSH5 0x6970667358 0x22 SLT KECCAK256 0xEB PUSH14 0xBE9B8E14286B4BD170069E0C27F9 0xD3 STATICCALL 0xB5 JUMP 0xED DUP13 0xA6 0xAB DUP2 RETURNDATASIZE PUSH31 0x926B25917264736F6C63430008100033608060405234801561001057600080 REVERT JUMPDEST POP PUSH2 0xA06 DUP1 PUSH2 0x20 PUSH1 0x0 CODECOPY PUSH1 0x0 RETURN INVALID PUSH1 0x80 PUSH1 0x40 MSTORE CALLVALUE DUP1 ISZERO PUSH2 0x10 JUMPI PUSH1 0x0 DUP1 REVERT JUMPDEST POP PUSH1 0x4 CALLDATASIZE LT PUSH2 0x36 JUMPI PUSH1 0x0 CALLDATALOAD PUSH1 0xE0 SHR DUP1 PUSH4 0x1706756F EQ PUSH2 0x3B JUMPI DUP1 PUSH4 0xFA461E33 EQ PUSH2 0x57 JUMPI JUMPDEST PUSH1 0x0 DUP1 REVERT JUMPDEST PUSH2 0x55 PUSH1 0x4 DUP1 CALLDATASIZE SUB DUP2 ADD SWAP1 PUSH2 0x50 SWAP2 SWAP1 PUSH2 0x367 JUMP JUMPDEST PUSH2 0x73 JUMP JUMPDEST STOP JUMPDEST PUSH2 0x71 PUSH1 0x4 DUP1 CALLDATASIZE SUB DUP2 ADD SWAP1 PUSH2 0x6C SWAP2 SWAP1 PUSH2 0x440 JUMP JUMPDEST PUSH2 0x180 JUMP JUMPDEST STOP JUMPDEST PUSH1 0x0 DUP3 DUP3 SWAP1 POP SWAP1 POP PUSH1 0x0 JUMPDEST DUP2 DUP2 LT ISZERO PUSH2 0x17A JUMPI PUSH1 0x0 DUP5 DUP5 DUP4 DUP2 DUP2 LT PUSH2 0x9B JUMPI PUSH2 0x9A PUSH2 0x4B4 JUMP JUMPDEST JUMPDEST SWAP1 POP PUSH1 0x20 MUL DUP2 ADD SWAP1 PUSH2 0xAD SWAP2 SWAP1 PUSH2 0x4E8 JUMP JUMPDEST PUSH2 0xB6 SWAP1 PUSH2 0x725 JUMP JUMPDEST SWAP1 POP PUSH1 0x0 DUP2 PUSH1 0x0 ADD MLOAD PUSH20 0xFFFFFFFFFFFFFFFFFFFFFFFFFFFFFFFFFFFFFFFF AND DUP3 PUSH1 0x20 ADD MLOAD PUSH1 0x40 MLOAD PUSH2 0xE7 SWAP2 SWAP1 PUSH2 0x7A9 JUMP JUMPDEST PUSH1 0x0 PUSH1 0x40 MLOAD DUP1 DUP4 SUB DUP2 PUSH1 0x0 DUP7 GAS CALL SWAP2 POP POP RETURNDATASIZE DUP1 PUSH1 0x0 DUP2 EQ PUSH2 0x124 JUMPI PUSH1 0x40 MLOAD SWAP2 POP PUSH1 0x1F NOT PUSH1 0x3F RETURNDATASIZE ADD AND DUP3 ADD PUSH1 0x40 MSTORE RETURNDATASIZE DUP3 MSTORE RETURNDATASIZE PUSH1 0x0 PUSH1 0x20 DUP5 ADD RETURNDATACOPY PUSH2 0x129 JUMP JUMPDEST PUSH1 0x60 SWAP2 POP JUMPDEST POP POP SWAP1 POP DUP1 PUSH2 0x16D JUMPI PUSH1 0x40 MLOAD PUSH32 0x8C379A000000000000000000000000000000000000000000000000000000000 DUP2 MSTORE PUSH1 0x4 ADD PUSH2 0x164 SWAP1 PUSH2 0x81D JUMP JUMPDEST PUSH1 0x40 MLOAD DUP1 SWAP2 SUB SWAP1 REVERT JUMPDEST DUP3 PUSH1 0x1 ADD SWAP3 POP POP POP PUSH2 0x7E JUMP JUMPDEST POP POP POP POP JUMP JUMPDEST PUSH1 0x0 DUP1 PUSH1 0x0 DUP5 DUP5 DUP2 ADD SWAP1 PUSH2 0x194 SWAP2 SWAP1 PUSH2 0x8B3 JUMP JUMPDEST SWAP3 POP SWAP3 POP SWAP3 POP PUSH1 0x0 DUP4 PUSH2 0x1A7 JUMPI DUP7 PUSH2 0x1A9 JUMP JUMPDEST DUP8 JUMPDEST SWAP1 POP ADDRESS PUSH20 0xFFFFFFFFFFFFFFFFFFFFFFFFFFFFFFFFFFFFFFFF AND DUP3 PUSH20 0xFFFFFFFFFFFFFFFFFFFFFFFFFFFFFFFFFFFFFFFF AND EQ PUSH2 0x264 JUMPI DUP3 PUSH20 0xFFFFFFFFFFFFFFFFFFFFFFFFFFFFFFFFFFFFFFFF AND PUSH4 0x23B872DD DUP4 CALLER DUP5 PUSH1 0x40 MLOAD DUP5 PUSH4 0xFFFFFFFF AND PUSH1 0xE0 SHL DUP2 MSTORE PUSH1 0x4 ADD PUSH2 0x21B SWAP4 SWAP3 SWAP2 SWAP1 PUSH2 0x92E JUMP JUMPDEST PUSH1 0x20 PUSH1 0x40 MLOAD DUP1 DUP4 SUB DUP2 PUSH1 0x0 DUP8 GAS CALL ISZERO DUP1 ISZERO PUSH2 0x23A JUMPI RETURNDATASIZE PUSH1 0x0 DUP1 RETURNDATACOPY RETURNDATASIZE PUSH1 0x0 REVERT JUMPDEST POP POP POP POP PUSH1 0x40 MLOAD RETURNDATASIZE PUSH1 0x1F NOT PUSH1 0x1F DUP3 ADD AND DUP3 ADD DUP1 PUSH1 0x40 MSTORE POP DUP2 ADD SWAP1 PUSH2 0x25E SWAP2 SWAP1 PUSH2 0x97A JUMP JUMPDEST POP PUSH2 0x2E4 JUMP JUMPDEST DUP3 PUSH20 0xFFFFFFFFFFFFFFFFFFFFFFFFFFFFFFFFFFFFFFFF AND PUSH4 0xA9059CBB CALLER DUP4 PUSH1 0x40 MLOAD DUP4 PUSH4 0xFFFFFFFF AND PUSH1 0xE0 SHL DUP2 MSTORE PUSH1 0x4 ADD PUSH2 0x29F SWAP3 SWAP2 SWAP1 PUSH2 0x9A7 JUMP JUMPDEST PUSH1 0x20 PUSH1 0x40 MLOAD DUP1 DUP4 SUB DUP2 PUSH1 0x0 DUP8 GAS CALL ISZERO DUP1 ISZERO PUSH2 0x2BE JUMPI RETURNDATASIZE PUSH1 0x0 DUP1 RETURNDATACOPY RETURNDATASIZE PUSH1 0x0 REVERT JUMPDEST POP POP POP POP PUSH1 0x40 MLOAD RETURNDATASIZE PUSH1 0x1F NOT PUSH1 0x1F DUP3 ADD AND DUP3 ADD DUP1 PUSH1 0x40 MSTORE POP DUP2 ADD SWAP1 PUSH2 0x2E2 SWAP2 SWAP1 PUSH2 0x97A JUMP JUMPDEST POP JUMPDEST POP POP POP POP POP POP POP POP JUMP JUMPDEST PUSH1 0x0 PUSH1 0x40 MLOAD SWAP1 POP SWAP1 JUMP JUMPDEST PUSH1 0x0 DUP1 REVERT JUMPDEST PUSH1 0x0 DUP1 REVERT JUMPDEST PUSH1 0x0 DUP1 REVERT JUMPDEST PUSH1 0x0 DUP1 REVERT JUMPDEST PUSH1 0x0 DUP1 REVERT JUMPDEST PUSH1 0x0 DUP1 DUP4 PUSH1 0x1F DUP5 ADD SLT PUSH2 0x327 JUMPI PUSH2 0x326 PUSH2 0x302 JUMP JUMPDEST JUMPDEST DUP3 CALLDATALOAD SWAP1 POP PUSH8 0xFFFFFFFFFFFFFFFF DUP2 GT ISZERO PUSH2 0x344 JUMPI PUSH2 0x343 PUSH2 0x307 JUMP JUMPDEST JUMPDEST PUSH1 0x20 DUP4 ADD SWAP2 POP DUP4 PUSH1 0x20 DUP3 MUL DUP4 ADD GT ISZERO PUSH2 0x360 JUMPI PUSH2 0x35F PUSH2 0x30C JUMP JUMPDEST JUMPDEST SWAP3 POP SWAP3 SWAP1 POP JUMP JUMPDEST PUSH1 0x0 DUP1 PUSH1 0x20 DUP4 DUP6 SUB SLT ISZERO PUSH2 0x37E JUMPI PUSH2 0x37D PUSH2 0x2F8 JUMP JUMPDEST JUMPDEST PUSH1 0x0 DUP4 ADD CALLDATALOAD PUSH8 0xFFFFFFFFFFFFFFFF DUP2 GT ISZERO PUSH2 0x39C JUMPI PUSH2 0x39B PUSH2 0x2FD JUMP JUMPDEST JUMPDEST PUSH2 0x3A8 DUP6 DUP3 DUP7 ADD PUSH2 0x311 JUMP JUMPDEST SWAP3 POP SWAP3 POP POP SWAP3 POP SWAP3 SWAP1 POP JUMP JUMPDEST PUSH1 0x0 DUP2 SWAP1 POP SWAP2 SWAP1 POP JUMP JUMPDEST PUSH2 0x3C7 DUP2 PUSH2 0x3B4 JUMP JUMPDEST DUP2 EQ PUSH2 0x3D2 JUMPI PUSH1 0x0 DUP1 REVERT JUMPDEST POP JUMP JUMPDEST PUSH1 0x0 DUP2 CALLDATALOAD SWAP1 POP PUSH2 0x3E4 DUP2 PUSH2 0x3BE JUMP JUMPDEST SWAP3 SWAP2 POP POP JUMP JUMPDEST PUSH1 0x0 DUP1 DUP4 PUSH1 0x1F DUP5 ADD SLT PUSH2 0x400 JUMPI PUSH2 0x3FF PUSH2 0x302 JUMP JUMPDEST JUMPDEST DUP3 CALLDATALOAD SWAP1 POP PUSH8 0xFFFFFFFFFFFFFFFF DUP2 GT ISZERO PUSH2 0x41D JUMPI PUSH2 0x41C PUSH2 0x307 JUMP JUMPDEST JUMPDEST PUSH1 0x20 DUP4 ADD SWAP2 POP DUP4 PUSH1 0x1 DUP3 MUL DUP4 ADD GT ISZERO PUSH2 0x439 JUMPI PUSH2 0x438 PUSH2 0x30C JUMP JUMPDEST JUMPDEST SWAP3 POP SWAP3 SWAP1 POP JUMP JUMPDEST PUSH1 0x0 DUP1 PUSH1 0x0 DUP1 PUSH1 0x60 DUP6 DUP8 SUB SLT ISZERO PUSH2 0x45A JUMPI PUSH2 0x459 PUSH2 0x2F8 JUMP JUMPDEST JUMPDEST PUSH1 0x0 PUSH2 0x468 DUP8 DUP3 DUP9 ADD PUSH2 0x3D5 JUMP JUMPDEST SWAP5 POP POP PUSH1 0x20 PUSH2 0x479 DUP8 DUP3 DUP9 ADD PUSH2 0x3D5 JUMP JUMPDEST SWAP4 POP POP PUSH1 0x40 DUP6 ADD CALLDATALOAD PUSH8 0xFFFFFFFFFFFFFFFF DUP2 GT ISZERO PUSH2 0x49A JUMPI PUSH2 0x499 PUSH2 0x2FD JUMP JUMPDEST JUMPDEST PUSH2 0x4A6 DUP8 DUP3 DUP9 ADD PUSH2 0x3EA JUMP JUMPDEST SWAP3 POP SWAP3 POP POP SWAP3 SWAP6 SWAP2 SWAP5 POP SWAP3 POP JUMP JUMPDEST PUSH32 0x4E487B7100000000000000000000000000000000000000000000000000000000 PUSH1 0x0 MSTORE PUSH1 0x32 PUSH1 0x4 MSTORE PUSH1 0x24 PUSH1 0x0 REVERT JUMPDEST PUSH1 0x0 DUP1 REVERT JUMPDEST PUSH1 0x0 DUP3 CALLDATALOAD PUSH1 0x1 PUSH1 0x40 SUB DUP4 CALLDATASIZE SUB SUB DUP2 SLT PUSH2 0x504 JUMPI PUSH2 0x503 PUSH2 0x4E3 JUMP JUMPDEST JUMPDEST DUP1 DUP4 ADD SWAP2 POP POP SWAP3 SWAP2 POP POP JUMP JUMPDEST PUSH1 0x0 DUP1 REVERT JUMPDEST PUSH1 0x0 PUSH1 0x1F NOT PUSH1 0x1F DUP4 ADD AND SWAP1 POP SWAP2 SWAP1 POP JUMP JUMPDEST PUSH32 0x4E487B7100000000000000000000000000000000000000000000000000000000 PUSH1 0x0 MSTORE PUSH1 0x41 PUSH1 0x4 MSTORE PUSH1 0x24 PUSH1 0x0 REVERT JUMPDEST PUSH2 0x55E DUP3 PUSH2 0x515 JUMP JUMPDEST DUP2 ADD DUP2 DUP2 LT PUSH8 0xFFFFFFFFFFFFFFFF DUP3 GT OR ISZERO PUSH2 0x57D JUMPI PUSH2 0x57C PUSH2 0x526 JUMP JUMPDEST JUMPDEST DUP1 PUSH1 0x40 MSTORE POP POP POP JUMP JUMPDEST PUSH1 0x0 PUSH2 0x590 PUSH2 0x2EE JUMP JUMPDEST SWAP1 POP PUSH2 0x59C DUP3 DUP3 PUSH2 0x555 JUMP JUMPDEST SWAP2 SWAP1 POP JUMP JUMPDEST PUSH1 0x0 DUP1 REVERT JUMPDEST PUSH1 0x0 PUSH20 0xFFFFFFFFFFFFFFFFFFFFFFFFFFFFFFFFFFFFFFFF DUP3 AND SWAP1 POP SWAP2 SWAP1 POP JUMP JUMPDEST PUSH1 0x0 PUSH2 0x5D1 DUP3 PUSH2 0x5A6 JUMP JUMPDEST SWAP1 POP SWAP2 SWAP1 POP JUMP JUMPDEST PUSH2 0x5E1 DUP2 PUSH2 0x5C6 JUMP JUMPDEST DUP2 EQ PUSH2 0x5EC JUMPI PUSH1 0x0 DUP1 REVERT JUMPDEST POP JUMP JUMPDEST PUSH1 0x0 DUP2 CALLDATALOAD SWAP1 POP PUSH2 0x5FE DUP2 PUSH2 0x5D8 JUMP JUMPDEST SWAP3 SWAP2 POP POP JUMP JUMPDEST PUSH1 0x0 DUP1 REVERT JUMPDEST PUSH1 0x0 PUSH8 0xFFFFFFFFFFFFFFFF DUP3 GT ISZERO PUSH2 0x624 JUMPI PUSH2 0x623 PUSH2 0x526 JUMP JUMPDEST JUMPDEST PUSH2 0x62D DUP3 PUSH2 0x515 JUMP JUMPDEST SWAP1 POP PUSH1 0x20 DUP2 ADD SWAP1 POP SWAP2 SWAP1 POP JUMP JUMPDEST DUP3 DUP2 DUP4 CALLDATACOPY PUSH1 0x0 DUP4 DUP4 ADD MSTORE POP POP POP JUMP JUMPDEST PUSH1 0x0 PUSH2 0x65C PUSH2 0x657 DUP5 PUSH2 0x609 JUMP JUMPDEST PUSH2 0x586 JUMP JUMPDEST SWAP1 POP DUP3 DUP2 MSTORE PUSH1 0x20 DUP2 ADD DUP5 DUP5 DUP5 ADD GT ISZERO PUSH2 0x678 JUMPI PUSH2 0x677 PUSH2 0x604 JUMP JUMPDEST JUMPDEST PUSH2 0x683 DUP5 DUP3 DUP6 PUSH2 0x63A JUMP JUMPDEST POP SWAP4 SWAP3 POP POP POP JUMP JUMPDEST PUSH1 0x0 DUP3 PUSH1 0x1F DUP4 ADD SLT PUSH2 0x6A0 JUMPI PUSH2 0x69F PUSH2 0x302 JUMP JUMPDEST JUMPDEST DUP2 CALLDATALOAD PUSH2 0x6B0 DUP5 DUP3 PUSH1 0x20 DUP7 ADD PUSH2 0x649 JUMP JUMPDEST SWAP2 POP POP SWAP3 SWAP2 POP POP JUMP JUMPDEST PUSH1 0x0 PUSH1 0x40 DUP3 DUP5 SUB SLT ISZERO PUSH2 0x6CF JUMPI PUSH2 0x6CE PUSH2 0x510 JUMP JUMPDEST JUMPDEST PUSH2 0x6D9 PUSH1 0x40 PUSH2 0x586 JUMP JUMPDEST SWAP1 POP PUSH1 0x0 PUSH2 0x6E9 DUP5 DUP3 DUP6 ADD PUSH2 0x5EF JUMP JUMPDEST PUSH1 0x0 DUP4 ADD MSTORE POP PUSH1 0x20 DUP3 ADD CALLDATALOAD PUSH8 0xFFFFFFFFFFFFFFFF DUP2 GT ISZERO PUSH2 0x70D JUMPI PUSH2 0x70C PUSH2 0x5A1 JUMP JUMPDEST JUMPDEST PUSH2 0x719 DUP5 DUP3 DUP6 ADD PUSH2 0x68B JUMP JUMPDEST PUSH1 0x20 DUP4 ADD MSTORE POP SWAP3 SWAP2 POP POP JUMP JUMPDEST PUSH1 0x0 PUSH2 0x731 CALLDATASIZE DUP4 PUSH2 0x6B9 JUMP JUMPDEST SWAP1 POP SWAP2 SWAP1 POP JUMP JUMPDEST PUSH1 0x0 DUP2 MLOAD SWAP1 POP SWAP2 SWAP1 POP JUMP JUMPDEST PUSH1 0x0 DUP2 SWAP1 POP SWAP3 SWAP2 POP POP JUMP JUMPDEST PUSH1 0x0 JUMPDEST DUP4 DUP2 LT ISZERO PUSH2 0x76C JUMPI DUP1 DUP3 ADD MLOAD DUP2 DUP5 ADD MSTORE PUSH1 0x20 DUP2 ADD SWAP1 POP PUSH2 0x751 JUMP JUMPDEST PUSH1 0x0 DUP5 DUP5 ADD MSTORE POP POP POP POP JUMP JUMPDEST PUSH1 0x0 PUSH2 0x783 DUP3 PUSH2 0x738 JUMP JUMPDEST PUSH2 0x78D DUP2 DUP6 PUSH2 0x743 JUMP JUMPDEST SWAP4 POP PUSH2 0x79D DUP2 DUP6 PUSH1 0x20 DUP7 ADD PUSH2 0x74E JUMP JUMPDEST DUP1 DUP5 ADD SWAP2 POP POP SWAP3 SWAP2 POP POP JUMP JUMPDEST PUSH1 0x0 PUSH2 0x7B5 DUP3 DUP5 PUSH2 0x778 JUMP JUMPDEST SWAP2 POP DUP2 SWAP1 POP SWAP3 SWAP2 POP POP JUMP JUMPDEST PUSH1 0x0 DUP3 DUP3 MSTORE PUSH1 0x20 DUP3 ADD SWAP1 POP SWAP3 SWAP2 POP POP JUMP JUMPDEST PUSH32 0x63616C6C206661696C6564000000000000000000000000000000000000000000 PUSH1 0x0 DUP3 ADD MSTORE POP JUMP JUMPDEST PUSH1 0x0 PUSH2 0x807 PUSH1 0xB DUP4 PUSH2 0x7C0 JUMP JUMPDEST SWAP2 POP PUSH2 0x812 DUP3 PUSH2 0x7D1 JUMP JUMPDEST PUSH1 0x20 DUP3 ADD SWAP1 POP SWAP2 SWAP1 POP JUMP JUMPDEST PUSH1 0x0 PUSH1 0x20 DUP3 ADD SWAP1 POP DUP2 DUP2 SUB PUSH1 0x0 DUP4 ADD MSTORE PUSH2 0x836 DUP2 PUSH2 0x7FA JUMP JUMPDEST SWAP1 POP SWAP2 SWAP1 POP JUMP JUMPDEST PUSH1 0x0 DUP2 ISZERO ISZERO SWAP1 POP SWAP2 SWAP1 POP JUMP JUMPDEST PUSH2 0x852 DUP2 PUSH2 0x83D JUMP JUMPDEST DUP2 EQ PUSH2 0x85D JUMPI PUSH1 0x0 DUP1 REVERT JUMPDEST POP JUMP JUMPDEST PUSH1 0x0 DUP2 CALLDATALOAD SWAP1 POP PUSH2 0x86F DUP2 PUSH2 0x849 JUMP JUMPDEST SWAP3 SWAP2 POP POP JUMP JUMPDEST PUSH1 0x0 PUSH2 0x880 DUP3 PUSH2 0x5A6 JUMP JUMPDEST SWAP1 POP SWAP2 SWAP1 POP JUMP JUMPDEST PUSH2 0x890 DUP2 PUSH2 0x875 JUMP JUMPDEST DUP2 EQ PUSH2 0x89B JUMPI PUSH1 0x0 DUP1 REVERT JUMPDEST POP JUMP JUMPDEST PUSH1 0x0 DUP2 CALLDATALOAD SWAP1 POP PUSH2 0x8AD DUP2 PUSH2 0x887 JUMP JUMPDEST SWAP3 SWAP2 POP POP JUMP JUMPDEST PUSH1 0x0 DUP1 PUSH1 0x0 PUSH1 0x60 DUP5 DUP7 SUB SLT ISZERO PUSH2 0x8CC JUMPI PUSH2 0x8CB PUSH2 0x2F8 JUMP JUMPDEST JUMPDEST PUSH1 0x0 PUSH2 0x8DA DUP7 DUP3 DUP8 ADD PUSH2 0x860 JUMP JUMPDEST SWAP4 POP POP PUSH1 0x20 PUSH2 0x8EB DUP7 DUP3 DUP8 ADD PUSH2 0x89E JUMP JUMPDEST SWAP3 POP POP PUSH1 0x40 PUSH2 0x8FC DUP7 DUP3 DUP8 ADD PUSH2 0x89E JUMP JUMPDEST SWAP2 POP POP SWAP3 POP SWAP3 POP SWAP3 JUMP JUMPDEST PUSH2 0x90F DUP2 PUSH2 0x5C6 JUMP JUMPDEST DUP3 MSTORE POP POP JUMP JUMPDEST PUSH1 0x0 DUP2 SWAP1 POP SWAP2 SWAP1 POP JUMP JUMPDEST PUSH2 0x928 DUP2 PUSH2 0x915 JUMP JUMPDEST DUP3 MSTORE POP POP JUMP JUMPDEST PUSH1 0x0 PUSH1 0x60 DUP3 ADD SWAP1 POP PUSH2 0x943 PUSH1 0x0 DUP4 ADD DUP7 PUSH2 0x906 JUMP JUMPDEST PUSH2 0x950 PUSH1 0x20 DUP4 ADD DUP6 PUSH2 0x906 JUMP JUMPDEST PUSH2 0x95D PUSH1 0x40 DUP4 ADD DUP5 PUSH2 0x91F JUMP JUMPDEST SWAP5 SWAP4 POP POP POP POP JUMP JUMPDEST PUSH1 0x0 DUP2 MLOAD SWAP1 POP PUSH2 0x974 DUP2 PUSH2 0x849 JUMP JUMPDEST SWAP3 SWAP2 POP POP JUMP JUMPDEST PUSH1 0x0 PUSH1 0x20 DUP3 DUP5 SUB SLT ISZERO PUSH2 0x990 JUMPI PUSH2 0x98F PUSH2 0x2F8 JUMP JUMPDEST JUMPDEST PUSH1 0x0 PUSH2 0x99E DUP5 DUP3 DUP6 ADD PUSH2 0x965 JUMP JUMPDEST SWAP2 POP POP SWAP3 SWAP2 POP POP JUMP JUMPDEST PUSH1 0x0 PUSH1 0x40 DUP3 ADD SWAP1 POP PUSH2 0x9BC PUSH1 0x0 DUP4 ADD DUP6 PUSH2 0x906 JUMP JUMPDEST PUSH2 0x9C9 PUSH1 0x20 DUP4 ADD DUP5 PUSH2 0x91F JUMP JUMPDEST SWAP4 SWAP3 POP POP POP JUMP INVALID LOG2 PUSH5 0x6970667358 0x22 SLT KECCAK256 0xF6 PUSH13 0x4C0E2016538CC786E57A4B3A94 CALLVALUE GASPRICE PUSH20 0xE76F919F328074CA57DF54395E7764736F6C6343 STOP ADDMOD LT STOP CALLER "
				},
				"gasEstimates": {
					"creation": {
						"codeDepositCost": "949000",
						"executionCost": "infinite",
						"totalCost": "infinite"
					},
					"external": {
						"CONVEYOR_SWAP_EXECUTOR()": "infinite",
						"WETH()": "infinite",
						"swap(address,uint256,address,uint256,(address,(address,bytes)[]))": "infinite",
						"swapExactEthForToken(address,uint256,(address,(address,bytes)[]))": "infinite",
						"swapExactTokenForEth(address,uint256,uint256,(address,(address,bytes)[]))": "infinite"
					}
				},
				"methodIdentifiers": {
					"CONVEYOR_SWAP_EXECUTOR()": "dba3df9c",
					"WETH()": "ad5c4648",
					"swap(address,uint256,address,uint256,(address,(address,bytes)[]))": "ca8b88d8",
					"swapExactEthForToken(address,uint256,(address,(address,bytes)[]))": "a9b3f320",
					"swapExactTokenForEth(address,uint256,uint256,(address,(address,bytes)[]))": "9450ccfd"
				}
			},
			"storageLayout": {
				"storage": [],
				"types": null
			},
			"userdoc": {
				"kind": "user",
				"methods": {},
				"notice": "Multicall contract for token Swaps.",
				"version": 1
			}
		}
	}
}