{
	"src/ConveyorSwapAggregator.sol": {
		"ConveyorSwapExecutor": {
			"abi": [
				{
					"inputs": [
						{
							"components": [
								{
									"internalType": "address",
									"name": "target",
									"type": "address"
								},
								{
									"internalType": "bytes",
									"name": "callData",
									"type": "bytes"
								}
							],
							"internalType": "struct ConveyorSwapAggregator.Call[]",
							"name": "calls",
							"type": "tuple[]"
						}
					],
					"name": "executeMulticall",
					"outputs": [],
					"stateMutability": "nonpayable",
					"type": "function"
				},
				{
					"inputs": [
						{
							"internalType": "int256",
							"name": "amount0Delta",
							"type": "int256"
						},
						{
							"internalType": "int256",
							"name": "amount1Delta",
							"type": "int256"
						},
						{
							"internalType": "bytes",
							"name": "data",
							"type": "bytes"
						}
					],
					"name": "uniswapV3SwapCallback",
					"outputs": [],
					"stateMutability": "nonpayable",
					"type": "function"
				}
			],
			"devdoc": {
				"kind": "dev",
				"methods": {
					"uniswapV3SwapCallback(int256,int256,bytes)": {
						"params": {
							"amount0Delta": "- The change in token0 reserves from the swap.",
							"amount1Delta": "- The change in token1 reserves from the swap.",
							"data": "- The data packed into the swap."
						}
					}
				},
				"version": 1
			},
			"evm": {
				"assembly": "    /* \"src/ConveyorSwapAggregator.sol\":5468:7063  contract ConveyorSwapExecutor {... */\n  mstore(0x40, 0x80)\n  callvalue\n  dup1\n  iszero\n  tag_1\n  jumpi\n  0x00\n  dup1\n  revert\ntag_1:\n  pop\n  dataSize(sub_0)\n  dup1\n  dataOffset(sub_0)\n  0x00\n  codecopy\n  0x00\n  return\nstop\n\nsub_0: assembly {\n        /* \"src/ConveyorSwapAggregator.sol\":5468:7063  contract ConveyorSwapExecutor {... */\n      mstore(0x40, 0x80)\n      callvalue\n      dup1\n      iszero\n      tag_1\n      jumpi\n      0x00\n      dup1\n      revert\n    tag_1:\n      pop\n      jumpi(tag_2, lt(calldatasize, 0x04))\n      shr(0xe0, calldataload(0x00))\n      dup1\n      0x1706756f\n      eq\n      tag_3\n      jumpi\n      dup1\n      0xfa461e33\n      eq\n      tag_4\n      jumpi\n    tag_2:\n      0x00\n      dup1\n      revert\n        /* \"src/ConveyorSwapAggregator.sol\":5504:5940  function executeMulticall(ConveyorSwapAggregator.Call[] calldata calls)... */\n    tag_3:\n      tag_5\n      0x04\n      dup1\n      calldatasize\n      sub\n      dup2\n      add\n      swap1\n      tag_6\n      swap2\n      swap1\n      tag_7\n      jump\t// in\n    tag_6:\n      tag_8\n      jump\t// in\n    tag_5:\n      stop\n        /* \"src/ConveyorSwapAggregator.sol\":6234:7061  function uniswapV3SwapCallback(... */\n    tag_4:\n      tag_9\n      0x04\n      dup1\n      calldatasize\n      sub\n      dup2\n      add\n      swap1\n      tag_10\n      swap2\n      swap1\n      tag_11\n      jump\t// in\n    tag_10:\n      tag_12\n      jump\t// in\n    tag_9:\n      stop\n        /* \"src/ConveyorSwapAggregator.sol\":5504:5940  function executeMulticall(ConveyorSwapAggregator.Call[] calldata calls)... */\n    tag_8:\n        /* \"src/ConveyorSwapAggregator.sol\":5605:5624  uint256 callsLength */\n      0x00\n        /* \"src/ConveyorSwapAggregator.sol\":5627:5632  calls */\n      dup3\n      dup3\n        /* \"src/ConveyorSwapAggregator.sol\":5627:5639  calls.length */\n      swap1\n      pop\n        /* \"src/ConveyorSwapAggregator.sol\":5605:5639  uint256 callsLength = calls.length */\n      swap1\n      pop\n        /* \"src/ConveyorSwapAggregator.sol\":5654:5663  uint256 i */\n      0x00\n        /* \"src/ConveyorSwapAggregator.sol\":5649:5934  for (uint256 i = 0; i < callsLength; ) {... */\n    tag_14:\n        /* \"src/ConveyorSwapAggregator.sol\":5673:5684  callsLength */\n      dup2\n        /* \"src/ConveyorSwapAggregator.sol\":5669:5670  i */\n      dup2\n        /* \"src/ConveyorSwapAggregator.sol\":5669:5684  i < callsLength */\n      lt\n        /* \"src/ConveyorSwapAggregator.sol\":5649:5934  for (uint256 i = 0; i < callsLength; ) {... */\n      iszero\n      tag_15\n      jumpi\n        /* \"src/ConveyorSwapAggregator.sol\":5702:5741  ConveyorSwapAggregator.Call memory call */\n      0x00\n        /* \"src/ConveyorSwapAggregator.sol\":5744:5749  calls */\n      dup5\n      dup5\n        /* \"src/ConveyorSwapAggregator.sol\":5750:5751  i */\n      dup4\n        /* \"src/ConveyorSwapAggregator.sol\":5744:5752  calls[i] */\n      dup2\n      dup2\n      lt\n      tag_17\n      jumpi\n      tag_18\n      tag_19\n      jump\t// in\n    tag_18:\n    tag_17:\n      swap1\n      pop\n      0x20\n      mul\n      dup2\n      add\n      swap1\n      tag_20\n      swap2\n      swap1\n      tag_21\n      jump\t// in\n    tag_20:\n        /* \"src/ConveyorSwapAggregator.sol\":5702:5752  ConveyorSwapAggregator.Call memory call = calls[i] */\n      tag_22\n      swap1\n      tag_23\n      jump\t// in\n    tag_22:\n      swap1\n      pop\n        /* \"src/ConveyorSwapAggregator.sol\":5768:5780  bool success */\n      0x00\n        /* \"src/ConveyorSwapAggregator.sol\":5786:5790  call */\n      dup2\n        /* \"src/ConveyorSwapAggregator.sol\":5786:5797  call.target */\n      0x00\n      add\n      mload\n        /* \"src/ConveyorSwapAggregator.sol\":5786:5802  call.target.call */\n      0xffffffffffffffffffffffffffffffffffffffff\n      and\n        /* \"src/ConveyorSwapAggregator.sol\":5803:5807  call */\n      dup3\n        /* \"src/ConveyorSwapAggregator.sol\":5803:5816  call.callData */\n      0x20\n      add\n      mload\n        /* \"src/ConveyorSwapAggregator.sol\":5786:5817  call.target.call(call.callData) */\n      mload(0x40)\n      tag_24\n      swap2\n      swap1\n      tag_25\n      jump\t// in\n    tag_24:\n      0x00\n      mload(0x40)\n      dup1\n      dup4\n      sub\n      dup2\n      0x00\n      dup7\n      gas\n      call\n      swap2\n      pop\n      pop\n      returndatasize\n      dup1\n      0x00\n      dup2\n      eq\n      tag_28\n      jumpi\n      mload(0x40)\n      swap2\n      pop\n      and(add(returndatasize, 0x3f), not(0x1f))\n      dup3\n      add\n      0x40\n      mstore\n      returndatasize\n      dup3\n      mstore\n      returndatasize\n      0x00\n      0x20\n      dup5\n      add\n      returndatacopy\n      jump(tag_27)\n    tag_28:\n      0x60\n      swap2\n      pop\n    tag_27:\n      pop\n        /* \"src/ConveyorSwapAggregator.sol\":5767:5817  (bool success, ) = call.target.call(call.callData) */\n      pop\n      swap1\n      pop\n        /* \"src/ConveyorSwapAggregator.sol\":5840:5847  success */\n      dup1\n        /* \"src/ConveyorSwapAggregator.sol\":5832:5863  require(success, \"call failed\") */\n      tag_29\n      jumpi\n      mload(0x40)\n      0x08c379a000000000000000000000000000000000000000000000000000000000\n      dup2\n      mstore\n      0x04\n      add\n      tag_30\n      swap1\n      tag_31\n      jump\t// in\n    tag_30:\n      mload(0x40)\n      dup1\n      swap2\n      sub\n      swap1\n      revert\n    tag_29:\n        /* \"src/ConveyorSwapAggregator.sol\":5906:5909  ++i */\n      dup3\n      0x01\n      add\n      swap3\n      pop\n        /* \"src/ConveyorSwapAggregator.sol\":5688:5934  {... */\n      pop\n      pop\n        /* \"src/ConveyorSwapAggregator.sol\":5649:5934  for (uint256 i = 0; i < callsLength; ) {... */\n      jump(tag_14)\n    tag_15:\n      pop\n        /* \"src/ConveyorSwapAggregator.sol\":5595:5940  {... */\n      pop\n        /* \"src/ConveyorSwapAggregator.sol\":5504:5940  function executeMulticall(ConveyorSwapAggregator.Call[] calldata calls)... */\n      pop\n      pop\n      jump\t// out\n        /* \"src/ConveyorSwapAggregator.sol\":6234:7061  function uniswapV3SwapCallback(... */\n    tag_12:\n        /* \"src/ConveyorSwapAggregator.sol\":6426:6442  bool _zeroForOne */\n      0x00\n        /* \"src/ConveyorSwapAggregator.sol\":6444:6459  address tokenIn */\n      dup1\n        /* \"src/ConveyorSwapAggregator.sol\":6461:6476  address _sender */\n      0x00\n        /* \"src/ConveyorSwapAggregator.sol\":6504:6508  data */\n      dup5\n      dup5\n        /* \"src/ConveyorSwapAggregator.sol\":6480:6556  abi.decode(... */\n      dup2\n      add\n      swap1\n      tag_33\n      swap2\n      swap1\n      tag_34\n      jump\t// in\n    tag_33:\n        /* \"src/ConveyorSwapAggregator.sol\":6425:6556  (bool _zeroForOne, address tokenIn, address _sender) = abi.decode(... */\n      swap3\n      pop\n      swap3\n      pop\n      swap3\n      pop\n        /* \"src/ConveyorSwapAggregator.sol\":6653:6669  uint256 amountIn */\n      0x00\n        /* \"src/ConveyorSwapAggregator.sol\":6672:6683  _zeroForOne */\n      dup4\n        /* \"src/ConveyorSwapAggregator.sol\":6672:6755  _zeroForOne... */\n      tag_35\n      jumpi\n        /* \"src/ConveyorSwapAggregator.sol\":6742:6754  amount1Delta */\n      dup7\n        /* \"src/ConveyorSwapAggregator.sol\":6672:6755  _zeroForOne... */\n      jump(tag_36)\n    tag_35:\n        /* \"src/ConveyorSwapAggregator.sol\":6706:6718  amount0Delta */\n      dup8\n        /* \"src/ConveyorSwapAggregator.sol\":6672:6755  _zeroForOne... */\n    tag_36:\n        /* \"src/ConveyorSwapAggregator.sol\":6653:6755  uint256 amountIn = _zeroForOne... */\n      swap1\n      pop\n        /* \"src/ConveyorSwapAggregator.sol\":6791:6795  this */\n      address\n        /* \"src/ConveyorSwapAggregator.sol\":6772:6796  _sender == address(this) */\n      0xffffffffffffffffffffffffffffffffffffffff\n      and\n        /* \"src/ConveyorSwapAggregator.sol\":6772:6779  _sender */\n      dup3\n        /* \"src/ConveyorSwapAggregator.sol\":6772:6796  _sender == address(this) */\n      0xffffffffffffffffffffffffffffffffffffffff\n      and\n      eq\n        /* \"src/ConveyorSwapAggregator.sol\":6766:7055  if (!(_sender == address(this))) {... */\n      tag_37\n      jumpi\n        /* \"src/ConveyorSwapAggregator.sol\":6915:6922  tokenIn */\n      dup3\n        /* \"src/ConveyorSwapAggregator.sol\":6908:6936  IERC20(tokenIn).transferFrom */\n      0xffffffffffffffffffffffffffffffffffffffff\n      and\n      0x23b872dd\n        /* \"src/ConveyorSwapAggregator.sol\":6937:6944  _sender */\n      dup4\n        /* \"src/ConveyorSwapAggregator.sol\":6946:6956  msg.sender */\n      caller\n        /* \"src/ConveyorSwapAggregator.sol\":6958:6966  amountIn */\n      dup5\n        /* \"src/ConveyorSwapAggregator.sol\":6908:6967  IERC20(tokenIn).transferFrom(_sender, msg.sender, amountIn) */\n      mload(0x40)\n      dup5\n      0xffffffff\n      and\n      0xe0\n      shl\n      dup2\n      mstore\n      0x04\n      add\n      tag_38\n      swap4\n      swap3\n      swap2\n      swap1\n      tag_39\n      jump\t// in\n    tag_38:\n      0x20\n      mload(0x40)\n      dup1\n      dup4\n      sub\n      dup2\n      0x00\n      dup8\n      gas\n      call\n      iszero\n      dup1\n      iszero\n      tag_41\n      jumpi\n      returndatasize\n      0x00\n      dup1\n      returndatacopy\n      revert(0x00, returndatasize)\n    tag_41:\n      pop\n      pop\n      pop\n      pop\n      mload(0x40)\n      returndatasize\n      not(0x1f)\n      0x1f\n      dup3\n      add\n      and\n      dup3\n      add\n      dup1\n      0x40\n      mstore\n      pop\n      dup2\n      add\n      swap1\n      tag_42\n      swap2\n      swap1\n      tag_43\n      jump\t// in\n    tag_42:\n      pop\n        /* \"src/ConveyorSwapAggregator.sol\":6766:7055  if (!(_sender == address(this))) {... */\n      jump(tag_44)\n    tag_37:\n        /* \"src/ConveyorSwapAggregator.sol\":7005:7012  tokenIn */\n      dup3\n        /* \"src/ConveyorSwapAggregator.sol\":6998:7022  IERC20(tokenIn).transfer */\n      0xffffffffffffffffffffffffffffffffffffffff\n      and\n      0xa9059cbb\n        /* \"src/ConveyorSwapAggregator.sol\":7023:7033  msg.sender */\n      caller\n        /* \"src/ConveyorSwapAggregator.sol\":7035:7043  amountIn */\n      dup4\n        /* \"src/ConveyorSwapAggregator.sol\":6998:7044  IERC20(tokenIn).transfer(msg.sender, amountIn) */\n      mload(0x40)\n      dup4\n      0xffffffff\n      and\n      0xe0\n      shl\n      dup2\n      mstore\n      0x04\n      add\n      tag_45\n      swap3\n      swap2\n      swap1\n      tag_46\n      jump\t// in\n    tag_45:\n      0x20\n      mload(0x40)\n      dup1\n      dup4\n      sub\n      dup2\n      0x00\n      dup8\n      gas\n      call\n      iszero\n      dup1\n      iszero\n      tag_48\n      jumpi\n      returndatasize\n      0x00\n      dup1\n      returndatacopy\n      revert(0x00, returndatasize)\n    tag_48:\n      pop\n      pop\n      pop\n      pop\n      mload(0x40)\n      returndatasize\n      not(0x1f)\n      0x1f\n      dup3\n      add\n      and\n      dup3\n      add\n      dup1\n      0x40\n      mstore\n      pop\n      dup2\n      add\n      swap1\n      tag_49\n      swap2\n      swap1\n      tag_43\n      jump\t// in\n    tag_49:\n      pop\n        /* \"src/ConveyorSwapAggregator.sol\":6766:7055  if (!(_sender == address(this))) {... */\n    tag_44:\n        /* \"src/ConveyorSwapAggregator.sol\":6367:7061  {... */\n      pop\n      pop\n      pop\n      pop\n        /* \"src/ConveyorSwapAggregator.sol\":6234:7061  function uniswapV3SwapCallback(... */\n      pop\n      pop\n      pop\n      pop\n      jump\t// out\n        /* \"#utility.yul\":7:82   */\n    tag_50:\n        /* \"#utility.yul\":40:46   */\n      0x00\n        /* \"#utility.yul\":73:75   */\n      0x40\n        /* \"#utility.yul\":67:76   */\n      mload\n        /* \"#utility.yul\":57:76   */\n      swap1\n      pop\n        /* \"#utility.yul\":7:82   */\n      swap1\n      jump\t// out\n        /* \"#utility.yul\":88:205   */\n    tag_51:\n        /* \"#utility.yul\":197:198   */\n      0x00\n        /* \"#utility.yul\":194:195   */\n      dup1\n        /* \"#utility.yul\":187:199   */\n      revert\n        /* \"#utility.yul\":211:328   */\n    tag_52:\n        /* \"#utility.yul\":320:321   */\n      0x00\n        /* \"#utility.yul\":317:318   */\n      dup1\n        /* \"#utility.yul\":310:322   */\n      revert\n        /* \"#utility.yul\":334:451   */\n    tag_53:\n        /* \"#utility.yul\":443:444   */\n      0x00\n        /* \"#utility.yul\":440:441   */\n      dup1\n        /* \"#utility.yul\":433:445   */\n      revert\n        /* \"#utility.yul\":457:574   */\n    tag_54:\n        /* \"#utility.yul\":566:567   */\n      0x00\n        /* \"#utility.yul\":563:564   */\n      dup1\n        /* \"#utility.yul\":556:568   */\n      revert\n        /* \"#utility.yul\":580:697   */\n    tag_55:\n        /* \"#utility.yul\":689:690   */\n      0x00\n        /* \"#utility.yul\":686:687   */\n      dup1\n        /* \"#utility.yul\":679:691   */\n      revert\n        /* \"#utility.yul\":747:1338   */\n    tag_56:\n        /* \"#utility.yul\":843:851   */\n      0x00\n        /* \"#utility.yul\":853:859   */\n      dup1\n        /* \"#utility.yul\":903:906   */\n      dup4\n        /* \"#utility.yul\":896:900   */\n      0x1f\n        /* \"#utility.yul\":888:894   */\n      dup5\n        /* \"#utility.yul\":884:901   */\n      add\n        /* \"#utility.yul\":880:907   */\n      slt\n        /* \"#utility.yul\":870:992   */\n      tag_105\n      jumpi\n        /* \"#utility.yul\":911:990   */\n      tag_106\n      tag_53\n      jump\t// in\n    tag_106:\n        /* \"#utility.yul\":870:992   */\n    tag_105:\n        /* \"#utility.yul\":1024:1030   */\n      dup3\n        /* \"#utility.yul\":1011:1031   */\n      calldataload\n        /* \"#utility.yul\":1001:1031   */\n      swap1\n      pop\n        /* \"#utility.yul\":1054:1072   */\n      0xffffffffffffffff\n        /* \"#utility.yul\":1046:1052   */\n      dup2\n        /* \"#utility.yul\":1043:1073   */\n      gt\n        /* \"#utility.yul\":1040:1157   */\n      iszero\n      tag_107\n      jumpi\n        /* \"#utility.yul\":1076:1155   */\n      tag_108\n      tag_54\n      jump\t// in\n    tag_108:\n        /* \"#utility.yul\":1040:1157   */\n    tag_107:\n        /* \"#utility.yul\":1190:1194   */\n      0x20\n        /* \"#utility.yul\":1182:1188   */\n      dup4\n        /* \"#utility.yul\":1178:1195   */\n      add\n        /* \"#utility.yul\":1166:1195   */\n      swap2\n      pop\n        /* \"#utility.yul\":1244:1247   */\n      dup4\n        /* \"#utility.yul\":1236:1240   */\n      0x20\n        /* \"#utility.yul\":1228:1234   */\n      dup3\n        /* \"#utility.yul\":1224:1241   */\n      mul\n        /* \"#utility.yul\":1214:1222   */\n      dup4\n        /* \"#utility.yul\":1210:1242   */\n      add\n        /* \"#utility.yul\":1207:1248   */\n      gt\n        /* \"#utility.yul\":1204:1332   */\n      iszero\n      tag_109\n      jumpi\n        /* \"#utility.yul\":1251:1330   */\n      tag_110\n      tag_55\n      jump\t// in\n    tag_110:\n        /* \"#utility.yul\":1204:1332   */\n    tag_109:\n        /* \"#utility.yul\":747:1338   */\n      swap3\n      pop\n      swap3\n      swap1\n      pop\n      jump\t// out\n        /* \"#utility.yul\":1344:1949   */\n    tag_7:\n        /* \"#utility.yul\":1453:1459   */\n      0x00\n        /* \"#utility.yul\":1461:1467   */\n      dup1\n        /* \"#utility.yul\":1510:1512   */\n      0x20\n        /* \"#utility.yul\":1498:1507   */\n      dup4\n        /* \"#utility.yul\":1489:1496   */\n      dup6\n        /* \"#utility.yul\":1485:1508   */\n      sub\n        /* \"#utility.yul\":1481:1513   */\n      slt\n        /* \"#utility.yul\":1478:1597   */\n      iszero\n      tag_112\n      jumpi\n        /* \"#utility.yul\":1516:1595   */\n      tag_113\n      tag_51\n      jump\t// in\n    tag_113:\n        /* \"#utility.yul\":1478:1597   */\n    tag_112:\n        /* \"#utility.yul\":1664:1665   */\n      0x00\n        /* \"#utility.yul\":1653:1662   */\n      dup4\n        /* \"#utility.yul\":1649:1666   */\n      add\n        /* \"#utility.yul\":1636:1667   */\n      calldataload\n        /* \"#utility.yul\":1694:1712   */\n      0xffffffffffffffff\n        /* \"#utility.yul\":1686:1692   */\n      dup2\n        /* \"#utility.yul\":1683:1713   */\n      gt\n        /* \"#utility.yul\":1680:1797   */\n      iszero\n      tag_114\n      jumpi\n        /* \"#utility.yul\":1716:1795   */\n      tag_115\n      tag_52\n      jump\t// in\n    tag_115:\n        /* \"#utility.yul\":1680:1797   */\n    tag_114:\n        /* \"#utility.yul\":1829:1932   */\n      tag_116\n        /* \"#utility.yul\":1924:1931   */\n      dup6\n        /* \"#utility.yul\":1915:1921   */\n      dup3\n        /* \"#utility.yul\":1904:1913   */\n      dup7\n        /* \"#utility.yul\":1900:1922   */\n      add\n        /* \"#utility.yul\":1829:1932   */\n      tag_56\n      jump\t// in\n    tag_116:\n        /* \"#utility.yul\":1811:1932   */\n      swap3\n      pop\n      swap3\n      pop\n        /* \"#utility.yul\":1607:1942   */\n      pop\n        /* \"#utility.yul\":1344:1949   */\n      swap3\n      pop\n      swap3\n      swap1\n      pop\n      jump\t// out\n        /* \"#utility.yul\":1955:2031   */\n    tag_57:\n        /* \"#utility.yul\":1991:1998   */\n      0x00\n        /* \"#utility.yul\":2020:2025   */\n      dup2\n        /* \"#utility.yul\":2009:2025   */\n      swap1\n      pop\n        /* \"#utility.yul\":1955:2031   */\n      swap2\n      swap1\n      pop\n      jump\t// out\n        /* \"#utility.yul\":2037:2157   */\n    tag_58:\n        /* \"#utility.yul\":2109:2132   */\n      tag_119\n        /* \"#utility.yul\":2126:2131   */\n      dup2\n        /* \"#utility.yul\":2109:2132   */\n      tag_57\n      jump\t// in\n    tag_119:\n        /* \"#utility.yul\":2102:2107   */\n      dup2\n        /* \"#utility.yul\":2099:2133   */\n      eq\n        /* \"#utility.yul\":2089:2151   */\n      tag_120\n      jumpi\n        /* \"#utility.yul\":2147:2148   */\n      0x00\n        /* \"#utility.yul\":2144:2145   */\n      dup1\n        /* \"#utility.yul\":2137:2149   */\n      revert\n        /* \"#utility.yul\":2089:2151   */\n    tag_120:\n        /* \"#utility.yul\":2037:2157   */\n      pop\n      jump\t// out\n        /* \"#utility.yul\":2163:2300   */\n    tag_59:\n        /* \"#utility.yul\":2208:2213   */\n      0x00\n        /* \"#utility.yul\":2246:2252   */\n      dup2\n        /* \"#utility.yul\":2233:2253   */\n      calldataload\n        /* \"#utility.yul\":2224:2253   */\n      swap1\n      pop\n        /* \"#utility.yul\":2262:2294   */\n      tag_122\n        /* \"#utility.yul\":2288:2293   */\n      dup2\n        /* \"#utility.yul\":2262:2294   */\n      tag_58\n      jump\t// in\n    tag_122:\n        /* \"#utility.yul\":2163:2300   */\n      swap3\n      swap2\n      pop\n      pop\n      jump\t// out\n        /* \"#utility.yul\":2319:2871   */\n    tag_60:\n        /* \"#utility.yul\":2376:2384   */\n      0x00\n        /* \"#utility.yul\":2386:2392   */\n      dup1\n        /* \"#utility.yul\":2436:2439   */\n      dup4\n        /* \"#utility.yul\":2429:2433   */\n      0x1f\n        /* \"#utility.yul\":2421:2427   */\n      dup5\n        /* \"#utility.yul\":2417:2434   */\n      add\n        /* \"#utility.yul\":2413:2440   */\n      slt\n        /* \"#utility.yul\":2403:2525   */\n      tag_124\n      jumpi\n        /* \"#utility.yul\":2444:2523   */\n      tag_125\n      tag_53\n      jump\t// in\n    tag_125:\n        /* \"#utility.yul\":2403:2525   */\n    tag_124:\n        /* \"#utility.yul\":2557:2563   */\n      dup3\n        /* \"#utility.yul\":2544:2564   */\n      calldataload\n        /* \"#utility.yul\":2534:2564   */\n      swap1\n      pop\n        /* \"#utility.yul\":2587:2605   */\n      0xffffffffffffffff\n        /* \"#utility.yul\":2579:2585   */\n      dup2\n        /* \"#utility.yul\":2576:2606   */\n      gt\n        /* \"#utility.yul\":2573:2690   */\n      iszero\n      tag_126\n      jumpi\n        /* \"#utility.yul\":2609:2688   */\n      tag_127\n      tag_54\n      jump\t// in\n    tag_127:\n        /* \"#utility.yul\":2573:2690   */\n    tag_126:\n        /* \"#utility.yul\":2723:2727   */\n      0x20\n        /* \"#utility.yul\":2715:2721   */\n      dup4\n        /* \"#utility.yul\":2711:2728   */\n      add\n        /* \"#utility.yul\":2699:2728   */\n      swap2\n      pop\n        /* \"#utility.yul\":2777:2780   */\n      dup4\n        /* \"#utility.yul\":2769:2773   */\n      0x01\n        /* \"#utility.yul\":2761:2767   */\n      dup3\n        /* \"#utility.yul\":2757:2774   */\n      mul\n        /* \"#utility.yul\":2747:2755   */\n      dup4\n        /* \"#utility.yul\":2743:2775   */\n      add\n        /* \"#utility.yul\":2740:2781   */\n      gt\n        /* \"#utility.yul\":2737:2865   */\n      iszero\n      tag_128\n      jumpi\n        /* \"#utility.yul\":2784:2863   */\n      tag_129\n      tag_55\n      jump\t// in\n    tag_129:\n        /* \"#utility.yul\":2737:2865   */\n    tag_128:\n        /* \"#utility.yul\":2319:2871   */\n      swap3\n      pop\n      swap3\n      swap1\n      pop\n      jump\t// out\n        /* \"#utility.yul\":2877:3690   */\n    tag_11:\n        /* \"#utility.yul\":2963:2969   */\n      0x00\n        /* \"#utility.yul\":2971:2977   */\n      dup1\n        /* \"#utility.yul\":2979:2985   */\n      0x00\n        /* \"#utility.yul\":2987:2993   */\n      dup1\n        /* \"#utility.yul\":3036:3038   */\n      0x60\n        /* \"#utility.yul\":3024:3033   */\n      dup6\n        /* \"#utility.yul\":3015:3022   */\n      dup8\n        /* \"#utility.yul\":3011:3034   */\n      sub\n        /* \"#utility.yul\":3007:3039   */\n      slt\n        /* \"#utility.yul\":3004:3123   */\n      iszero\n      tag_131\n      jumpi\n        /* \"#utility.yul\":3042:3121   */\n      tag_132\n      tag_51\n      jump\t// in\n    tag_132:\n        /* \"#utility.yul\":3004:3123   */\n    tag_131:\n        /* \"#utility.yul\":3162:3163   */\n      0x00\n        /* \"#utility.yul\":3187:3239   */\n      tag_133\n        /* \"#utility.yul\":3231:3238   */\n      dup8\n        /* \"#utility.yul\":3222:3228   */\n      dup3\n        /* \"#utility.yul\":3211:3220   */\n      dup9\n        /* \"#utility.yul\":3207:3229   */\n      add\n        /* \"#utility.yul\":3187:3239   */\n      tag_59\n      jump\t// in\n    tag_133:\n        /* \"#utility.yul\":3177:3239   */\n      swap5\n      pop\n        /* \"#utility.yul\":3133:3249   */\n      pop\n        /* \"#utility.yul\":3288:3290   */\n      0x20\n        /* \"#utility.yul\":3314:3366   */\n      tag_134\n        /* \"#utility.yul\":3358:3365   */\n      dup8\n        /* \"#utility.yul\":3349:3355   */\n      dup3\n        /* \"#utility.yul\":3338:3347   */\n      dup9\n        /* \"#utility.yul\":3334:3356   */\n      add\n        /* \"#utility.yul\":3314:3366   */\n      tag_59\n      jump\t// in\n    tag_134:\n        /* \"#utility.yul\":3304:3366   */\n      swap4\n      pop\n        /* \"#utility.yul\":3259:3376   */\n      pop\n        /* \"#utility.yul\":3443:3445   */\n      0x40\n        /* \"#utility.yul\":3432:3441   */\n      dup6\n        /* \"#utility.yul\":3428:3446   */\n      add\n        /* \"#utility.yul\":3415:3447   */\n      calldataload\n        /* \"#utility.yul\":3474:3492   */\n      0xffffffffffffffff\n        /* \"#utility.yul\":3466:3472   */\n      dup2\n        /* \"#utility.yul\":3463:3493   */\n      gt\n        /* \"#utility.yul\":3460:3577   */\n      iszero\n      tag_135\n      jumpi\n        /* \"#utility.yul\":3496:3575   */\n      tag_136\n      tag_52\n      jump\t// in\n    tag_136:\n        /* \"#utility.yul\":3460:3577   */\n    tag_135:\n        /* \"#utility.yul\":3609:3673   */\n      tag_137\n        /* \"#utility.yul\":3665:3672   */\n      dup8\n        /* \"#utility.yul\":3656:3662   */\n      dup3\n        /* \"#utility.yul\":3645:3654   */\n      dup9\n        /* \"#utility.yul\":3641:3663   */\n      add\n        /* \"#utility.yul\":3609:3673   */\n      tag_60\n      jump\t// in\n    tag_137:\n        /* \"#utility.yul\":3591:3673   */\n      swap3\n      pop\n      swap3\n      pop\n        /* \"#utility.yul\":3386:3683   */\n      pop\n        /* \"#utility.yul\":2877:3690   */\n      swap3\n      swap6\n      swap2\n      swap5\n      pop\n      swap3\n      pop\n      jump\t// out\n        /* \"#utility.yul\":3696:3876   */\n    tag_19:\n        /* \"#utility.yul\":3744:3821   */\n      0x4e487b7100000000000000000000000000000000000000000000000000000000\n        /* \"#utility.yul\":3741:3742   */\n      0x00\n        /* \"#utility.yul\":3734:3822   */\n      mstore\n        /* \"#utility.yul\":3841:3845   */\n      0x32\n        /* \"#utility.yul\":3838:3839   */\n      0x04\n        /* \"#utility.yul\":3831:3846   */\n      mstore\n        /* \"#utility.yul\":3865:3869   */\n      0x24\n        /* \"#utility.yul\":3862:3863   */\n      0x00\n        /* \"#utility.yul\":3855:3870   */\n      revert\n        /* \"#utility.yul\":3882:3999   */\n    tag_61:\n        /* \"#utility.yul\":3991:3992   */\n      0x00\n        /* \"#utility.yul\":3988:3989   */\n      dup1\n        /* \"#utility.yul\":3981:3993   */\n      revert\n        /* \"#utility.yul\":4251:4640   */\n    tag_21:\n        /* \"#utility.yul\":4340:4344   */\n      0x00\n        /* \"#utility.yul\":4394:4405   */\n      dup3\n        /* \"#utility.yul\":4381:4406   */\n      calldataload\n        /* \"#utility.yul\":4494:4495   */\n      0x01\n        /* \"#utility.yul\":4488:4492   */\n      0x40\n        /* \"#utility.yul\":4484:4496   */\n      sub\n        /* \"#utility.yul\":4473:4481   */\n      dup4\n        /* \"#utility.yul\":4457:4471   */\n      calldatasize\n        /* \"#utility.yul\":4453:4482   */\n      sub\n        /* \"#utility.yul\":4449:4497   */\n      sub\n        /* \"#utility.yul\":4429:4447   */\n      dup2\n        /* \"#utility.yul\":4425:4498   */\n      slt\n        /* \"#utility.yul\":4415:4583   */\n      tag_143\n      jumpi\n        /* \"#utility.yul\":4502:4581   */\n      tag_144\n      tag_61\n      jump\t// in\n    tag_144:\n        /* \"#utility.yul\":4415:4583   */\n    tag_143:\n        /* \"#utility.yul\":4614:4632   */\n      dup1\n        /* \"#utility.yul\":4604:4612   */\n      dup4\n        /* \"#utility.yul\":4600:4633   */\n      add\n        /* \"#utility.yul\":4592:4633   */\n      swap2\n      pop\n        /* \"#utility.yul\":4345:4640   */\n      pop\n        /* \"#utility.yul\":4251:4640   */\n      swap3\n      swap2\n      pop\n      pop\n      jump\t// out\n        /* \"#utility.yul\":4646:4763   */\n    tag_64:\n        /* \"#utility.yul\":4755:4756   */\n      0x00\n        /* \"#utility.yul\":4752:4753   */\n      dup1\n        /* \"#utility.yul\":4745:4757   */\n      revert\n        /* \"#utility.yul\":4769:4871   */\n    tag_65:\n        /* \"#utility.yul\":4810:4816   */\n      0x00\n        /* \"#utility.yul\":4861:4863   */\n      0x1f\n        /* \"#utility.yul\":4857:4864   */\n      not\n        /* \"#utility.yul\":4852:4854   */\n      0x1f\n        /* \"#utility.yul\":4845:4850   */\n      dup4\n        /* \"#utility.yul\":4841:4855   */\n      add\n        /* \"#utility.yul\":4837:4865   */\n      and\n        /* \"#utility.yul\":4827:4865   */\n      swap1\n      pop\n        /* \"#utility.yul\":4769:4871   */\n      swap2\n      swap1\n      pop\n      jump\t// out\n        /* \"#utility.yul\":4877:5057   */\n    tag_66:\n        /* \"#utility.yul\":4925:5002   */\n      0x4e487b7100000000000000000000000000000000000000000000000000000000\n        /* \"#utility.yul\":4922:4923   */\n      0x00\n        /* \"#utility.yul\":4915:5003   */\n      mstore\n        /* \"#utility.yul\":5022:5026   */\n      0x41\n        /* \"#utility.yul\":5019:5020   */\n      0x04\n        /* \"#utility.yul\":5012:5027   */\n      mstore\n        /* \"#utility.yul\":5046:5050   */\n      0x24\n        /* \"#utility.yul\":5043:5044   */\n      0x00\n        /* \"#utility.yul\":5036:5051   */\n      revert\n        /* \"#utility.yul\":5063:5344   */\n    tag_67:\n        /* \"#utility.yul\":5146:5173   */\n      tag_149\n        /* \"#utility.yul\":5168:5172   */\n      dup3\n        /* \"#utility.yul\":5146:5173   */\n      tag_65\n      jump\t// in\n    tag_149:\n        /* \"#utility.yul\":5138:5144   */\n      dup2\n        /* \"#utility.yul\":5134:5174   */\n      add\n        /* \"#utility.yul\":5276:5282   */\n      dup2\n        /* \"#utility.yul\":5264:5274   */\n      dup2\n        /* \"#utility.yul\":5261:5283   */\n      lt\n        /* \"#utility.yul\":5240:5258   */\n      0xffffffffffffffff\n        /* \"#utility.yul\":5228:5238   */\n      dup3\n        /* \"#utility.yul\":5225:5259   */\n      gt\n        /* \"#utility.yul\":5222:5284   */\n      or\n        /* \"#utility.yul\":5219:5307   */\n      iszero\n      tag_150\n      jumpi\n        /* \"#utility.yul\":5287:5305   */\n      tag_151\n      tag_66\n      jump\t// in\n    tag_151:\n        /* \"#utility.yul\":5219:5307   */\n    tag_150:\n        /* \"#utility.yul\":5327:5337   */\n      dup1\n        /* \"#utility.yul\":5323:5325   */\n      0x40\n        /* \"#utility.yul\":5316:5338   */\n      mstore\n        /* \"#utility.yul\":5106:5344   */\n      pop\n        /* \"#utility.yul\":5063:5344   */\n      pop\n      pop\n      jump\t// out\n        /* \"#utility.yul\":5350:5479   */\n    tag_68:\n        /* \"#utility.yul\":5384:5390   */\n      0x00\n        /* \"#utility.yul\":5411:5431   */\n      tag_153\n      tag_50\n      jump\t// in\n    tag_153:\n        /* \"#utility.yul\":5401:5431   */\n      swap1\n      pop\n        /* \"#utility.yul\":5440:5473   */\n      tag_154\n        /* \"#utility.yul\":5468:5472   */\n      dup3\n        /* \"#utility.yul\":5460:5466   */\n      dup3\n        /* \"#utility.yul\":5440:5473   */\n      tag_67\n      jump\t// in\n    tag_154:\n        /* \"#utility.yul\":5350:5479   */\n      swap2\n      swap1\n      pop\n      jump\t// out\n        /* \"#utility.yul\":5485:5602   */\n    tag_69:\n        /* \"#utility.yul\":5594:5595   */\n      0x00\n        /* \"#utility.yul\":5591:5592   */\n      dup1\n        /* \"#utility.yul\":5584:5596   */\n      revert\n        /* \"#utility.yul\":5608:5734   */\n    tag_70:\n        /* \"#utility.yul\":5645:5652   */\n      0x00\n        /* \"#utility.yul\":5685:5727   */\n      0xffffffffffffffffffffffffffffffffffffffff\n        /* \"#utility.yul\":5678:5683   */\n      dup3\n        /* \"#utility.yul\":5674:5728   */\n      and\n        /* \"#utility.yul\":5663:5728   */\n      swap1\n      pop\n        /* \"#utility.yul\":5608:5734   */\n      swap2\n      swap1\n      pop\n      jump\t// out\n        /* \"#utility.yul\":5740:5836   */\n    tag_71:\n        /* \"#utility.yul\":5777:5784   */\n      0x00\n        /* \"#utility.yul\":5806:5830   */\n      tag_158\n        /* \"#utility.yul\":5824:5829   */\n      dup3\n        /* \"#utility.yul\":5806:5830   */\n      tag_70\n      jump\t// in\n    tag_158:\n        /* \"#utility.yul\":5795:5830   */\n      swap1\n      pop\n        /* \"#utility.yul\":5740:5836   */\n      swap2\n      swap1\n      pop\n      jump\t// out\n        /* \"#utility.yul\":5842:5964   */\n    tag_72:\n        /* \"#utility.yul\":5915:5939   */\n      tag_160\n        /* \"#utility.yul\":5933:5938   */\n      dup2\n        /* \"#utility.yul\":5915:5939   */\n      tag_71\n      jump\t// in\n    tag_160:\n        /* \"#utility.yul\":5908:5913   */\n      dup2\n        /* \"#utility.yul\":5905:5940   */\n      eq\n        /* \"#utility.yul\":5895:5958   */\n      tag_161\n      jumpi\n        /* \"#utility.yul\":5954:5955   */\n      0x00\n        /* \"#utility.yul\":5951:5952   */\n      dup1\n        /* \"#utility.yul\":5944:5956   */\n      revert\n        /* \"#utility.yul\":5895:5958   */\n    tag_161:\n        /* \"#utility.yul\":5842:5964   */\n      pop\n      jump\t// out\n        /* \"#utility.yul\":5970:6109   */\n    tag_73:\n        /* \"#utility.yul\":6016:6021   */\n      0x00\n        /* \"#utility.yul\":6054:6060   */\n      dup2\n        /* \"#utility.yul\":6041:6061   */\n      calldataload\n        /* \"#utility.yul\":6032:6061   */\n      swap1\n      pop\n        /* \"#utility.yul\":6070:6103   */\n      tag_163\n        /* \"#utility.yul\":6097:6102   */\n      dup2\n        /* \"#utility.yul\":6070:6103   */\n      tag_72\n      jump\t// in\n    tag_163:\n        /* \"#utility.yul\":5970:6109   */\n      swap3\n      swap2\n      pop\n      pop\n      jump\t// out\n        /* \"#utility.yul\":6115:6232   */\n    tag_74:\n        /* \"#utility.yul\":6224:6225   */\n      0x00\n        /* \"#utility.yul\":6221:6222   */\n      dup1\n        /* \"#utility.yul\":6214:6226   */\n      revert\n        /* \"#utility.yul\":6238:6545   */\n    tag_75:\n        /* \"#utility.yul\":6299:6303   */\n      0x00\n        /* \"#utility.yul\":6389:6407   */\n      0xffffffffffffffff\n        /* \"#utility.yul\":6381:6387   */\n      dup3\n        /* \"#utility.yul\":6378:6408   */\n      gt\n        /* \"#utility.yul\":6375:6431   */\n      iszero\n      tag_166\n      jumpi\n        /* \"#utility.yul\":6411:6429   */\n      tag_167\n      tag_66\n      jump\t// in\n    tag_167:\n        /* \"#utility.yul\":6375:6431   */\n    tag_166:\n        /* \"#utility.yul\":6449:6478   */\n      tag_168\n        /* \"#utility.yul\":6471:6477   */\n      dup3\n        /* \"#utility.yul\":6449:6478   */\n      tag_65\n      jump\t// in\n    tag_168:\n        /* \"#utility.yul\":6441:6478   */\n      swap1\n      pop\n        /* \"#utility.yul\":6533:6537   */\n      0x20\n        /* \"#utility.yul\":6527:6531   */\n      dup2\n        /* \"#utility.yul\":6523:6538   */\n      add\n        /* \"#utility.yul\":6515:6538   */\n      swap1\n      pop\n        /* \"#utility.yul\":6238:6545   */\n      swap2\n      swap1\n      pop\n      jump\t// out\n        /* \"#utility.yul\":6551:6697   */\n    tag_76:\n        /* \"#utility.yul\":6648:6654   */\n      dup3\n        /* \"#utility.yul\":6643:6646   */\n      dup2\n        /* \"#utility.yul\":6638:6641   */\n      dup4\n        /* \"#utility.yul\":6625:6655   */\n      calldatacopy\n        /* \"#utility.yul\":6689:6690   */\n      0x00\n        /* \"#utility.yul\":6680:6686   */\n      dup4\n        /* \"#utility.yul\":6675:6678   */\n      dup4\n        /* \"#utility.yul\":6671:6687   */\n      add\n        /* \"#utility.yul\":6664:6691   */\n      mstore\n        /* \"#utility.yul\":6551:6697   */\n      pop\n      pop\n      pop\n      jump\t// out\n        /* \"#utility.yul\":6703:7126   */\n    tag_77:\n        /* \"#utility.yul\":6780:6785   */\n      0x00\n        /* \"#utility.yul\":6805:6870   */\n      tag_171\n        /* \"#utility.yul\":6821:6869   */\n      tag_172\n        /* \"#utility.yul\":6862:6868   */\n      dup5\n        /* \"#utility.yul\":6821:6869   */\n      tag_75\n      jump\t// in\n    tag_172:\n        /* \"#utility.yul\":6805:6870   */\n      tag_68\n      jump\t// in\n    tag_171:\n        /* \"#utility.yul\":6796:6870   */\n      swap1\n      pop\n        /* \"#utility.yul\":6893:6899   */\n      dup3\n        /* \"#utility.yul\":6886:6891   */\n      dup2\n        /* \"#utility.yul\":6879:6900   */\n      mstore\n        /* \"#utility.yul\":6931:6935   */\n      0x20\n        /* \"#utility.yul\":6924:6929   */\n      dup2\n        /* \"#utility.yul\":6920:6936   */\n      add\n        /* \"#utility.yul\":6969:6972   */\n      dup5\n        /* \"#utility.yul\":6960:6966   */\n      dup5\n        /* \"#utility.yul\":6955:6958   */\n      dup5\n        /* \"#utility.yul\":6951:6967   */\n      add\n        /* \"#utility.yul\":6948:6973   */\n      gt\n        /* \"#utility.yul\":6945:7057   */\n      iszero\n      tag_173\n      jumpi\n        /* \"#utility.yul\":6976:7055   */\n      tag_174\n      tag_74\n      jump\t// in\n    tag_174:\n        /* \"#utility.yul\":6945:7057   */\n    tag_173:\n        /* \"#utility.yul\":7066:7120   */\n      tag_175\n        /* \"#utility.yul\":7113:7119   */\n      dup5\n        /* \"#utility.yul\":7108:7111   */\n      dup3\n        /* \"#utility.yul\":7103:7106   */\n      dup6\n        /* \"#utility.yul\":7066:7120   */\n      tag_76\n      jump\t// in\n    tag_175:\n        /* \"#utility.yul\":6786:7126   */\n      pop\n        /* \"#utility.yul\":6703:7126   */\n      swap4\n      swap3\n      pop\n      pop\n      pop\n      jump\t// out\n        /* \"#utility.yul\":7145:7483   */\n    tag_78:\n        /* \"#utility.yul\":7200:7205   */\n      0x00\n        /* \"#utility.yul\":7249:7252   */\n      dup3\n        /* \"#utility.yul\":7242:7246   */\n      0x1f\n        /* \"#utility.yul\":7234:7240   */\n      dup4\n        /* \"#utility.yul\":7230:7247   */\n      add\n        /* \"#utility.yul\":7226:7253   */\n      slt\n        /* \"#utility.yul\":7216:7338   */\n      tag_177\n      jumpi\n        /* \"#utility.yul\":7257:7336   */\n      tag_178\n      tag_53\n      jump\t// in\n    tag_178:\n        /* \"#utility.yul\":7216:7338   */\n    tag_177:\n        /* \"#utility.yul\":7374:7380   */\n      dup2\n        /* \"#utility.yul\":7361:7381   */\n      calldataload\n        /* \"#utility.yul\":7399:7477   */\n      tag_179\n        /* \"#utility.yul\":7473:7476   */\n      dup5\n        /* \"#utility.yul\":7465:7471   */\n      dup3\n        /* \"#utility.yul\":7458:7462   */\n      0x20\n        /* \"#utility.yul\":7450:7456   */\n      dup7\n        /* \"#utility.yul\":7446:7463   */\n      add\n        /* \"#utility.yul\":7399:7477   */\n      tag_77\n      jump\t// in\n    tag_179:\n        /* \"#utility.yul\":7390:7477   */\n      swap2\n      pop\n        /* \"#utility.yul\":7206:7483   */\n      pop\n        /* \"#utility.yul\":7145:7483   */\n      swap3\n      swap2\n      pop\n      pop\n      jump\t// out\n        /* \"#utility.yul\":7531:8276   */\n    tag_79:\n        /* \"#utility.yul\":7601:7606   */\n      0x00\n        /* \"#utility.yul\":7645:7649   */\n      0x40\n        /* \"#utility.yul\":7633:7642   */\n      dup3\n        /* \"#utility.yul\":7628:7631   */\n      dup5\n        /* \"#utility.yul\":7624:7643   */\n      sub\n        /* \"#utility.yul\":7620:7650   */\n      slt\n        /* \"#utility.yul\":7617:7734   */\n      iszero\n      tag_181\n      jumpi\n        /* \"#utility.yul\":7653:7732   */\n      tag_182\n      tag_64\n      jump\t// in\n    tag_182:\n        /* \"#utility.yul\":7617:7734   */\n    tag_181:\n        /* \"#utility.yul\":7752:7773   */\n      tag_183\n        /* \"#utility.yul\":7768:7772   */\n      0x40\n        /* \"#utility.yul\":7752:7773   */\n      tag_68\n      jump\t// in\n    tag_183:\n        /* \"#utility.yul\":7743:7773   */\n      swap1\n      pop\n        /* \"#utility.yul\":7834:7835   */\n      0x00\n        /* \"#utility.yul\":7874:7923   */\n      tag_184\n        /* \"#utility.yul\":7919:7922   */\n      dup5\n        /* \"#utility.yul\":7910:7916   */\n      dup3\n        /* \"#utility.yul\":7899:7908   */\n      dup6\n        /* \"#utility.yul\":7895:7917   */\n      add\n        /* \"#utility.yul\":7874:7923   */\n      tag_73\n      jump\t// in\n    tag_184:\n        /* \"#utility.yul\":7867:7871   */\n      0x00\n        /* \"#utility.yul\":7860:7865   */\n      dup4\n        /* \"#utility.yul\":7856:7872   */\n      add\n        /* \"#utility.yul\":7849:7924   */\n      mstore\n        /* \"#utility.yul\":7783:7935   */\n      pop\n        /* \"#utility.yul\":8026:8028   */\n      0x20\n        /* \"#utility.yul\":8015:8024   */\n      dup3\n        /* \"#utility.yul\":8011:8029   */\n      add\n        /* \"#utility.yul\":7998:8030   */\n      calldataload\n        /* \"#utility.yul\":8057:8075   */\n      0xffffffffffffffff\n        /* \"#utility.yul\":8049:8055   */\n      dup2\n        /* \"#utility.yul\":8046:8076   */\n      gt\n        /* \"#utility.yul\":8043:8160   */\n      iszero\n      tag_185\n      jumpi\n        /* \"#utility.yul\":8079:8158   */\n      tag_186\n      tag_69\n      jump\t// in\n    tag_186:\n        /* \"#utility.yul\":8043:8160   */\n    tag_185:\n        /* \"#utility.yul\":8199:8257   */\n      tag_187\n        /* \"#utility.yul\":8253:8256   */\n      dup5\n        /* \"#utility.yul\":8244:8250   */\n      dup3\n        /* \"#utility.yul\":8233:8242   */\n      dup6\n        /* \"#utility.yul\":8229:8251   */\n      add\n        /* \"#utility.yul\":8199:8257   */\n      tag_78\n      jump\t// in\n    tag_187:\n        /* \"#utility.yul\":8192:8196   */\n      0x20\n        /* \"#utility.yul\":8185:8190   */\n      dup4\n        /* \"#utility.yul\":8181:8197   */\n      add\n        /* \"#utility.yul\":8174:8258   */\n      mstore\n        /* \"#utility.yul\":7945:8269   */\n      pop\n        /* \"#utility.yul\":7531:8276   */\n      swap3\n      swap2\n      pop\n      pop\n      jump\t// out\n        /* \"#utility.yul\":8282:8481   */\n    tag_23:\n        /* \"#utility.yul\":8376:8385   */\n      0x00\n        /* \"#utility.yul\":8410:8474   */\n      tag_189\n        /* \"#utility.yul\":8459:8473   */\n      calldatasize\n        /* \"#utility.yul\":8452:8457   */\n      dup4\n        /* \"#utility.yul\":8410:8474   */\n      tag_79\n      jump\t// in\n    tag_189:\n        /* \"#utility.yul\":8397:8474   */\n      swap1\n      pop\n        /* \"#utility.yul\":8282:8481   */\n      swap2\n      swap1\n      pop\n      jump\t// out\n        /* \"#utility.yul\":8487:8585   */\n    tag_80:\n        /* \"#utility.yul\":8538:8544   */\n      0x00\n        /* \"#utility.yul\":8572:8577   */\n      dup2\n        /* \"#utility.yul\":8566:8578   */\n      mload\n        /* \"#utility.yul\":8556:8578   */\n      swap1\n      pop\n        /* \"#utility.yul\":8487:8585   */\n      swap2\n      swap1\n      pop\n      jump\t// out\n        /* \"#utility.yul\":8591:8738   */\n    tag_81:\n        /* \"#utility.yul\":8692:8703   */\n      0x00\n        /* \"#utility.yul\":8729:8732   */\n      dup2\n        /* \"#utility.yul\":8714:8732   */\n      swap1\n      pop\n        /* \"#utility.yul\":8591:8738   */\n      swap3\n      swap2\n      pop\n      pop\n      jump\t// out\n        /* \"#utility.yul\":8744:8990   */\n    tag_82:\n        /* \"#utility.yul\":8825:8826   */\n      0x00\n        /* \"#utility.yul\":8835:8948   */\n    tag_193:\n        /* \"#utility.yul\":8849:8855   */\n      dup4\n        /* \"#utility.yul\":8846:8847   */\n      dup2\n        /* \"#utility.yul\":8843:8856   */\n      lt\n        /* \"#utility.yul\":8835:8948   */\n      iszero\n      tag_195\n      jumpi\n        /* \"#utility.yul\":8934:8935   */\n      dup1\n        /* \"#utility.yul\":8929:8932   */\n      dup3\n        /* \"#utility.yul\":8925:8936   */\n      add\n        /* \"#utility.yul\":8919:8937   */\n      mload\n        /* \"#utility.yul\":8915:8916   */\n      dup2\n        /* \"#utility.yul\":8910:8913   */\n      dup5\n        /* \"#utility.yul\":8906:8917   */\n      add\n        /* \"#utility.yul\":8899:8938   */\n      mstore\n        /* \"#utility.yul\":8871:8873   */\n      0x20\n        /* \"#utility.yul\":8868:8869   */\n      dup2\n        /* \"#utility.yul\":8864:8874   */\n      add\n        /* \"#utility.yul\":8859:8874   */\n      swap1\n      pop\n        /* \"#utility.yul\":8835:8948   */\n      jump(tag_193)\n    tag_195:\n        /* \"#utility.yul\":8982:8983   */\n      0x00\n        /* \"#utility.yul\":8973:8979   */\n      dup5\n        /* \"#utility.yul\":8968:8971   */\n      dup5\n        /* \"#utility.yul\":8964:8980   */\n      add\n        /* \"#utility.yul\":8957:8984   */\n      mstore\n        /* \"#utility.yul\":8806:8990   */\n      pop\n        /* \"#utility.yul\":8744:8990   */\n      pop\n      pop\n      pop\n      jump\t// out\n        /* \"#utility.yul\":8996:9382   */\n    tag_83:\n        /* \"#utility.yul\":9100:9103   */\n      0x00\n        /* \"#utility.yul\":9128:9166   */\n      tag_197\n        /* \"#utility.yul\":9160:9165   */\n      dup3\n        /* \"#utility.yul\":9128:9166   */\n      tag_80\n      jump\t// in\n    tag_197:\n        /* \"#utility.yul\":9182:9270   */\n      tag_198\n        /* \"#utility.yul\":9263:9269   */\n      dup2\n        /* \"#utility.yul\":9258:9261   */\n      dup6\n        /* \"#utility.yul\":9182:9270   */\n      tag_81\n      jump\t// in\n    tag_198:\n        /* \"#utility.yul\":9175:9270   */\n      swap4\n      pop\n        /* \"#utility.yul\":9279:9344   */\n      tag_199\n        /* \"#utility.yul\":9337:9343   */\n      dup2\n        /* \"#utility.yul\":9332:9335   */\n      dup6\n        /* \"#utility.yul\":9325:9329   */\n      0x20\n        /* \"#utility.yul\":9318:9323   */\n      dup7\n        /* \"#utility.yul\":9314:9330   */\n      add\n        /* \"#utility.yul\":9279:9344   */\n      tag_82\n      jump\t// in\n    tag_199:\n        /* \"#utility.yul\":9369:9375   */\n      dup1\n        /* \"#utility.yul\":9364:9367   */\n      dup5\n        /* \"#utility.yul\":9360:9376   */\n      add\n        /* \"#utility.yul\":9353:9376   */\n      swap2\n      pop\n        /* \"#utility.yul\":9104:9382   */\n      pop\n        /* \"#utility.yul\":8996:9382   */\n      swap3\n      swap2\n      pop\n      pop\n      jump\t// out\n        /* \"#utility.yul\":9388:9659   */\n    tag_25:\n        /* \"#utility.yul\":9518:9521   */\n      0x00\n        /* \"#utility.yul\":9540:9633   */\n      tag_201\n        /* \"#utility.yul\":9629:9632   */\n      dup3\n        /* \"#utility.yul\":9620:9626   */\n      dup5\n        /* \"#utility.yul\":9540:9633   */\n      tag_83\n      jump\t// in\n    tag_201:\n        /* \"#utility.yul\":9533:9633   */\n      swap2\n      pop\n        /* \"#utility.yul\":9650:9653   */\n      dup2\n        /* \"#utility.yul\":9643:9653   */\n      swap1\n      pop\n        /* \"#utility.yul\":9388:9659   */\n      swap3\n      swap2\n      pop\n      pop\n      jump\t// out\n        /* \"#utility.yul\":9665:9834   */\n    tag_84:\n        /* \"#utility.yul\":9749:9760   */\n      0x00\n        /* \"#utility.yul\":9783:9789   */\n      dup3\n        /* \"#utility.yul\":9778:9781   */\n      dup3\n        /* \"#utility.yul\":9771:9790   */\n      mstore\n        /* \"#utility.yul\":9823:9827   */\n      0x20\n        /* \"#utility.yul\":9818:9821   */\n      dup3\n        /* \"#utility.yul\":9814:9828   */\n      add\n        /* \"#utility.yul\":9799:9828   */\n      swap1\n      pop\n        /* \"#utility.yul\":9665:9834   */\n      swap3\n      swap2\n      pop\n      pop\n      jump\t// out\n        /* \"#utility.yul\":9840:10001   */\n    tag_85:\n        /* \"#utility.yul\":9980:9993   */\n      0x63616c6c206661696c6564000000000000000000000000000000000000000000\n        /* \"#utility.yul\":9976:9977   */\n      0x00\n        /* \"#utility.yul\":9968:9974   */\n      dup3\n        /* \"#utility.yul\":9964:9978   */\n      add\n        /* \"#utility.yul\":9957:9994   */\n      mstore\n        /* \"#utility.yul\":9840:10001   */\n      pop\n      jump\t// out\n        /* \"#utility.yul\":10007:10373   */\n    tag_86:\n        /* \"#utility.yul\":10149:10152   */\n      0x00\n        /* \"#utility.yul\":10170:10237   */\n      tag_205\n        /* \"#utility.yul\":10234:10236   */\n      0x0b\n        /* \"#utility.yul\":10229:10232   */\n      dup4\n        /* \"#utility.yul\":10170:10237   */\n      tag_84\n      jump\t// in\n    tag_205:\n        /* \"#utility.yul\":10163:10237   */\n      swap2\n      pop\n        /* \"#utility.yul\":10246:10339   */\n      tag_206\n        /* \"#utility.yul\":10335:10338   */\n      dup3\n        /* \"#utility.yul\":10246:10339   */\n      tag_85\n      jump\t// in\n    tag_206:\n        /* \"#utility.yul\":10364:10366   */\n      0x20\n        /* \"#utility.yul\":10359:10362   */\n      dup3\n        /* \"#utility.yul\":10355:10367   */\n      add\n        /* \"#utility.yul\":10348:10367   */\n      swap1\n      pop\n        /* \"#utility.yul\":10007:10373   */\n      swap2\n      swap1\n      pop\n      jump\t// out\n        /* \"#utility.yul\":10379:10798   */\n    tag_31:\n        /* \"#utility.yul\":10545:10549   */\n      0x00\n        /* \"#utility.yul\":10583:10585   */\n      0x20\n        /* \"#utility.yul\":10572:10581   */\n      dup3\n        /* \"#utility.yul\":10568:10586   */\n      add\n        /* \"#utility.yul\":10560:10586   */\n      swap1\n      pop\n        /* \"#utility.yul\":10632:10641   */\n      dup2\n        /* \"#utility.yul\":10626:10630   */\n      dup2\n        /* \"#utility.yul\":10622:10642   */\n      sub\n        /* \"#utility.yul\":10618:10619   */\n      0x00\n        /* \"#utility.yul\":10607:10616   */\n      dup4\n        /* \"#utility.yul\":10603:10620   */\n      add\n        /* \"#utility.yul\":10596:10643   */\n      mstore\n        /* \"#utility.yul\":10660:10791   */\n      tag_208\n        /* \"#utility.yul\":10786:10790   */\n      dup2\n        /* \"#utility.yul\":10660:10791   */\n      tag_86\n      jump\t// in\n    tag_208:\n        /* \"#utility.yul\":10652:10791   */\n      swap1\n      pop\n        /* \"#utility.yul\":10379:10798   */\n      swap2\n      swap1\n      pop\n      jump\t// out\n        /* \"#utility.yul\":10804:10894   */\n    tag_87:\n        /* \"#utility.yul\":10838:10845   */\n      0x00\n        /* \"#utility.yul\":10881:10886   */\n      dup2\n        /* \"#utility.yul\":10874:10887   */\n      iszero\n        /* \"#utility.yul\":10867:10888   */\n      iszero\n        /* \"#utility.yul\":10856:10888   */\n      swap1\n      pop\n        /* \"#utility.yul\":10804:10894   */\n      swap2\n      swap1\n      pop\n      jump\t// out\n        /* \"#utility.yul\":10900:11016   */\n    tag_88:\n        /* \"#utility.yul\":10970:10991   */\n      tag_211\n        /* \"#utility.yul\":10985:10990   */\n      dup2\n        /* \"#utility.yul\":10970:10991   */\n      tag_87\n      jump\t// in\n    tag_211:\n        /* \"#utility.yul\":10963:10968   */\n      dup2\n        /* \"#utility.yul\":10960:10992   */\n      eq\n        /* \"#utility.yul\":10950:11010   */\n      tag_212\n      jumpi\n        /* \"#utility.yul\":11006:11007   */\n      0x00\n        /* \"#utility.yul\":11003:11004   */\n      dup1\n        /* \"#utility.yul\":10996:11008   */\n      revert\n        /* \"#utility.yul\":10950:11010   */\n    tag_212:\n        /* \"#utility.yul\":10900:11016   */\n      pop\n      jump\t// out\n        /* \"#utility.yul\":11022:11155   */\n    tag_89:\n        /* \"#utility.yul\":11065:11070   */\n      0x00\n        /* \"#utility.yul\":11103:11109   */\n      dup2\n        /* \"#utility.yul\":11090:11110   */\n      calldataload\n        /* \"#utility.yul\":11081:11110   */\n      swap1\n      pop\n        /* \"#utility.yul\":11119:11149   */\n      tag_214\n        /* \"#utility.yul\":11143:11148   */\n      dup2\n        /* \"#utility.yul\":11119:11149   */\n      tag_88\n      jump\t// in\n    tag_214:\n        /* \"#utility.yul\":11022:11155   */\n      swap3\n      swap2\n      pop\n      pop\n      jump\t// out\n        /* \"#utility.yul\":11161:11265   */\n    tag_90:\n        /* \"#utility.yul\":11206:11213   */\n      0x00\n        /* \"#utility.yul\":11235:11259   */\n      tag_216\n        /* \"#utility.yul\":11253:11258   */\n      dup3\n        /* \"#utility.yul\":11235:11259   */\n      tag_70\n      jump\t// in\n    tag_216:\n        /* \"#utility.yul\":11224:11259   */\n      swap1\n      pop\n        /* \"#utility.yul\":11161:11265   */\n      swap2\n      swap1\n      pop\n      jump\t// out\n        /* \"#utility.yul\":11271:11409   */\n    tag_91:\n        /* \"#utility.yul\":11352:11384   */\n      tag_218\n        /* \"#utility.yul\":11378:11383   */\n      dup2\n        /* \"#utility.yul\":11352:11384   */\n      tag_90\n      jump\t// in\n    tag_218:\n        /* \"#utility.yul\":11345:11350   */\n      dup2\n        /* \"#utility.yul\":11342:11385   */\n      eq\n        /* \"#utility.yul\":11332:11403   */\n      tag_219\n      jumpi\n        /* \"#utility.yul\":11399:11400   */\n      0x00\n        /* \"#utility.yul\":11396:11397   */\n      dup1\n        /* \"#utility.yul\":11389:11401   */\n      revert\n        /* \"#utility.yul\":11332:11403   */\n    tag_219:\n        /* \"#utility.yul\":11271:11409   */\n      pop\n      jump\t// out\n        /* \"#utility.yul\":11415:11570   */\n    tag_92:\n        /* \"#utility.yul\":11469:11474   */\n      0x00\n        /* \"#utility.yul\":11507:11513   */\n      dup2\n        /* \"#utility.yul\":11494:11514   */\n      calldataload\n        /* \"#utility.yul\":11485:11514   */\n      swap1\n      pop\n        /* \"#utility.yul\":11523:11564   */\n      tag_221\n        /* \"#utility.yul\":11558:11563   */\n      dup2\n        /* \"#utility.yul\":11523:11564   */\n      tag_91\n      jump\t// in\n    tag_221:\n        /* \"#utility.yul\":11415:11570   */\n      swap3\n      swap2\n      pop\n      pop\n      jump\t// out\n        /* \"#utility.yul\":11576:12221   */\n    tag_34:\n        /* \"#utility.yul\":11666:11672   */\n      0x00\n        /* \"#utility.yul\":11674:11680   */\n      dup1\n        /* \"#utility.yul\":11682:11688   */\n      0x00\n        /* \"#utility.yul\":11731:11733   */\n      0x60\n        /* \"#utility.yul\":11719:11728   */\n      dup5\n        /* \"#utility.yul\":11710:11717   */\n      dup7\n        /* \"#utility.yul\":11706:11729   */\n      sub\n        /* \"#utility.yul\":11702:11734   */\n      slt\n        /* \"#utility.yul\":11699:11818   */\n      iszero\n      tag_223\n      jumpi\n        /* \"#utility.yul\":11737:11816   */\n      tag_224\n      tag_51\n      jump\t// in\n    tag_224:\n        /* \"#utility.yul\":11699:11818   */\n    tag_223:\n        /* \"#utility.yul\":11857:11858   */\n      0x00\n        /* \"#utility.yul\":11882:11932   */\n      tag_225\n        /* \"#utility.yul\":11924:11931   */\n      dup7\n        /* \"#utility.yul\":11915:11921   */\n      dup3\n        /* \"#utility.yul\":11904:11913   */\n      dup8\n        /* \"#utility.yul\":11900:11922   */\n      add\n        /* \"#utility.yul\":11882:11932   */\n      tag_89\n      jump\t// in\n    tag_225:\n        /* \"#utility.yul\":11872:11932   */\n      swap4\n      pop\n        /* \"#utility.yul\":11828:11942   */\n      pop\n        /* \"#utility.yul\":11981:11983   */\n      0x20\n        /* \"#utility.yul\":12007:12068   */\n      tag_226\n        /* \"#utility.yul\":12060:12067   */\n      dup7\n        /* \"#utility.yul\":12051:12057   */\n      dup3\n        /* \"#utility.yul\":12040:12049   */\n      dup8\n        /* \"#utility.yul\":12036:12058   */\n      add\n        /* \"#utility.yul\":12007:12068   */\n      tag_92\n      jump\t// in\n    tag_226:\n        /* \"#utility.yul\":11997:12068   */\n      swap3\n      pop\n        /* \"#utility.yul\":11952:12078   */\n      pop\n        /* \"#utility.yul\":12117:12119   */\n      0x40\n        /* \"#utility.yul\":12143:12204   */\n      tag_227\n        /* \"#utility.yul\":12196:12203   */\n      dup7\n        /* \"#utility.yul\":12187:12193   */\n      dup3\n        /* \"#utility.yul\":12176:12185   */\n      dup8\n        /* \"#utility.yul\":12172:12194   */\n      add\n        /* \"#utility.yul\":12143:12204   */\n      tag_92\n      jump\t// in\n    tag_227:\n        /* \"#utility.yul\":12133:12204   */\n      swap2\n      pop\n        /* \"#utility.yul\":12088:12214   */\n      pop\n        /* \"#utility.yul\":11576:12221   */\n      swap3\n      pop\n      swap3\n      pop\n      swap3\n      jump\t// out\n        /* \"#utility.yul\":12227:12345   */\n    tag_93:\n        /* \"#utility.yul\":12314:12338   */\n      tag_229\n        /* \"#utility.yul\":12332:12337   */\n      dup2\n        /* \"#utility.yul\":12314:12338   */\n      tag_71\n      jump\t// in\n    tag_229:\n        /* \"#utility.yul\":12309:12312   */\n      dup3\n        /* \"#utility.yul\":12302:12339   */\n      mstore\n        /* \"#utility.yul\":12227:12345   */\n      pop\n      pop\n      jump\t// out\n        /* \"#utility.yul\":12351:12428   */\n    tag_94:\n        /* \"#utility.yul\":12388:12395   */\n      0x00\n        /* \"#utility.yul\":12417:12422   */\n      dup2\n        /* \"#utility.yul\":12406:12422   */\n      swap1\n      pop\n        /* \"#utility.yul\":12351:12428   */\n      swap2\n      swap1\n      pop\n      jump\t// out\n        /* \"#utility.yul\":12434:12552   */\n    tag_95:\n        /* \"#utility.yul\":12521:12545   */\n      tag_232\n        /* \"#utility.yul\":12539:12544   */\n      dup2\n        /* \"#utility.yul\":12521:12545   */\n      tag_94\n      jump\t// in\n    tag_232:\n        /* \"#utility.yul\":12516:12519   */\n      dup3\n        /* \"#utility.yul\":12509:12546   */\n      mstore\n        /* \"#utility.yul\":12434:12552   */\n      pop\n      pop\n      jump\t// out\n        /* \"#utility.yul\":12558:13000   */\n    tag_39:\n        /* \"#utility.yul\":12707:12711   */\n      0x00\n        /* \"#utility.yul\":12745:12747   */\n      0x60\n        /* \"#utility.yul\":12734:12743   */\n      dup3\n        /* \"#utility.yul\":12730:12748   */\n      add\n        /* \"#utility.yul\":12722:12748   */\n      swap1\n      pop\n        /* \"#utility.yul\":12758:12829   */\n      tag_234\n        /* \"#utility.yul\":12826:12827   */\n      0x00\n        /* \"#utility.yul\":12815:12824   */\n      dup4\n        /* \"#utility.yul\":12811:12828   */\n      add\n        /* \"#utility.yul\":12802:12808   */\n      dup7\n        /* \"#utility.yul\":12758:12829   */\n      tag_93\n      jump\t// in\n    tag_234:\n        /* \"#utility.yul\":12839:12911   */\n      tag_235\n        /* \"#utility.yul\":12907:12909   */\n      0x20\n        /* \"#utility.yul\":12896:12905   */\n      dup4\n        /* \"#utility.yul\":12892:12910   */\n      add\n        /* \"#utility.yul\":12883:12889   */\n      dup6\n        /* \"#utility.yul\":12839:12911   */\n      tag_93\n      jump\t// in\n    tag_235:\n        /* \"#utility.yul\":12921:12993   */\n      tag_236\n        /* \"#utility.yul\":12989:12991   */\n      0x40\n        /* \"#utility.yul\":12978:12987   */\n      dup4\n        /* \"#utility.yul\":12974:12992   */\n      add\n        /* \"#utility.yul\":12965:12971   */\n      dup5\n        /* \"#utility.yul\":12921:12993   */\n      tag_95\n      jump\t// in\n    tag_236:\n        /* \"#utility.yul\":12558:13000   */\n      swap5\n      swap4\n      pop\n      pop\n      pop\n      pop\n      jump\t// out\n        /* \"#utility.yul\":13006:13143   */\n    tag_96:\n        /* \"#utility.yul\":13060:13065   */\n      0x00\n        /* \"#utility.yul\":13091:13097   */\n      dup2\n        /* \"#utility.yul\":13085:13098   */\n      mload\n        /* \"#utility.yul\":13076:13098   */\n      swap1\n      pop\n        /* \"#utility.yul\":13107:13137   */\n      tag_238\n        /* \"#utility.yul\":13131:13136   */\n      dup2\n        /* \"#utility.yul\":13107:13137   */\n      tag_88\n      jump\t// in\n    tag_238:\n        /* \"#utility.yul\":13006:13143   */\n      swap3\n      swap2\n      pop\n      pop\n      jump\t// out\n        /* \"#utility.yul\":13149:13494   */\n    tag_43:\n        /* \"#utility.yul\":13216:13222   */\n      0x00\n        /* \"#utility.yul\":13265:13267   */\n      0x20\n        /* \"#utility.yul\":13253:13262   */\n      dup3\n        /* \"#utility.yul\":13244:13251   */\n      dup5\n        /* \"#utility.yul\":13240:13263   */\n      sub\n        /* \"#utility.yul\":13236:13268   */\n      slt\n        /* \"#utility.yul\":13233:13352   */\n      iszero\n      tag_240\n      jumpi\n        /* \"#utility.yul\":13271:13350   */\n      tag_241\n      tag_51\n      jump\t// in\n    tag_241:\n        /* \"#utility.yul\":13233:13352   */\n    tag_240:\n        /* \"#utility.yul\":13391:13392   */\n      0x00\n        /* \"#utility.yul\":13416:13477   */\n      tag_242\n        /* \"#utility.yul\":13469:13476   */\n      dup5\n        /* \"#utility.yul\":13460:13466   */\n      dup3\n        /* \"#utility.yul\":13449:13458   */\n      dup6\n        /* \"#utility.yul\":13445:13467   */\n      add\n        /* \"#utility.yul\":13416:13477   */\n      tag_96\n      jump\t// in\n    tag_242:\n        /* \"#utility.yul\":13406:13477   */\n      swap2\n      pop\n        /* \"#utility.yul\":13362:13487   */\n      pop\n        /* \"#utility.yul\":13149:13494   */\n      swap3\n      swap2\n      pop\n      pop\n      jump\t// out\n        /* \"#utility.yul\":13500:13832   */\n    tag_46:\n        /* \"#utility.yul\":13621:13625   */\n      0x00\n        /* \"#utility.yul\":13659:13661   */\n      0x40\n        /* \"#utility.yul\":13648:13657   */\n      dup3\n        /* \"#utility.yul\":13644:13662   */\n      add\n        /* \"#utility.yul\":13636:13662   */\n      swap1\n      pop\n        /* \"#utility.yul\":13672:13743   */\n      tag_244\n        /* \"#utility.yul\":13740:13741   */\n      0x00\n        /* \"#utility.yul\":13729:13738   */\n      dup4\n        /* \"#utility.yul\":13725:13742   */\n      add\n        /* \"#utility.yul\":13716:13722   */\n      dup6\n        /* \"#utility.yul\":13672:13743   */\n      tag_93\n      jump\t// in\n    tag_244:\n        /* \"#utility.yul\":13753:13825   */\n      tag_245\n        /* \"#utility.yul\":13821:13823   */\n      0x20\n        /* \"#utility.yul\":13810:13819   */\n      dup4\n        /* \"#utility.yul\":13806:13824   */\n      add\n        /* \"#utility.yul\":13797:13803   */\n      dup5\n        /* \"#utility.yul\":13753:13825   */\n      tag_95\n      jump\t// in\n    tag_245:\n        /* \"#utility.yul\":13500:13832   */\n      swap4\n      swap3\n      pop\n      pop\n      pop\n      jump\t// out\n\n    auxdata: 0xa2646970667358221220f66c4c0e2016538cc786e57a4b3a94343a73e76f919f328074ca57df54395e7764736f6c63430008100033\n}\n",
				"bytecode": {
					"linkReferences": {},
					"object": "608060405234801561001057600080fd5b50610a06806100206000396000f3fe608060405234801561001057600080fd5b50600436106100365760003560e01c80631706756f1461003b578063fa461e3314610057575b600080fd5b61005560048036038101906100509190610367565b610073565b005b610071600480360381019061006c9190610440565b610180565b005b600082829050905060005b8181101561017a57600084848381811061009b5761009a6104b4565b5b90506020028101906100ad91906104e8565b6100b690610725565b90506000816000015173ffffffffffffffffffffffffffffffffffffffff1682602001516040516100e791906107a9565b6000604051808303816000865af19150503d8060008114610124576040519150601f19603f3d011682016040523d82523d6000602084013e610129565b606091505b505090508061016d576040517f08c379a00000000000000000000000000000000000000000000000000000000081526004016101649061081d565b60405180910390fd5b826001019250505061007e565b50505050565b6000806000848481019061019491906108b3565b9250925092506000836101a757866101a9565b875b90503073ffffffffffffffffffffffffffffffffffffffff168273ffffffffffffffffffffffffffffffffffffffff1614610264578273ffffffffffffffffffffffffffffffffffffffff166323b872dd8333846040518463ffffffff1660e01b815260040161021b9392919061092e565b6020604051808303816000875af115801561023a573d6000803e3d6000fd5b505050506040513d601f19601f8201168201806040525081019061025e919061097a565b506102e4565b8273ffffffffffffffffffffffffffffffffffffffff1663a9059cbb33836040518363ffffffff1660e01b815260040161029f9291906109a7565b6020604051808303816000875af11580156102be573d6000803e3d6000fd5b505050506040513d601f19601f820116820180604052508101906102e2919061097a565b505b5050505050505050565b6000604051905090565b600080fd5b600080fd5b600080fd5b600080fd5b600080fd5b60008083601f84011261032757610326610302565b5b8235905067ffffffffffffffff81111561034457610343610307565b5b6020830191508360208202830111156103605761035f61030c565b5b9250929050565b6000806020838503121561037e5761037d6102f8565b5b600083013567ffffffffffffffff81111561039c5761039b6102fd565b5b6103a885828601610311565b92509250509250929050565b6000819050919050565b6103c7816103b4565b81146103d257600080fd5b50565b6000813590506103e4816103be565b92915050565b60008083601f840112610400576103ff610302565b5b8235905067ffffffffffffffff81111561041d5761041c610307565b5b6020830191508360018202830111156104395761043861030c565b5b9250929050565b6000806000806060858703121561045a576104596102f8565b5b6000610468878288016103d5565b9450506020610479878288016103d5565b935050604085013567ffffffffffffffff81111561049a576104996102fd565b5b6104a6878288016103ea565b925092505092959194509250565b7f4e487b7100000000000000000000000000000000000000000000000000000000600052603260045260246000fd5b600080fd5b600082356001604003833603038112610504576105036104e3565b5b80830191505092915050565b600080fd5b6000601f19601f8301169050919050565b7f4e487b7100000000000000000000000000000000000000000000000000000000600052604160045260246000fd5b61055e82610515565b810181811067ffffffffffffffff8211171561057d5761057c610526565b5b80604052505050565b60006105906102ee565b905061059c8282610555565b919050565b600080fd5b600073ffffffffffffffffffffffffffffffffffffffff82169050919050565b60006105d1826105a6565b9050919050565b6105e1816105c6565b81146105ec57600080fd5b50565b6000813590506105fe816105d8565b92915050565b600080fd5b600067ffffffffffffffff82111561062457610623610526565b5b61062d82610515565b9050602081019050919050565b82818337600083830152505050565b600061065c61065784610609565b610586565b90508281526020810184848401111561067857610677610604565b5b61068384828561063a565b509392505050565b600082601f8301126106a05761069f610302565b5b81356106b0848260208601610649565b91505092915050565b6000604082840312156106cf576106ce610510565b5b6106d96040610586565b905060006106e9848285016105ef565b600083015250602082013567ffffffffffffffff81111561070d5761070c6105a1565b5b6107198482850161068b565b60208301525092915050565b600061073136836106b9565b9050919050565b600081519050919050565b600081905092915050565b60005b8381101561076c578082015181840152602081019050610751565b60008484015250505050565b600061078382610738565b61078d8185610743565b935061079d81856020860161074e565b80840191505092915050565b60006107b58284610778565b915081905092915050565b600082825260208201905092915050565b7f63616c6c206661696c6564000000000000000000000000000000000000000000600082015250565b6000610807600b836107c0565b9150610812826107d1565b602082019050919050565b60006020820190508181036000830152610836816107fa565b9050919050565b60008115159050919050565b6108528161083d565b811461085d57600080fd5b50565b60008135905061086f81610849565b92915050565b6000610880826105a6565b9050919050565b61089081610875565b811461089b57600080fd5b50565b6000813590506108ad81610887565b92915050565b6000806000606084860312156108cc576108cb6102f8565b5b60006108da86828701610860565b93505060206108eb8682870161089e565b92505060406108fc8682870161089e565b9150509250925092565b61090f816105c6565b82525050565b6000819050919050565b61092881610915565b82525050565b60006060820190506109436000830186610906565b6109506020830185610906565b61095d604083018461091f565b949350505050565b60008151905061097481610849565b92915050565b6000602082840312156109905761098f6102f8565b5b600061099e84828501610965565b91505092915050565b60006040820190506109bc6000830185610906565b6109c9602083018461091f565b939250505056fea2646970667358221220f66c4c0e2016538cc786e57a4b3a94343a73e76f919f328074ca57df54395e7764736f6c63430008100033",
					"opcodes": "PUSH1 0x80 PUSH1 0x40 MSTORE CALLVALUE DUP1 ISZERO PUSH2 0x10 JUMPI PUSH1 0x0 DUP1 REVERT JUMPDEST POP PUSH2 0xA06 DUP1 PUSH2 0x20 PUSH1 0x0 CODECOPY PUSH1 0x0 RETURN INVALID PUSH1 0x80 PUSH1 0x40 MSTORE CALLVALUE DUP1 ISZERO PUSH2 0x10 JUMPI PUSH1 0x0 DUP1 REVERT JUMPDEST POP PUSH1 0x4 CALLDATASIZE LT PUSH2 0x36 JUMPI PUSH1 0x0 CALLDATALOAD PUSH1 0xE0 SHR DUP1 PUSH4 0x1706756F EQ PUSH2 0x3B JUMPI DUP1 PUSH4 0xFA461E33 EQ PUSH2 0x57 JUMPI JUMPDEST PUSH1 0x0 DUP1 REVERT JUMPDEST PUSH2 0x55 PUSH1 0x4 DUP1 CALLDATASIZE SUB DUP2 ADD SWAP1 PUSH2 0x50 SWAP2 SWAP1 PUSH2 0x367 JUMP JUMPDEST PUSH2 0x73 JUMP JUMPDEST STOP JUMPDEST PUSH2 0x71 PUSH1 0x4 DUP1 CALLDATASIZE SUB DUP2 ADD SWAP1 PUSH2 0x6C SWAP2 SWAP1 PUSH2 0x440 JUMP JUMPDEST PUSH2 0x180 JUMP JUMPDEST STOP JUMPDEST PUSH1 0x0 DUP3 DUP3 SWAP1 POP SWAP1 POP PUSH1 0x0 JUMPDEST DUP2 DUP2 LT ISZERO PUSH2 0x17A JUMPI PUSH1 0x0 DUP5 DUP5 DUP4 DUP2 DUP2 LT PUSH2 0x9B JUMPI PUSH2 0x9A PUSH2 0x4B4 JUMP JUMPDEST JUMPDEST SWAP1 POP PUSH1 0x20 MUL DUP2 ADD SWAP1 PUSH2 0xAD SWAP2 SWAP1 PUSH2 0x4E8 JUMP JUMPDEST PUSH2 0xB6 SWAP1 PUSH2 0x725 JUMP JUMPDEST SWAP1 POP PUSH1 0x0 DUP2 PUSH1 0x0 ADD MLOAD PUSH20 0xFFFFFFFFFFFFFFFFFFFFFFFFFFFFFFFFFFFFFFFF AND DUP3 PUSH1 0x20 ADD MLOAD PUSH1 0x40 MLOAD PUSH2 0xE7 SWAP2 SWAP1 PUSH2 0x7A9 JUMP JUMPDEST PUSH1 0x0 PUSH1 0x40 MLOAD DUP1 DUP4 SUB DUP2 PUSH1 0x0 DUP7 GAS CALL SWAP2 POP POP RETURNDATASIZE DUP1 PUSH1 0x0 DUP2 EQ PUSH2 0x124 JUMPI PUSH1 0x40 MLOAD SWAP2 POP PUSH1 0x1F NOT PUSH1 0x3F RETURNDATASIZE ADD AND DUP3 ADD PUSH1 0x40 MSTORE RETURNDATASIZE DUP3 MSTORE RETURNDATASIZE PUSH1 0x0 PUSH1 0x20 DUP5 ADD RETURNDATACOPY PUSH2 0x129 JUMP JUMPDEST PUSH1 0x60 SWAP2 POP JUMPDEST POP POP SWAP1 POP DUP1 PUSH2 0x16D JUMPI PUSH1 0x40 MLOAD PUSH32 0x8C379A000000000000000000000000000000000000000000000000000000000 DUP2 MSTORE PUSH1 0x4 ADD PUSH2 0x164 SWAP1 PUSH2 0x81D JUMP JUMPDEST PUSH1 0x40 MLOAD DUP1 SWAP2 SUB SWAP1 REVERT JUMPDEST DUP3 PUSH1 0x1 ADD SWAP3 POP POP POP PUSH2 0x7E JUMP JUMPDEST POP POP POP POP JUMP JUMPDEST PUSH1 0x0 DUP1 PUSH1 0x0 DUP5 DUP5 DUP2 ADD SWAP1 PUSH2 0x194 SWAP2 SWAP1 PUSH2 0x8B3 JUMP JUMPDEST SWAP3 POP SWAP3 POP SWAP3 POP PUSH1 0x0 DUP4 PUSH2 0x1A7 JUMPI DUP7 PUSH2 0x1A9 JUMP JUMPDEST DUP8 JUMPDEST SWAP1 POP ADDRESS PUSH20 0xFFFFFFFFFFFFFFFFFFFFFFFFFFFFFFFFFFFFFFFF AND DUP3 PUSH20 0xFFFFFFFFFFFFFFFFFFFFFFFFFFFFFFFFFFFFFFFF AND EQ PUSH2 0x264 JUMPI DUP3 PUSH20 0xFFFFFFFFFFFFFFFFFFFFFFFFFFFFFFFFFFFFFFFF AND PUSH4 0x23B872DD DUP4 CALLER DUP5 PUSH1 0x40 MLOAD DUP5 PUSH4 0xFFFFFFFF AND PUSH1 0xE0 SHL DUP2 MSTORE PUSH1 0x4 ADD PUSH2 0x21B SWAP4 SWAP3 SWAP2 SWAP1 PUSH2 0x92E JUMP JUMPDEST PUSH1 0x20 PUSH1 0x40 MLOAD DUP1 DUP4 SUB DUP2 PUSH1 0x0 DUP8 GAS CALL ISZERO DUP1 ISZERO PUSH2 0x23A JUMPI RETURNDATASIZE PUSH1 0x0 DUP1 RETURNDATACOPY RETURNDATASIZE PUSH1 0x0 REVERT JUMPDEST POP POP POP POP PUSH1 0x40 MLOAD RETURNDATASIZE PUSH1 0x1F NOT PUSH1 0x1F DUP3 ADD AND DUP3 ADD DUP1 PUSH1 0x40 MSTORE POP DUP2 ADD SWAP1 PUSH2 0x25E SWAP2 SWAP1 PUSH2 0x97A JUMP JUMPDEST POP PUSH2 0x2E4 JUMP JUMPDEST DUP3 PUSH20 0xFFFFFFFFFFFFFFFFFFFFFFFFFFFFFFFFFFFFFFFF AND PUSH4 0xA9059CBB CALLER DUP4 PUSH1 0x40 MLOAD DUP4 PUSH4 0xFFFFFFFF AND PUSH1 0xE0 SHL DUP2 MSTORE PUSH1 0x4 ADD PUSH2 0x29F SWAP3 SWAP2 SWAP1 PUSH2 0x9A7 JUMP JUMPDEST PUSH1 0x20 PUSH1 0x40 MLOAD DUP1 DUP4 SUB DUP2 PUSH1 0x0 DUP8 GAS CALL ISZERO DUP1 ISZERO PUSH2 0x2BE JUMPI RETURNDATASIZE PUSH1 0x0 DUP1 RETURNDATACOPY RETURNDATASIZE PUSH1 0x0 REVERT JUMPDEST POP POP POP POP PUSH1 0x40 MLOAD RETURNDATASIZE PUSH1 0x1F NOT PUSH1 0x1F DUP3 ADD AND DUP3 ADD DUP1 PUSH1 0x40 MSTORE POP DUP2 ADD SWAP1 PUSH2 0x2E2 SWAP2 SWAP1 PUSH2 0x97A JUMP JUMPDEST POP JUMPDEST POP POP POP POP POP POP POP POP JUMP JUMPDEST PUSH1 0x0 PUSH1 0x40 MLOAD SWAP1 POP SWAP1 JUMP JUMPDEST PUSH1 0x0 DUP1 REVERT JUMPDEST PUSH1 0x0 DUP1 REVERT JUMPDEST PUSH1 0x0 DUP1 REVERT JUMPDEST PUSH1 0x0 DUP1 REVERT JUMPDEST PUSH1 0x0 DUP1 REVERT JUMPDEST PUSH1 0x0 DUP1 DUP4 PUSH1 0x1F DUP5 ADD SLT PUSH2 0x327 JUMPI PUSH2 0x326 PUSH2 0x302 JUMP JUMPDEST JUMPDEST DUP3 CALLDATALOAD SWAP1 POP PUSH8 0xFFFFFFFFFFFFFFFF DUP2 GT ISZERO PUSH2 0x344 JUMPI PUSH2 0x343 PUSH2 0x307 JUMP JUMPDEST JUMPDEST PUSH1 0x20 DUP4 ADD SWAP2 POP DUP4 PUSH1 0x20 DUP3 MUL DUP4 ADD GT ISZERO PUSH2 0x360 JUMPI PUSH2 0x35F PUSH2 0x30C JUMP JUMPDEST JUMPDEST SWAP3 POP SWAP3 SWAP1 POP JUMP JUMPDEST PUSH1 0x0 DUP1 PUSH1 0x20 DUP4 DUP6 SUB SLT ISZERO PUSH2 0x37E JUMPI PUSH2 0x37D PUSH2 0x2F8 JUMP JUMPDEST JUMPDEST PUSH1 0x0 DUP4 ADD CALLDATALOAD PUSH8 0xFFFFFFFFFFFFFFFF DUP2 GT ISZERO PUSH2 0x39C JUMPI PUSH2 0x39B PUSH2 0x2FD JUMP JUMPDEST JUMPDEST PUSH2 0x3A8 DUP6 DUP3 DUP7 ADD PUSH2 0x311 JUMP JUMPDEST SWAP3 POP SWAP3 POP POP SWAP3 POP SWAP3 SWAP1 POP JUMP JUMPDEST PUSH1 0x0 DUP2 SWAP1 POP SWAP2 SWAP1 POP JUMP JUMPDEST PUSH2 0x3C7 DUP2 PUSH2 0x3B4 JUMP JUMPDEST DUP2 EQ PUSH2 0x3D2 JUMPI PUSH1 0x0 DUP1 REVERT JUMPDEST POP JUMP JUMPDEST PUSH1 0x0 DUP2 CALLDATALOAD SWAP1 POP PUSH2 0x3E4 DUP2 PUSH2 0x3BE JUMP JUMPDEST SWAP3 SWAP2 POP POP JUMP JUMPDEST PUSH1 0x0 DUP1 DUP4 PUSH1 0x1F DUP5 ADD SLT PUSH2 0x400 JUMPI PUSH2 0x3FF PUSH2 0x302 JUMP JUMPDEST JUMPDEST DUP3 CALLDATALOAD SWAP1 POP PUSH8 0xFFFFFFFFFFFFFFFF DUP2 GT ISZERO PUSH2 0x41D JUMPI PUSH2 0x41C PUSH2 0x307 JUMP JUMPDEST JUMPDEST PUSH1 0x20 DUP4 ADD SWAP2 POP DUP4 PUSH1 0x1 DUP3 MUL DUP4 ADD GT ISZERO PUSH2 0x439 JUMPI PUSH2 0x438 PUSH2 0x30C JUMP JUMPDEST JUMPDEST SWAP3 POP SWAP3 SWAP1 POP JUMP JUMPDEST PUSH1 0x0 DUP1 PUSH1 0x0 DUP1 PUSH1 0x60 DUP6 DUP8 SUB SLT ISZERO PUSH2 0x45A JUMPI PUSH2 0x459 PUSH2 0x2F8 JUMP JUMPDEST JUMPDEST PUSH1 0x0 PUSH2 0x468 DUP8 DUP3 DUP9 ADD PUSH2 0x3D5 JUMP JUMPDEST SWAP5 POP POP PUSH1 0x20 PUSH2 0x479 DUP8 DUP3 DUP9 ADD PUSH2 0x3D5 JUMP JUMPDEST SWAP4 POP POP PUSH1 0x40 DUP6 ADD CALLDATALOAD PUSH8 0xFFFFFFFFFFFFFFFF DUP2 GT ISZERO PUSH2 0x49A JUMPI PUSH2 0x499 PUSH2 0x2FD JUMP JUMPDEST JUMPDEST PUSH2 0x4A6 DUP8 DUP3 DUP9 ADD PUSH2 0x3EA JUMP JUMPDEST SWAP3 POP SWAP3 POP POP SWAP3 SWAP6 SWAP2 SWAP5 POP SWAP3 POP JUMP JUMPDEST PUSH32 0x4E487B7100000000000000000000000000000000000000000000000000000000 PUSH1 0x0 MSTORE PUSH1 0x32 PUSH1 0x4 MSTORE PUSH1 0x24 PUSH1 0x0 REVERT JUMPDEST PUSH1 0x0 DUP1 REVERT JUMPDEST PUSH1 0x0 DUP3 CALLDATALOAD PUSH1 0x1 PUSH1 0x40 SUB DUP4 CALLDATASIZE SUB SUB DUP2 SLT PUSH2 0x504 JUMPI PUSH2 0x503 PUSH2 0x4E3 JUMP JUMPDEST JUMPDEST DUP1 DUP4 ADD SWAP2 POP POP SWAP3 SWAP2 POP POP JUMP JUMPDEST PUSH1 0x0 DUP1 REVERT JUMPDEST PUSH1 0x0 PUSH1 0x1F NOT PUSH1 0x1F DUP4 ADD AND SWAP1 POP SWAP2 SWAP1 POP JUMP JUMPDEST PUSH32 0x4E487B7100000000000000000000000000000000000000000000000000000000 PUSH1 0x0 MSTORE PUSH1 0x41 PUSH1 0x4 MSTORE PUSH1 0x24 PUSH1 0x0 REVERT JUMPDEST PUSH2 0x55E DUP3 PUSH2 0x515 JUMP JUMPDEST DUP2 ADD DUP2 DUP2 LT PUSH8 0xFFFFFFFFFFFFFFFF DUP3 GT OR ISZERO PUSH2 0x57D JUMPI PUSH2 0x57C PUSH2 0x526 JUMP JUMPDEST JUMPDEST DUP1 PUSH1 0x40 MSTORE POP POP POP JUMP JUMPDEST PUSH1 0x0 PUSH2 0x590 PUSH2 0x2EE JUMP JUMPDEST SWAP1 POP PUSH2 0x59C DUP3 DUP3 PUSH2 0x555 JUMP JUMPDEST SWAP2 SWAP1 POP JUMP JUMPDEST PUSH1 0x0 DUP1 REVERT JUMPDEST PUSH1 0x0 PUSH20 0xFFFFFFFFFFFFFFFFFFFFFFFFFFFFFFFFFFFFFFFF DUP3 AND SWAP1 POP SWAP2 SWAP1 POP JUMP JUMPDEST PUSH1 0x0 PUSH2 0x5D1 DUP3 PUSH2 0x5A6 JUMP JUMPDEST SWAP1 POP SWAP2 SWAP1 POP JUMP JUMPDEST PUSH2 0x5E1 DUP2 PUSH2 0x5C6 JUMP JUMPDEST DUP2 EQ PUSH2 0x5EC JUMPI PUSH1 0x0 DUP1 REVERT JUMPDEST POP JUMP JUMPDEST PUSH1 0x0 DUP2 CALLDATALOAD SWAP1 POP PUSH2 0x5FE DUP2 PUSH2 0x5D8 JUMP JUMPDEST SWAP3 SWAP2 POP POP JUMP JUMPDEST PUSH1 0x0 DUP1 REVERT JUMPDEST PUSH1 0x0 PUSH8 0xFFFFFFFFFFFFFFFF DUP3 GT ISZERO PUSH2 0x624 JUMPI PUSH2 0x623 PUSH2 0x526 JUMP JUMPDEST JUMPDEST PUSH2 0x62D DUP3 PUSH2 0x515 JUMP JUMPDEST SWAP1 POP PUSH1 0x20 DUP2 ADD SWAP1 POP SWAP2 SWAP1 POP JUMP JUMPDEST DUP3 DUP2 DUP4 CALLDATACOPY PUSH1 0x0 DUP4 DUP4 ADD MSTORE POP POP POP JUMP JUMPDEST PUSH1 0x0 PUSH2 0x65C PUSH2 0x657 DUP5 PUSH2 0x609 JUMP JUMPDEST PUSH2 0x586 JUMP JUMPDEST SWAP1 POP DUP3 DUP2 MSTORE PUSH1 0x20 DUP2 ADD DUP5 DUP5 DUP5 ADD GT ISZERO PUSH2 0x678 JUMPI PUSH2 0x677 PUSH2 0x604 JUMP JUMPDEST JUMPDEST PUSH2 0x683 DUP5 DUP3 DUP6 PUSH2 0x63A JUMP JUMPDEST POP SWAP4 SWAP3 POP POP POP JUMP JUMPDEST PUSH1 0x0 DUP3 PUSH1 0x1F DUP4 ADD SLT PUSH2 0x6A0 JUMPI PUSH2 0x69F PUSH2 0x302 JUMP JUMPDEST JUMPDEST DUP2 CALLDATALOAD PUSH2 0x6B0 DUP5 DUP3 PUSH1 0x20 DUP7 ADD PUSH2 0x649 JUMP JUMPDEST SWAP2 POP POP SWAP3 SWAP2 POP POP JUMP JUMPDEST PUSH1 0x0 PUSH1 0x40 DUP3 DUP5 SUB SLT ISZERO PUSH2 0x6CF JUMPI PUSH2 0x6CE PUSH2 0x510 JUMP JUMPDEST JUMPDEST PUSH2 0x6D9 PUSH1 0x40 PUSH2 0x586 JUMP JUMPDEST SWAP1 POP PUSH1 0x0 PUSH2 0x6E9 DUP5 DUP3 DUP6 ADD PUSH2 0x5EF JUMP JUMPDEST PUSH1 0x0 DUP4 ADD MSTORE POP PUSH1 0x20 DUP3 ADD CALLDATALOAD PUSH8 0xFFFFFFFFFFFFFFFF DUP2 GT ISZERO PUSH2 0x70D JUMPI PUSH2 0x70C PUSH2 0x5A1 JUMP JUMPDEST JUMPDEST PUSH2 0x719 DUP5 DUP3 DUP6 ADD PUSH2 0x68B JUMP JUMPDEST PUSH1 0x20 DUP4 ADD MSTORE POP SWAP3 SWAP2 POP POP JUMP JUMPDEST PUSH1 0x0 PUSH2 0x731 CALLDATASIZE DUP4 PUSH2 0x6B9 JUMP JUMPDEST SWAP1 POP SWAP2 SWAP1 POP JUMP JUMPDEST PUSH1 0x0 DUP2 MLOAD SWAP1 POP SWAP2 SWAP1 POP JUMP JUMPDEST PUSH1 0x0 DUP2 SWAP1 POP SWAP3 SWAP2 POP POP JUMP JUMPDEST PUSH1 0x0 JUMPDEST DUP4 DUP2 LT ISZERO PUSH2 0x76C JUMPI DUP1 DUP3 ADD MLOAD DUP2 DUP5 ADD MSTORE PUSH1 0x20 DUP2 ADD SWAP1 POP PUSH2 0x751 JUMP JUMPDEST PUSH1 0x0 DUP5 DUP5 ADD MSTORE POP POP POP POP JUMP JUMPDEST PUSH1 0x0 PUSH2 0x783 DUP3 PUSH2 0x738 JUMP JUMPDEST PUSH2 0x78D DUP2 DUP6 PUSH2 0x743 JUMP JUMPDEST SWAP4 POP PUSH2 0x79D DUP2 DUP6 PUSH1 0x20 DUP7 ADD PUSH2 0x74E JUMP JUMPDEST DUP1 DUP5 ADD SWAP2 POP POP SWAP3 SWAP2 POP POP JUMP JUMPDEST PUSH1 0x0 PUSH2 0x7B5 DUP3 DUP5 PUSH2 0x778 JUMP JUMPDEST SWAP2 POP DUP2 SWAP1 POP SWAP3 SWAP2 POP POP JUMP JUMPDEST PUSH1 0x0 DUP3 DUP3 MSTORE PUSH1 0x20 DUP3 ADD SWAP1 POP SWAP3 SWAP2 POP POP JUMP JUMPDEST PUSH32 0x63616C6C206661696C6564000000000000000000000000000000000000000000 PUSH1 0x0 DUP3 ADD MSTORE POP JUMP JUMPDEST PUSH1 0x0 PUSH2 0x807 PUSH1 0xB DUP4 PUSH2 0x7C0 JUMP JUMPDEST SWAP2 POP PUSH2 0x812 DUP3 PUSH2 0x7D1 JUMP JUMPDEST PUSH1 0x20 DUP3 ADD SWAP1 POP SWAP2 SWAP1 POP JUMP JUMPDEST PUSH1 0x0 PUSH1 0x20 DUP3 ADD SWAP1 POP DUP2 DUP2 SUB PUSH1 0x0 DUP4 ADD MSTORE PUSH2 0x836 DUP2 PUSH2 0x7FA JUMP JUMPDEST SWAP1 POP SWAP2 SWAP1 POP JUMP JUMPDEST PUSH1 0x0 DUP2 ISZERO ISZERO SWAP1 POP SWAP2 SWAP1 POP JUMP JUMPDEST PUSH2 0x852 DUP2 PUSH2 0x83D JUMP JUMPDEST DUP2 EQ PUSH2 0x85D JUMPI PUSH1 0x0 DUP1 REVERT JUMPDEST POP JUMP JUMPDEST PUSH1 0x0 DUP2 CALLDATALOAD SWAP1 POP PUSH2 0x86F DUP2 PUSH2 0x849 JUMP JUMPDEST SWAP3 SWAP2 POP POP JUMP JUMPDEST PUSH1 0x0 PUSH2 0x880 DUP3 PUSH2 0x5A6 JUMP JUMPDEST SWAP1 POP SWAP2 SWAP1 POP JUMP JUMPDEST PUSH2 0x890 DUP2 PUSH2 0x875 JUMP JUMPDEST DUP2 EQ PUSH2 0x89B JUMPI PUSH1 0x0 DUP1 REVERT JUMPDEST POP JUMP JUMPDEST PUSH1 0x0 DUP2 CALLDATALOAD SWAP1 POP PUSH2 0x8AD DUP2 PUSH2 0x887 JUMP JUMPDEST SWAP3 SWAP2 POP POP JUMP JUMPDEST PUSH1 0x0 DUP1 PUSH1 0x0 PUSH1 0x60 DUP5 DUP7 SUB SLT ISZERO PUSH2 0x8CC JUMPI PUSH2 0x8CB PUSH2 0x2F8 JUMP JUMPDEST JUMPDEST PUSH1 0x0 PUSH2 0x8DA DUP7 DUP3 DUP8 ADD PUSH2 0x860 JUMP JUMPDEST SWAP4 POP POP PUSH1 0x20 PUSH2 0x8EB DUP7 DUP3 DUP8 ADD PUSH2 0x89E JUMP JUMPDEST SWAP3 POP POP PUSH1 0x40 PUSH2 0x8FC DUP7 DUP3 DUP8 ADD PUSH2 0x89E JUMP JUMPDEST SWAP2 POP POP SWAP3 POP SWAP3 POP SWAP3 JUMP JUMPDEST PUSH2 0x90F DUP2 PUSH2 0x5C6 JUMP JUMPDEST DUP3 MSTORE POP POP JUMP JUMPDEST PUSH1 0x0 DUP2 SWAP1 POP SWAP2 SWAP1 POP JUMP JUMPDEST PUSH2 0x928 DUP2 PUSH2 0x915 JUMP JUMPDEST DUP3 MSTORE POP POP JUMP JUMPDEST PUSH1 0x0 PUSH1 0x60 DUP3 ADD SWAP1 POP PUSH2 0x943 PUSH1 0x0 DUP4 ADD DUP7 PUSH2 0x906 JUMP JUMPDEST PUSH2 0x950 PUSH1 0x20 DUP4 ADD DUP6 PUSH2 0x906 JUMP JUMPDEST PUSH2 0x95D PUSH1 0x40 DUP4 ADD DUP5 PUSH2 0x91F JUMP JUMPDEST SWAP5 SWAP4 POP POP POP POP JUMP JUMPDEST PUSH1 0x0 DUP2 MLOAD SWAP1 POP PUSH2 0x974 DUP2 PUSH2 0x849 JUMP JUMPDEST SWAP3 SWAP2 POP POP JUMP JUMPDEST PUSH1 0x0 PUSH1 0x20 DUP3 DUP5 SUB SLT ISZERO PUSH2 0x990 JUMPI PUSH2 0x98F PUSH2 0x2F8 JUMP JUMPDEST JUMPDEST PUSH1 0x0 PUSH2 0x99E DUP5 DUP3 DUP6 ADD PUSH2 0x965 JUMP JUMPDEST SWAP2 POP POP SWAP3 SWAP2 POP POP JUMP JUMPDEST PUSH1 0x0 PUSH1 0x40 DUP3 ADD SWAP1 POP PUSH2 0x9BC PUSH1 0x0 DUP4 ADD DUP6 PUSH2 0x906 JUMP JUMPDEST PUSH2 0x9C9 PUSH1 0x20 DUP4 ADD DUP5 PUSH2 0x91F JUMP JUMPDEST SWAP4 SWAP3 POP POP POP JUMP INVALID LOG2 PUSH5 0x6970667358 0x22 SLT KECCAK256 0xF6 PUSH13 0x4C0E2016538CC786E57A4B3A94 CALLVALUE GASPRICE PUSH20 0xE76F919F328074CA57DF54395E7764736F6C6343 STOP ADDMOD LT STOP CALLER "
				},
				"gasEstimates": {
					"creation": {
						"codeDepositCost": "513200",
						"executionCost": "549",
						"totalCost": "513749"
					},
					"external": {
						"executeMulticall((address,bytes)[])": "infinite",
						"uniswapV3SwapCallback(int256,int256,bytes)": "infinite"
					}
				},
				"methodIdentifiers": {
					"executeMulticall((address,bytes)[])": "1706756f",
					"uniswapV3SwapCallback(int256,int256,bytes)": "fa461e33"
				}
			},
			"storageLayout": {
				"storage": [],
				"types": null
			},
			"userdoc": {
				"kind": "user",
				"methods": {
					"uniswapV3SwapCallback(int256,int256,bytes)": {
						"notice": "Uniswap V3 callback function called during a swap on a v3 liqudity pool."
					}
				},
				"version": 1
			}
		}
	}
}