{
  "abi": [
    {
      "inputs": [
        {
          "internalType": "bytes",
          "name": "_callData",
          "type": "bytes"
        }
      ],
      "name": "callDataCost",
      "outputs": [
        {
          "internalType": "uint256",
          "name": "",
          "type": "uint256"
        }
      ],
      "stateMutability": "pure",
      "type": "function"
    },
    {
      "inputs": [
        {
          "internalType": "string",
          "name": "hex_str",
          "type": "string"
        }
      ],
      "name": "hexStrToBytes",
      "outputs": [
        {
          "internalType": "bytes",
          "name": "",
          "type": "bytes"
        }
      ],
      "stateMutability": "pure",
      "type": "function"
    }
  ],
  "bytecode": {
    "object": "0x61083861003a600b82828239805160001a60731461002d57634e487b7160e01b600052600060045260246000fd5b30600052607381538281f3fe73000000000000000000000000000000000000000030146080604052600436106100405760003560e01c806308e8ac3814610045578063666a95cf1461006e575b600080fd5b61005861005336600461068b565b61008f565b60405161006591906106dc565b60405180910390f35b61008161007c36600461068b565b61058b565b604051908152602001610065565b6060816000815181106100a4576100a4610731565b6020910101516001600160f81b031916600360fc1b1415806100ec5750816001815181106100d4576100d4610731565b6020910101516001600160f81b031916600f60fb1b14155b80610103575060028251610100919061075d565b15155b8061010f575060048251105b156101575760405162461bcd60e51b815260206004820152601460248201527312195e081cdd1c9a5b99c81b9bdd081d985b1a5960621b604482015260640160405180910390fd5b600060028084516101689190610787565b610172919061079e565b67ffffffffffffffff81111561018a5761018a6105ff565b6040519080825280601f01601f1916602001820160405280156101b4576020820181803683370190505b50905060025b835181101561058457835160109081906030908790859081106101df576101df610731565b016020015160f81c1080159061020f5750603986848151811061020457610204610731565b016020015160f81c11155b1561023d57603086848151811061022857610228610731565b016020015161023a919060f81c610787565b91505b60308661024b8560016107b2565b8151811061025b5761025b610731565b016020015160f81c10801590610295575060398661027a8560016107b2565b8151811061028a5761028a610731565b016020015160f81c11155b156102cd576030866102a88560016107b2565b815181106102b8576102b8610731565b01602001516102ca919060f81c610787565b90505b60418684815181106102e1576102e1610731565b016020015160f81c108015906103115750604686848151811061030657610306610731565b016020015160f81c11155b1561034a57604186848151811061032a5761032a610731565b016020015161033c919060f81c610787565b61034790600a6107b2565b91505b6041866103588560016107b2565b8151811061036857610368610731565b016020015160f81c108015906103a257506046866103878560016107b2565b8151811061039757610397610731565b016020015160f81c11155b156103e5576041866103b58560016107b2565b815181106103c5576103c5610731565b01602001516103d7919060f81c610787565b6103e290600a6107b2565b90505b60618684815181106103f9576103f9610731565b016020015160f81c108015906104295750606686848151811061041e5761041e610731565b016020015160f81c11155b1561046257606186848151811061044257610442610731565b0160200151610454919060f81c610787565b61045f90600a6107b2565b91505b6061866104708560016107b2565b8151811061048057610480610731565b016020015160f81c108015906104ba575060668661049f8560016107b2565b815181106104af576104af610731565b016020015160f81c11155b156104fd576061866104cd8560016107b2565b815181106104dd576104dd610731565b01602001516104ef919060f81c610787565b6104fa90600a6107b2565b90505b816010148061050c5750806010145b1561051657600080fd5b806105228360106107ca565b61052c91906107b2565b60f81b84600161053d60028761079e565b6105479190610787565b8151811061055757610557610731565b60200101906001600160f81b031916908160001a905350505060028161057d91906107b2565b90506101ba565b5092915050565b8051600090819081905b808310156105f7578483815181106105af576105af610731565b01602001516001600160f81b0319166000036105d7576105d06004836107b2565b91506105e5565b6105e26010836107b2565b91505b826105ef816107e9565b935050610595565b509392505050565b634e487b7160e01b600052604160045260246000fd5b600067ffffffffffffffff80841115610630576106306105ff565b604051601f8501601f19908116603f01168101908282118183101715610658576106586105ff565b8160405280935085815286868601111561067157600080fd5b858560208301376000602087830101525050509392505050565b60006020828403121561069d57600080fd5b813567ffffffffffffffff8111156106b457600080fd5b8201601f810184136106c557600080fd5b6106d484823560208401610615565b949350505050565b600060208083528351808285015260005b81811015610709578581018301518582016040015282016106ed565b8181111561071b576000604083870101525b50601f01601f1916929092016040019392505050565b634e487b7160e01b600052603260045260246000fd5b634e487b7160e01b600052601260045260246000fd5b60008261076c5761076c610747565b500690565b634e487b7160e01b600052601160045260246000fd5b60008282101561079957610799610771565b500390565b6000826107ad576107ad610747565b500490565b600082198211156107c5576107c5610771565b500190565b60008160001904831182151516156107e4576107e4610771565b500290565b6000600182016107fb576107fb610771565b506001019056fea264697066735822122039aac42b6b7bf33fad36ed4dd0d07dcf0d9413afa21e046868c990743997e41964736f6c634300080d0033",
    "linkReferences": {}
  }
}