{
  "abi": [
    {
      "inputs": [],
      "name": "IncongruentTokenInOrderGroup",
      "type": "error"
    },
    {
      "inputs": [],
      "name": "InsufficientWalletBalance",
      "type": "error"
    },
    {
      "inputs": [
        {
          "internalType": "bytes32",
          "name": "orderId",
          "type": "bytes32"
        }
      ],
      "name": "OrderDoesNotExist",
      "type": "error"
    },
    {
      "anonymous": false,
      "inputs": [
        {
          "indexed": true,
          "internalType": "enum ConveyorLimitOrders.EventType",
          "name": "eventType",
          "type": "uint8"
        },
        {
          "indexed": true,
          "internalType": "address",
          "name": "sender",
          "type": "address"
        },
        {
          "components": [
            {
              "internalType": "address",
              "name": "token",
              "type": "address"
            },
            {
              "internalType": "bytes32",
              "name": "orderId",
              "type": "bytes32"
            },
            {
              "internalType": "enum ConveyorLimitOrders.OrderType",
              "name": "orderType",
              "type": "uint8"
            },
            {
              "internalType": "uint256",
              "name": "price",
              "type": "uint256"
            },
            {
              "internalType": "uint256",
              "name": "quantity",
              "type": "uint256"
            },
            {
              "internalType": "bool",
              "name": "exists",
              "type": "bool"
            }
          ],
          "indexed": true,
          "internalType": "struct ConveyorLimitOrders.Order[]",
          "name": "orders",
          "type": "tuple[]"
        }
      ],
      "name": "OrderEvent",
      "type": "event"
    },
    {
      "inputs": [],
      "name": "cancelAllOrders",
      "outputs": [],
      "stateMutability": "nonpayable",
      "type": "function"
    },
    {
      "inputs": [
        {
          "components": [
            {
              "internalType": "address",
              "name": "token",
              "type": "address"
            },
            {
              "internalType": "bytes32",
              "name": "orderId",
              "type": "bytes32"
            },
            {
              "internalType": "enum ConveyorLimitOrders.OrderType",
              "name": "orderType",
              "type": "uint8"
            },
            {
              "internalType": "uint256",
              "name": "price",
              "type": "uint256"
            },
            {
              "internalType": "uint256",
              "name": "quantity",
              "type": "uint256"
            },
            {
              "internalType": "bool",
              "name": "exists",
              "type": "bool"
            }
          ],
          "internalType": "struct ConveyorLimitOrders.Order",
          "name": "order",
          "type": "tuple"
        }
      ],
      "name": "cancelOrder",
      "outputs": [],
      "stateMutability": "nonpayable",
      "type": "function"
    },
    {
      "inputs": [
        {
          "components": [
            {
              "internalType": "address",
              "name": "token",
              "type": "address"
            },
            {
              "internalType": "bytes32",
              "name": "orderId",
              "type": "bytes32"
            },
            {
              "internalType": "enum ConveyorLimitOrders.OrderType",
              "name": "orderType",
              "type": "uint8"
            },
            {
              "internalType": "uint256",
              "name": "price",
              "type": "uint256"
            },
            {
              "internalType": "uint256",
              "name": "quantity",
              "type": "uint256"
            },
            {
              "internalType": "bool",
              "name": "exists",
              "type": "bool"
            }
          ],
          "internalType": "struct ConveyorLimitOrders.Order[]",
          "name": "orders",
          "type": "tuple[]"
        }
      ],
      "name": "executeOrders",
      "outputs": [],
      "stateMutability": "nonpayable",
      "type": "function"
    },
    {
      "inputs": [
        {
          "internalType": "address",
          "name": "eoaAddress",
          "type": "address"
        },
        {
          "internalType": "address",
          "name": "token",
          "type": "address"
        },
        {
          "internalType": "bytes32",
          "name": "orderId",
          "type": "bytes32"
        }
      ],
      "name": "getOrderById",
      "outputs": [
        {
          "components": [
            {
              "internalType": "address",
              "name": "token",
              "type": "address"
            },
            {
              "internalType": "bytes32",
              "name": "orderId",
              "type": "bytes32"
            },
            {
              "internalType": "enum ConveyorLimitOrders.OrderType",
              "name": "orderType",
              "type": "uint8"
            },
            {
              "internalType": "uint256",
              "name": "price",
              "type": "uint256"
            },
            {
              "internalType": "uint256",
              "name": "quantity",
              "type": "uint256"
            },
            {
              "internalType": "bool",
              "name": "exists",
              "type": "bool"
            }
          ],
          "internalType": "struct ConveyorLimitOrders.Order",
          "name": "order",
          "type": "tuple"
        }
      ],
      "stateMutability": "view",
      "type": "function"
    },
    {
      "inputs": [
        {
          "components": [
            {
              "internalType": "address",
              "name": "token",
              "type": "address"
            },
            {
              "internalType": "bytes32",
              "name": "orderId",
              "type": "bytes32"
            },
            {
              "internalType": "enum ConveyorLimitOrders.OrderType",
              "name": "orderType",
              "type": "uint8"
            },
            {
              "internalType": "uint256",
              "name": "price",
              "type": "uint256"
            },
            {
              "internalType": "uint256",
              "name": "quantity",
              "type": "uint256"
            },
            {
              "internalType": "bool",
              "name": "exists",
              "type": "bool"
            }
          ],
          "internalType": "struct ConveyorLimitOrders.Order[]",
          "name": "orderGroup",
          "type": "tuple[]"
        }
      ],
      "name": "placeOrder",
      "outputs": [
        {
          "internalType": "bytes32[]",
          "name": "",
          "type": "bytes32[]"
        }
      ],
      "stateMutability": "nonpayable",
      "type": "function"
    },
    {
      "inputs": [],
      "name": "swapAndPlaceOrders",
      "outputs": [],
      "stateMutability": "nonpayable",
      "type": "function"
    },
    {
      "inputs": [
        {
          "components": [
            {
              "internalType": "address",
              "name": "token",
              "type": "address"
            },
            {
              "internalType": "bytes32",
              "name": "orderId",
              "type": "bytes32"
            },
            {
              "internalType": "enum ConveyorLimitOrders.OrderType",
              "name": "orderType",
              "type": "uint8"
            },
            {
              "internalType": "uint256",
              "name": "price",
              "type": "uint256"
            },
            {
              "internalType": "uint256",
              "name": "quantity",
              "type": "uint256"
            },
            {
              "internalType": "bool",
              "name": "exists",
              "type": "bool"
            }
          ],
          "internalType": "struct ConveyorLimitOrders.Order",
          "name": "newOrder",
          "type": "tuple"
        }
      ],
      "name": "updateOrder",
      "outputs": [],
      "stateMutability": "nonpayable",
      "type": "function"
    }
  ],
  "bytecode": {
    "object": "0x608060405234801561001057600080fd5b50611097806100206000396000f3fe608060405234801561001057600080fd5b506004361061007d5760003560e01c806353b9715b1161005b57806353b9715b146100c85780635518a3c2146100e857806397ed90de1461008a578063b274c47b146100fb57600080fd5b8063028afabf146100825780630f3333d31461008c578063115f8db41461009f575b600080fd5b61008a61010e565b005b61008a61009a366004610b6f565b61014e565b6100b26100ad366004610c1f565b610193565b6040516100bf9190610c94565b60405180910390f35b6100db6100d6366004610cd8565b6104b9565b6040516100bf9190610d51565b61008a6100f6366004610da6565b61058b565b61008a610109366004610da6565b610869565b336000908152602052604051606090610128908290610dbe565b60405190819003902033600060405160008051602061106b83398151915290600090a450565b33321461015a57600080fd5b60005b815181101561018f57600082828151811061017a5761017a610e3d565b506101889150829050610e69565b905061015d565b5050565b60606000808367ffffffffffffffff8111156101b1576101b1610a5f565b6040519080825280602002602001820160405280156101da578160200160208202803683370190505b5090506000858560008181106101f2576101f2610e3d565b61020892602060c0909202019081019150610e82565b336000818152602081815260408083206001600160a01b03861680855292528083206001015490516370a0823160e01b8152600481019490945293945090916370a0823190602401602060405180830381865afa15801561026d573d6000803e3d6000fd5b505050506040513d601f19601f820116820180604052508101906102919190610ea6565b905060005b878110156104795760008989838181106102b2576102b2610e3d565b905060c002018036038101906102c89190610ebf565b905080600001516001600160a01b0316856001600160a01b0316146103005760405163200c77f560e01b815260040160405180910390fd5b608081015161030f9085610edb565b93508383101561033257604051633ed9d6e560e11b815260040160405180910390fd5b6060808201516040516bffffffffffffffffffffffff1933841b811660208301524260348301529288901b909216605483015260688201526088810183905260009060a80160408051808303601f1901815291815281516020928301203360009081528084528281206001600160a01b038b81168352908552838220838352855290839020865181546001600160a01b031916921691909117815592850151600180850191909155918501516002840180549295508694939192909160ff199091169083600381111561040757610407610d19565b0217905550606082015160038201556080820151600482015560a0909101516005909101805460ff19169115159190911790558651819088908a90811061045057610450610e3d565b602090810291909101015261046488610e69565b975050508061047290610e69565b9050610296565b50878760405161048a929190610ef3565b60405190819003902033600060405160008051602061106b83398151915290600090a450919695505050505050565b6040805160c0808201835260008083526020808401829052838501829052606084018290526080840182905260a084018290526001600160a01b038881168352828252858320888216845282528583208784528252918590208551938401865280549092168352600182015490830152600281015492939192909183019060ff16600381111561054b5761054b610d19565b600381111561055c5761055c610d19565b8152600382015460208201526004820154604082015260059091015460ff161515606090910152949350505050565b3360009081526020818152604082209082906105a990850185610e82565b6001600160a01b039081168252602080830193909352604091820160009081208685013582528452829020825160c08101845281549092168252600181015493820193909352600283015490929183019060ff16600381111561060e5761060e610d19565b600381111561061f5761061f610d19565b8152600382015460208201526004820154604082015260059091015460ff16151560609091015260a08101519091506106765760405163bd8da02b60e01b8152602083013560048201526024015b60405180910390fd5b33600090815260208181526040822090829061069490860186610e82565b6001600160a01b03166001600160a01b03168152602001908152602001600020600101549050816080015183608001356106ce9190610edb565b6106d89082610f93565b9050806106e86020850185610e82565b6040516370a0823160e01b81523360048201526001600160a01b0391909116906370a0823190602401602060405180830381865afa15801561072e573d6000803e3d6000fd5b505050506040513d601f19601f820116820180604052508101906107529190610ea6565b101561077157604051633ed9d6e560e11b815260040160405180910390fd5b3360009081526020818152604082208392909161079090870187610e82565b6001600160a01b0316815260208082019290925260409081016000908120600101939093553383528282528220859290916107cd90840184610e82565b6001600160a01b031681526020808201929092526040908101600090812087840135825290925290206108008282610fbd565b506060905061081436859003850185610ebf565b8160008151811061082757610827610e3d565b6020026020010181905250806040516108409190610dbe565b60405190819003902033600160405160008051602061106b83398151915290600090a450505050565b336000908152602081815260408220919061088690840184610e82565b6001600160a01b031681526020808201929092526040908101600090812084840135825290925290206005015460ff166108d95760405163bd8da02b60e01b81526020820135600482015260240161066d565b3360009081526020818152604082209082906108f790850185610e82565b6001600160a01b03168152602080820192909252604090810160009081208584018035835290845282822060040154338352938290529181209293508392916109409086610e82565b6001600160a01b03166001600160a01b0316815260200190815260200160002060010160008282546109729190610f93565b9091555050336000908152602081815260408220919061099490850185610e82565b6001600160a01b0316815260208082019290925260409081016000908120858401358252909252812080546001600160a01b03191681556001810182905560028101805460ff19908116909155600382018390556004820192909255600501805490911690556060610a0b36849003840184610ebf565b81600081518110610a1e57610a1e610e3d565b602002602001018190525080604051610a379190610dbe565b60405190819003902033600260405160008051602061106b83398151915290600090a4505050565b634e487b7160e01b600052604160045260246000fd5b604051601f8201601f1916810167ffffffffffffffff81118282101715610a9e57610a9e610a5f565b604052919050565b6001600160a01b0381168114610abb57600080fd5b50565b60048110610abb57600080fd5b8015158114610abb57600080fd5b600060c08284031215610aeb57600080fd5b60405160c0810181811067ffffffffffffffff82111715610b0e57610b0e610a5f565b6040529050808235610b1f81610aa6565b8152602083810135908201526040830135610b3981610abe565b80604083015250606083013560608201526080830135608082015260a0830135610b6281610acb565b60a0919091015292915050565b60006020808385031215610b8257600080fd5b823567ffffffffffffffff80821115610b9a57600080fd5b818501915085601f830112610bae57600080fd5b813581811115610bc057610bc0610a5f565b610bce848260051b01610a75565b818152848101925060c0918202840185019188831115610bed57600080fd5b938501935b82851015610c1357610c048986610ad9565b84529384019392850192610bf2565b50979650505050505050565b60008060208385031215610c3257600080fd5b823567ffffffffffffffff80821115610c4a57600080fd5b818501915085601f830112610c5e57600080fd5b813581811115610c6d57600080fd5b86602060c083028501011115610c8257600080fd5b60209290920196919550909350505050565b6020808252825182820181905260009190848201906040850190845b81811015610ccc57835183529284019291840191600101610cb0565b50909695505050505050565b600080600060608486031215610ced57600080fd5b8335610cf881610aa6565b92506020840135610d0881610aa6565b929592945050506040919091013590565b634e487b7160e01b600052602160045260246000fd5b60048110610d4d57634e487b7160e01b600052602160045260246000fd5b9052565b81516001600160a01b031681526020808301519082015260408083015160c0830191610d7f90840182610d2f565b50606083015160608301526080830151608083015260a0830151151560a083015292915050565b600060c08284031215610db857600080fd5b50919050565b815160009082906020808601845b83811015610e3157815180516001600160a01b031686528381015184870152604080820151610dfe9082890190610d2f565b50606081810151908701526080808201519087015260a09081015115159086015260c09094019390820190600101610dcc565b50929695505050505050565b634e487b7160e01b600052603260045260246000fd5b634e487b7160e01b600052601160045260246000fd5b600060018201610e7b57610e7b610e53565b5060010190565b600060208284031215610e9457600080fd5b8135610e9f81610aa6565b9392505050565b600060208284031215610eb857600080fd5b5051919050565b600060c08284031215610ed157600080fd5b610e9f8383610ad9565b60008219821115610eee57610eee610e53565b500190565b60008184825b85811015610f88578135610f0c81610aa6565b6001600160a01b0316835260208281013590840152604080830135610f3081610abe565b610f3c82860182610d2f565b5050606082810135908401526080808301359084015260a080830135610f6181610acb565b610f72828601821515815260200190565b50505060c0928301929190910190600101610ef9565b509095945050505050565b600082821015610fa557610fa5610e53565b500390565b60008135610fb781610acb565b92915050565b8135610fc881610aa6565b81546001600160a01b0319166001600160a01b039190911617815560208201356001820155600281016040830135610fff81610abe565b6004811061101d57634e487b7160e01b600052602160045260246000fd5b60ff1982541660ff821681178355505050606082013560038201556080820135600482015561018f61105160a08401610faa565b6005830160ff1981541660ff831515168117825550505056fe8b117bd00ff7f24909474612aef1fcccae97e6cfcfa5d1ab18278f0659a33e6ca164736f6c634300080d000a",
    "linkReferences": {}
  }
}