{
  "abi": [
    {
      "inputs": [],
      "stateMutability": "nonpayable",
      "type": "constructor"
    },
    {
      "inputs": [],
      "name": "IncongruentTokenInOrderGroup",
      "type": "error"
    },
    {
      "inputs": [],
      "name": "InsufficientWalletBalance",
      "type": "error"
    },
    {
      "inputs": [
        {
          "internalType": "bytes32",
          "name": "orderId",
          "type": "bytes32"
        }
      ],
      "name": "OrderDoesNotExist",
      "type": "error"
    },
    {
      "anonymous": false,
      "inputs": [
        {
          "indexed": true,
          "internalType": "enum ConveyorLimitOrders.EventType",
          "name": "eventType",
          "type": "uint8"
        },
        {
          "indexed": true,
          "internalType": "address",
          "name": "sender",
          "type": "address"
        },
        {
          "components": [
            {
              "internalType": "address",
              "name": "token",
              "type": "address"
            },
            {
              "internalType": "bytes32",
              "name": "orderId",
              "type": "bytes32"
            },
            {
              "internalType": "enum ConveyorLimitOrders.OrderType",
              "name": "orderType",
              "type": "uint8"
            },
            {
              "internalType": "uint256",
              "name": "price",
              "type": "uint256"
            },
            {
              "internalType": "uint256",
              "name": "quantity",
              "type": "uint256"
            },
            {
              "internalType": "bool",
              "name": "exists",
              "type": "bool"
            }
          ],
          "indexed": true,
          "internalType": "struct ConveyorLimitOrders.Order[]",
          "name": "orders",
          "type": "tuple[]"
        }
      ],
      "name": "OrderEvent",
      "type": "event"
    },
    {
      "inputs": [
        {
          "internalType": "address[]",
          "name": "_factory",
          "type": "address[]"
        },
        {
          "internalType": "bytes32[]",
          "name": "_hexDem",
          "type": "bytes32[]"
        },
        {
          "internalType": "bool[]",
          "name": "isUniV2",
          "type": "bool[]"
        }
      ],
      "name": "addDex",
      "outputs": [],
      "stateMutability": "nonpayable",
      "type": "function"
    },
    {
      "inputs": [
        {
          "internalType": "address",
          "name": "token0",
          "type": "address"
        },
        {
          "internalType": "address",
          "name": "token1",
          "type": "address"
        }
      ],
      "name": "calculateMeanPairSpotPrice",
      "outputs": [
        {
          "internalType": "uint256",
          "name": "",
          "type": "uint256"
        }
      ],
      "stateMutability": "view",
      "type": "function"
    },
    {
      "inputs": [
        {
          "internalType": "address",
          "name": "token0",
          "type": "address"
        },
        {
          "internalType": "address",
          "name": "token1",
          "type": "address"
        }
      ],
      "name": "calculateMinPairSpotPrice",
      "outputs": [
        {
          "internalType": "uint256",
          "name": "",
          "type": "uint256"
        }
      ],
      "stateMutability": "view",
      "type": "function"
    },
    {
      "inputs": [],
      "name": "cancelAllOrders",
      "outputs": [],
      "stateMutability": "nonpayable",
      "type": "function"
    },
    {
      "inputs": [
        {
          "internalType": "address",
          "name": "token",
          "type": "address"
        },
        {
          "internalType": "bytes32",
          "name": "orderId",
          "type": "bytes32"
        }
      ],
      "name": "cancelOrder",
      "outputs": [],
      "stateMutability": "nonpayable",
      "type": "function"
    },
    {
      "inputs": [
        {
          "internalType": "uint256",
          "name": "",
          "type": "uint256"
        }
      ],
      "name": "dexes",
      "outputs": [
        {
          "internalType": "address",
          "name": "factoryAddress",
          "type": "address"
        },
        {
          "internalType": "bytes32",
          "name": "initBytecode",
          "type": "bytes32"
        },
        {
          "internalType": "bool",
          "name": "isUniV2",
          "type": "bool"
        }
      ],
      "stateMutability": "view",
      "type": "function"
    },
    {
      "inputs": [
        {
          "components": [
            {
              "internalType": "address",
              "name": "token",
              "type": "address"
            },
            {
              "internalType": "bytes32",
              "name": "orderId",
              "type": "bytes32"
            },
            {
              "internalType": "enum ConveyorLimitOrders.OrderType",
              "name": "orderType",
              "type": "uint8"
            },
            {
              "internalType": "uint256",
              "name": "price",
              "type": "uint256"
            },
            {
              "internalType": "uint256",
              "name": "quantity",
              "type": "uint256"
            },
            {
              "internalType": "bool",
              "name": "exists",
              "type": "bool"
            }
          ],
          "internalType": "struct ConveyorLimitOrders.Order[]",
          "name": "orders",
          "type": "tuple[]"
        }
      ],
      "name": "executeOrders",
      "outputs": [],
      "stateMutability": "nonpayable",
      "type": "function"
    },
    {
      "inputs": [
        {
          "internalType": "address",
          "name": "eoaAddress",
          "type": "address"
        },
        {
          "internalType": "address",
          "name": "token",
          "type": "address"
        },
        {
          "internalType": "bytes32",
          "name": "orderId",
          "type": "bytes32"
        }
      ],
      "name": "getOrderById",
      "outputs": [
        {
          "components": [
            {
              "internalType": "address",
              "name": "token",
              "type": "address"
            },
            {
              "internalType": "bytes32",
              "name": "orderId",
              "type": "bytes32"
            },
            {
              "internalType": "enum ConveyorLimitOrders.OrderType",
              "name": "orderType",
              "type": "uint8"
            },
            {
              "internalType": "uint256",
              "name": "price",
              "type": "uint256"
            },
            {
              "internalType": "uint256",
              "name": "quantity",
              "type": "uint256"
            },
            {
              "internalType": "bool",
              "name": "exists",
              "type": "bool"
            }
          ],
          "internalType": "struct ConveyorLimitOrders.Order",
          "name": "order",
          "type": "tuple"
        }
      ],
      "stateMutability": "view",
      "type": "function"
    },
    {
      "inputs": [
        {
          "components": [
            {
              "internalType": "address",
              "name": "token",
              "type": "address"
            },
            {
              "internalType": "bytes32",
              "name": "orderId",
              "type": "bytes32"
            },
            {
              "internalType": "enum ConveyorLimitOrders.OrderType",
              "name": "orderType",
              "type": "uint8"
            },
            {
              "internalType": "uint256",
              "name": "price",
              "type": "uint256"
            },
            {
              "internalType": "uint256",
              "name": "quantity",
              "type": "uint256"
            },
            {
              "internalType": "bool",
              "name": "exists",
              "type": "bool"
            }
          ],
          "internalType": "struct ConveyorLimitOrders.Order[]",
          "name": "orderGroup",
          "type": "tuple[]"
        }
      ],
      "name": "placeOrder",
      "outputs": [
        {
          "internalType": "bytes32[]",
          "name": "",
          "type": "bytes32[]"
        }
      ],
      "stateMutability": "nonpayable",
      "type": "function"
    },
    {
      "inputs": [],
      "name": "swapAndPlaceOrders",
      "outputs": [],
      "stateMutability": "nonpayable",
      "type": "function"
    },
    {
      "inputs": [
        {
          "components": [
            {
              "internalType": "address",
              "name": "token",
              "type": "address"
            },
            {
              "internalType": "bytes32",
              "name": "orderId",
              "type": "bytes32"
            },
            {
              "internalType": "enum ConveyorLimitOrders.OrderType",
              "name": "orderType",
              "type": "uint8"
            },
            {
              "internalType": "uint256",
              "name": "price",
              "type": "uint256"
            },
            {
              "internalType": "uint256",
              "name": "quantity",
              "type": "uint256"
            },
            {
              "internalType": "bool",
              "name": "exists",
              "type": "bool"
            }
          ],
          "internalType": "struct ConveyorLimitOrders.Order",
          "name": "newOrder",
          "type": "tuple"
        }
      ],
      "name": "updateOrder",
      "outputs": [],
      "stateMutability": "nonpayable",
      "type": "function"
    }
  ],
  "bytecode": {
    "object": "0x60c0604052735c69bee701ef814a2b6a3edd4b1652cb9cc5aa6f6080908152731f98431c8ad98523631ae4a59f267346ea31f98460a052620000469060009060026200005b565b503480156200005457600080fd5b50620000dc565b828054828255906000526020600020908101928215620000b3579160200282015b82811115620000b357825182546001600160a01b0319166001600160a01b039091161782556020909201916001909101906200007c565b50620000c1929150620000c5565b5090565b5b80821115620000c15760008155600101620000c6565b612df480620000ec6000396000f3fe608060405234801561001057600080fd5b50600436106100a95760003560e01c80636338a7c0116100715780636338a7c01461012757806384b2167c1461016157806397ed90de146100b6578063ac8d481214610174578063ad0f0a2c14610195578063b68d173e146101a857600080fd5b8063028afabf146100ae5780630f3333d3146100b8578063115f8db4146100cb57806353b9715b146100f45780635518a3c214610114575b600080fd5b6100b66101bb565b005b6100b66100c6366004612192565b6101fb565b6100de6100d9366004612231565b610240565b6040516100eb91906122a6565b60405180910390f35b6101076101023660046122ea565b610591565b6040516100eb9190612363565b6100b66101223660046123b8565b61063d565b61013a6101353660046123d0565b610988565b604080516001600160a01b03909416845260208401929092521515908201526060016100eb565b6100b661016f3660046123e9565b6109c8565b610187610182366004612415565b610bf2565b6040519081526020016100eb565b6100b66101a336600461250d565b610c8a565b6101876101b6366004612415565b610e48565b3360005260016020526040516060906101d59082906125f3565b604051908190039020336000604051600080516020612d9f83398151915290600090a450565b33321461020757600080fd5b60005b815181101561023c57600082828151811061022757610227612672565b50610235915082905061269e565b905061020a565b5050565b60606000808367ffffffffffffffff81111561025e5761025e612061565b604051908082528060200260200182016040528015610287578160200160208202803683370190505b50905060008585600081811061029f5761029f612672565b6102b592602060c09092020190810191506126b7565b3360008181526001602081815260408084206001600160a01b03871680865292528084209092015491516370a0823160e01b815260048101949094529394509290916370a0823190602401602060405180830381865afa15801561031d573d6000803e3d6000fd5b505050506040513d601f19601f8201168201806040525081019061034191906126d4565b905060005b8781101561052857600089898381811061036257610362612672565b905060c0020180360381019061037891906126ed565b905080600001516001600160a01b0316856001600160a01b0316146103b05760405163200c77f560e01b815260040160405180910390fd5b60808101516103bf9085612709565b9350838310156103e257604051633ed9d6e560e11b815260040160405180910390fd5b6060808201516040516001600160601b031933841b811660208301524260348301529288901b909216605483015260688201526088810183905260009060a80160408051808303601f190181529181528151602092830120600160a086018190523360009081528185528381206001600160a01b038c81168352908652848220848352865290849020875181546001600160a01b03191692169190911781559386015184820155918501516002840180549295508694939192909160ff19909116908360038111156104b6576104b661232b565b0217905550606082015160038201556080820151600482015560a0909101516005909101805460ff19169115159190911790558651819088908a9081106104ff576104ff612672565b60209081029190910101526105138861269e565b97505050806105219061269e565b9050610346565b503360009081526001602081815260408084206001600160a01b03881685529091529182902001839055516105609089908990612721565b604051908190039020336000604051600080516020612d9f83398151915290600090a4509193505050505b92915050565b610599612029565b6001600160a01b03808516600090815260016020818152604080842088861685528252808420878552825292839020835160c0810185528154909516855291820154908401526002810154909183019060ff1660038111156105fd576105fd61232b565b600381111561060e5761060e61232b565b8152600382015460208201526004820154604082015260059091015460ff161515606090910152949350505050565b336000908152600160209081526040822090829061065d908501856126b7565b6001600160a01b039081168252602080830193909352604091820160009081208685013582528452829020825160c08101845281549092168252600181015493820193909352600283015490929183019060ff1660038111156106c2576106c261232b565b60038111156106d3576106d361232b565b8152600382015460208201526004820154604082015260059091015460ff16151560609091015260a081015190915061072a5760405163bd8da02b60e01b8152602083013560048201526024015b60405180910390fd5b336000908152600160209081526040822090829061074a908601866126b7565b6001600160a01b03166001600160a01b031681526020019081526020016000206001015490508160800151836080013511156107a357608080830151610792918501356127c1565b61079c9082612709565b90506107c4565b826080013582608001516107b791906127c1565b6107c19082612709565b90505b806107d260208501856126b7565b6040516370a0823160e01b81523360048201526001600160a01b0391909116906370a0823190602401602060405180830381865afa158015610818573d6000803e3d6000fd5b505050506040513d601f19601f8201168201806040525081019061083c91906126d4565b101561085b57604051633ed9d6e560e11b815260040160405180910390fd5b33600090815260016020908152604082208392909161087c908701876126b7565b6001600160a01b03168152602080820192909252604090810160009081206001908101949094553381529282528220859290916108bb908401846126b7565b6001600160a01b031681526020808201929092526040908101600090812087840135825290925290206108ee82826127e5565b5050604080516001808252818301909252600091816020015b61090f612029565b815260200190600190039081610907579050509050610933368590038501856126ed565b8160008151811061094657610946612672565b60200260200101819052508060405161095f91906125f3565b604051908190039020336001604051600080516020612d9f83398151915290600090a450505050565b6002818154811061099857600080fd5b60009182526020909120600390910201805460018201546002909201546001600160a01b03909116925060ff1683565b3360009081526001602090815260408083206001600160a01b0386168452825280832084845290915290206005015460ff16610a1a5760405163bd8da02b60e01b815260048101829052602401610721565b3360009081526001602081815260408084206001600160a01b0387811686529083528185208686528352818520825160c08101845281549092168252938401549281019290925260028301549192919083019060ff166003811115610a8157610a8161232b565b6003811115610a9257610a9261232b565b81526003820154602080830191909152600483015460408084019190915260059093015460ff161515606090920191909152608083015133600090815260018084528482206001600160a01b038a16835290935292832090910180549394509092839290610b019084906127c1565b90915550503360009081526001602081815260408084206001600160a01b03891685528252808420878552825280842080546001600160a01b031916815580840185905560028101805460ff1990811690915560038201869055600482018690556005909101805490911690558051838152808201909152919082015b610b86612029565b815260200190600190039081610b7e5790505090508281600081518110610baf57610baf612672565b602002602001018190525080604051610bc891906125f3565b604051908190039020336002604051600080516020612d9f83398151915290600090a45050505050565b6000610c8383836002805480602002602001604051908101604052809291908181526020016000905b82821015610c75576000848152602090819020604080516060810182526003860290920180546001600160a01b031683526001808201548486015260029091015460ff161515918301919091529083529092019101610c1b565b505050506001610bb8610ed9565b9392505050565b81518351148015610c9c575080518251145b610cf35760405162461bcd60e51b815260206004820152602260248201527f496e76616c696420696e7075742c20417272206c656e677468206d69736d61746044820152610c6d60f31b6064820152608401610721565b60005b8351811015610e425760006040518060600160405280868481518110610d1e57610d1e612672565b60200260200101516001600160a01b03168152602001858481518110610d4657610d46612672565b60200260200101518152602001848481518110610d6557610d65612672565b60209081029190910181015115159091526002805460018101825560009190915282517f405787fa12a823e0f2b7631cc41b3ba8828b3321ca811111fa75cd3aa3bb5ace600390920291820180546001600160a01b0319166001600160a01b03909216919091179055908201517f405787fa12a823e0f2b7631cc41b3ba8828b3321ca811111fa75cd3aa3bb5acf8201556040909101517f405787fa12a823e0f2b7631cc41b3ba8828b3321ca811111fa75cd3aa3bb5ad0909101805460ff19169115159190911790555080610e3a8161269e565b915050610cf6565b50505050565b6000610c8383836002805480602002602001604051908101604052809291908181526020016000905b82821015610ecb576000848152602090819020604080516060810182526003860290920180546001600160a01b031683526001808201548486015260029091015460ff161515918301919091529083529092019101610e71565b505050506001610bb8611001565b600060001981610ee9888861111f565b905060005b8651811015610fe757868181518110610f0957610f09612672565b60200260200101516040015115610f86576000610f628a8a8a8581518110610f3357610f33612672565b6020026020010151600001518b8681518110610f5157610f51612672565b602002602001015160200151611179565b90508381108015610f7257508015155b610f7c5783610f7e565b805b935050610fd7565b6000610fb38a8a85898b8d8881518110610fa257610fa2612672565b6020026020010151600001516114ec565b905083600982901b108015610fc757508015155b610fd15783610fd3565b805b9350505b610fe08161269e565b9050610eee565b508119610ff657610ff6612892565b509695505050505050565b6000808080611010898961111f565b905060005b87518110156111045787818151811061103057611030612672565b602002602001015160400151156110a85760006110788b8b8b858151811061105a5761105a612672565b6020026020010151600001518c8681518110610f5157610f51612672565b90506110848186612709565b94508015611093576001611096565b60005b6110a090856128a8565b9350506110f4565b60006110c48b8b858a8c8e8881518110610fa257610fa2612672565b90506110d4600982901b86612709565b945080156110e35760016110e6565b60005b6110f090856128a8565b9350505b6110fd8161269e565b9050611015565b5061111260ff8316846128e3565b9998505050505050505050565b60008061112b84611734565b9050600061113884611734565b905060008160ff168360ff16106111585761115382846128f7565b611162565b61116283836128f7565b905061116f81600a6129fe565b9695505050505050565b6000836001600160a01b0316856001600160a01b0316036111ec5760405162461bcd60e51b815260206004820152602760248201527f496e76616c696420546f6b656e20506169722c204944454e544943414c2041646044820152666472657373277360c81b6064820152608401610721565b6000806111f98787611798565b6040516001600160601b0319606084811b8216602084015283901b16603482015291935091506000908690604801604051602081830303815290604052805190602001208660405160200161127e939291906001600160f81b0319815260609390931b6001600160601b03191660018401526015830191909152603582015260550190565b60408051601f19818403018152919052805160209091012090506001600160a01b0381166112e35760405162461bcd60e51b815260206004820152601260248201527124b73b30b634b2103a37b5b2b7103830b4b960711b6044820152606401610721565b60405163e6a4390560e01b81526001600160a01b0384811660048301528381166024830152808316919088169063e6a4390590604401602060405180830381865afa158015611336573d6000803e3d6000fd5b505050506040513d601f19601f8201168201806040525081019061135a9190612a0d565b6001600160a01b031614611420576113986040518060400160405280600f81526020016e466163746f7279204164647265737360881b81525061188f565b60405163e6a4390560e01b81526001600160a01b0384811660048301528381166024830152611414919088169063e6a4390590604401602060405180830381865afa1580156113eb573d6000803e3d6000fd5b505050506040513d601f19601f8201168201806040525081019061140f9190612a0d565b6118d5565b600093505050506114e4565b600080826001600160a01b0316630902f1ac6040518163ffffffff1660e01b8152600401606060405180830381865afa158015611461573d6000803e3d6000fd5b505050506040513d601f19601f820116820180604052508101906114859190612a46565b5091509150600061149586611734565b905060006114a286611734565b90506000806114c5866001600160701b031685876001600160701b03168661191d565b90925090506114d881600984901b6128e3565b99505050505050505050505b949350505050565b604080516002808252606082018352600092839291906020830190803683370190505090506000849050848260008151811061152a5761152a612672565b602002602001019063ffffffff16908163ffffffff168152505060008260018151811061155957611559612672565b63ffffffff9290921660209283029190910190910152604051630b4c774160e11b81526001600160a01b038a81166004830152898116602483015262ffffff8816604483015260009190861690631698ee8290606401602060405180830381865afa1580156115cc573d6000803e3d6000fd5b505050506040513d601f19601f820116820180604052508101906115f09190612a0d565b90506001600160a01b03811661160c576000935050505061116f565b60405163883bdbfd60e01b81526000906001600160a01b0383169063883bdbfd9061163b908790600401612a96565b600060405180830381865afa158015611658573d6000803e3d6000fd5b505050506040513d6000823e601f3d908101601f191682016040526116809190810190612b38565b50905060008160008151811061169857611698612672565b6020026020010151826001815181106116b3576116b3612672565b60200260200101516116c59190612c04565b905060006116d7600386900b83612c54565b905060008260060b1280156116fb57506116f5600386900b83612c92565b60060b15155b1561170e578061170a81612cb4565b9150505b611723818c6001600160701b03168f8f611985565b9d9c50505050505050505050505050565b6000816001600160a01b031663313ce5676040518163ffffffff1660e01b8152600401602060405180830381865afa158015611774573d6000803e3d6000fd5b505050506040513d601f19601f8201168201806040525081019061058b9190612cd7565b600080826001600160a01b0316846001600160a01b03160361180a5760405162461bcd60e51b815260206004820152602560248201527f556e697377617056324c6962726172793a204944454e544943414c5f41444452604482015264455353455360d81b6064820152608401610721565b826001600160a01b0316846001600160a01b03161061182a57828461182d565b83835b90925090506001600160a01b0382166118885760405162461bcd60e51b815260206004820152601e60248201527f556e697377617056324c6962726172793a205a45524f5f4144445245535300006044820152606401610721565b9250929050565b6118d2816040516024016118a39190612cfa565b60408051601f198184030181529190526020810180516001600160e01b031663104c13eb60e21b179052611a93565b50565b6040516001600160a01b03821660248201526118d29060440160408051601f198184030181529190526020810180516001600160e01b031663161765e160e11b179052611a93565b6000808260ff168560ff161115611957578561193984876128f7565b61194490600a6129fe565b61194e9086612d4f565b9150915061197c565b61196185846128f7565b61196c90600a6129fe565b6119769087612d4f565b84915091505b94509492505050565b60008061199186611ab4565b90506001600160801b036001600160a01b03821611611a175760006119bf6001600160a01b03831680612d4f565b9050836001600160a01b0316856001600160a01b0316106119f7576119f2600160c01b876001600160801b031683611ec0565b611a0f565b611a0f81876001600160801b0316600160c01b611ec0565b925050611a8a565b6000611a366001600160a01b0383168068010000000000000000611ec0565b9050836001600160a01b0316856001600160a01b031610611a6e57611a69600160801b876001600160801b031683611ec0565b611a86565b611a8681876001600160801b0316600160801b611ec0565b9250505b50949350505050565b80516a636f6e736f6c652e6c6f67602083016000808483855afa5050505050565b60008060008360020b12611acb578260020b611ad8565b8260020b611ad890612d6e565b9050620d89e8811115611b115760405162461bcd60e51b81526020600482015260016024820152601560fa1b6044820152606401610721565b600081600116600003611b2857600160801b611b3a565b6ffffcb933bd6fad37aa2d162d1a5940015b70ffffffffffffffffffffffffffffffffff1690506002821615611b79576080611b74826ffff97272373d413259a46990580e213a612d4f565b901c90505b6004821615611ba3576080611b9e826ffff2e50f5f656932ef12357cf3c7fdcc612d4f565b901c90505b6008821615611bcd576080611bc8826fffe5caca7e10e4e61c3624eaa0941cd0612d4f565b901c90505b6010821615611bf7576080611bf2826fffcb9843d60f6159c9db58835c926644612d4f565b901c90505b6020821615611c21576080611c1c826fff973b41fa98c081472e6896dfb254c0612d4f565b901c90505b6040821615611c4b576080611c46826fff2ea16466c96a3843ec78b326b52861612d4f565b901c90505b6080821615611c75576080611c70826ffe5dee046a99a2a811c461f1969c3053612d4f565b901c90505b610100821615611ca0576080611c9b826ffcbe86c7900a88aedcffc83b479aa3a4612d4f565b901c90505b610200821615611ccb576080611cc6826ff987a7253ac413176f2b074cf7815e54612d4f565b901c90505b610400821615611cf6576080611cf1826ff3392b0822b70005940c7a398e4b70f3612d4f565b901c90505b610800821615611d21576080611d1c826fe7159475a2c29b7443b29c7fa6e889d9612d4f565b901c90505b611000821615611d4c576080611d47826fd097f3bdfd2022b8845ad8f792aa5825612d4f565b901c90505b612000821615611d77576080611d72826fa9f746462d870fdf8a65dc1f90e061e5612d4f565b901c90505b614000821615611da2576080611d9d826f70d869a156d2a1b890bb3df62baf32f7612d4f565b901c90505b618000821615611dcd576080611dc8826f31be135f97d08fd981231505542fcfa6612d4f565b901c90505b62010000821615611df9576080611df4826f09aa508b5b7a84e1c677de54f3e99bc9612d4f565b901c90505b62020000821615611e24576080611e1f826e5d6af8dedb81196699c329225ee604612d4f565b901c90505b62040000821615611e4e576080611e49826d2216e584f5fa1ea926041bedfe98612d4f565b901c90505b62080000821615611e76576080611e71826b048a170391f7dc42444e8fa2612d4f565b901c90505b60008460020b1315611e9157611e8e816000196128e3565b90505b611ea064010000000082612d8a565b15611eac576001611eaf565b60005b6114e49060ff16602083901c612709565b6000808060001985870985870292508281108382030391505080600003611ef95760008411611eee57600080fd5b508290049050610c83565b808411611f0557600080fd5b600084868809808403938111909203919050600085611f2381612d6e565b16958690049593849004936000819003046001019050611f438184612d4f565b909317926000611f54876003612d4f565b6002189050611f638188612d4f565b611f6e9060026127c1565b611f789082612d4f565b9050611f848188612d4f565b611f8f9060026127c1565b611f999082612d4f565b9050611fa58188612d4f565b611fb09060026127c1565b611fba9082612d4f565b9050611fc68188612d4f565b611fd19060026127c1565b611fdb9082612d4f565b9050611fe78188612d4f565b611ff29060026127c1565b611ffc9082612d4f565b90506120088188612d4f565b6120139060026127c1565b61201d9082612d4f565b90506111128186612d4f565b6040805160c0810182526000808252602082018190529091820190815260200160008152602001600081526020016000151581525090565b634e487b7160e01b600052604160045260246000fd5b604051601f8201601f1916810167ffffffffffffffff811182821017156120a0576120a0612061565b604052919050565b600067ffffffffffffffff8211156120c2576120c2612061565b5060051b60200190565b6001600160a01b03811681146118d257600080fd5b600481106118d257600080fd5b80151581146118d257600080fd5b600060c0828403121561210e57600080fd5b60405160c0810181811067ffffffffffffffff8211171561213157612131612061565b6040529050808235612142816120cc565b815260208381013590820152604083013561215c816120e1565b80604083015250606083013560608201526080830135608082015260a0830135612185816120ee565b60a0919091015292915050565b600060208083850312156121a557600080fd5b823567ffffffffffffffff8111156121bc57600080fd5b8301601f810185136121cd57600080fd5b80356121e06121db826120a8565b612077565b81815260c091820283018401918482019190888411156121ff57600080fd5b938501935b838510156122255761221689866120fc565b83529384019391850191612204565b50979650505050505050565b6000806020838503121561224457600080fd5b823567ffffffffffffffff8082111561225c57600080fd5b818501915085601f83011261227057600080fd5b81358181111561227f57600080fd5b86602060c08302850101111561229457600080fd5b60209290920196919550909350505050565b6020808252825182820181905260009190848201906040850190845b818110156122de578351835292840192918401916001016122c2565b50909695505050505050565b6000806000606084860312156122ff57600080fd5b833561230a816120cc565b9250602084013561231a816120cc565b929592945050506040919091013590565b634e487b7160e01b600052602160045260246000fd5b6004811061235f57634e487b7160e01b600052602160045260246000fd5b9052565b81516001600160a01b031681526020808301519082015260408083015160c083019161239190840182612341565b50606083015160608301526080830151608083015260a0830151151560a083015292915050565b600060c082840312156123ca57600080fd5b50919050565b6000602082840312156123e257600080fd5b5035919050565b600080604083850312156123fc57600080fd5b8235612407816120cc565b946020939093013593505050565b6000806040838503121561242857600080fd5b8235612433816120cc565b91506020830135612443816120cc565b809150509250929050565b600082601f83011261245f57600080fd5b8135602061246f6121db836120a8565b82815260059290921b8401810191818101908684111561248e57600080fd5b8286015b84811015610ff65780358352918301918301612492565b600082601f8301126124ba57600080fd5b813560206124ca6121db836120a8565b82815260059290921b840181019181810190868411156124e957600080fd5b8286015b84811015610ff6578035612500816120ee565b83529183019183016124ed565b60008060006060848603121561252257600080fd5b833567ffffffffffffffff8082111561253a57600080fd5b818601915086601f83011261254e57600080fd5b8135602061255e6121db836120a8565b82815260059290921b8401810191818101908a84111561257d57600080fd5b948201945b838610156125a4578535612595816120cc565b82529482019490820190612582565b975050870135925050808211156125ba57600080fd5b6125c68783880161244e565b935060408601359150808211156125dc57600080fd5b506125e9868287016124a9565b9150509250925092565b815160009082906020808601845b8381101561266657815180516001600160a01b0316865283810151848701526040808201516126339082890190612341565b50606081810151908701526080808201519087015260a09081015115159086015260c09094019390820190600101612601565b50929695505050505050565b634e487b7160e01b600052603260045260246000fd5b634e487b7160e01b600052601160045260246000fd5b6000600182016126b0576126b0612688565b5060010190565b6000602082840312156126c957600080fd5b8135610c83816120cc565b6000602082840312156126e657600080fd5b5051919050565b600060c082840312156126ff57600080fd5b610c8383836120fc565b6000821982111561271c5761271c612688565b500190565b60008184825b858110156127b657813561273a816120cc565b6001600160a01b031683526020828101359084015260408083013561275e816120e1565b61276a82860182612341565b5050606082810135908401526080808301359084015260a08083013561278f816120ee565b6127a0828601821515815260200190565b50505060c0928301929190910190600101612727565b509095945050505050565b6000828210156127d3576127d3612688565b500390565b6000813561058b816120ee565b81356127f0816120cc565b81546001600160a01b0319166001600160a01b039190911617815560208201356001820155600281016040830135612827816120e1565b6004811061284557634e487b7160e01b600052602160045260246000fd5b60ff1982541660ff821681178355505050606082013560038201556080820135600482015561023c61287960a084016127d8565b6005830160ff1981541660ff8315151681178255505050565b634e487b7160e01b600052600160045260246000fd5b600060ff821660ff84168060ff038211156128c5576128c5612688565b019392505050565b634e487b7160e01b600052601260045260246000fd5b6000826128f2576128f26128cd565b500490565b600060ff821660ff84168082101561291157612911612688565b90039392505050565b600181815b8085111561295557816000190482111561293b5761293b612688565b8085161561294857918102915b93841c939080029061291f565b509250929050565b60008261296c5750600161058b565b816129795750600061058b565b816001811461298f5760028114612999576129b5565b600191505061058b565b60ff8411156129aa576129aa612688565b50506001821b61058b565b5060208310610133831016604e8410600b84101617156129d8575081810a61058b565b6129e2838361291a565b80600019048211156129f6576129f6612688565b029392505050565b6000610c8360ff84168361295d565b600060208284031215612a1f57600080fd5b8151610c83816120cc565b80516001600160701b0381168114612a4157600080fd5b919050565b600080600060608486031215612a5b57600080fd5b612a6484612a2a565b9250612a7260208501612a2a565b9150604084015163ffffffff81168114612a8b57600080fd5b809150509250925092565b6020808252825182820181905260009190848201906040850190845b818110156122de57835163ffffffff1683529284019291840191600101612ab2565b600082601f830112612ae557600080fd5b81516020612af56121db836120a8565b82815260059290921b84018101918181019086841115612b1457600080fd5b8286015b84811015610ff6578051612b2b816120cc565b8352918301918301612b18565b60008060408385031215612b4b57600080fd5b825167ffffffffffffffff80821115612b6357600080fd5b818501915085601f830112612b7757600080fd5b81516020612b876121db836120a8565b82815260059290921b84018101918181019089841115612ba657600080fd5b948201945b83861015612bd45785518060060b8114612bc55760008081fd5b82529482019490820190612bab565b91880151919650909350505080821115612bed57600080fd5b50612bfa85828601612ad4565b9150509250929050565b60008160060b8360060b6000811281667fffffffffffff1901831281151615612c2f57612c2f612688565b81667fffffffffffff018313811615612c4a57612c4a612688565b5090039392505050565b60008160060b8360060b80612c6b57612c6b6128cd565b667fffffffffffff19821460001982141615612c8957612c89612688565b90059392505050565b60008260060b80612ca557612ca56128cd565b808360060b0791505092915050565b60008160020b627fffff198103612ccd57612ccd612688565b6000190192915050565b600060208284031215612ce957600080fd5b815160ff81168114610c8357600080fd5b600060208083528351808285015260005b81811015612d2757858101830151858201604001528201612d0b565b81811115612d39576000604083870101525b50601f01601f1916929092016040019392505050565b6000816000190483118215151615612d6957612d69612688565b500290565b6000600160ff1b8201612d8357612d83612688565b5060000390565b600082612d9957612d996128cd565b50069056fe8b117bd00ff7f24909474612aef1fcccae97e6cfcfa5d1ab18278f0659a33e6ca2646970667358221220e544c18e3a15dc2d6b5ca2ed6c3a663df85c1eee31b63bca649a84c87851019964736f6c634300080d0033",
    "linkReferences": {}
  }
}