{
  "abi": [
    {
      "inputs": [],
      "name": "IncongruentTokenInOrderGroup",
      "type": "error"
    },
    {
      "inputs": [],
      "name": "InsufficientWalletBalance",
      "type": "error"
    },
    {
      "inputs": [
        {
          "internalType": "bytes32",
          "name": "orderId",
          "type": "bytes32"
        }
      ],
      "name": "OrderDoesNotExist",
      "type": "error"
    },
    {
      "anonymous": false,
      "inputs": [
        {
          "indexed": true,
          "internalType": "enum ConveyorLimitOrders.EventType",
          "name": "eventType",
          "type": "uint8"
        },
        {
          "indexed": true,
          "internalType": "address",
          "name": "sender",
          "type": "address"
        },
        {
          "components": [
            {
              "internalType": "address",
              "name": "token",
              "type": "address"
            },
            {
              "internalType": "bytes32",
              "name": "orderId",
              "type": "bytes32"
            },
            {
              "internalType": "enum ConveyorLimitOrders.OrderType",
              "name": "orderType",
              "type": "uint8"
            },
            {
              "internalType": "uint256",
              "name": "price",
              "type": "uint256"
            },
            {
              "internalType": "uint256",
              "name": "quantity",
              "type": "uint256"
            },
            {
              "internalType": "bool",
              "name": "exists",
              "type": "bool"
            }
          ],
          "indexed": true,
          "internalType": "struct ConveyorLimitOrders.Order[]",
          "name": "orders",
          "type": "tuple[]"
        }
      ],
      "name": "OrderEvent",
      "type": "event"
    },
    {
      "inputs": [],
      "name": "cancelAllOrders",
      "outputs": [],
      "stateMutability": "nonpayable",
      "type": "function"
    },
    {
      "inputs": [
        {
          "components": [
            {
              "internalType": "address",
              "name": "token",
              "type": "address"
            },
            {
              "internalType": "bytes32",
              "name": "orderId",
              "type": "bytes32"
            },
            {
              "internalType": "enum ConveyorLimitOrders.OrderType",
              "name": "orderType",
              "type": "uint8"
            },
            {
              "internalType": "uint256",
              "name": "price",
              "type": "uint256"
            },
            {
              "internalType": "uint256",
              "name": "quantity",
              "type": "uint256"
            },
            {
              "internalType": "bool",
              "name": "exists",
              "type": "bool"
            }
          ],
          "internalType": "struct ConveyorLimitOrders.Order",
          "name": "order",
          "type": "tuple"
        }
      ],
      "name": "cancelOrder",
      "outputs": [],
      "stateMutability": "nonpayable",
      "type": "function"
    },
    {
      "inputs": [
        {
          "components": [
            {
              "internalType": "address",
              "name": "token",
              "type": "address"
            },
            {
              "internalType": "bytes32",
              "name": "orderId",
              "type": "bytes32"
            },
            {
              "internalType": "enum ConveyorLimitOrders.OrderType",
              "name": "orderType",
              "type": "uint8"
            },
            {
              "internalType": "uint256",
              "name": "price",
              "type": "uint256"
            },
            {
              "internalType": "uint256",
              "name": "quantity",
              "type": "uint256"
            },
            {
              "internalType": "bool",
              "name": "exists",
              "type": "bool"
            }
          ],
          "internalType": "struct ConveyorLimitOrders.Order[]",
          "name": "orders",
          "type": "tuple[]"
        }
      ],
      "name": "executeOrders",
      "outputs": [],
      "stateMutability": "nonpayable",
      "type": "function"
    },
    {
      "inputs": [
        {
          "components": [
            {
              "internalType": "address",
              "name": "token",
              "type": "address"
            },
            {
              "internalType": "bytes32",
              "name": "orderId",
              "type": "bytes32"
            },
            {
              "internalType": "enum ConveyorLimitOrders.OrderType",
              "name": "orderType",
              "type": "uint8"
            },
            {
              "internalType": "uint256",
              "name": "price",
              "type": "uint256"
            },
            {
              "internalType": "uint256",
              "name": "quantity",
              "type": "uint256"
            },
            {
              "internalType": "bool",
              "name": "exists",
              "type": "bool"
            }
          ],
          "internalType": "struct ConveyorLimitOrders.Order[][]",
          "name": "arrOrders",
          "type": "tuple[][]"
        }
      ],
      "name": "placeOrder",
      "outputs": [],
      "stateMutability": "nonpayable",
      "type": "function"
    },
    {
      "inputs": [],
      "name": "swapAndPlaceOrders",
      "outputs": [],
      "stateMutability": "nonpayable",
      "type": "function"
    },
    {
      "inputs": [
        {
          "components": [
            {
              "internalType": "address",
              "name": "token",
              "type": "address"
            },
            {
              "internalType": "bytes32",
              "name": "orderId",
              "type": "bytes32"
            },
            {
              "internalType": "enum ConveyorLimitOrders.OrderType",
              "name": "orderType",
              "type": "uint8"
            },
            {
              "internalType": "uint256",
              "name": "price",
              "type": "uint256"
            },
            {
              "internalType": "uint256",
              "name": "quantity",
              "type": "uint256"
            },
            {
              "internalType": "bool",
              "name": "exists",
              "type": "bool"
            }
          ],
          "internalType": "struct ConveyorLimitOrders.Order",
          "name": "newOrder",
          "type": "tuple"
        }
      ],
      "name": "updateOrder",
      "outputs": [],
      "stateMutability": "nonpayable",
      "type": "function"
    }
  ],
  "bytecode": {
    "object": "0x608060405234801561001057600080fd5b50610e1c806100206000396000f3fe608060405234801561001057600080fd5b50600436106100625760003560e01c8063028afabf146100675780630f3333d31461007157806331c663ea146100845780635518a3c21461009757806397ed90de1461006f578063b274c47b146100aa575b600080fd5b61006f6100bd565b005b61006f61007f3660046109ee565b6100fd565b61006f610092366004610a9e565b610142565b61006f6100a5366004610b13565b61040a565b61006f6100b8366004610b13565b6106e8565b3360009081526020526040516060906100d7908290610b41565b604051908190039020336000604051600080516020610dc783398151915290600090a450565b33321461010957600080fd5b60005b815181101561013e57600082828151811061012957610129610be9565b506101379150829050610c15565b905061010c565b5050565b60005b8181101561040557600083838381811061016157610161610be9565b90506020028101906101739190610c2e565b808060200260200160405190810160405280939291908181526020016000905b828210156101bf576101b060c08302860136819003810190610c7e565b81526020019060010190610193565b5050505050905060008183815181106101da576101da610be9565b6020908102919091018101515133600081815280845260408082206001600160a01b03851680845295528082206001015490516370a0823160e01b815260048101939093529294509192906370a0823190602401602060405180830381865afa15801561024b573d6000803e3d6000fd5b505050506040513d601f19601f8201168201806040525081019061026f9190610ca1565b905060005b84518110156103be57600085828151811061029157610291610be9565b6020026020010151905080600001516001600160a01b0316856001600160a01b0316146102d15760405163200c77f560e01b815260040160405180910390fd5b60808101516102e09085610cba565b93508383101561030357604051633ed9d6e560e11b815260040160405180910390fd5b336000908152602081815260408083206001600160a01b03898116855290835281842085840180518652935292819020845181546001600160a01b031916941693909317835590516001808401919091559083015160028301805485949360ff199091169083600381111561037a5761037a610b2b565b0217905550606082015160038201556080820151600482015560a0909101516005909101805460ff1916911515919091179055506103b781610c15565b9050610274565b50836040516103cd9190610b41565b604051908190039020336000604051600080516020610dc783398151915290600090a450505050806103fe90610c15565b9050610145565b505050565b33600090815260208181526040822090829061042890850185610cd2565b6001600160a01b039081168252602080830193909352604091820160009081208685013582528452829020825160c08101845281549092168252600181015493820193909352600283015490929183019060ff16600381111561048d5761048d610b2b565b600381111561049e5761049e610b2b565b8152600382015460208201526004820154604082015260059091015460ff16151560609091015260a08101519091506104f55760405163bd8da02b60e01b8152602083013560048201526024015b60405180910390fd5b33600090815260208181526040822090829061051390860186610cd2565b6001600160a01b03166001600160a01b031681526020019081526020016000206001015490508160800151836080013561054d9190610cba565b6105579082610cef565b9050806105676020850185610cd2565b6040516370a0823160e01b81523360048201526001600160a01b0391909116906370a0823190602401602060405180830381865afa1580156105ad573d6000803e3d6000fd5b505050506040513d601f19601f820116820180604052508101906105d19190610ca1565b10156105f057604051633ed9d6e560e11b815260040160405180910390fd5b3360009081526020818152604082208392909161060f90870187610cd2565b6001600160a01b03168152602080820192909252604090810160009081206001019390935533835282825282208592909161064c90840184610cd2565b6001600160a01b0316815260208082019290925260409081016000908120878401358252909252902061067f8282610d19565b506060905061069336859003850185610c7e565b816000815181106106a6576106a6610be9565b6020026020010181905250806040516106bf9190610b41565b604051908190039020336001604051600080516020610dc783398151915290600090a450505050565b336000908152602081815260408220919061070590840184610cd2565b6001600160a01b031681526020808201929092526040908101600090812084840135825290925290206005015460ff166107585760405163bd8da02b60e01b8152602082013560048201526024016104ec565b33600090815260208181526040822090829061077690850185610cd2565b6001600160a01b03168152602080820192909252604090810160009081208584018035835290845282822060040154338352938290529181209293508392916107bf9086610cd2565b6001600160a01b03166001600160a01b0316815260200190815260200160002060010160008282546107f19190610cef565b9091555050336000908152602081815260408220919061081390850185610cd2565b6001600160a01b0316815260208082019290925260409081016000908120858401358252909252812080546001600160a01b03191681556001810182905560028101805460ff1990811690915560038201839055600482019290925560050180549091169055606061088a36849003840184610c7e565b8160008151811061089d5761089d610be9565b6020026020010181905250806040516108b69190610b41565b604051908190039020336002604051600080516020610dc783398151915290600090a4505050565b634e487b7160e01b600052604160045260246000fd5b604051601f8201601f1916810167ffffffffffffffff8111828210171561091d5761091d6108de565b604052919050565b6001600160a01b038116811461093a57600080fd5b50565b6004811061093a57600080fd5b801515811461093a57600080fd5b600060c0828403121561096a57600080fd5b60405160c0810181811067ffffffffffffffff8211171561098d5761098d6108de565b604052905080823561099e81610925565b81526020838101359082015260408301356109b88161093d565b80604083015250606083013560608201526080830135608082015260a08301356109e18161094a565b60a0919091015292915050565b60006020808385031215610a0157600080fd5b823567ffffffffffffffff80821115610a1957600080fd5b818501915085601f830112610a2d57600080fd5b813581811115610a3f57610a3f6108de565b610a4d848260051b016108f4565b818152848101925060c0918202840185019188831115610a6c57600080fd5b938501935b82851015610a9257610a838986610958565b84529384019392850192610a71565b50979650505050505050565b60008060208385031215610ab157600080fd5b823567ffffffffffffffff80821115610ac957600080fd5b818501915085601f830112610add57600080fd5b813581811115610aec57600080fd5b8660208260051b8501011115610b0157600080fd5b60209290920196919550909350505050565b600060c08284031215610b2557600080fd5b50919050565b634e487b7160e01b600052602160045260246000fd5b81516000908290602080860184805b84811015610bdc57825180516001600160a01b0316875284810151858801526040808201516004808210610b9157634e487b7160e01b865260218152602486fd5b509088015260608181015181890152610bc6610bb760808a016080850151815260200190565b60a08401511515815260200190565b50505060c0959095019491830191600101610b50565b5093979650505050505050565b634e487b7160e01b600052603260045260246000fd5b634e487b7160e01b600052601160045260246000fd5b600060018201610c2757610c27610bff565b5060010190565b6000808335601e19843603018112610c4557600080fd5b83018035915067ffffffffffffffff821115610c6057600080fd5b602001915060c081023603821315610c7757600080fd5b9250929050565b600060c08284031215610c9057600080fd5b610c9a8383610958565b9392505050565b600060208284031215610cb357600080fd5b5051919050565b60008219821115610ccd57610ccd610bff565b500190565b600060208284031215610ce457600080fd5b8135610c9a81610925565b600082821015610d0157610d01610bff565b500390565b60008135610d138161094a565b92915050565b8135610d2481610925565b81546001600160a01b0319166001600160a01b039190911617815560208201356001820155600281016040830135610d5b8161093d565b60048110610d7957634e487b7160e01b600052602160045260246000fd5b60ff1982541660ff821681178355505050606082013560038201556080820135600482015561013e610dad60a08401610d06565b6005830160ff1981541660ff831515168117825550505056fe8b117bd00ff7f24909474612aef1fcccae97e6cfcfa5d1ab18278f0659a33e6ca264697066735822122016e969eec7675f7f02a702344938b3c2b2c78fc55ae4a7acbe5b680ffb6fe5c364736f6c634300080d0033",
    "linkReferences": {}
  }
}