{
  "abi": [
    {
      "inputs": [],
      "name": "IncongruentTokenInOrderGroup",
      "type": "error"
    },
    {
      "inputs": [],
      "name": "InsufficientWalletBalance",
      "type": "error"
    },
    {
      "inputs": [
        {
          "internalType": "bytes32",
          "name": "orderId",
          "type": "bytes32"
        }
      ],
      "name": "OrderDoesNotExist",
      "type": "error"
    },
    {
      "anonymous": false,
      "inputs": [
        {
          "indexed": true,
          "internalType": "enum ConveyorLimitOrders.EventType",
          "name": "eventType",
          "type": "uint8"
        },
        {
          "indexed": true,
          "internalType": "address",
          "name": "sender",
          "type": "address"
        },
        {
          "components": [
            {
              "internalType": "address",
              "name": "token",
              "type": "address"
            },
            {
              "internalType": "bytes32",
              "name": "orderId",
              "type": "bytes32"
            },
            {
              "internalType": "enum ConveyorLimitOrders.OrderType",
              "name": "orderType",
              "type": "uint8"
            },
            {
              "internalType": "uint256",
              "name": "price",
              "type": "uint256"
            },
            {
              "internalType": "uint256",
              "name": "quantity",
              "type": "uint256"
            },
            {
              "internalType": "bool",
              "name": "exists",
              "type": "bool"
            }
          ],
          "indexed": true,
          "internalType": "struct ConveyorLimitOrders.Order[]",
          "name": "orders",
          "type": "tuple[]"
        }
      ],
      "name": "OrderEvent",
      "type": "event"
    },
    {
      "inputs": [
        {
          "internalType": "address",
          "name": "token0",
          "type": "address"
        },
        {
          "internalType": "address",
          "name": "token1",
          "type": "address"
        }
      ],
      "name": "calculateUniV2SpotPrice",
      "outputs": [
        {
          "internalType": "uint112",
          "name": "",
          "type": "uint112"
        }
      ],
      "stateMutability": "view",
      "type": "function"
    },
    {
      "inputs": [
        {
          "internalType": "address",
          "name": "token0",
          "type": "address"
        },
        {
          "internalType": "address",
          "name": "token1",
          "type": "address"
        },
        {
          "internalType": "uint128",
          "name": "amountIn",
          "type": "uint128"
        },
        {
          "internalType": "uint24",
          "name": "FEE",
          "type": "uint24"
        },
        {
          "internalType": "uint32",
          "name": "tickSecond",
          "type": "uint32"
        }
      ],
      "name": "calculateUniV3SpotPrice",
      "outputs": [
        {
          "internalType": "uint256",
          "name": "amountOut",
          "type": "uint256"
        }
      ],
      "stateMutability": "nonpayable",
      "type": "function"
    },
    {
      "inputs": [],
      "name": "cancelAllOrders",
      "outputs": [],
      "stateMutability": "nonpayable",
      "type": "function"
    },
    {
      "inputs": [
        {
          "components": [
            {
              "internalType": "address",
              "name": "token",
              "type": "address"
            },
            {
              "internalType": "bytes32",
              "name": "orderId",
              "type": "bytes32"
            },
            {
              "internalType": "enum ConveyorLimitOrders.OrderType",
              "name": "orderType",
              "type": "uint8"
            },
            {
              "internalType": "uint256",
              "name": "price",
              "type": "uint256"
            },
            {
              "internalType": "uint256",
              "name": "quantity",
              "type": "uint256"
            },
            {
              "internalType": "bool",
              "name": "exists",
              "type": "bool"
            }
          ],
          "internalType": "struct ConveyorLimitOrders.Order",
          "name": "order",
          "type": "tuple"
        }
      ],
      "name": "cancelOrder",
      "outputs": [],
      "stateMutability": "nonpayable",
      "type": "function"
    },
    {
      "inputs": [
        {
          "internalType": "uint256",
          "name": "reserve0",
          "type": "uint256"
        },
        {
          "internalType": "uint8",
          "name": "token0Decimals",
          "type": "uint8"
        },
        {
          "internalType": "uint256",
          "name": "reserve1",
          "type": "uint256"
        },
        {
          "internalType": "uint8",
          "name": "token1Decimals",
          "type": "uint8"
        }
      ],
      "name": "convertToCommonBase",
      "outputs": [
        {
          "internalType": "uint256",
          "name": "",
          "type": "uint256"
        },
        {
          "internalType": "uint256",
          "name": "",
          "type": "uint256"
        }
      ],
      "stateMutability": "nonpayable",
      "type": "function"
    },
    {
      "inputs": [
        {
          "components": [
            {
              "internalType": "address",
              "name": "token",
              "type": "address"
            },
            {
              "internalType": "bytes32",
              "name": "orderId",
              "type": "bytes32"
            },
            {
              "internalType": "enum ConveyorLimitOrders.OrderType",
              "name": "orderType",
              "type": "uint8"
            },
            {
              "internalType": "uint256",
              "name": "price",
              "type": "uint256"
            },
            {
              "internalType": "uint256",
              "name": "quantity",
              "type": "uint256"
            },
            {
              "internalType": "bool",
              "name": "exists",
              "type": "bool"
            }
          ],
          "internalType": "struct ConveyorLimitOrders.Order[]",
          "name": "orders",
          "type": "tuple[]"
        }
      ],
      "name": "executeOrders",
      "outputs": [],
      "stateMutability": "nonpayable",
      "type": "function"
    },
    {
      "inputs": [
        {
          "components": [
            {
              "internalType": "address",
              "name": "token",
              "type": "address"
            },
            {
              "internalType": "bytes32",
              "name": "orderId",
              "type": "bytes32"
            },
            {
              "internalType": "enum ConveyorLimitOrders.OrderType",
              "name": "orderType",
              "type": "uint8"
            },
            {
              "internalType": "uint256",
              "name": "price",
              "type": "uint256"
            },
            {
              "internalType": "uint256",
              "name": "quantity",
              "type": "uint256"
            },
            {
              "internalType": "bool",
              "name": "exists",
              "type": "bool"
            }
          ],
          "internalType": "struct ConveyorLimitOrders.Order[][]",
          "name": "arrOrders",
          "type": "tuple[][]"
        }
      ],
      "name": "placeOrder",
      "outputs": [],
      "stateMutability": "nonpayable",
      "type": "function"
    },
    {
      "inputs": [],
      "name": "swapAndPlaceOrders",
      "outputs": [],
      "stateMutability": "nonpayable",
      "type": "function"
    },
    {
      "inputs": [
        {
          "components": [
            {
              "internalType": "address",
              "name": "token",
              "type": "address"
            },
            {
              "internalType": "bytes32",
              "name": "orderId",
              "type": "bytes32"
            },
            {
              "internalType": "enum ConveyorLimitOrders.OrderType",
              "name": "orderType",
              "type": "uint8"
            },
            {
              "internalType": "uint256",
              "name": "price",
              "type": "uint256"
            },
            {
              "internalType": "uint256",
              "name": "quantity",
              "type": "uint256"
            },
            {
              "internalType": "bool",
              "name": "exists",
              "type": "bool"
            }
          ],
          "internalType": "struct ConveyorLimitOrders.Order",
          "name": "newOrder",
          "type": "tuple"
        }
      ],
      "name": "updateOrder",
      "outputs": [],
      "stateMutability": "nonpayable",
      "type": "function"
    },
    {
      "inputs": [],
      "name": "v2Factory",
      "outputs": [
        {
          "internalType": "contract IUniswapV2Factory",
          "name": "",
          "type": "address"
        }
      ],
      "stateMutability": "view",
      "type": "function"
    }
  ],
  "bytecode": {
    "object": "0x60c0604052735c69bee701ef814a2b6a3edd4b1652cb9cc5aa6f6080908152731f98431c8ad98523631ae4a59f267346ea31f98460a052620000469060009060026200005b565b503480156200005457600080fd5b50620000dc565b828054828255906000526020600020908101928215620000b3579160200282015b82811115620000b357825182546001600160a01b0319166001600160a01b039091161782556020909201916001909101906200007c565b50620000c1929150620000c5565b5090565b5b80821115620000c15760008155600101620000c6565b6120bd80620000ec6000396000f3fe608060405234801561001057600080fd5b506004361061009e5760003560e01c8063b274c47b11610066578063b274c47b146100e6578063b4b57c39146100f9578063cb381ba014610129578063e255d05714610154578063fdcd1f951461017557600080fd5b8063028afabf146100a35780630f3333d3146100ad57806331c663ea146100c05780635518a3c2146100d357806397ed90de146100ab575b600080fd5b6100ab61019d565b005b6100ab6100bb3660046116f9565b6101dd565b6100ab6100ce366004611798565b610222565b6100ab6100e136600461180d565b6104ed565b6100ab6100f436600461180d565b6107d2565b60015461010c906001600160a01b031681565b6040516001600160a01b0390911681526020015b60405180910390f35b61013c610137366004611825565b6109cf565b6040516001600160701b039091168152602001610120565b610167610162366004611870565b610bc5565b604051908152602001610120565b61018861018336600461190b565b610e15565b60408051928352602083019190915201610120565b3360005260026020526040516060906101b7908290611967565b60405190819003902033600060405160008051602061206883398151915290600090a450565b3332146101e957600080fd5b60005b815181101561021e57600082828151811061020957610209611a0f565b506102179150829050611a3b565b90506101ec565b5050565b60005b818110156104e857600083838381811061024157610241611a0f565b90506020028101906102539190611a54565b808060200260200160405190810160405280939291908181526020016000905b8282101561029f5761029060c08302860136819003810190611aa4565b81526020019060010190610273565b5050505050905060008183815181106102ba576102ba611a0f565b602090810291909101810151513360008181526002845260408082206001600160a01b03851680845295528082206001015490516370a0823160e01b815260048101939093529294509192906370a0823190602401602060405180830381865afa15801561032c573d6000803e3d6000fd5b505050506040513d601f19601f820116820180604052508101906103509190611ac0565b905060005b84518110156104a157600085828151811061037257610372611a0f565b6020026020010151905080600001516001600160a01b0316856001600160a01b0316146103b25760405163200c77f560e01b815260040160405180910390fd5b60808101516103c19085611ad9565b9350838310156103e457604051633ed9d6e560e11b815260040160405180910390fd5b3360009081526002602081815260408084206001600160a01b038a8116865290835281852086840180518752935293819020855181546001600160a01b031916951694909417845590516001808501919091559084015191830180548594939260ff199091169083600381111561045d5761045d611951565b0217905550606082015160038201556080820151600482015560a0909101516005909101805460ff19169115159190911790555061049a81611a3b565b9050610355565b50836040516104b09190611967565b60405190819003902033600060405160008051602061206883398151915290600090a450505050806104e190611a3b565b9050610225565b505050565b336000908152600260209081526040822090829061050d90850185611af1565b6001600160a01b039081168252602080830193909352604091820160009081208685013582528452829020825160c08101845281549092168252600181015493820193909352600283015490929183019060ff16600381111561057257610572611951565b600381111561058357610583611951565b8152600382015460208201526004820154604082015260059091015460ff16151560609091015260a08101519091506105da5760405163bd8da02b60e01b8152602083013560048201526024015b60405180910390fd5b33600090815260026020908152604082209082906105fa90860186611af1565b6001600160a01b03166001600160a01b03168152602001908152602001600020600101549050816080015183608001356106349190611ad9565b61063e9082611b0e565b90508061064e6020850185611af1565b6040516370a0823160e01b81523360048201526001600160a01b0391909116906370a0823190602401602060405180830381865afa158015610694573d6000803e3d6000fd5b505050506040513d601f19601f820116820180604052508101906106b89190611ac0565b10156106d757604051633ed9d6e560e11b815260040160405180910390fd5b3360009081526002602090815260408220839290916106f890870187611af1565b6001600160a01b0316815260208082019290925260409081016000908120600101939093553383526002825282208592909161073690840184611af1565b6001600160a01b031681526020808201929092526040908101600090812087840135825290925290206107698282611b32565b506060905061077d36859003850185611aa4565b8160008151811061079057610790611a0f565b6020026020010181905250806040516107a99190611967565b60405190819003902033600160405160008051602061206883398151915290600090a450505050565b336000908152600260209081526040822091906107f190840184611af1565b6001600160a01b031681526020808201929092526040908101600090812084840135825290925290206005015460ff166108445760405163bd8da02b60e01b8152602082013560048201526024016105d1565b336000908152600260209081526040822090829061086490850185611af1565b6001600160a01b0316815260208082019290925260409081016000908120858401803583529084528282206004015433835260029094529181209293508392916108ae9086611af1565b6001600160a01b03166001600160a01b0316815260200190815260200160002060010160008282546108e09190611b0e565b90915550503360009081526002602090815260408220919061090490850185611af1565b6001600160a01b0316815260208082019290925260409081016000908120858401358252909252812080546001600160a01b03191681556001810182905560028101805460ff1990811690915560038201839055600482019290925560050180549091169055606061097b36849003840184611aa4565b8160008151811061098e5761098e611a0f565b6020026020010181905250806040516109a79190611967565b60405190819003902033600260405160008051602061206883398151915290600090a4505050565b60408051606084811b6bffffffffffffffffffffffff199081166020808501919091529185901b166034830152825160288184030181526048830184528051908201206001600160f81b03196068840152735c69bee701ef814a2b6a3edd4b1652cb9cc5aa6f60601b6069840152607d8301527f96e8ac4277198ff8b6f785478aa9a39f403cb768dd02cbee326c3e7da348845f609d808401919091528351808403909101815260bd9092019092528051910120600090735c69bee701ef814a2b6a3edd4b1652cb9cc5aa6f90610aa581610e7d565b6000816001600160a01b0316630902f1ac6040518163ffffffff1660e01b8152600401606060405180830381865afa158015610ae5573d6000803e3d6000fd5b505050506040513d601f19601f82011682018060405250810190610b099190611bf6565b50509050610b1f816001600160701b0316610ec8565b600080836001600160a01b0316630902f1ac6040518163ffffffff1660e01b8152600401606060405180830381865afa158015610b60573d6000803e3d6000fd5b505050506040513d601f19601f82011682018060405250810190610b849190611bf6565b5091509150610b9b826001600160701b0316610ec8565b610bad816001600160701b0316610ec8565b610bb78183611c53565b955050505050505b92915050565b6000806000600181548110610bdc57610bdc611a0f565b6000918252602082200154604080516002808252606082019092526001600160a01b03909216935081602001602082028036833701905050905060008490508482600081518110610c2f57610c2f611a0f565b602002602001019063ffffffff16908163ffffffff1681525050600082600181518110610c5e57610c5e611a0f565b63ffffffff9290921660209283029190910190910152604051630b4c774160e11b81526001600160a01b038a81166004830152898116602483015262ffffff8816604483015260009190851690631698ee8290606401602060405180830381865afa158015610cd1573d6000803e3d6000fd5b505050506040513d601f19601f82011682018060405250810190610cf59190611c79565b90506000816001600160a01b031663883bdbfd856040518263ffffffff1660e01b8152600401610d259190611c96565b600060405180830381865afa158015610d42573d6000803e3d6000fd5b505050506040513d6000823e601f3d908101601f19168201604052610d6a9190810190611d4f565b509050600081600081518110610d8257610d82611a0f565b602002602001015182600181518110610d9d57610d9d611a0f565b6020026020010151610daf9190611e1b565b90506000610dc1600386900b83611e6b565b905060008260060b128015610de55750610ddf600386900b83611ea9565b60060b15155b15610df85780610df481611ecb565b9150505b610e04818c8f8f610f0d565b9d9c50505050505050505050505050565b6000808260ff168560ff161115610e4f5785610e318487611eee565b610e3c90600a611ff5565b610e469086612004565b91509150610e74565b610e598584611eee565b610e6490600a611ff5565b610e6e9087612004565b84915091505b94509492505050565b6040516001600160a01b0382166024820152610ec59060440160408051601f198184030181529190526020810180516001600160e01b031663161765e160e11b17905261101b565b50565b610ec581604051602401610ede91815260200190565b60408051601f198184030181529190526020810180516001600160e01b031663f5b1bba960e01b17905261101b565b600080610f198661103c565b90506001600160801b036001600160a01b03821611610f9f576000610f476001600160a01b03831680612004565b9050836001600160a01b0316856001600160a01b031610610f7f57610f7a600160c01b876001600160801b031683611450565b610f97565b610f9781876001600160801b0316600160c01b611450565b925050611012565b6000610fbe6001600160a01b0383168068010000000000000000611450565b9050836001600160a01b0316856001600160a01b031610610ff657610ff1600160801b876001600160801b031683611450565b61100e565b61100e81876001600160801b0316600160801b611450565b9250505b50949350505050565b80516a636f6e736f6c652e6c6f67602083016000808483855afa5050505050565b60008060008360020b12611053578260020b611060565b8260020b61106090612023565b9050620d89e88111156110995760405162461bcd60e51b81526020600482015260016024820152601560fa1b60448201526064016105d1565b6000816001166000036110b057600160801b6110c2565b6ffffcb933bd6fad37aa2d162d1a5940015b70ffffffffffffffffffffffffffffffffff16905060028216156111015760806110fc826ffff97272373d413259a46990580e213a612004565b901c90505b600482161561112b576080611126826ffff2e50f5f656932ef12357cf3c7fdcc612004565b901c90505b6008821615611155576080611150826fffe5caca7e10e4e61c3624eaa0941cd0612004565b901c90505b601082161561117f57608061117a826fffcb9843d60f6159c9db58835c926644612004565b901c90505b60208216156111a95760806111a4826fff973b41fa98c081472e6896dfb254c0612004565b901c90505b60408216156111d35760806111ce826fff2ea16466c96a3843ec78b326b52861612004565b901c90505b60808216156111fd5760806111f8826ffe5dee046a99a2a811c461f1969c3053612004565b901c90505b610100821615611228576080611223826ffcbe86c7900a88aedcffc83b479aa3a4612004565b901c90505b61020082161561125357608061124e826ff987a7253ac413176f2b074cf7815e54612004565b901c90505b61040082161561127e576080611279826ff3392b0822b70005940c7a398e4b70f3612004565b901c90505b6108008216156112a95760806112a4826fe7159475a2c29b7443b29c7fa6e889d9612004565b901c90505b6110008216156112d45760806112cf826fd097f3bdfd2022b8845ad8f792aa5825612004565b901c90505b6120008216156112ff5760806112fa826fa9f746462d870fdf8a65dc1f90e061e5612004565b901c90505b61400082161561132a576080611325826f70d869a156d2a1b890bb3df62baf32f7612004565b901c90505b618000821615611355576080611350826f31be135f97d08fd981231505542fcfa6612004565b901c90505b6201000082161561138157608061137c826f09aa508b5b7a84e1c677de54f3e99bc9612004565b901c90505b620200008216156113ac5760806113a7826e5d6af8dedb81196699c329225ee604612004565b901c90505b620400008216156113d65760806113d1826d2216e584f5fa1ea926041bedfe98612004565b901c90505b620800008216156113fe5760806113f9826b048a170391f7dc42444e8fa2612004565b901c90505b60008460020b1315611419576114168160001961203f565b90505b61142864010000000082612053565b15611434576001611437565b60005b6114489060ff16602083901c611ad9565b949350505050565b6000808060001985870985870292508281108382030391505080600003611489576000841161147e57600080fd5b5082900490506115c1565b80841161149557600080fd5b6000848688098084039381119092039190506000856114b381612023565b169586900495938490049360008190030460010190506114d38184612004565b9093179260006114e4876003612004565b60021890506114f38188612004565b6114fe906002611b0e565b6115089082612004565b90506115148188612004565b61151f906002611b0e565b6115299082612004565b90506115358188612004565b611540906002611b0e565b61154a9082612004565b90506115568188612004565b611561906002611b0e565b61156b9082612004565b90506115778188612004565b611582906002611b0e565b61158c9082612004565b90506115988188612004565b6115a3906002611b0e565b6115ad9082612004565b90506115b98186612004565b955050505050505b9392505050565b634e487b7160e01b600052604160045260246000fd5b604051601f8201601f1916810167ffffffffffffffff81118282101715611607576116076115c8565b604052919050565b600067ffffffffffffffff821115611629576116296115c8565b5060051b60200190565b6001600160a01b0381168114610ec557600080fd5b60048110610ec557600080fd5b8015158114610ec557600080fd5b600060c0828403121561167557600080fd5b60405160c0810181811067ffffffffffffffff82111715611698576116986115c8565b60405290508082356116a981611633565b81526020838101359082015260408301356116c381611648565b80604083015250606083013560608201526080830135608082015260a08301356116ec81611655565b60a0919091015292915050565b6000602080838503121561170c57600080fd5b823567ffffffffffffffff81111561172357600080fd5b8301601f8101851361173457600080fd5b80356117476117428261160f565b6115de565b81815260c0918202830184019184820191908884111561176657600080fd5b938501935b8385101561178c5761177d8986611663565b8352938401939185019161176b565b50979650505050505050565b600080602083850312156117ab57600080fd5b823567ffffffffffffffff808211156117c357600080fd5b818501915085601f8301126117d757600080fd5b8135818111156117e657600080fd5b8660208260051b85010111156117fb57600080fd5b60209290920196919550909350505050565b600060c0828403121561181f57600080fd5b50919050565b6000806040838503121561183857600080fd5b823561184381611633565b9150602083013561185381611633565b809150509250929050565b63ffffffff81168114610ec557600080fd5b600080600080600060a0868803121561188857600080fd5b853561189381611633565b945060208601356118a381611633565b935060408601356001600160801b03811681146118bf57600080fd5b9250606086013562ffffff811681146118d757600080fd5b915060808601356118e78161185e565b809150509295509295909350565b803560ff8116811461190657600080fd5b919050565b6000806000806080858703121561192157600080fd5b84359350611931602086016118f5565b925060408501359150611946606086016118f5565b905092959194509250565b634e487b7160e01b600052602160045260246000fd5b81516000908290602080860184805b84811015611a0257825180516001600160a01b03168752848101518588015260408082015160048082106119b757634e487b7160e01b865260218152602486fd5b5090880152606081810151818901526119ec6119dd60808a016080850151815260200190565b60a08401511515815260200190565b50505060c0959095019491830191600101611976565b5093979650505050505050565b634e487b7160e01b600052603260045260246000fd5b634e487b7160e01b600052601160045260246000fd5b600060018201611a4d57611a4d611a25565b5060010190565b6000808335601e19843603018112611a6b57600080fd5b83018035915067ffffffffffffffff821115611a8657600080fd5b602001915060c081023603821315611a9d57600080fd5b9250929050565b600060c08284031215611ab657600080fd5b6115c18383611663565b600060208284031215611ad257600080fd5b5051919050565b60008219821115611aec57611aec611a25565b500190565b600060208284031215611b0357600080fd5b81356115c181611633565b600082821015611b2057611b20611a25565b500390565b60008135610bbf81611655565b8135611b3d81611633565b81546001600160a01b0319166001600160a01b039190911617815560208201356001820155600281016040830135611b7481611648565b60048110611b9257634e487b7160e01b600052602160045260246000fd5b60ff1982541660ff821681178355505050606082013560038201556080820135600482015561021e611bc660a08401611b25565b6005830160ff1981541660ff8315151681178255505050565b80516001600160701b038116811461190657600080fd5b600080600060608486031215611c0b57600080fd5b611c1484611bdf565b9250611c2260208501611bdf565b91506040840151611c328161185e565b809150509250925092565b634e487b7160e01b600052601260045260246000fd5b60006001600160701b0380841680611c6d57611c6d611c3d565b92169190910492915050565b600060208284031215611c8b57600080fd5b81516115c181611633565b6020808252825182820181905260009190848201906040850190845b81811015611cd457835163ffffffff1683529284019291840191600101611cb2565b50909695505050505050565b600082601f830112611cf157600080fd5b81516020611d016117428361160f565b82815260059290921b84018101918181019086841115611d2057600080fd5b8286015b84811015611d44578051611d3781611633565b8352918301918301611d24565b509695505050505050565b60008060408385031215611d6257600080fd5b825167ffffffffffffffff80821115611d7a57600080fd5b818501915085601f830112611d8e57600080fd5b81516020611d9e6117428361160f565b82815260059290921b84018101918181019089841115611dbd57600080fd5b948201945b83861015611deb5785518060060b8114611ddc5760008081fd5b82529482019490820190611dc2565b91880151919650909350505080821115611e0457600080fd5b50611e1185828601611ce0565b9150509250929050565b60008160060b8360060b6000811281667fffffffffffff1901831281151615611e4657611e46611a25565b81667fffffffffffff018313811615611e6157611e61611a25565b5090039392505050565b60008160060b8360060b80611e8257611e82611c3d565b667fffffffffffff19821460001982141615611ea057611ea0611a25565b90059392505050565b60008260060b80611ebc57611ebc611c3d565b808360060b0791505092915050565b60008160020b627fffff198103611ee457611ee4611a25565b6000190192915050565b600060ff821660ff841680821015611f0857611f08611a25565b90039392505050565b600181815b80851115611f4c578160001904821115611f3257611f32611a25565b80851615611f3f57918102915b93841c9390800290611f16565b509250929050565b600082611f6357506001610bbf565b81611f7057506000610bbf565b8160018114611f865760028114611f9057611fac565b6001915050610bbf565b60ff841115611fa157611fa1611a25565b50506001821b610bbf565b5060208310610133831016604e8410600b8410161715611fcf575081810a610bbf565b611fd98383611f11565b8060001904821115611fed57611fed611a25565b029392505050565b60006115c160ff841683611f54565b600081600019048311821515161561201e5761201e611a25565b500290565b6000600160ff1b820161203857612038611a25565b5060000390565b60008261204e5761204e611c3d565b500490565b60008261206257612062611c3d565b50069056fe8b117bd00ff7f24909474612aef1fcccae97e6cfcfa5d1ab18278f0659a33e6ca26469706673582212205a5d064e074a96fd576fef833e9f40d222787250ff7f43457c311918f39c1ec864736f6c634300080d0033",
    "linkReferences": {}
  }
}