{
  "abi": [
    {
      "inputs": [],
      "stateMutability": "nonpayable",
      "type": "constructor"
    },
    {
      "inputs": [],
      "name": "IncongruentTokenInOrderGroup",
      "type": "error"
    },
    {
      "inputs": [],
      "name": "InsufficientWalletBalance",
      "type": "error"
    },
    {
      "inputs": [
        {
          "internalType": "bytes32",
          "name": "orderId",
          "type": "bytes32"
        }
      ],
      "name": "OrderDoesNotExist",
      "type": "error"
    },
    {
      "anonymous": false,
      "inputs": [
        {
          "indexed": true,
          "internalType": "enum ConveyorLimitOrders.EventType",
          "name": "eventType",
          "type": "uint8"
        },
        {
          "indexed": true,
          "internalType": "address",
          "name": "sender",
          "type": "address"
        },
        {
          "components": [
            {
              "internalType": "address",
              "name": "token",
              "type": "address"
            },
            {
              "internalType": "bytes32",
              "name": "orderId",
              "type": "bytes32"
            },
            {
              "internalType": "enum ConveyorLimitOrders.OrderType",
              "name": "orderType",
              "type": "uint8"
            },
            {
              "internalType": "uint256",
              "name": "price",
              "type": "uint256"
            },
            {
              "internalType": "uint256",
              "name": "quantity",
              "type": "uint256"
            },
            {
              "internalType": "bool",
              "name": "exists",
              "type": "bool"
            }
          ],
          "indexed": true,
          "internalType": "struct ConveyorLimitOrders.Order[]",
          "name": "orders",
          "type": "tuple[]"
        }
      ],
      "name": "OrderEvent",
      "type": "event"
    },
    {
      "inputs": [
        {
          "internalType": "address[]",
          "name": "_factory",
          "type": "address[]"
        },
        {
          "internalType": "bytes32[]",
          "name": "_hexDem",
          "type": "bytes32[]"
        },
        {
          "internalType": "bool[]",
          "name": "isUniV2",
          "type": "bool[]"
        }
      ],
      "name": "addDex",
      "outputs": [],
      "stateMutability": "nonpayable",
      "type": "function"
    },
    {
      "inputs": [
        {
          "internalType": "address",
          "name": "token0",
          "type": "address"
        },
        {
          "internalType": "address",
          "name": "token1",
          "type": "address"
        }
      ],
      "name": "calculateMeanPairSpotPrice",
      "outputs": [
        {
          "internalType": "uint256",
          "name": "",
          "type": "uint256"
        }
      ],
      "stateMutability": "view",
      "type": "function"
    },
    {
      "inputs": [],
      "name": "cancelAllOrders",
      "outputs": [],
      "stateMutability": "nonpayable",
      "type": "function"
    },
    {
      "inputs": [
        {
          "internalType": "address",
          "name": "token",
          "type": "address"
        },
        {
          "internalType": "bytes32",
          "name": "orderId",
          "type": "bytes32"
        }
      ],
      "name": "cancelOrder",
      "outputs": [],
      "stateMutability": "nonpayable",
      "type": "function"
    },
    {
      "inputs": [
        {
          "internalType": "uint256",
          "name": "",
          "type": "uint256"
        }
      ],
      "name": "dexes",
      "outputs": [
        {
          "internalType": "address",
          "name": "factoryAddress",
          "type": "address"
        },
        {
          "internalType": "bytes32",
          "name": "initBytecode",
          "type": "bytes32"
        },
        {
          "internalType": "bool",
          "name": "isUniV2",
          "type": "bool"
        }
      ],
      "stateMutability": "view",
      "type": "function"
    },
    {
      "inputs": [
        {
          "components": [
            {
              "internalType": "address",
              "name": "token",
              "type": "address"
            },
            {
              "internalType": "bytes32",
              "name": "orderId",
              "type": "bytes32"
            },
            {
              "internalType": "enum ConveyorLimitOrders.OrderType",
              "name": "orderType",
              "type": "uint8"
            },
            {
              "internalType": "uint256",
              "name": "price",
              "type": "uint256"
            },
            {
              "internalType": "uint256",
              "name": "quantity",
              "type": "uint256"
            },
            {
              "internalType": "bool",
              "name": "exists",
              "type": "bool"
            }
          ],
          "internalType": "struct ConveyorLimitOrders.Order[]",
          "name": "orders",
          "type": "tuple[]"
        }
      ],
      "name": "executeOrders",
      "outputs": [],
      "stateMutability": "nonpayable",
      "type": "function"
    },
    {
      "inputs": [
        {
          "internalType": "address",
          "name": "eoaAddress",
          "type": "address"
        },
        {
          "internalType": "address",
          "name": "token",
          "type": "address"
        },
        {
          "internalType": "bytes32",
          "name": "orderId",
          "type": "bytes32"
        }
      ],
      "name": "getOrderById",
      "outputs": [
        {
          "components": [
            {
              "internalType": "address",
              "name": "token",
              "type": "address"
            },
            {
              "internalType": "bytes32",
              "name": "orderId",
              "type": "bytes32"
            },
            {
              "internalType": "enum ConveyorLimitOrders.OrderType",
              "name": "orderType",
              "type": "uint8"
            },
            {
              "internalType": "uint256",
              "name": "price",
              "type": "uint256"
            },
            {
              "internalType": "uint256",
              "name": "quantity",
              "type": "uint256"
            },
            {
              "internalType": "bool",
              "name": "exists",
              "type": "bool"
            }
          ],
          "internalType": "struct ConveyorLimitOrders.Order",
          "name": "order",
          "type": "tuple"
        }
      ],
      "stateMutability": "view",
      "type": "function"
    },
    {
      "inputs": [
        {
          "components": [
            {
              "internalType": "address",
              "name": "token",
              "type": "address"
            },
            {
              "internalType": "bytes32",
              "name": "orderId",
              "type": "bytes32"
            },
            {
              "internalType": "enum ConveyorLimitOrders.OrderType",
              "name": "orderType",
              "type": "uint8"
            },
            {
              "internalType": "uint256",
              "name": "price",
              "type": "uint256"
            },
            {
              "internalType": "uint256",
              "name": "quantity",
              "type": "uint256"
            },
            {
              "internalType": "bool",
              "name": "exists",
              "type": "bool"
            }
          ],
          "internalType": "struct ConveyorLimitOrders.Order[]",
          "name": "orderGroup",
          "type": "tuple[]"
        }
      ],
      "name": "placeOrder",
      "outputs": [
        {
          "internalType": "bytes32[]",
          "name": "",
          "type": "bytes32[]"
        }
      ],
      "stateMutability": "nonpayable",
      "type": "function"
    },
    {
      "inputs": [],
      "name": "swapAndPlaceOrders",
      "outputs": [],
      "stateMutability": "nonpayable",
      "type": "function"
    },
    {
      "inputs": [
        {
          "components": [
            {
              "internalType": "address",
              "name": "token",
              "type": "address"
            },
            {
              "internalType": "bytes32",
              "name": "orderId",
              "type": "bytes32"
            },
            {
              "internalType": "enum ConveyorLimitOrders.OrderType",
              "name": "orderType",
              "type": "uint8"
            },
            {
              "internalType": "uint256",
              "name": "price",
              "type": "uint256"
            },
            {
              "internalType": "uint256",
              "name": "quantity",
              "type": "uint256"
            },
            {
              "internalType": "bool",
              "name": "exists",
              "type": "bool"
            }
          ],
          "internalType": "struct ConveyorLimitOrders.Order",
          "name": "newOrder",
          "type": "tuple"
        }
      ],
      "name": "updateOrder",
      "outputs": [],
      "stateMutability": "nonpayable",
      "type": "function"
    }
  ],
  "bytecode": {
    "object": "0x60c0604052735c69bee701ef814a2b6a3edd4b1652cb9cc5aa6f6080908152731f98431c8ad98523631ae4a59f267346ea31f98460a052620000469060009060026200005b565b503480156200005457600080fd5b50620000dc565b828054828255906000526020600020908101928215620000b3579160200282015b82811115620000b357825182546001600160a01b0319166001600160a01b039091161782556020909201916001909101906200007c565b50620000c1929150620000c5565b5090565b5b80821115620000c15760008155600101620000c6565b6129a580620000ec6000396000f3fe608060405234801561001057600080fd5b506004361061009e5760003560e01c80636338a7c0116100665780636338a7c01461011c57806384b2167c1461015657806397ed90de146100ab578063ad0f0a2c14610169578063b68d173e1461017c57600080fd5b8063028afabf146100a35780630f3333d3146100ad578063115f8db4146100c057806353b9715b146100e95780635518a3c214610109575b600080fd5b6100ab61019d565b005b6100ab6100bb366004611d73565b6101dd565b6100d36100ce366004611e12565b610222565b6040516100e09190611e87565b60405180910390f35b6100fc6100f7366004611ecb565b610573565b6040516100e09190611f44565b6100ab610117366004611f99565b61061f565b61012f61012a366004611fb1565b61096a565b604080516001600160a01b03909416845260208401929092521515908201526060016100e0565b6100ab610164366004611fca565b6109aa565b6100ab6101773660046120c0565b610bd4565b61018f61018a3660046121a6565b610d92565b6040519081526020016100e0565b3360005260016020526040516060906101b79082906121df565b60405190819003902033600060405160008051602061295083398151915290600090a450565b3332146101e957600080fd5b60005b815181101561021e5760008282815181106102095761020961225e565b50610217915082905061228a565b90506101ec565b5050565b60606000808367ffffffffffffffff81111561024057610240611c42565b604051908082528060200260200182016040528015610269578160200160208202803683370190505b5090506000858560008181106102815761028161225e565b61029792602060c09092020190810191506122a3565b3360008181526001602081815260408084206001600160a01b03871680865292528084209092015491516370a0823160e01b815260048101949094529394509290916370a0823190602401602060405180830381865afa1580156102ff573d6000803e3d6000fd5b505050506040513d601f19601f8201168201806040525081019061032391906122c0565b905060005b8781101561050a5760008989838181106103445761034461225e565b905060c0020180360381019061035a91906122d9565b905080600001516001600160a01b0316856001600160a01b0316146103925760405163200c77f560e01b815260040160405180910390fd5b60808101516103a190856122f5565b9350838310156103c457604051633ed9d6e560e11b815260040160405180910390fd5b6060808201516040516001600160601b031933841b811660208301524260348301529288901b909216605483015260688201526088810183905260009060a80160408051808303601f190181529181528151602092830120600160a086018190523360009081528185528381206001600160a01b038c81168352908652848220848352865290849020875181546001600160a01b03191692169190911781559386015184820155918501516002840180549295508694939192909160ff199091169083600381111561049857610498611f0c565b0217905550606082015160038201556080820151600482015560a0909101516005909101805460ff19169115159190911790558651819088908a9081106104e1576104e161225e565b60209081029190910101526104f58861228a565b97505050806105039061228a565b9050610328565b503360009081526001602081815260408084206001600160a01b0388168552909152918290200183905551610542908990899061230d565b60405190819003902033600060405160008051602061295083398151915290600090a4509193505050505b92915050565b61057b611c0a565b6001600160a01b03808516600090815260016020818152604080842088861685528252808420878552825292839020835160c0810185528154909516855291820154908401526002810154909183019060ff1660038111156105df576105df611f0c565b60038111156105f0576105f0611f0c565b8152600382015460208201526004820154604082015260059091015460ff161515606090910152949350505050565b336000908152600160209081526040822090829061063f908501856122a3565b6001600160a01b039081168252602080830193909352604091820160009081208685013582528452829020825160c08101845281549092168252600181015493820193909352600283015490929183019060ff1660038111156106a4576106a4611f0c565b60038111156106b5576106b5611f0c565b8152600382015460208201526004820154604082015260059091015460ff16151560609091015260a081015190915061070c5760405163bd8da02b60e01b8152602083013560048201526024015b60405180910390fd5b336000908152600160209081526040822090829061072c908601866122a3565b6001600160a01b03166001600160a01b0316815260200190815260200160002060010154905081608001518360800135111561078557608080830151610774918501356123ad565b61077e90826122f5565b90506107a6565b8260800135826080015161079991906123ad565b6107a390826122f5565b90505b806107b460208501856122a3565b6040516370a0823160e01b81523360048201526001600160a01b0391909116906370a0823190602401602060405180830381865afa1580156107fa573d6000803e3d6000fd5b505050506040513d601f19601f8201168201806040525081019061081e91906122c0565b101561083d57604051633ed9d6e560e11b815260040160405180910390fd5b33600090815260016020908152604082208392909161085e908701876122a3565b6001600160a01b031681526020808201929092526040908101600090812060019081019490945533815292825282208592909161089d908401846122a3565b6001600160a01b031681526020808201929092526040908101600090812087840135825290925290206108d082826123d1565b5050604080516001808252818301909252600091816020015b6108f1611c0a565b8152602001906001900390816108e9579050509050610915368590038501856122d9565b816000815181106109285761092861225e565b60200260200101819052508060405161094191906121df565b60405190819003902033600160405160008051602061295083398151915290600090a450505050565b6002818154811061097a57600080fd5b60009182526020909120600390910201805460018201546002909201546001600160a01b03909116925060ff1683565b3360009081526001602090815260408083206001600160a01b0386168452825280832084845290915290206005015460ff166109fc5760405163bd8da02b60e01b815260048101829052602401610703565b3360009081526001602081815260408084206001600160a01b0387811686529083528185208686528352818520825160c08101845281549092168252938401549281019290925260028301549192919083019060ff166003811115610a6357610a63611f0c565b6003811115610a7457610a74611f0c565b81526003820154602080830191909152600483015460408084019190915260059093015460ff161515606090920191909152608083015133600090815260018084528482206001600160a01b038a16835290935292832090910180549394509092839290610ae39084906123ad565b90915550503360009081526001602081815260408084206001600160a01b03891685528252808420878552825280842080546001600160a01b031916815580840185905560028101805460ff1990811690915560038201869055600482018690556005909101805490911690558051838152808201909152919082015b610b68611c0a565b815260200190600190039081610b605790505090508281600081518110610b9157610b9161225e565b602002602001018190525080604051610baa91906121df565b60405190819003902033600260405160008051602061295083398151915290600090a45050505050565b81518351148015610be6575080518251145b610c3d5760405162461bcd60e51b815260206004820152602260248201527f496e76616c696420696e7075742c20417272206c656e677468206d69736d61746044820152610c6d60f31b6064820152608401610703565b60005b8351811015610d8c5760006040518060600160405280868481518110610c6857610c6861225e565b60200260200101516001600160a01b03168152602001858481518110610c9057610c9061225e565b60200260200101518152602001848481518110610caf57610caf61225e565b60209081029190910181015115159091526002805460018101825560009190915282517f405787fa12a823e0f2b7631cc41b3ba8828b3321ca811111fa75cd3aa3bb5ace600390920291820180546001600160a01b0319166001600160a01b03909216919091179055908201517f405787fa12a823e0f2b7631cc41b3ba8828b3321ca811111fa75cd3aa3bb5acf8201556040909101517f405787fa12a823e0f2b7631cc41b3ba8828b3321ca811111fa75cd3aa3bb5ad0909101805460ff19169115159190911790555080610d848161228a565b915050610c40565b50505050565b6000610e1e83836002805480602002602001604051908101604052809291908181526020016000905b82821015610e15576000848152602090819020604080516060810182526003860290920180546001600160a01b031683526001808201548486015260029091015460ff161515918301919091529083529092019101610dbb565b50505050610e25565b9392505050565b80516000908190600182610e3888610f95565b90506000610e4588610f95565b90506000610e53838361247e565b610e5e90600a612585565b90506000610bb89050610e8a60405180604001604052806002815260200161271d60f11b815250610ff9565b610e938661103f565b60005b8951811015610f7b57610ea88861103f565b898181518110610eba57610eba61225e565b60200260200101516040015115610f2257610f118c8c8c8481518110610ee257610ee261225e565b6020026020010151600001518d8581518110610f0057610f0061225e565b602002602001015160200151611084565b610f1b90896122f5565b9750610f6b565b610f2b8861103f565b610f568b8d85858a8f8781518110610f4557610f4561225e565b602002602001015160000151611274565b610f6090896122f5565b9750610f6b8861103f565b610f748161228a565b9050610e96565b50610f8686886125aa565b9b9a5050505050505050505050565b6000816001600160a01b031663313ce5676040518163ffffffff1660e01b8152600401602060405180830381865afa158015610fd5573d6000803e3d6000fd5b505050506040513d601f19601f8201168201806040525081019061056d91906125be565b61103c8160405160240161100d91906125e1565b60408051601f198184030181529190526020810180516001600160e01b031663104c13eb60e21b1790526114a1565b50565b61103c8160405160240161105591815260200190565b60408051601f198184030181529190526020810180516001600160e01b031663f5b1bba960e01b1790526114a1565b6040516001600160601b0319606086811b8216602084015285901b166034820152600090819084906048016040516020818303038152906040528051906020012084604051602001611106939291906001600160f81b0319815260609390931b6001600160601b03191660018401526015830191909152603582015260550190565b60408051601f198184030181528282528051602091820120838301909252600c83526b50616972206164647265737360a01b90830152915061114790610ff9565b611150816114c2565b600080826001600160a01b0316630902f1ac6040518163ffffffff1660e01b8152600401606060405180830381865afa158015611191573d6000803e3d6000fd5b505050506040513d601f19601f820116820180604052508101906111b59190612652565b50915091506111e360405180604001604052806008815260200167476f74206865726560c01b815250610ff9565b60006111ee89610f95565b905060006111fb89610f95565b905060008061121e866001600160701b031685876001600160701b03168661150a565b915091506112486040518060400160405280600581526020016452302f523160d81b815250610ff9565b6112518261103f565b61125a8161103f565b61126481836125aa565b9c9b505050505050505050505050565b60408051600280825260608201835260009283929190602083019080368337019050509050600084905084826000815181106112b2576112b261225e565b602002602001019063ffffffff16908163ffffffff16815250506000826001815181106112e1576112e161225e565b63ffffffff9290921660209283029190910190910152604051630b4c774160e11b81526001600160a01b038a81166004830152898116602483015262ffffff8816604483015260009190861690631698ee8290606401602060405180830381865afa158015611354573d6000803e3d6000fd5b505050506040513d601f19601f8201168201806040525081019061137891906126a2565b90506000816001600160a01b031663883bdbfd856040518263ffffffff1660e01b81526004016113a891906126bf565b600060405180830381865afa1580156113c5573d6000803e3d6000fd5b505050506040513d6000823e601f3d908101601f191682016040526113ed9190810190612761565b5090506000816000815181106114055761140561225e565b6020026020010151826001815181106114205761142061225e565b6020026020010151611432919061282d565b90506000611444600386900b8361287d565b905060008260060b1280156114685750611462600386900b836128bb565b60060b15155b1561147b5780611477816128dd565b9150505b611490818c6001600160701b03168f8f611572565b9d9c50505050505050505050505050565b80516a636f6e736f6c652e6c6f67602083016000808483855afa5050505050565b6040516001600160a01b038216602482015261103c9060440160408051601f198184030181529190526020810180516001600160e01b031663161765e160e11b1790526114a1565b6000808260ff168560ff1611156115445785611526848761247e565b61153190600a612585565b61153b9086612900565b91509150611569565b61154e858461247e565b61155990600a612585565b6115639087612900565b84915091505b94509492505050565b60008061157e86611680565b90506001600160801b036001600160a01b038216116116045760006115ac6001600160a01b03831680612900565b9050836001600160a01b0316856001600160a01b0316106115e4576115df600160c01b876001600160801b031683611a94565b6115fc565b6115fc81876001600160801b0316600160c01b611a94565b925050611677565b60006116236001600160a01b0383168068010000000000000000611a94565b9050836001600160a01b0316856001600160a01b03161061165b57611656600160801b876001600160801b031683611a94565b611673565b61167381876001600160801b0316600160801b611a94565b9250505b50949350505050565b60008060008360020b12611697578260020b6116a4565b8260020b6116a49061291f565b9050620d89e88111156116dd5760405162461bcd60e51b81526020600482015260016024820152601560fa1b6044820152606401610703565b6000816001166000036116f457600160801b611706565b6ffffcb933bd6fad37aa2d162d1a5940015b70ffffffffffffffffffffffffffffffffff1690506002821615611745576080611740826ffff97272373d413259a46990580e213a612900565b901c90505b600482161561176f57608061176a826ffff2e50f5f656932ef12357cf3c7fdcc612900565b901c90505b6008821615611799576080611794826fffe5caca7e10e4e61c3624eaa0941cd0612900565b901c90505b60108216156117c35760806117be826fffcb9843d60f6159c9db58835c926644612900565b901c90505b60208216156117ed5760806117e8826fff973b41fa98c081472e6896dfb254c0612900565b901c90505b6040821615611817576080611812826fff2ea16466c96a3843ec78b326b52861612900565b901c90505b608082161561184157608061183c826ffe5dee046a99a2a811c461f1969c3053612900565b901c90505b61010082161561186c576080611867826ffcbe86c7900a88aedcffc83b479aa3a4612900565b901c90505b610200821615611897576080611892826ff987a7253ac413176f2b074cf7815e54612900565b901c90505b6104008216156118c25760806118bd826ff3392b0822b70005940c7a398e4b70f3612900565b901c90505b6108008216156118ed5760806118e8826fe7159475a2c29b7443b29c7fa6e889d9612900565b901c90505b611000821615611918576080611913826fd097f3bdfd2022b8845ad8f792aa5825612900565b901c90505b61200082161561194357608061193e826fa9f746462d870fdf8a65dc1f90e061e5612900565b901c90505b61400082161561196e576080611969826f70d869a156d2a1b890bb3df62baf32f7612900565b901c90505b618000821615611999576080611994826f31be135f97d08fd981231505542fcfa6612900565b901c90505b620100008216156119c55760806119c0826f09aa508b5b7a84e1c677de54f3e99bc9612900565b901c90505b620200008216156119f05760806119eb826e5d6af8dedb81196699c329225ee604612900565b901c90505b62040000821615611a1a576080611a15826d2216e584f5fa1ea926041bedfe98612900565b901c90505b62080000821615611a42576080611a3d826b048a170391f7dc42444e8fa2612900565b901c90505b60008460020b1315611a5d57611a5a816000196125aa565b90505b611a6c6401000000008261293b565b15611a78576001611a7b565b60005b611a8c9060ff16602083901c6122f5565b949350505050565b6000808060001985870985870292508281108382030391505080600003611acd5760008411611ac257600080fd5b508290049050610e1e565b808411611ad957600080fd5b600084868809808403938111909203919050600085611af78161291f565b16958690049593849004936000819003046001019050611b178184612900565b909317926000611b28876003612900565b6002189050611b378188612900565b611b429060026123ad565b611b4c9082612900565b9050611b588188612900565b611b639060026123ad565b611b6d9082612900565b9050611b798188612900565b611b849060026123ad565b611b8e9082612900565b9050611b9a8188612900565b611ba59060026123ad565b611baf9082612900565b9050611bbb8188612900565b611bc69060026123ad565b611bd09082612900565b9050611bdc8188612900565b611be79060026123ad565b611bf19082612900565b9050611bfd8186612900565b9998505050505050505050565b6040805160c0810182526000808252602082018190529091820190815260200160008152602001600081526020016000151581525090565b634e487b7160e01b600052604160045260246000fd5b604051601f8201601f1916810167ffffffffffffffff81118282101715611c8157611c81611c42565b604052919050565b600067ffffffffffffffff821115611ca357611ca3611c42565b5060051b60200190565b6001600160a01b038116811461103c57600080fd5b6004811061103c57600080fd5b801515811461103c57600080fd5b600060c08284031215611cef57600080fd5b60405160c0810181811067ffffffffffffffff82111715611d1257611d12611c42565b6040529050808235611d2381611cad565b8152602083810135908201526040830135611d3d81611cc2565b80604083015250606083013560608201526080830135608082015260a0830135611d6681611ccf565b60a0919091015292915050565b60006020808385031215611d8657600080fd5b823567ffffffffffffffff811115611d9d57600080fd5b8301601f81018513611dae57600080fd5b8035611dc1611dbc82611c89565b611c58565b81815260c09182028301840191848201919088841115611de057600080fd5b938501935b83851015611e0657611df78986611cdd565b83529384019391850191611de5565b50979650505050505050565b60008060208385031215611e2557600080fd5b823567ffffffffffffffff80821115611e3d57600080fd5b818501915085601f830112611e5157600080fd5b813581811115611e6057600080fd5b86602060c083028501011115611e7557600080fd5b60209290920196919550909350505050565b6020808252825182820181905260009190848201906040850190845b81811015611ebf57835183529284019291840191600101611ea3565b50909695505050505050565b600080600060608486031215611ee057600080fd5b8335611eeb81611cad565b92506020840135611efb81611cad565b929592945050506040919091013590565b634e487b7160e01b600052602160045260246000fd5b60048110611f4057634e487b7160e01b600052602160045260246000fd5b9052565b81516001600160a01b031681526020808301519082015260408083015160c0830191611f7290840182611f22565b50606083015160608301526080830151608083015260a0830151151560a083015292915050565b600060c08284031215611fab57600080fd5b50919050565b600060208284031215611fc357600080fd5b5035919050565b60008060408385031215611fdd57600080fd5b8235611fe881611cad565b946020939093013593505050565b600082601f83011261200757600080fd5b81356020612017611dbc83611c89565b82815260059290921b8401810191818101908684111561203657600080fd5b8286015b84811015612051578035835291830191830161203a565b509695505050505050565b600082601f83011261206d57600080fd5b8135602061207d611dbc83611c89565b82815260059290921b8401810191818101908684111561209c57600080fd5b8286015b848110156120515780356120b381611ccf565b83529183019183016120a0565b6000806000606084860312156120d557600080fd5b833567ffffffffffffffff808211156120ed57600080fd5b818601915086601f83011261210157600080fd5b81356020612111611dbc83611c89565b82815260059290921b8401810191818101908a84111561213057600080fd5b948201945b8386101561215757853561214881611cad565b82529482019490820190612135565b9750508701359250508082111561216d57600080fd5b61217987838801611ff6565b9350604086013591508082111561218f57600080fd5b5061219c8682870161205c565b9150509250925092565b600080604083850312156121b957600080fd5b82356121c481611cad565b915060208301356121d481611cad565b809150509250929050565b815160009082906020808601845b8381101561225257815180516001600160a01b03168652838101518487015260408082015161221f9082890190611f22565b50606081810151908701526080808201519087015260a09081015115159086015260c090940193908201906001016121ed565b50929695505050505050565b634e487b7160e01b600052603260045260246000fd5b634e487b7160e01b600052601160045260246000fd5b60006001820161229c5761229c612274565b5060010190565b6000602082840312156122b557600080fd5b8135610e1e81611cad565b6000602082840312156122d257600080fd5b5051919050565b600060c082840312156122eb57600080fd5b610e1e8383611cdd565b6000821982111561230857612308612274565b500190565b60008184825b858110156123a257813561232681611cad565b6001600160a01b031683526020828101359084015260408083013561234a81611cc2565b61235682860182611f22565b5050606082810135908401526080808301359084015260a08083013561237b81611ccf565b61238c828601821515815260200190565b50505060c0928301929190910190600101612313565b509095945050505050565b6000828210156123bf576123bf612274565b500390565b6000813561056d81611ccf565b81356123dc81611cad565b81546001600160a01b0319166001600160a01b03919091161781556020820135600182015560028101604083013561241381611cc2565b6004811061243157634e487b7160e01b600052602160045260246000fd5b60ff1982541660ff821681178355505050606082013560038201556080820135600482015561021e61246560a084016123c4565b6005830160ff1981541660ff8315151681178255505050565b600060ff821660ff84168082101561249857612498612274565b90039392505050565b600181815b808511156124dc5781600019048211156124c2576124c2612274565b808516156124cf57918102915b93841c93908002906124a6565b509250929050565b6000826124f35750600161056d565b816125005750600061056d565b816001811461251657600281146125205761253c565b600191505061056d565b60ff84111561253157612531612274565b50506001821b61056d565b5060208310610133831016604e8410600b841016171561255f575081810a61056d565b61256983836124a1565b806000190482111561257d5761257d612274565b029392505050565b6000610e1e60ff8416836124e4565b634e487b7160e01b600052601260045260246000fd5b6000826125b9576125b9612594565b500490565b6000602082840312156125d057600080fd5b815160ff81168114610e1e57600080fd5b600060208083528351808285015260005b8181101561260e578581018301518582016040015282016125f2565b81811115612620576000604083870101525b50601f01601f1916929092016040019392505050565b80516001600160701b038116811461264d57600080fd5b919050565b60008060006060848603121561266757600080fd5b61267084612636565b925061267e60208501612636565b9150604084015163ffffffff8116811461269757600080fd5b809150509250925092565b6000602082840312156126b457600080fd5b8151610e1e81611cad565b6020808252825182820181905260009190848201906040850190845b81811015611ebf57835163ffffffff16835292840192918401916001016126db565b600082601f83011261270e57600080fd5b8151602061271e611dbc83611c89565b82815260059290921b8401810191818101908684111561273d57600080fd5b8286015b8481101561205157805161275481611cad565b8352918301918301612741565b6000806040838503121561277457600080fd5b825167ffffffffffffffff8082111561278c57600080fd5b818501915085601f8301126127a057600080fd5b815160206127b0611dbc83611c89565b82815260059290921b840181019181810190898411156127cf57600080fd5b948201945b838610156127fd5785518060060b81146127ee5760008081fd5b825294820194908201906127d4565b9188015191965090935050508082111561281657600080fd5b50612823858286016126fd565b9150509250929050565b60008160060b8360060b6000811281667fffffffffffff190183128115161561285857612858612274565b81667fffffffffffff01831381161561287357612873612274565b5090039392505050565b60008160060b8360060b8061289457612894612594565b667fffffffffffff198214600019821416156128b2576128b2612274565b90059392505050565b60008260060b806128ce576128ce612594565b808360060b0791505092915050565b60008160020b627fffff1981036128f6576128f6612274565b6000190192915050565b600081600019048311821515161561291a5761291a612274565b500290565b6000600160ff1b820161293457612934612274565b5060000390565b60008261294a5761294a612594565b50069056fe8b117bd00ff7f24909474612aef1fcccae97e6cfcfa5d1ab18278f0659a33e6ca264697066735822122023ad75d39f58d42c3e5749edf5090e44da2921c4ba0362f0b49ed2bb1f685b3764736f6c634300080d0033",
    "linkReferences": {}
  }
}