{
  "abi": [
    {
      "inputs": [],
      "stateMutability": "nonpayable",
      "type": "constructor"
    },
    {
      "inputs": [],
      "name": "IncongruentTokenInOrderGroup",
      "type": "error"
    },
    {
      "inputs": [],
      "name": "InsufficientWalletBalance",
      "type": "error"
    },
    {
      "inputs": [
        {
          "internalType": "bytes32",
          "name": "orderId",
          "type": "bytes32"
        }
      ],
      "name": "OrderDoesNotExist",
      "type": "error"
    },
    {
      "anonymous": false,
      "inputs": [
        {
          "indexed": true,
          "internalType": "enum ConveyorLimitOrders.EventType",
          "name": "eventType",
          "type": "uint8"
        },
        {
          "indexed": true,
          "internalType": "address",
          "name": "sender",
          "type": "address"
        },
        {
          "components": [
            {
              "internalType": "address",
              "name": "token",
              "type": "address"
            },
            {
              "internalType": "bytes32",
              "name": "orderId",
              "type": "bytes32"
            },
            {
              "internalType": "enum ConveyorLimitOrders.OrderType",
              "name": "orderType",
              "type": "uint8"
            },
            {
              "internalType": "uint256",
              "name": "price",
              "type": "uint256"
            },
            {
              "internalType": "uint256",
              "name": "quantity",
              "type": "uint256"
            },
            {
              "internalType": "bool",
              "name": "exists",
              "type": "bool"
            }
          ],
          "indexed": true,
          "internalType": "struct ConveyorLimitOrders.Order[]",
          "name": "orders",
          "type": "tuple[]"
        }
      ],
      "name": "OrderEvent",
      "type": "event"
    },
    {
      "inputs": [
        {
          "internalType": "address[]",
          "name": "_factory",
          "type": "address[]"
        },
        {
          "internalType": "bytes32[]",
          "name": "_hexDem",
          "type": "bytes32[]"
        },
        {
          "internalType": "bool[]",
          "name": "isUniV2",
          "type": "bool[]"
        }
      ],
      "name": "addDex",
      "outputs": [],
      "stateMutability": "nonpayable",
      "type": "function"
    },
    {
      "inputs": [
        {
          "internalType": "address",
          "name": "token0",
          "type": "address"
        },
        {
          "internalType": "address",
          "name": "token1",
          "type": "address"
        }
      ],
      "name": "calculateMeanPairSpotPrice",
      "outputs": [
        {
          "internalType": "uint256",
          "name": "",
          "type": "uint256"
        }
      ],
      "stateMutability": "view",
      "type": "function"
    },
    {
      "inputs": [
        {
          "internalType": "address",
          "name": "token0",
          "type": "address"
        },
        {
          "internalType": "address",
          "name": "token1",
          "type": "address"
        }
      ],
      "name": "calculateMinPairSpotPrice",
      "outputs": [
        {
          "internalType": "uint256",
          "name": "",
          "type": "uint256"
        }
      ],
      "stateMutability": "view",
      "type": "function"
    },
    {
      "inputs": [],
      "name": "cancelAllOrders",
      "outputs": [],
      "stateMutability": "nonpayable",
      "type": "function"
    },
    {
      "inputs": [
        {
          "internalType": "address",
          "name": "token",
          "type": "address"
        },
        {
          "internalType": "bytes32",
          "name": "orderId",
          "type": "bytes32"
        }
      ],
      "name": "cancelOrder",
      "outputs": [],
      "stateMutability": "nonpayable",
      "type": "function"
    },
    {
      "inputs": [
        {
          "internalType": "uint256",
          "name": "",
          "type": "uint256"
        }
      ],
      "name": "dexes",
      "outputs": [
        {
          "internalType": "address",
          "name": "factoryAddress",
          "type": "address"
        },
        {
          "internalType": "bytes32",
          "name": "initBytecode",
          "type": "bytes32"
        },
        {
          "internalType": "bool",
          "name": "isUniV2",
          "type": "bool"
        }
      ],
      "stateMutability": "view",
      "type": "function"
    },
    {
      "inputs": [
        {
          "components": [
            {
              "internalType": "address",
              "name": "token",
              "type": "address"
            },
            {
              "internalType": "bytes32",
              "name": "orderId",
              "type": "bytes32"
            },
            {
              "internalType": "enum ConveyorLimitOrders.OrderType",
              "name": "orderType",
              "type": "uint8"
            },
            {
              "internalType": "uint256",
              "name": "price",
              "type": "uint256"
            },
            {
              "internalType": "uint256",
              "name": "quantity",
              "type": "uint256"
            },
            {
              "internalType": "bool",
              "name": "exists",
              "type": "bool"
            }
          ],
          "internalType": "struct ConveyorLimitOrders.Order[]",
          "name": "orders",
          "type": "tuple[]"
        }
      ],
      "name": "executeOrders",
      "outputs": [],
      "stateMutability": "nonpayable",
      "type": "function"
    },
    {
      "inputs": [
        {
          "internalType": "address",
          "name": "eoaAddress",
          "type": "address"
        },
        {
          "internalType": "address",
          "name": "token",
          "type": "address"
        },
        {
          "internalType": "bytes32",
          "name": "orderId",
          "type": "bytes32"
        }
      ],
      "name": "getOrderById",
      "outputs": [
        {
          "components": [
            {
              "internalType": "address",
              "name": "token",
              "type": "address"
            },
            {
              "internalType": "bytes32",
              "name": "orderId",
              "type": "bytes32"
            },
            {
              "internalType": "enum ConveyorLimitOrders.OrderType",
              "name": "orderType",
              "type": "uint8"
            },
            {
              "internalType": "uint256",
              "name": "price",
              "type": "uint256"
            },
            {
              "internalType": "uint256",
              "name": "quantity",
              "type": "uint256"
            },
            {
              "internalType": "bool",
              "name": "exists",
              "type": "bool"
            }
          ],
          "internalType": "struct ConveyorLimitOrders.Order",
          "name": "order",
          "type": "tuple"
        }
      ],
      "stateMutability": "view",
      "type": "function"
    },
    {
      "inputs": [
        {
          "components": [
            {
              "internalType": "address",
              "name": "token",
              "type": "address"
            },
            {
              "internalType": "bytes32",
              "name": "orderId",
              "type": "bytes32"
            },
            {
              "internalType": "enum ConveyorLimitOrders.OrderType",
              "name": "orderType",
              "type": "uint8"
            },
            {
              "internalType": "uint256",
              "name": "price",
              "type": "uint256"
            },
            {
              "internalType": "uint256",
              "name": "quantity",
              "type": "uint256"
            },
            {
              "internalType": "bool",
              "name": "exists",
              "type": "bool"
            }
          ],
          "internalType": "struct ConveyorLimitOrders.Order[]",
          "name": "orderGroup",
          "type": "tuple[]"
        }
      ],
      "name": "placeOrder",
      "outputs": [
        {
          "internalType": "bytes32[]",
          "name": "",
          "type": "bytes32[]"
        }
      ],
      "stateMutability": "nonpayable",
      "type": "function"
    },
    {
      "inputs": [],
      "name": "swapAndPlaceOrders",
      "outputs": [],
      "stateMutability": "nonpayable",
      "type": "function"
    },
    {
      "inputs": [
        {
          "components": [
            {
              "internalType": "address",
              "name": "token",
              "type": "address"
            },
            {
              "internalType": "bytes32",
              "name": "orderId",
              "type": "bytes32"
            },
            {
              "internalType": "enum ConveyorLimitOrders.OrderType",
              "name": "orderType",
              "type": "uint8"
            },
            {
              "internalType": "uint256",
              "name": "price",
              "type": "uint256"
            },
            {
              "internalType": "uint256",
              "name": "quantity",
              "type": "uint256"
            },
            {
              "internalType": "bool",
              "name": "exists",
              "type": "bool"
            }
          ],
          "internalType": "struct ConveyorLimitOrders.Order",
          "name": "newOrder",
          "type": "tuple"
        }
      ],
      "name": "updateOrder",
      "outputs": [],
      "stateMutability": "nonpayable",
      "type": "function"
    }
  ],
  "bytecode": {
    "object": "0x60c0604052735c69bee701ef814a2b6a3edd4b1652cb9cc5aa6f6080908152731f98431c8ad98523631ae4a59f267346ea31f98460a052620000469060009060026200005b565b503480156200005457600080fd5b50620000dc565b828054828255906000526020600020908101928215620000b3579160200282015b82811115620000b357825182546001600160a01b0319166001600160a01b039091161782556020909201916001909101906200007c565b50620000c1929150620000c5565b5090565b5b80821115620000c15760008155600101620000c6565b612dfe80620000ec6000396000f3fe608060405234801561001057600080fd5b50600436106100a95760003560e01c80636338a7c0116100715780636338a7c01461012757806384b2167c1461016157806397ed90de146100b6578063ac8d481214610174578063ad0f0a2c14610195578063b68d173e146101a857600080fd5b8063028afabf146100ae5780630f3333d3146100b8578063115f8db4146100cb57806353b9715b146100f45780635518a3c214610114575b600080fd5b6100b66101bb565b005b6100b66100c6366004612191565b6101fb565b6100de6100d9366004612230565b610240565b6040516100eb91906122a5565b60405180910390f35b6101076101023660046122e9565b610591565b6040516100eb9190612362565b6100b66101223660046123b7565b61063d565b61013a6101353660046123cf565b610988565b604080516001600160a01b03909416845260208401929092521515908201526060016100eb565b6100b661016f3660046123e8565b6109c8565b610187610182366004612414565b610bf2565b6040519081526020016100eb565b6100b66101a3366004612517565b610c8a565b6101876101b6366004612414565b610e48565b3360005260016020526040516060906101d59082906125fd565b604051908190039020336000604051600080516020612da983398151915290600090a450565b33321461020757600080fd5b60005b815181101561023c5760008282815181106102275761022761267c565b5061023591508290506126a8565b905061020a565b5050565b60606000808367ffffffffffffffff81111561025e5761025e612060565b604051908082528060200260200182016040528015610287578160200160208202803683370190505b50905060008585600081811061029f5761029f61267c565b6102b592602060c09092020190810191506126c1565b3360008181526001602081815260408084206001600160a01b03871680865292528084209092015491516370a0823160e01b815260048101949094529394509290916370a0823190602401602060405180830381865afa15801561031d573d6000803e3d6000fd5b505050506040513d601f19601f8201168201806040525081019061034191906126de565b905060005b878110156105285760008989838181106103625761036261267c565b905060c0020180360381019061037891906126f7565b905080600001516001600160a01b0316856001600160a01b0316146103b05760405163200c77f560e01b815260040160405180910390fd5b60808101516103bf9085612713565b9350838310156103e257604051633ed9d6e560e11b815260040160405180910390fd5b6060808201516040516001600160601b031933841b811660208301524260348301529288901b909216605483015260688201526088810183905260009060a80160408051808303601f190181529181528151602092830120600160a086018190523360009081528185528381206001600160a01b038c81168352908652848220848352865290849020875181546001600160a01b03191692169190911781559386015184820155918501516002840180549295508694939192909160ff19909116908360038111156104b6576104b661232a565b0217905550606082015160038201556080820151600482015560a0909101516005909101805460ff19169115159190911790558651819088908a9081106104ff576104ff61267c565b6020908102919091010152610513886126a8565b9750505080610521906126a8565b9050610346565b503360009081526001602081815260408084206001600160a01b0388168552909152918290200183905551610560908990899061272b565b604051908190039020336000604051600080516020612da983398151915290600090a4509193505050505b92915050565b610599612028565b6001600160a01b03808516600090815260016020818152604080842088861685528252808420878552825292839020835160c0810185528154909516855291820154908401526002810154909183019060ff1660038111156105fd576105fd61232a565b600381111561060e5761060e61232a565b8152600382015460208201526004820154604082015260059091015460ff161515606090910152949350505050565b336000908152600160209081526040822090829061065d908501856126c1565b6001600160a01b039081168252602080830193909352604091820160009081208685013582528452829020825160c08101845281549092168252600181015493820193909352600283015490929183019060ff1660038111156106c2576106c261232a565b60038111156106d3576106d361232a565b8152600382015460208201526004820154604082015260059091015460ff16151560609091015260a081015190915061072a5760405163bd8da02b60e01b8152602083013560048201526024015b60405180910390fd5b336000908152600160209081526040822090829061074a908601866126c1565b6001600160a01b03166001600160a01b031681526020019081526020016000206001015490508160800151836080013511156107a357608080830151610792918501356127cb565b61079c9082612713565b90506107c4565b826080013582608001516107b791906127cb565b6107c19082612713565b90505b806107d260208501856126c1565b6040516370a0823160e01b81523360048201526001600160a01b0391909116906370a0823190602401602060405180830381865afa158015610818573d6000803e3d6000fd5b505050506040513d601f19601f8201168201806040525081019061083c91906126de565b101561085b57604051633ed9d6e560e11b815260040160405180910390fd5b33600090815260016020908152604082208392909161087c908701876126c1565b6001600160a01b03168152602080820192909252604090810160009081206001908101949094553381529282528220859290916108bb908401846126c1565b6001600160a01b031681526020808201929092526040908101600090812087840135825290925290206108ee82826127ef565b5050604080516001808252818301909252600091816020015b61090f612028565b815260200190600190039081610907579050509050610933368590038501856126f7565b816000815181106109465761094661267c565b60200260200101819052508060405161095f91906125fd565b604051908190039020336001604051600080516020612da983398151915290600090a450505050565b6002818154811061099857600080fd5b60009182526020909120600390910201805460018201546002909201546001600160a01b03909116925060ff1683565b3360009081526001602090815260408083206001600160a01b0386168452825280832084845290915290206005015460ff16610a1a5760405163bd8da02b60e01b815260048101829052602401610721565b3360009081526001602081815260408084206001600160a01b0387811686529083528185208686528352818520825160c08101845281549092168252938401549281019290925260028301549192919083019060ff166003811115610a8157610a8161232a565b6003811115610a9257610a9261232a565b81526003820154602080830191909152600483015460408084019190915260059093015460ff161515606090920191909152608083015133600090815260018084528482206001600160a01b038a16835290935292832090910180549394509092839290610b019084906127cb565b90915550503360009081526001602081815260408084206001600160a01b03891685528252808420878552825280842080546001600160a01b031916815580840185905560028101805460ff1990811690915560038201869055600482018690556005909101805490911690558051838152808201909152919082015b610b86612028565b815260200190600190039081610b7e5790505090508281600081518110610baf57610baf61267c565b602002602001018190525080604051610bc891906125fd565b604051908190039020336002604051600080516020612da983398151915290600090a45050505050565b6000610c8383836002805480602002602001604051908101604052809291908181526020016000905b82821015610c75576000848152602090819020604080516060810182526003860290920180546001600160a01b031683526001808201548486015260029091015460ff161515918301919091529083529092019101610c1b565b505050506001610bb8610ed9565b9392505050565b81518351148015610c9c575080518251145b610cf35760405162461bcd60e51b815260206004820152602260248201527f496e76616c696420696e7075742c20417272206c656e677468206d69736d61746044820152610c6d60f31b6064820152608401610721565b60005b8351811015610e425760006040518060600160405280868481518110610d1e57610d1e61267c565b60200260200101516001600160a01b03168152602001858481518110610d4657610d4661267c565b60200260200101518152602001848481518110610d6557610d6561267c565b60209081029190910181015115159091526002805460018101825560009190915282517f405787fa12a823e0f2b7631cc41b3ba8828b3321ca811111fa75cd3aa3bb5ace600390920291820180546001600160a01b0319166001600160a01b03909216919091179055908201517f405787fa12a823e0f2b7631cc41b3ba8828b3321ca811111fa75cd3aa3bb5acf8201556040909101517f405787fa12a823e0f2b7631cc41b3ba8828b3321ca811111fa75cd3aa3bb5ad0909101805460ff19169115159190911790555080610e3a816126a8565b915050610cf6565b50505050565b6000610c8383836002805480602002602001604051908101604052809291908181526020016000905b82821015610ecb576000848152602090819020604080516060810182526003860290920180546001600160a01b031683526001808201548486015260029091015460ff161515918301919091529083529092019101610e71565b505050506001610bb8610ffe565b600060001981610ee98888611117565b905060005b8651811015610fe257868181518110610f0957610f0961267c565b60200260200101516040015115610f86576000610f628a8a8a8581518110610f3357610f3361267c565b6020026020010151600001518b8681518110610f5157610f5161267c565b602002602001015160200151611171565b90508381108015610f7257508015155b610f7c5783610f7e565b805b935050610fd2565b6000610fb28a8a85898c8781518110610fa157610fa161267c565b6020026020010151600001516114e4565b90508381108015610fc257508015155b610fcc5783610fce565b805b9350505b610fdb816126a8565b9050610eee565b508119610ff157610ff161289c565b5090505b95945050505050565b600080808061100d8989611117565b905060005b87518110156110fc5787818151811061102d5761102d61267c565b602002602001015160400151156110a55760006110758b8b8b85815181106110575761105761267c565b6020026020010151600001518c8681518110610f5157610f5161267c565b90506110818186612713565b94508015611090576001611093565b60005b61109d90856128b2565b9350506110ec565b60006110c08b8b858a8d8781518110610fa157610fa161267c565b90506110cc8186612713565b945080156110db5760016110de565b60005b6110e890856128b2565b9350505b6110f5816126a8565b9050611012565b5061110a60ff8316846128ed565b9998505050505050505050565b60008061112384611733565b9050600061113084611733565b905060008160ff168360ff16106111505761114b8284612901565b61115a565b61115a8383612901565b905061116781600a612a08565b9695505050505050565b6000836001600160a01b0316856001600160a01b0316036111e45760405162461bcd60e51b815260206004820152602760248201527f496e76616c696420546f6b656e20506169722c204944454e544943414c2041646044820152666472657373277360c81b6064820152608401610721565b6000806111f18787611797565b6040516001600160601b0319606084811b8216602084015283901b166034820152919350915060009086906048016040516020818303038152906040528051906020012086604051602001611276939291906001600160f81b0319815260609390931b6001600160601b03191660018401526015830191909152603582015260550190565b60408051601f19818403018152919052805160209091012090506001600160a01b0381166112db5760405162461bcd60e51b815260206004820152601260248201527124b73b30b634b2103a37b5b2b7103830b4b960711b6044820152606401610721565b60405163e6a4390560e01b81526001600160a01b0384811660048301528381166024830152808316919088169063e6a4390590604401602060405180830381865afa15801561132e573d6000803e3d6000fd5b505050506040513d601f19601f820116820180604052508101906113529190612a17565b6001600160a01b031614611418576113906040518060400160405280600f81526020016e466163746f7279204164647265737360881b81525061188e565b60405163e6a4390560e01b81526001600160a01b038481166004830152838116602483015261140c919088169063e6a4390590604401602060405180830381865afa1580156113e3573d6000803e3d6000fd5b505050506040513d601f19601f820116820180604052508101906114079190612a17565b6118d4565b600093505050506114dc565b600080826001600160a01b0316630902f1ac6040518163ffffffff1660e01b8152600401606060405180830381865afa158015611459573d6000803e3d6000fd5b505050506040513d601f19601f8201168201806040525081019061147d9190612a50565b5091509150600061148d86611733565b9050600061149a86611733565b90506000806114bd866001600160701b031685876001600160701b03168661191c565b90925090506114d081600984901b6128ed565b99505050505050505050505b949350505050565b604080516002808252606082018352600092839291906020830190803683370190505090506000600190506001826000815181106115245761152461267c565b602002602001019063ffffffff16908163ffffffff16815250506000826001815181106115535761155361267c565b63ffffffff9290921660209283029190910190910152604051630b4c774160e11b81526001600160a01b038981166004830152888116602483015262ffffff8716604483015260009190861690631698ee8290606401602060405180830381865afa1580156115c6573d6000803e3d6000fd5b505050506040513d601f19601f820116820180604052508101906115ea9190612a17565b90506001600160a01b0381166116065760009350505050610ff5565b60405163883bdbfd60e01b81526000906001600160a01b0383169063883bdbfd90611635908790600401612aa0565b600060405180830381865afa158015611652573d6000803e3d6000fd5b505050506040513d6000823e601f3d908101601f1916820160405261167a9190810190612b42565b5090506000816000815181106116925761169261267c565b6020026020010151826001815181106116ad576116ad61267c565b60200260200101516116bf9190612c0e565b905060006116d1600386900b83612c5e565b905060008260060b1280156116f557506116ef600386900b83612c9c565b60060b15155b15611708578061170481612cbe565b9150505b600061171f828c6001600160701b03168f8f611984565b60091b9d9c50505050505050505050505050565b6000816001600160a01b031663313ce5676040518163ffffffff1660e01b8152600401602060405180830381865afa158015611773573d6000803e3d6000fd5b505050506040513d601f19601f8201168201806040525081019061058b9190612ce1565b600080826001600160a01b0316846001600160a01b0316036118095760405162461bcd60e51b815260206004820152602560248201527f556e697377617056324c6962726172793a204944454e544943414c5f41444452604482015264455353455360d81b6064820152608401610721565b826001600160a01b0316846001600160a01b03161061182957828461182c565b83835b90925090506001600160a01b0382166118875760405162461bcd60e51b815260206004820152601e60248201527f556e697377617056324c6962726172793a205a45524f5f4144445245535300006044820152606401610721565b9250929050565b6118d1816040516024016118a29190612d04565b60408051601f198184030181529190526020810180516001600160e01b031663104c13eb60e21b179052611a92565b50565b6040516001600160a01b03821660248201526118d19060440160408051601f198184030181529190526020810180516001600160e01b031663161765e160e11b179052611a92565b6000808260ff168560ff16111561195657856119388487612901565b61194390600a612a08565b61194d9086612d59565b9150915061197b565b6119608584612901565b61196b90600a612a08565b6119759087612d59565b84915091505b94509492505050565b60008061199086611ab3565b90506001600160801b036001600160a01b03821611611a165760006119be6001600160a01b03831680612d59565b9050836001600160a01b0316856001600160a01b0316106119f6576119f1600160c01b876001600160801b031683611ebf565b611a0e565b611a0e81876001600160801b0316600160c01b611ebf565b925050611a89565b6000611a356001600160a01b0383168068010000000000000000611ebf565b9050836001600160a01b0316856001600160a01b031610611a6d57611a68600160801b876001600160801b031683611ebf565b611a85565b611a8581876001600160801b0316600160801b611ebf565b9250505b50949350505050565b80516a636f6e736f6c652e6c6f67602083016000808483855afa5050505050565b60008060008360020b12611aca578260020b611ad7565b8260020b611ad790612d78565b9050620d89e8811115611b105760405162461bcd60e51b81526020600482015260016024820152601560fa1b6044820152606401610721565b600081600116600003611b2757600160801b611b39565b6ffffcb933bd6fad37aa2d162d1a5940015b70ffffffffffffffffffffffffffffffffff1690506002821615611b78576080611b73826ffff97272373d413259a46990580e213a612d59565b901c90505b6004821615611ba2576080611b9d826ffff2e50f5f656932ef12357cf3c7fdcc612d59565b901c90505b6008821615611bcc576080611bc7826fffe5caca7e10e4e61c3624eaa0941cd0612d59565b901c90505b6010821615611bf6576080611bf1826fffcb9843d60f6159c9db58835c926644612d59565b901c90505b6020821615611c20576080611c1b826fff973b41fa98c081472e6896dfb254c0612d59565b901c90505b6040821615611c4a576080611c45826fff2ea16466c96a3843ec78b326b52861612d59565b901c90505b6080821615611c74576080611c6f826ffe5dee046a99a2a811c461f1969c3053612d59565b901c90505b610100821615611c9f576080611c9a826ffcbe86c7900a88aedcffc83b479aa3a4612d59565b901c90505b610200821615611cca576080611cc5826ff987a7253ac413176f2b074cf7815e54612d59565b901c90505b610400821615611cf5576080611cf0826ff3392b0822b70005940c7a398e4b70f3612d59565b901c90505b610800821615611d20576080611d1b826fe7159475a2c29b7443b29c7fa6e889d9612d59565b901c90505b611000821615611d4b576080611d46826fd097f3bdfd2022b8845ad8f792aa5825612d59565b901c90505b612000821615611d76576080611d71826fa9f746462d870fdf8a65dc1f90e061e5612d59565b901c90505b614000821615611da1576080611d9c826f70d869a156d2a1b890bb3df62baf32f7612d59565b901c90505b618000821615611dcc576080611dc7826f31be135f97d08fd981231505542fcfa6612d59565b901c90505b62010000821615611df8576080611df3826f09aa508b5b7a84e1c677de54f3e99bc9612d59565b901c90505b62020000821615611e23576080611e1e826e5d6af8dedb81196699c329225ee604612d59565b901c90505b62040000821615611e4d576080611e48826d2216e584f5fa1ea926041bedfe98612d59565b901c90505b62080000821615611e75576080611e70826b048a170391f7dc42444e8fa2612d59565b901c90505b60008460020b1315611e9057611e8d816000196128ed565b90505b611e9f64010000000082612d94565b15611eab576001611eae565b60005b6114dc9060ff16602083901c612713565b6000808060001985870985870292508281108382030391505080600003611ef85760008411611eed57600080fd5b508290049050610c83565b808411611f0457600080fd5b600084868809808403938111909203919050600085611f2281612d78565b16958690049593849004936000819003046001019050611f428184612d59565b909317926000611f53876003612d59565b6002189050611f628188612d59565b611f6d9060026127cb565b611f779082612d59565b9050611f838188612d59565b611f8e9060026127cb565b611f989082612d59565b9050611fa48188612d59565b611faf9060026127cb565b611fb99082612d59565b9050611fc58188612d59565b611fd09060026127cb565b611fda9082612d59565b9050611fe68188612d59565b611ff19060026127cb565b611ffb9082612d59565b90506120078188612d59565b6120129060026127cb565b61201c9082612d59565b905061110a8186612d59565b6040805160c0810182526000808252602082018190529091820190815260200160008152602001600081526020016000151581525090565b634e487b7160e01b600052604160045260246000fd5b604051601f8201601f1916810167ffffffffffffffff8111828210171561209f5761209f612060565b604052919050565b600067ffffffffffffffff8211156120c1576120c1612060565b5060051b60200190565b6001600160a01b03811681146118d157600080fd5b600481106118d157600080fd5b80151581146118d157600080fd5b600060c0828403121561210d57600080fd5b60405160c0810181811067ffffffffffffffff8211171561213057612130612060565b6040529050808235612141816120cb565b815260208381013590820152604083013561215b816120e0565b80604083015250606083013560608201526080830135608082015260a0830135612184816120ed565b60a0919091015292915050565b600060208083850312156121a457600080fd5b823567ffffffffffffffff8111156121bb57600080fd5b8301601f810185136121cc57600080fd5b80356121df6121da826120a7565b612076565b81815260c091820283018401918482019190888411156121fe57600080fd5b938501935b838510156122245761221589866120fb565b83529384019391850191612203565b50979650505050505050565b6000806020838503121561224357600080fd5b823567ffffffffffffffff8082111561225b57600080fd5b818501915085601f83011261226f57600080fd5b81358181111561227e57600080fd5b86602060c08302850101111561229357600080fd5b60209290920196919550909350505050565b6020808252825182820181905260009190848201906040850190845b818110156122dd578351835292840192918401916001016122c1565b50909695505050505050565b6000806000606084860312156122fe57600080fd5b8335612309816120cb565b92506020840135612319816120cb565b929592945050506040919091013590565b634e487b7160e01b600052602160045260246000fd5b6004811061235e57634e487b7160e01b600052602160045260246000fd5b9052565b81516001600160a01b031681526020808301519082015260408083015160c083019161239090840182612340565b50606083015160608301526080830151608083015260a0830151151560a083015292915050565b600060c082840312156123c957600080fd5b50919050565b6000602082840312156123e157600080fd5b5035919050565b600080604083850312156123fb57600080fd5b8235612406816120cb565b946020939093013593505050565b6000806040838503121561242757600080fd5b8235612432816120cb565b91506020830135612442816120cb565b809150509250929050565b600082601f83011261245e57600080fd5b8135602061246e6121da836120a7565b82815260059290921b8401810191818101908684111561248d57600080fd5b8286015b848110156124a85780358352918301918301612491565b509695505050505050565b600082601f8301126124c457600080fd5b813560206124d46121da836120a7565b82815260059290921b840181019181810190868411156124f357600080fd5b8286015b848110156124a857803561250a816120ed565b83529183019183016124f7565b60008060006060848603121561252c57600080fd5b833567ffffffffffffffff8082111561254457600080fd5b818601915086601f83011261255857600080fd5b813560206125686121da836120a7565b82815260059290921b8401810191818101908a84111561258757600080fd5b948201945b838610156125ae57853561259f816120cb565b8252948201949082019061258c565b975050870135925050808211156125c457600080fd5b6125d08783880161244d565b935060408601359150808211156125e657600080fd5b506125f3868287016124b3565b9150509250925092565b815160009082906020808601845b8381101561267057815180516001600160a01b03168652838101518487015260408082015161263d9082890190612340565b50606081810151908701526080808201519087015260a09081015115159086015260c0909401939082019060010161260b565b50929695505050505050565b634e487b7160e01b600052603260045260246000fd5b634e487b7160e01b600052601160045260246000fd5b6000600182016126ba576126ba612692565b5060010190565b6000602082840312156126d357600080fd5b8135610c83816120cb565b6000602082840312156126f057600080fd5b5051919050565b600060c0828403121561270957600080fd5b610c8383836120fb565b6000821982111561272657612726612692565b500190565b60008184825b858110156127c0578135612744816120cb565b6001600160a01b0316835260208281013590840152604080830135612768816120e0565b61277482860182612340565b5050606082810135908401526080808301359084015260a080830135612799816120ed565b6127aa828601821515815260200190565b50505060c0928301929190910190600101612731565b509095945050505050565b6000828210156127dd576127dd612692565b500390565b6000813561058b816120ed565b81356127fa816120cb565b81546001600160a01b0319166001600160a01b039190911617815560208201356001820155600281016040830135612831816120e0565b6004811061284f57634e487b7160e01b600052602160045260246000fd5b60ff1982541660ff821681178355505050606082013560038201556080820135600482015561023c61288360a084016127e2565b6005830160ff1981541660ff8315151681178255505050565b634e487b7160e01b600052600160045260246000fd5b600060ff821660ff84168060ff038211156128cf576128cf612692565b019392505050565b634e487b7160e01b600052601260045260246000fd5b6000826128fc576128fc6128d7565b500490565b600060ff821660ff84168082101561291b5761291b612692565b90039392505050565b600181815b8085111561295f57816000190482111561294557612945612692565b8085161561295257918102915b93841c9390800290612929565b509250929050565b6000826129765750600161058b565b816129835750600061058b565b816001811461299957600281146129a3576129bf565b600191505061058b565b60ff8411156129b4576129b4612692565b50506001821b61058b565b5060208310610133831016604e8410600b84101617156129e2575081810a61058b565b6129ec8383612924565b8060001904821115612a0057612a00612692565b029392505050565b6000610c8360ff841683612967565b600060208284031215612a2957600080fd5b8151610c83816120cb565b80516001600160701b0381168114612a4b57600080fd5b919050565b600080600060608486031215612a6557600080fd5b612a6e84612a34565b9250612a7c60208501612a34565b9150604084015163ffffffff81168114612a9557600080fd5b809150509250925092565b6020808252825182820181905260009190848201906040850190845b818110156122dd57835163ffffffff1683529284019291840191600101612abc565b600082601f830112612aef57600080fd5b81516020612aff6121da836120a7565b82815260059290921b84018101918181019086841115612b1e57600080fd5b8286015b848110156124a8578051612b35816120cb565b8352918301918301612b22565b60008060408385031215612b5557600080fd5b825167ffffffffffffffff80821115612b6d57600080fd5b818501915085601f830112612b8157600080fd5b81516020612b916121da836120a7565b82815260059290921b84018101918181019089841115612bb057600080fd5b948201945b83861015612bde5785518060060b8114612bcf5760008081fd5b82529482019490820190612bb5565b91880151919650909350505080821115612bf757600080fd5b50612c0485828601612ade565b9150509250929050565b60008160060b8360060b6000811281667fffffffffffff1901831281151615612c3957612c39612692565b81667fffffffffffff018313811615612c5457612c54612692565b5090039392505050565b60008160060b8360060b80612c7557612c756128d7565b667fffffffffffff19821460001982141615612c9357612c93612692565b90059392505050565b60008260060b80612caf57612caf6128d7565b808360060b0791505092915050565b60008160020b627fffff198103612cd757612cd7612692565b6000190192915050565b600060208284031215612cf357600080fd5b815160ff81168114610c8357600080fd5b600060208083528351808285015260005b81811015612d3157858101830151858201604001528201612d15565b81811115612d43576000604083870101525b50601f01601f1916929092016040019392505050565b6000816000190483118215151615612d7357612d73612692565b500290565b6000600160ff1b8201612d8d57612d8d612692565b5060000390565b600082612da357612da36128d7565b50069056fe8b117bd00ff7f24909474612aef1fcccae97e6cfcfa5d1ab18278f0659a33e6ca2646970667358221220cd833fc7f567f39387af2cef4b26a1012c82422037726a8b634dbdf2e5aceb5f64736f6c634300080d0033",
    "linkReferences": {}
  }
}