{
  "abi": [
    {
      "inputs": [],
      "name": "IncongruentTokenInOrderGroup",
      "type": "error"
    },
    {
      "inputs": [],
      "name": "InsufficientWalletBalance",
      "type": "error"
    },
    {
      "inputs": [
        {
          "internalType": "bytes32",
          "name": "orderId",
          "type": "bytes32"
        }
      ],
      "name": "OrderDoesNotExist",
      "type": "error"
    },
    {
      "anonymous": false,
      "inputs": [
        {
          "indexed": true,
          "internalType": "enum ConveyorLimitOrders.EventType",
          "name": "eventType",
          "type": "uint8"
        },
        {
          "indexed": true,
          "internalType": "address",
          "name": "sender",
          "type": "address"
        },
        {
          "components": [
            {
              "internalType": "address",
              "name": "token",
              "type": "address"
            },
            {
              "internalType": "bytes32",
              "name": "orderId",
              "type": "bytes32"
            },
            {
              "internalType": "enum ConveyorLimitOrders.OrderType",
              "name": "orderType",
              "type": "uint8"
            },
            {
              "internalType": "uint256",
              "name": "price",
              "type": "uint256"
            },
            {
              "internalType": "uint256",
              "name": "quantity",
              "type": "uint256"
            },
            {
              "internalType": "bool",
              "name": "exists",
              "type": "bool"
            }
          ],
          "indexed": true,
          "internalType": "struct ConveyorLimitOrders.Order[]",
          "name": "orders",
          "type": "tuple[]"
        }
      ],
      "name": "OrderEvent",
      "type": "event"
    },
    {
      "inputs": [],
      "name": "cancelAllOrders",
      "outputs": [],
      "stateMutability": "nonpayable",
      "type": "function"
    },
    {
      "inputs": [
        {
          "components": [
            {
              "internalType": "address",
              "name": "token",
              "type": "address"
            },
            {
              "internalType": "bytes32",
              "name": "orderId",
              "type": "bytes32"
            },
            {
              "internalType": "enum ConveyorLimitOrders.OrderType",
              "name": "orderType",
              "type": "uint8"
            },
            {
              "internalType": "uint256",
              "name": "price",
              "type": "uint256"
            },
            {
              "internalType": "uint256",
              "name": "quantity",
              "type": "uint256"
            },
            {
              "internalType": "bool",
              "name": "exists",
              "type": "bool"
            }
          ],
          "internalType": "struct ConveyorLimitOrders.Order",
          "name": "order",
          "type": "tuple"
        }
      ],
      "name": "cancelOrder",
      "outputs": [],
      "stateMutability": "nonpayable",
      "type": "function"
    },
    {
      "inputs": [
        {
          "components": [
            {
              "internalType": "address",
              "name": "token",
              "type": "address"
            },
            {
              "internalType": "bytes32",
              "name": "orderId",
              "type": "bytes32"
            },
            {
              "internalType": "enum ConveyorLimitOrders.OrderType",
              "name": "orderType",
              "type": "uint8"
            },
            {
              "internalType": "uint256",
              "name": "price",
              "type": "uint256"
            },
            {
              "internalType": "uint256",
              "name": "quantity",
              "type": "uint256"
            },
            {
              "internalType": "bool",
              "name": "exists",
              "type": "bool"
            }
          ],
          "internalType": "struct ConveyorLimitOrders.Order[]",
          "name": "orders",
          "type": "tuple[]"
        }
      ],
      "name": "executeOrders",
      "outputs": [],
      "stateMutability": "nonpayable",
      "type": "function"
    },
    {
      "inputs": [
        {
          "components": [
            {
              "internalType": "address",
              "name": "token",
              "type": "address"
            },
            {
              "internalType": "bytes32",
              "name": "orderId",
              "type": "bytes32"
            },
            {
              "internalType": "enum ConveyorLimitOrders.OrderType",
              "name": "orderType",
              "type": "uint8"
            },
            {
              "internalType": "uint256",
              "name": "price",
              "type": "uint256"
            },
            {
              "internalType": "uint256",
              "name": "quantity",
              "type": "uint256"
            },
            {
              "internalType": "bool",
              "name": "exists",
              "type": "bool"
            }
          ],
          "internalType": "struct ConveyorLimitOrders.Order[][]",
          "name": "arrOrders",
          "type": "tuple[][]"
        }
      ],
      "name": "placeOrder",
      "outputs": [],
      "stateMutability": "nonpayable",
      "type": "function"
    },
    {
      "inputs": [],
      "name": "swapAndPlaceOrders",
      "outputs": [],
      "stateMutability": "nonpayable",
      "type": "function"
    },
    {
      "inputs": [
        {
          "components": [
            {
              "internalType": "address",
              "name": "token",
              "type": "address"
            },
            {
              "internalType": "bytes32",
              "name": "orderId",
              "type": "bytes32"
            },
            {
              "internalType": "enum ConveyorLimitOrders.OrderType",
              "name": "orderType",
              "type": "uint8"
            },
            {
              "internalType": "uint256",
              "name": "price",
              "type": "uint256"
            },
            {
              "internalType": "uint256",
              "name": "quantity",
              "type": "uint256"
            },
            {
              "internalType": "bool",
              "name": "exists",
              "type": "bool"
            }
          ],
          "internalType": "struct ConveyorLimitOrders.Order",
          "name": "newOrder",
          "type": "tuple"
        }
      ],
      "name": "updateOrder",
      "outputs": [],
      "stateMutability": "nonpayable",
      "type": "function"
    }
  ],
  "bytecode": {
    "object": "0x608060405234801561001057600080fd5b50610cc1806100206000396000f3fe608060405234801561001057600080fd5b50600436106100625760003560e01c8063028afabf146100675780630f3333d31461007157806331c663ea146100845780635518a3c21461009757806397ed90de1461006f578063b274c47b146100aa575b600080fd5b61006f6100bd565b005b61006f61007f3660046108b3565b61010f565b61006f610092366004610963565b610154565b61006f6100a53660046109d8565b61042e565b61006f6100b83660046109d8565b61071d565b3360009081526020526040516060906100d7908290610a06565b6040519081900390203360006040517f8b117bd00ff7f24909474612aef1fcccae97e6cfcfa5d1ab18278f0659a33e6c90600090a450565b33321461011b57600080fd5b60005b815181101561015057600082828151811061013b5761013b610aae565b506101499150829050610ada565b905061011e565b5050565b60005b8181101561042957600083838381811061017357610173610aae565b90506020028101906101859190610af3565b808060200260200160405190810160405280939291908181526020016000905b828210156101d1576101c260c08302860136819003810190610b43565b815260200190600101906101a5565b5050505050905060008183815181106101ec576101ec610aae565b6020908102919091018101515133600081815280845260408082206001600160a01b03851680845295528082206001015490516370a0823160e01b815260048101939093529294509192906370a0823190602401602060405180830381865afa15801561025d573d6000803e3d6000fd5b505050506040513d601f19601f820116820180604052508101906102819190610b66565b905060005b84518110156103d05760008582815181106102a3576102a3610aae565b6020026020010151905080600001516001600160a01b0316856001600160a01b0316146102e35760405163200c77f560e01b815260040160405180910390fd5b60808101516102f29085610b7f565b93508383101561031557604051633ed9d6e560e11b815260040160405180910390fd5b336000908152602081815260408083206001600160a01b03898116855290835281842085840180518652935292819020845181546001600160a01b031916941693909317835590516001808401919091559083015160028301805485949360ff199091169083600381111561038c5761038c6109f0565b0217905550606082015160038201556080820151600482015560a0909101516005909101805460ff1916911515919091179055506103c981610ada565b9050610286565b50836040516103df9190610a06565b6040519081900390203360006040517f8b117bd00ff7f24909474612aef1fcccae97e6cfcfa5d1ab18278f0659a33e6c90600090a4505050508061042290610ada565b9050610157565b505050565b33600090815260208181526040822090829061044c90850185610b97565b6001600160a01b039081168252602080830193909352604091820160009081208685013582528452829020825160c08101845281549092168252600181015493820193909352600283015490929183019060ff1660038111156104b1576104b16109f0565b60038111156104c2576104c26109f0565b8152600382015460208201526004820154604082015260059091015460ff16151560609091015260a08101519091506105185760405163bd8da02b60e01b81526020830135600482015260240160405180910390fd5b33600090815260208181526040822090829061053690860186610b97565b6001600160a01b03166001600160a01b03168152602001908152602001600020600101549050816080015183608001356105709190610b7f565b61057a9082610bb4565b90508061058a6020850185610b97565b6040516370a0823160e01b81523360048201526001600160a01b0391909116906370a0823190602401602060405180830381865afa1580156105d0573d6000803e3d6000fd5b505050506040513d601f19601f820116820180604052508101906105f49190610b66565b101561061357604051633ed9d6e560e11b815260040160405180910390fd5b3360009081526020818152604082208392909161063290870187610b97565b6001600160a01b03168152602080820192909252604090810160009081206001019390935533835282825282208592909161066f90840184610b97565b6001600160a01b031681526020808201929092526040908101600090812087840135825290925290206106a28282610bde565b50606090506106b636859003850185610b43565b816000815181106106c9576106c9610aae565b6020026020010181905250806040516106e29190610a06565b6040519081900390203360016040517f8b117bd00ff7f24909474612aef1fcccae97e6cfcfa5d1ab18278f0659a33e6c90600090a450505050565b336000908152602081815260408220919061073a90840184610b97565b6001600160a01b031681526020808201929092526040908101600090812093830135815292909152812080546001600160a01b03191681556001810182905560028101805460ff1990811690915560038201839055600482019290925560050180549091169055565b634e487b7160e01b600052604160045260246000fd5b604051601f8201601f1916810167ffffffffffffffff811182821017156107e2576107e26107a3565b604052919050565b6001600160a01b03811681146107ff57600080fd5b50565b600481106107ff57600080fd5b80151581146107ff57600080fd5b600060c0828403121561082f57600080fd5b60405160c0810181811067ffffffffffffffff82111715610852576108526107a3565b6040529050808235610863816107ea565b815260208381013590820152604083013561087d81610802565b80604083015250606083013560608201526080830135608082015260a08301356108a68161080f565b60a0919091015292915050565b600060208083850312156108c657600080fd5b823567ffffffffffffffff808211156108de57600080fd5b818501915085601f8301126108f257600080fd5b813581811115610904576109046107a3565b610912848260051b016107b9565b818152848101925060c091820284018501918883111561093157600080fd5b938501935b8285101561095757610948898661081d565b84529384019392850192610936565b50979650505050505050565b6000806020838503121561097657600080fd5b823567ffffffffffffffff8082111561098e57600080fd5b818501915085601f8301126109a257600080fd5b8135818111156109b157600080fd5b8660208260051b85010111156109c657600080fd5b60209290920196919550909350505050565b600060c082840312156109ea57600080fd5b50919050565b634e487b7160e01b600052602160045260246000fd5b81516000908290602080860184805b84811015610aa157825180516001600160a01b0316875284810151858801526040808201516004808210610a5657634e487b7160e01b865260218152602486fd5b509088015260608181015181890152610a8b610a7c60808a016080850151815260200190565b60a08401511515815260200190565b50505060c0959095019491830191600101610a15565b5093979650505050505050565b634e487b7160e01b600052603260045260246000fd5b634e487b7160e01b600052601160045260246000fd5b600060018201610aec57610aec610ac4565b5060010190565b6000808335601e19843603018112610b0a57600080fd5b83018035915067ffffffffffffffff821115610b2557600080fd5b602001915060c081023603821315610b3c57600080fd5b9250929050565b600060c08284031215610b5557600080fd5b610b5f838361081d565b9392505050565b600060208284031215610b7857600080fd5b5051919050565b60008219821115610b9257610b92610ac4565b500190565b600060208284031215610ba957600080fd5b8135610b5f816107ea565b600082821015610bc657610bc6610ac4565b500390565b60008135610bd88161080f565b92915050565b8135610be9816107ea565b81546001600160a01b0319166001600160a01b039190911617815560208201356001820155600281016040830135610c2081610802565b60048110610c3e57634e487b7160e01b600052602160045260246000fd5b60ff1982541660ff8216811783555050506060820135600382015560808201356004820155610150610c7260a08401610bcb565b6005830160ff1981541660ff831515168117825550505056fea26469706673582212208e84923f92fea043451acd4a19173905abd85485c551a306c7b95c3dcef8b6b764736f6c634300080d0033",
    "linkReferences": {}
  }
}