{
  "abi": [
    {
      "inputs": [],
      "name": "IncongruentTokenInOrderGroup",
      "type": "error"
    },
    {
      "inputs": [],
      "name": "InsufficientWalletBalance",
      "type": "error"
    },
    {
      "inputs": [
        {
          "internalType": "bytes32",
          "name": "orderId",
          "type": "bytes32"
        }
      ],
      "name": "OrderDoesNotExist",
      "type": "error"
    },
    {
      "anonymous": false,
      "inputs": [
        {
          "indexed": true,
          "internalType": "enum ConveyorLimitOrders.EventType",
          "name": "eventType",
          "type": "uint8"
        },
        {
          "indexed": true,
          "internalType": "address",
          "name": "sender",
          "type": "address"
        },
        {
          "components": [
            {
              "internalType": "address",
              "name": "token",
              "type": "address"
            },
            {
              "internalType": "bytes32",
              "name": "orderId",
              "type": "bytes32"
            },
            {
              "internalType": "enum ConveyorLimitOrders.OrderType",
              "name": "orderType",
              "type": "uint8"
            },
            {
              "internalType": "uint256",
              "name": "price",
              "type": "uint256"
            },
            {
              "internalType": "uint256",
              "name": "quantity",
              "type": "uint256"
            },
            {
              "internalType": "bool",
              "name": "exists",
              "type": "bool"
            }
          ],
          "indexed": true,
          "internalType": "struct ConveyorLimitOrders.Order[]",
          "name": "orders",
          "type": "tuple[]"
        }
      ],
      "name": "OrderEvent",
      "type": "event"
    },
    {
      "inputs": [
        {
          "internalType": "address",
          "name": "token0",
          "type": "address"
        },
        {
          "internalType": "address",
          "name": "token1",
          "type": "address"
        }
      ],
      "name": "calculateUniV2SpotPrice",
      "outputs": [
        {
          "internalType": "uint112",
          "name": "",
          "type": "uint112"
        }
      ],
      "stateMutability": "view",
      "type": "function"
    },
    {
      "inputs": [
        {
          "internalType": "address",
          "name": "token0",
          "type": "address"
        },
        {
          "internalType": "address",
          "name": "token1",
          "type": "address"
        },
        {
          "internalType": "uint128",
          "name": "amountIn",
          "type": "uint128"
        },
        {
          "internalType": "uint24",
          "name": "FEE",
          "type": "uint24"
        },
        {
          "internalType": "uint32",
          "name": "tickSecond",
          "type": "uint32"
        }
      ],
      "name": "calculateUniV3SpotPrice",
      "outputs": [
        {
          "internalType": "uint256",
          "name": "amountOut",
          "type": "uint256"
        }
      ],
      "stateMutability": "nonpayable",
      "type": "function"
    },
    {
      "inputs": [],
      "name": "cancelAllOrders",
      "outputs": [],
      "stateMutability": "nonpayable",
      "type": "function"
    },
    {
      "inputs": [
        {
          "internalType": "address",
          "name": "token",
          "type": "address"
        },
        {
          "internalType": "bytes32",
          "name": "orderId",
          "type": "bytes32"
        }
      ],
      "name": "cancelOrder",
      "outputs": [],
      "stateMutability": "nonpayable",
      "type": "function"
    },
    {
      "inputs": [
        {
          "internalType": "uint256",
          "name": "reserve0",
          "type": "uint256"
        },
        {
          "internalType": "uint8",
          "name": "token0Decimals",
          "type": "uint8"
        },
        {
          "internalType": "uint256",
          "name": "reserve1",
          "type": "uint256"
        },
        {
          "internalType": "uint8",
          "name": "token1Decimals",
          "type": "uint8"
        }
      ],
      "name": "convertToCommonBase",
      "outputs": [
        {
          "internalType": "uint256",
          "name": "",
          "type": "uint256"
        },
        {
          "internalType": "uint256",
          "name": "",
          "type": "uint256"
        }
      ],
      "stateMutability": "nonpayable",
      "type": "function"
    },
    {
      "inputs": [
        {
          "components": [
            {
              "internalType": "address",
              "name": "token",
              "type": "address"
            },
            {
              "internalType": "bytes32",
              "name": "orderId",
              "type": "bytes32"
            },
            {
              "internalType": "enum ConveyorLimitOrders.OrderType",
              "name": "orderType",
              "type": "uint8"
            },
            {
              "internalType": "uint256",
              "name": "price",
              "type": "uint256"
            },
            {
              "internalType": "uint256",
              "name": "quantity",
              "type": "uint256"
            },
            {
              "internalType": "bool",
              "name": "exists",
              "type": "bool"
            }
          ],
          "internalType": "struct ConveyorLimitOrders.Order[]",
          "name": "orders",
          "type": "tuple[]"
        }
      ],
      "name": "executeOrders",
      "outputs": [],
      "stateMutability": "nonpayable",
      "type": "function"
    },
    {
      "inputs": [
        {
          "internalType": "address",
          "name": "eoaAddress",
          "type": "address"
        },
        {
          "internalType": "address",
          "name": "token",
          "type": "address"
        },
        {
          "internalType": "bytes32",
          "name": "orderId",
          "type": "bytes32"
        }
      ],
      "name": "getOrderById",
      "outputs": [
        {
          "components": [
            {
              "internalType": "address",
              "name": "token",
              "type": "address"
            },
            {
              "internalType": "bytes32",
              "name": "orderId",
              "type": "bytes32"
            },
            {
              "internalType": "enum ConveyorLimitOrders.OrderType",
              "name": "orderType",
              "type": "uint8"
            },
            {
              "internalType": "uint256",
              "name": "price",
              "type": "uint256"
            },
            {
              "internalType": "uint256",
              "name": "quantity",
              "type": "uint256"
            },
            {
              "internalType": "bool",
              "name": "exists",
              "type": "bool"
            }
          ],
          "internalType": "struct ConveyorLimitOrders.Order",
          "name": "order",
          "type": "tuple"
        }
      ],
      "stateMutability": "view",
      "type": "function"
    },
    {
      "inputs": [
        {
          "components": [
            {
              "internalType": "address",
              "name": "token",
              "type": "address"
            },
            {
              "internalType": "bytes32",
              "name": "orderId",
              "type": "bytes32"
            },
            {
              "internalType": "enum ConveyorLimitOrders.OrderType",
              "name": "orderType",
              "type": "uint8"
            },
            {
              "internalType": "uint256",
              "name": "price",
              "type": "uint256"
            },
            {
              "internalType": "uint256",
              "name": "quantity",
              "type": "uint256"
            },
            {
              "internalType": "bool",
              "name": "exists",
              "type": "bool"
            }
          ],
          "internalType": "struct ConveyorLimitOrders.Order[]",
          "name": "orderGroup",
          "type": "tuple[]"
        }
      ],
      "name": "placeOrder",
      "outputs": [
        {
          "internalType": "bytes32[]",
          "name": "",
          "type": "bytes32[]"
        }
      ],
      "stateMutability": "nonpayable",
      "type": "function"
    },
    {
      "inputs": [],
      "name": "swapAndPlaceOrders",
      "outputs": [],
      "stateMutability": "nonpayable",
      "type": "function"
    },
    {
      "inputs": [
        {
          "components": [
            {
              "internalType": "address",
              "name": "token",
              "type": "address"
            },
            {
              "internalType": "bytes32",
              "name": "orderId",
              "type": "bytes32"
            },
            {
              "internalType": "enum ConveyorLimitOrders.OrderType",
              "name": "orderType",
              "type": "uint8"
            },
            {
              "internalType": "uint256",
              "name": "price",
              "type": "uint256"
            },
            {
              "internalType": "uint256",
              "name": "quantity",
              "type": "uint256"
            },
            {
              "internalType": "bool",
              "name": "exists",
              "type": "bool"
            }
          ],
          "internalType": "struct ConveyorLimitOrders.Order",
          "name": "newOrder",
          "type": "tuple"
        }
      ],
      "name": "updateOrder",
      "outputs": [],
      "stateMutability": "nonpayable",
      "type": "function"
    },
    {
      "inputs": [],
      "name": "v2Factory",
      "outputs": [
        {
          "internalType": "contract IUniswapV2Factory",
          "name": "",
          "type": "address"
        }
      ],
      "stateMutability": "view",
      "type": "function"
    }
  ],
  "bytecode": {
    "object": "0x60c0604052735c69bee701ef814a2b6a3edd4b1652cb9cc5aa6f6080908152731f98431c8ad98523631ae4a59f267346ea31f98460a052620000469060009060026200005b565b503480156200005457600080fd5b50620000dc565b828054828255906000526020600020908101928215620000b3579160200282015b82811115620000b357825182546001600160a01b0319166001600160a01b039091161782556020909201916001909101906200007c565b50620000c1929150620000c5565b5090565b5b80821115620000c15760008155600101620000c6565b61243c80620000ec6000396000f3fe608060405234801561001057600080fd5b50600436106100a95760003560e01c806384b2167c1161007157806384b2167c1461012757806397ed90de146100b6578063b4b57c391461013a578063cb381ba014610165578063e255d05714610190578063fdcd1f95146101b157600080fd5b8063028afabf146100ae5780630f3333d3146100b8578063115f8db4146100cb57806353b9715b146100f45780635518a3c214610114575b600080fd5b6100b66101d9565b005b6100b66100c6366004611935565b610219565b6100de6100d93660046119d4565b61025e565b6040516100eb9190611a49565b60405180910390f35b610107610102366004611a8d565b6105b4565b6040516100eb9190611b06565b6100b6610122366004611b5b565b610663565b6100b6610135366004611b73565b6109ad565b60015461014d906001600160a01b031681565b6040516001600160a01b0390911681526020016100eb565b610178610173366004611b9f565b610bd5565b6040516001600160701b0390911681526020016100eb565b6101a361019e366004611bea565b610dc9565b6040519081526020016100eb565b6101c46101bf366004611c85565b611019565b604080519283526020830191909152016100eb565b3360005260026020526040516060906101f3908290611ccb565b6040519081900390203360006040516000805160206123e783398151915290600090a450565b33321461022557600080fd5b60005b815181101561025a57600082828151811061024557610245611d4a565b506102539150829050611d76565b9050610228565b5050565b60606000808367ffffffffffffffff81111561027c5761027c611804565b6040519080825280602002602001820160405280156102a5578160200160208202803683370190505b5090506000858560008181106102bd576102bd611d4a565b6102d392602060c0909202019081019150611d8f565b3360008181526002602090815260408083206001600160a01b03861680855292528083206001015490516370a0823160e01b8152600481019490945293945090916370a0823190602401602060405180830381865afa15801561033a573d6000803e3d6000fd5b505050506040513d601f19601f8201168201806040525081019061035e9190611dac565b905060005b8781101561054957600089898381811061037f5761037f611d4a565b905060c002018036038101906103959190611dc5565b905080600001516001600160a01b0316856001600160a01b0316146103cd5760405163200c77f560e01b815260040160405180910390fd5b60808101516103dc9085611de1565b9350838310156103ff57604051633ed9d6e560e11b815260040160405180910390fd5b6060808201516040516bffffffffffffffffffffffff1933841b811660208301524260348301529288901b909216605483015260688201526088810183905260009060a80160408051808303601f190181529181528151602092830120600160a0860181905233600090815260028086528482206001600160a01b038d81168452908752858320858452875291859020885181546001600160a01b03191693169290921782559487015181830155928601519383018054929550869492909160ff19909116908360038111156104d7576104d7611ace565b0217905550606082015160038201556080820151600482015560a0909101516005909101805460ff19169115159190911790558651819088908a90811061052057610520611d4a565b602090810291909101015261053488611d76565b975050508061054290611d76565b9050610363565b503360009081526002602090815260408083206001600160a01b038716845290915290819020600101839055516105839089908990611df9565b6040519081900390203360006040516000805160206123e783398151915290600090a4509193505050505b92915050565b6105bc6117cc565b6001600160a01b03808516600090815260026020818152604080842088861685528252808420878552825292839020835160c0810185528154909516855260018101549185019190915290810154909183019060ff16600381111561062357610623611ace565b600381111561063457610634611ace565b8152600382015460208201526004820154604082015260059091015460ff161515606090910152949350505050565b336000908152600260209081526040822090829061068390850185611d8f565b6001600160a01b039081168252602080830193909352604091820160009081208685013582528452829020825160c08101845281549092168252600181015493820193909352600283015490929183019060ff1660038111156106e8576106e8611ace565b60038111156106f9576106f9611ace565b8152600382015460208201526004820154604082015260059091015460ff16151560609091015260a08101519091506107505760405163bd8da02b60e01b8152602083013560048201526024015b60405180910390fd5b336000908152600260209081526040822090829061077090860186611d8f565b6001600160a01b03166001600160a01b031681526020019081526020016000206001015490508160800151836080013511156107c9576080808301516107b891850135611e99565b6107c29082611de1565b90506107ea565b826080013582608001516107dd9190611e99565b6107e79082611de1565b90505b806107f86020850185611d8f565b6040516370a0823160e01b81523360048201526001600160a01b0391909116906370a0823190602401602060405180830381865afa15801561083e573d6000803e3d6000fd5b505050506040513d601f19601f820116820180604052508101906108629190611dac565b101561088157604051633ed9d6e560e11b815260040160405180910390fd5b3360009081526002602090815260408220839290916108a290870187611d8f565b6001600160a01b031681526020808201929092526040908101600090812060010193909355338352600282528220859290916108e090840184611d8f565b6001600160a01b031681526020808201929092526040908101600090812087840135825290925290206109138282611ebd565b5050604080516001808252818301909252600091816020015b6109346117cc565b81526020019060019003908161092c57905050905061095836859003850185611dc5565b8160008151811061096b5761096b611d4a565b6020026020010181905250806040516109849190611ccb565b6040519081900390203360016040516000805160206123e783398151915290600090a450505050565b3360009081526002602090815260408083206001600160a01b0386168452825280832084845290915290206005015460ff166109ff5760405163bd8da02b60e01b815260048101829052602401610747565b3360009081526002602081815260408084206001600160a01b0387811686529083528185208686528352818520825160c08101845281549092168252600181015493820193909352928201549083019060ff166003811115610a6357610a63611ace565b6003811115610a7457610a74611ace565b81526003820154602080830191909152600483015460408084019190915260059093015460ff1615156060909201919091526080830151336000908152600283528381206001600160a01b03891682529092529181206001018054939450919283929190610ae3908490611e99565b90915550503360009081526002602081815260408084206001600160a01b03891685528252808420878552825280842080546001600160a01b03191681556001808201869055938101805460ff1990811690915560038201869055600482018690556005909101805490911690558051838152808201909152919082015b610b696117cc565b815260200190600190039081610b615790505090508281600081518110610b9257610b92611d4a565b602002602001018190525080604051610bab9190611ccb565b6040519081900390203360026040516000805160206123e783398151915290600090a45050505050565b60408051606084811b6bffffffffffffffffffffffff199081166020808501919091529185901b166034830152825160288184030181526048830184528051908201206001600160f81b03196068840152735c69bee701ef814a2b6a3edd4b1652cb9cc5aa6f60601b6069840152607d8301527f96e8ac4277198ff8b6f785478aa9a39f403cb768dd02cbee326c3e7da348845f609d808401919091528351808403909101815260bd9092019092528051910120600090735c69bee701ef814a2b6a3edd4b1652cb9cc5aa6f90610cab81611081565b6000816001600160a01b0316630902f1ac6040518163ffffffff1660e01b8152600401606060405180830381865afa158015610ceb573d6000803e3d6000fd5b505050506040513d601f19601f82011682018060405250810190610d0f9190611f81565b50509050610d25816001600160701b03166110cc565b600080836001600160a01b0316630902f1ac6040518163ffffffff1660e01b8152600401606060405180830381865afa158015610d66573d6000803e3d6000fd5b505050506040513d601f19601f82011682018060405250810190610d8a9190611f81565b5091509150610da1826001600160701b03166110cc565b610db3816001600160701b03166110cc565b610dbd8183611fde565b98975050505050505050565b6000806000600181548110610de057610de0611d4a565b6000918252602082200154604080516002808252606082019092526001600160a01b03909216935081602001602082028036833701905050905060008490508482600081518110610e3357610e33611d4a565b602002602001019063ffffffff16908163ffffffff1681525050600082600181518110610e6257610e62611d4a565b63ffffffff9290921660209283029190910190910152604051630b4c774160e11b81526001600160a01b038a81166004830152898116602483015262ffffff8816604483015260009190851690631698ee8290606401602060405180830381865afa158015610ed5573d6000803e3d6000fd5b505050506040513d601f19601f82011682018060405250810190610ef99190612004565b90506000816001600160a01b031663883bdbfd856040518263ffffffff1660e01b8152600401610f299190612021565b600060405180830381865afa158015610f46573d6000803e3d6000fd5b505050506040513d6000823e601f3d908101601f19168201604052610f6e91908101906120ce565b509050600081600081518110610f8657610f86611d4a565b602002602001015182600181518110610fa157610fa1611d4a565b6020026020010151610fb3919061219a565b90506000610fc5600386900b836121ea565b905060008260060b128015610fe95750610fe3600386900b83612228565b60060b15155b15610ffc5780610ff88161224a565b9150505b611008818c8f8f611111565b9d9c50505050505050505050505050565b6000808260ff168560ff1611156110535785611035848761226d565b61104090600a612374565b61104a9086612383565b91509150611078565b61105d858461226d565b61106890600a612374565b6110729087612383565b84915091505b94509492505050565b6040516001600160a01b03821660248201526110c99060440160408051601f198184030181529190526020810180516001600160e01b031663161765e160e11b17905261121f565b50565b6110c9816040516024016110e291815260200190565b60408051601f198184030181529190526020810180516001600160e01b031663f5b1bba960e01b17905261121f565b60008061111d86611240565b90506001600160801b036001600160a01b038216116111a357600061114b6001600160a01b03831680612383565b9050836001600160a01b0316856001600160a01b0316106111835761117e600160c01b876001600160801b031683611654565b61119b565b61119b81876001600160801b0316600160c01b611654565b925050611216565b60006111c26001600160a01b0383168068010000000000000000611654565b9050836001600160a01b0316856001600160a01b0316106111fa576111f5600160801b876001600160801b031683611654565b611212565b61121281876001600160801b0316600160801b611654565b9250505b50949350505050565b80516a636f6e736f6c652e6c6f67602083016000808483855afa5050505050565b60008060008360020b12611257578260020b611264565b8260020b611264906123a2565b9050620d89e881111561129d5760405162461bcd60e51b81526020600482015260016024820152601560fa1b6044820152606401610747565b6000816001166000036112b457600160801b6112c6565b6ffffcb933bd6fad37aa2d162d1a5940015b70ffffffffffffffffffffffffffffffffff1690506002821615611305576080611300826ffff97272373d413259a46990580e213a612383565b901c90505b600482161561132f57608061132a826ffff2e50f5f656932ef12357cf3c7fdcc612383565b901c90505b6008821615611359576080611354826fffe5caca7e10e4e61c3624eaa0941cd0612383565b901c90505b601082161561138357608061137e826fffcb9843d60f6159c9db58835c926644612383565b901c90505b60208216156113ad5760806113a8826fff973b41fa98c081472e6896dfb254c0612383565b901c90505b60408216156113d75760806113d2826fff2ea16466c96a3843ec78b326b52861612383565b901c90505b60808216156114015760806113fc826ffe5dee046a99a2a811c461f1969c3053612383565b901c90505b61010082161561142c576080611427826ffcbe86c7900a88aedcffc83b479aa3a4612383565b901c90505b610200821615611457576080611452826ff987a7253ac413176f2b074cf7815e54612383565b901c90505b61040082161561148257608061147d826ff3392b0822b70005940c7a398e4b70f3612383565b901c90505b6108008216156114ad5760806114a8826fe7159475a2c29b7443b29c7fa6e889d9612383565b901c90505b6110008216156114d85760806114d3826fd097f3bdfd2022b8845ad8f792aa5825612383565b901c90505b6120008216156115035760806114fe826fa9f746462d870fdf8a65dc1f90e061e5612383565b901c90505b61400082161561152e576080611529826f70d869a156d2a1b890bb3df62baf32f7612383565b901c90505b618000821615611559576080611554826f31be135f97d08fd981231505542fcfa6612383565b901c90505b62010000821615611585576080611580826f09aa508b5b7a84e1c677de54f3e99bc9612383565b901c90505b620200008216156115b05760806115ab826e5d6af8dedb81196699c329225ee604612383565b901c90505b620400008216156115da5760806115d5826d2216e584f5fa1ea926041bedfe98612383565b901c90505b620800008216156116025760806115fd826b048a170391f7dc42444e8fa2612383565b901c90505b60008460020b131561161d5761161a816000196123be565b90505b61162c640100000000826123d2565b1561163857600161163b565b60005b61164c9060ff16602083901c611de1565b949350505050565b600080806000198587098587029250828110838203039150508060000361168d576000841161168257600080fd5b5082900490506117c5565b80841161169957600080fd5b6000848688098084039381119092039190506000856116b7816123a2565b169586900495938490049360008190030460010190506116d78184612383565b9093179260006116e8876003612383565b60021890506116f78188612383565b611702906002611e99565b61170c9082612383565b90506117188188612383565b611723906002611e99565b61172d9082612383565b90506117398188612383565b611744906002611e99565b61174e9082612383565b905061175a8188612383565b611765906002611e99565b61176f9082612383565b905061177b8188612383565b611786906002611e99565b6117909082612383565b905061179c8188612383565b6117a7906002611e99565b6117b19082612383565b90506117bd8186612383565b955050505050505b9392505050565b6040805160c0810182526000808252602082018190529091820190815260200160008152602001600081526020016000151581525090565b634e487b7160e01b600052604160045260246000fd5b604051601f8201601f1916810167ffffffffffffffff8111828210171561184357611843611804565b604052919050565b600067ffffffffffffffff82111561186557611865611804565b5060051b60200190565b6001600160a01b03811681146110c957600080fd5b600481106110c957600080fd5b80151581146110c957600080fd5b600060c082840312156118b157600080fd5b60405160c0810181811067ffffffffffffffff821117156118d4576118d4611804565b60405290508082356118e58161186f565b81526020838101359082015260408301356118ff81611884565b80604083015250606083013560608201526080830135608082015260a083013561192881611891565b60a0919091015292915050565b6000602080838503121561194857600080fd5b823567ffffffffffffffff81111561195f57600080fd5b8301601f8101851361197057600080fd5b803561198361197e8261184b565b61181a565b81815260c091820283018401918482019190888411156119a257600080fd5b938501935b838510156119c8576119b9898661189f565b835293840193918501916119a7565b50979650505050505050565b600080602083850312156119e757600080fd5b823567ffffffffffffffff808211156119ff57600080fd5b818501915085601f830112611a1357600080fd5b813581811115611a2257600080fd5b86602060c083028501011115611a3757600080fd5b60209290920196919550909350505050565b6020808252825182820181905260009190848201906040850190845b81811015611a8157835183529284019291840191600101611a65565b50909695505050505050565b600080600060608486031215611aa257600080fd5b8335611aad8161186f565b92506020840135611abd8161186f565b929592945050506040919091013590565b634e487b7160e01b600052602160045260246000fd5b60048110611b0257634e487b7160e01b600052602160045260246000fd5b9052565b81516001600160a01b031681526020808301519082015260408083015160c0830191611b3490840182611ae4565b50606083015160608301526080830151608083015260a0830151151560a083015292915050565b600060c08284031215611b6d57600080fd5b50919050565b60008060408385031215611b8657600080fd5b8235611b918161186f565b946020939093013593505050565b60008060408385031215611bb257600080fd5b8235611bbd8161186f565b91506020830135611bcd8161186f565b809150509250929050565b63ffffffff811681146110c957600080fd5b600080600080600060a08688031215611c0257600080fd5b8535611c0d8161186f565b94506020860135611c1d8161186f565b935060408601356001600160801b0381168114611c3957600080fd5b9250606086013562ffffff81168114611c5157600080fd5b91506080860135611c6181611bd8565b809150509295509295909350565b803560ff81168114611c8057600080fd5b919050565b60008060008060808587031215611c9b57600080fd5b84359350611cab60208601611c6f565b925060408501359150611cc060608601611c6f565b905092959194509250565b815160009082906020808601845b83811015611d3e57815180516001600160a01b031686528381015184870152604080820151611d0b9082890190611ae4565b50606081810151908701526080808201519087015260a09081015115159086015260c09094019390820190600101611cd9565b50929695505050505050565b634e487b7160e01b600052603260045260246000fd5b634e487b7160e01b600052601160045260246000fd5b600060018201611d8857611d88611d60565b5060010190565b600060208284031215611da157600080fd5b81356117c58161186f565b600060208284031215611dbe57600080fd5b5051919050565b600060c08284031215611dd757600080fd5b6117c5838361189f565b60008219821115611df457611df4611d60565b500190565b60008184825b85811015611e8e578135611e128161186f565b6001600160a01b0316835260208281013590840152604080830135611e3681611884565b611e4282860182611ae4565b5050606082810135908401526080808301359084015260a080830135611e6781611891565b611e78828601821515815260200190565b50505060c0928301929190910190600101611dff565b509095945050505050565b600082821015611eab57611eab611d60565b500390565b600081356105ae81611891565b8135611ec88161186f565b81546001600160a01b0319166001600160a01b039190911617815560208201356001820155600281016040830135611eff81611884565b60048110611f1d57634e487b7160e01b600052602160045260246000fd5b60ff1982541660ff821681178355505050606082013560038201556080820135600482015561025a611f5160a08401611eb0565b6005830160ff1981541660ff8315151681178255505050565b80516001600160701b0381168114611c8057600080fd5b600080600060608486031215611f9657600080fd5b611f9f84611f6a565b9250611fad60208501611f6a565b91506040840151611fbd81611bd8565b809150509250925092565b634e487b7160e01b600052601260045260246000fd5b60006001600160701b0380841680611ff857611ff8611fc8565b92169190910492915050565b60006020828403121561201657600080fd5b81516117c58161186f565b6020808252825182820181905260009190848201906040850190845b81811015611a8157835163ffffffff168352928401929184019160010161203d565b600082601f83011261207057600080fd5b8151602061208061197e8361184b565b82815260059290921b8401810191818101908684111561209f57600080fd5b8286015b848110156120c35780516120b68161186f565b83529183019183016120a3565b509695505050505050565b600080604083850312156120e157600080fd5b825167ffffffffffffffff808211156120f957600080fd5b818501915085601f83011261210d57600080fd5b8151602061211d61197e8361184b565b82815260059290921b8401810191818101908984111561213c57600080fd5b948201945b8386101561216a5785518060060b811461215b5760008081fd5b82529482019490820190612141565b9188015191965090935050508082111561218357600080fd5b506121908582860161205f565b9150509250929050565b60008160060b8360060b6000811281667fffffffffffff19018312811516156121c5576121c5611d60565b81667fffffffffffff0183138116156121e0576121e0611d60565b5090039392505050565b60008160060b8360060b8061220157612201611fc8565b667fffffffffffff1982146000198214161561221f5761221f611d60565b90059392505050565b60008260060b8061223b5761223b611fc8565b808360060b0791505092915050565b60008160020b627fffff19810361226357612263611d60565b6000190192915050565b600060ff821660ff84168082101561228757612287611d60565b90039392505050565b600181815b808511156122cb5781600019048211156122b1576122b1611d60565b808516156122be57918102915b93841c9390800290612295565b509250929050565b6000826122e2575060016105ae565b816122ef575060006105ae565b8160018114612305576002811461230f5761232b565b60019150506105ae565b60ff84111561232057612320611d60565b50506001821b6105ae565b5060208310610133831016604e8410600b841016171561234e575081810a6105ae565b6123588383612290565b806000190482111561236c5761236c611d60565b029392505050565b60006117c560ff8416836122d3565b600081600019048311821515161561239d5761239d611d60565b500290565b6000600160ff1b82016123b7576123b7611d60565b5060000390565b6000826123cd576123cd611fc8565b500490565b6000826123e1576123e1611fc8565b50069056fe8b117bd00ff7f24909474612aef1fcccae97e6cfcfa5d1ab18278f0659a33e6ca2646970667358221220b8efa41daf86c83378f5041a351929e5ff4f7afc3802462d39436814ac4b1bee64736f6c634300080d0033",
    "linkReferences": {}
  }
}