{
  "abi": [
    {
      "inputs": [],
      "name": "IncongruentTokenInOrderGroup",
      "type": "error"
    },
    {
      "inputs": [],
      "name": "InsufficientWalletBalance",
      "type": "error"
    },
    {
      "inputs": [
        {
          "internalType": "bytes32",
          "name": "orderId",
          "type": "bytes32"
        }
      ],
      "name": "OrderDoesNotExist",
      "type": "error"
    },
    {
      "anonymous": false,
      "inputs": [
        {
          "indexed": true,
          "internalType": "enum ConveyorLimitOrders.EventType",
          "name": "eventType",
          "type": "uint8"
        },
        {
          "indexed": true,
          "internalType": "address",
          "name": "sender",
          "type": "address"
        },
        {
          "components": [
            {
              "internalType": "address",
              "name": "token",
              "type": "address"
            },
            {
              "internalType": "bytes32",
              "name": "orderId",
              "type": "bytes32"
            },
            {
              "internalType": "enum ConveyorLimitOrders.OrderType",
              "name": "orderType",
              "type": "uint8"
            },
            {
              "internalType": "uint256",
              "name": "price",
              "type": "uint256"
            },
            {
              "internalType": "uint256",
              "name": "quantity",
              "type": "uint256"
            },
            {
              "internalType": "bool",
              "name": "exists",
              "type": "bool"
            }
          ],
          "indexed": true,
          "internalType": "struct ConveyorLimitOrders.Order[]",
          "name": "orders",
          "type": "tuple[]"
        }
      ],
      "name": "OrderEvent",
      "type": "event"
    },
    {
      "inputs": [],
      "name": "cancelAllOrders",
      "outputs": [],
      "stateMutability": "nonpayable",
      "type": "function"
    },
    {
      "inputs": [
        {
          "internalType": "address",
          "name": "token",
          "type": "address"
        },
        {
          "internalType": "bytes32",
          "name": "orderId",
          "type": "bytes32"
        }
      ],
      "name": "cancelOrder",
      "outputs": [],
      "stateMutability": "nonpayable",
      "type": "function"
    },
    {
      "inputs": [
        {
          "components": [
            {
              "internalType": "address",
              "name": "token",
              "type": "address"
            },
            {
              "internalType": "bytes32",
              "name": "orderId",
              "type": "bytes32"
            },
            {
              "internalType": "enum ConveyorLimitOrders.OrderType",
              "name": "orderType",
              "type": "uint8"
            },
            {
              "internalType": "uint256",
              "name": "price",
              "type": "uint256"
            },
            {
              "internalType": "uint256",
              "name": "quantity",
              "type": "uint256"
            },
            {
              "internalType": "bool",
              "name": "exists",
              "type": "bool"
            }
          ],
          "internalType": "struct ConveyorLimitOrders.Order[]",
          "name": "orders",
          "type": "tuple[]"
        }
      ],
      "name": "executeOrders",
      "outputs": [],
      "stateMutability": "nonpayable",
      "type": "function"
    },
    {
      "inputs": [
        {
          "internalType": "address",
          "name": "eoaAddress",
          "type": "address"
        },
        {
          "internalType": "address",
          "name": "token",
          "type": "address"
        },
        {
          "internalType": "bytes32",
          "name": "orderId",
          "type": "bytes32"
        }
      ],
      "name": "getOrderById",
      "outputs": [
        {
          "components": [
            {
              "internalType": "address",
              "name": "token",
              "type": "address"
            },
            {
              "internalType": "bytes32",
              "name": "orderId",
              "type": "bytes32"
            },
            {
              "internalType": "enum ConveyorLimitOrders.OrderType",
              "name": "orderType",
              "type": "uint8"
            },
            {
              "internalType": "uint256",
              "name": "price",
              "type": "uint256"
            },
            {
              "internalType": "uint256",
              "name": "quantity",
              "type": "uint256"
            },
            {
              "internalType": "bool",
              "name": "exists",
              "type": "bool"
            }
          ],
          "internalType": "struct ConveyorLimitOrders.Order",
          "name": "order",
          "type": "tuple"
        }
      ],
      "stateMutability": "view",
      "type": "function"
    },
    {
      "inputs": [
        {
          "components": [
            {
              "internalType": "address",
              "name": "token",
              "type": "address"
            },
            {
              "internalType": "bytes32",
              "name": "orderId",
              "type": "bytes32"
            },
            {
              "internalType": "enum ConveyorLimitOrders.OrderType",
              "name": "orderType",
              "type": "uint8"
            },
            {
              "internalType": "uint256",
              "name": "price",
              "type": "uint256"
            },
            {
              "internalType": "uint256",
              "name": "quantity",
              "type": "uint256"
            },
            {
              "internalType": "bool",
              "name": "exists",
              "type": "bool"
            }
          ],
          "internalType": "struct ConveyorLimitOrders.Order[]",
          "name": "orderGroup",
          "type": "tuple[]"
        }
      ],
      "name": "placeOrder",
      "outputs": [
        {
          "internalType": "bytes32[]",
          "name": "",
          "type": "bytes32[]"
        }
      ],
      "stateMutability": "nonpayable",
      "type": "function"
    },
    {
      "inputs": [],
      "name": "swapAndPlaceOrders",
      "outputs": [],
      "stateMutability": "nonpayable",
      "type": "function"
    },
    {
      "inputs": [
        {
          "components": [
            {
              "internalType": "address",
              "name": "token",
              "type": "address"
            },
            {
              "internalType": "bytes32",
              "name": "orderId",
              "type": "bytes32"
            },
            {
              "internalType": "enum ConveyorLimitOrders.OrderType",
              "name": "orderType",
              "type": "uint8"
            },
            {
              "internalType": "uint256",
              "name": "price",
              "type": "uint256"
            },
            {
              "internalType": "uint256",
              "name": "quantity",
              "type": "uint256"
            },
            {
              "internalType": "bool",
              "name": "exists",
              "type": "bool"
            }
          ],
          "internalType": "struct ConveyorLimitOrders.Order",
          "name": "newOrder",
          "type": "tuple"
        }
      ],
      "name": "updateOrder",
      "outputs": [],
      "stateMutability": "nonpayable",
      "type": "function"
    }
  ],
  "bytecode": {
    "object": "0x608060405234801561001057600080fd5b50611198806100206000396000f3fe608060405234801561001057600080fd5b506004361061007d5760003560e01c806353b9715b1161005b57806353b9715b146100c85780635518a3c2146100e857806384b2167c146100fb57806397ed90de1461008a57600080fd5b8063028afabf146100825780630f3333d31461008c578063115f8db41461009f575b600080fd5b61008a61010e565b005b61008a61009a366004610c44565b61014e565b6100b26100ad366004610cf4565b610193565b6040516100bf9190610d69565b60405180910390f35b6100db6100d6366004610dad565b6104e4565b6040516100bf9190610e26565b61008a6100f6366004610e7b565b610592565b61008a610109366004610e93565b6108d5565b336000908152602052604051606090610128908290610ebf565b60405190819003902033600060405160008051602061116c83398151915290600090a450565b33321461015a57600080fd5b60005b815181101561018f57600082828151811061017a5761017a610f3e565b506101889150829050610f6a565b905061015d565b5050565b60606000808367ffffffffffffffff8111156101b1576101b1610b34565b6040519080825280602002602001820160405280156101da578160200160208202803683370190505b5090506000858560008181106101f2576101f2610f3e565b61020892602060c0909202019081019150610f83565b336000818152602081815260408083206001600160a01b03861680855292528083206001015490516370a0823160e01b8152600481019490945293945090916370a0823190602401602060405180830381865afa15801561026d573d6000803e3d6000fd5b505050506040513d601f19601f820116820180604052508101906102919190610fa7565b905060005b8781101561047d5760008989838181106102b2576102b2610f3e565b905060c002018036038101906102c89190610fc0565b905080600001516001600160a01b0316856001600160a01b0316146103005760405163200c77f560e01b815260040160405180910390fd5b608081015161030f9085610fdc565b93508383101561033257604051633ed9d6e560e11b815260040160405180910390fd5b6060808201516040516bffffffffffffffffffffffff1933841b811660208301524260348301529288901b909216605483015260688201526088810183905260009060a80160408051808303601f190181529181528151602092830120600160a086018190523360009081528085528381206001600160a01b038c81168352908652848220848352865290849020875181546001600160a01b03191692169190911781559386015184820155918501516002840180549295508694939192909160ff199091169083600381111561040b5761040b610dee565b0217905550606082015160038201556080820151600482015560a0909101516005909101805460ff19169115159190911790558651819088908a90811061045457610454610f3e565b602090810291909101015261046888610f6a565b975050508061047690610f6a565b9050610296565b50336000908152602081815260408083206001600160a01b038716845290915290819020600101839055516104b59089908990610ff4565b60405190819003902033600060405160008051602061116c83398151915290600090a450919695505050505050565b6104ec610afc565b6001600160a01b0380851660009081526020818152604080832087851684528252808320868452825291829020825160c081018452815490941684526001810154918401919091526002810154909183019060ff16600381111561055257610552610dee565b600381111561056357610563610dee565b8152600382015460208201526004820154604082015260059091015460ff161515606090910152949350505050565b3360009081526020818152604082209082906105b090850185610f83565b6001600160a01b039081168252602080830193909352604091820160009081208685013582528452829020825160c08101845281549092168252600181015493820193909352600283015490929183019060ff16600381111561061557610615610dee565b600381111561062657610626610dee565b8152600382015460208201526004820154604082015260059091015460ff16151560609091015260a081015190915061067d5760405163bd8da02b60e01b8152602083013560048201526024015b60405180910390fd5b33600090815260208181526040822090829061069b90860186610f83565b6001600160a01b03166001600160a01b031681526020019081526020016000206001015490508160800151836080013511156106f4576080808301516106e391850135611094565b6106ed9082610fdc565b9050610715565b826080013582608001516107089190611094565b6107129082610fdc565b90505b806107236020850185610f83565b6040516370a0823160e01b81523360048201526001600160a01b0391909116906370a0823190602401602060405180830381865afa158015610769573d6000803e3d6000fd5b505050506040513d601f19601f8201168201806040525081019061078d9190610fa7565b10156107ac57604051633ed9d6e560e11b815260040160405180910390fd5b336000908152602081815260408220839290916107cb90870187610f83565b6001600160a01b03168152602080820192909252604090810160009081206001019390935533835282825282208592909161080890840184610f83565b6001600160a01b0316815260208082019290925260409081016000908120878401358252909252902061083b82826110be565b5050604080516001808252818301909252600091816020015b61085c610afc565b81526020019060019003908161085457905050905061088036859003850185610fc0565b8160008151811061089357610893610f3e565b6020026020010181905250806040516108ac9190610ebf565b60405190819003902033600160405160008051602061116c83398151915290600090a450505050565b336000908152602081815260408083206001600160a01b0386168452825280832084845290915290206005015460ff166109255760405163bd8da02b60e01b815260048101829052602401610674565b336000908152602081815260408083206001600160a01b0386811685529083528184208585528352818420825160c08101845281549092168252600181015493820193909352600283015490929183019060ff16600381111561098a5761098a610dee565b600381111561099b5761099b610dee565b81526003820154602080830191909152600483015460408084019190915260059093015460ff16151560609092019190915260808301513360009081528083528381206001600160a01b03891682529092529181206001018054939450919283929190610a09908490611094565b9091555050336000908152602081815260408083206001600160a01b0388168452825280832086845290915280822080546001600160a01b0319168155600180820184905560028201805460ff199081169091556003830185905560048301859055600590920180549092169091558151818152808301909252816020015b610a90610afc565b815260200190600190039081610a885790505090508281600081518110610ab957610ab9610f3e565b602002602001018190525080604051610ad29190610ebf565b60405190819003902033600260405160008051602061116c83398151915290600090a45050505050565b6040805160c0810182526000808252602082018190529091820190815260200160008152602001600081526020016000151581525090565b634e487b7160e01b600052604160045260246000fd5b604051601f8201601f1916810167ffffffffffffffff81118282101715610b7357610b73610b34565b604052919050565b6001600160a01b0381168114610b9057600080fd5b50565b60048110610b9057600080fd5b8015158114610b9057600080fd5b600060c08284031215610bc057600080fd5b60405160c0810181811067ffffffffffffffff82111715610be357610be3610b34565b6040529050808235610bf481610b7b565b8152602083810135908201526040830135610c0e81610b93565b80604083015250606083013560608201526080830135608082015260a0830135610c3781610ba0565b60a0919091015292915050565b60006020808385031215610c5757600080fd5b823567ffffffffffffffff80821115610c6f57600080fd5b818501915085601f830112610c8357600080fd5b813581811115610c9557610c95610b34565b610ca3848260051b01610b4a565b818152848101925060c0918202840185019188831115610cc257600080fd5b938501935b82851015610ce857610cd98986610bae565b84529384019392850192610cc7565b50979650505050505050565b60008060208385031215610d0757600080fd5b823567ffffffffffffffff80821115610d1f57600080fd5b818501915085601f830112610d3357600080fd5b813581811115610d4257600080fd5b86602060c083028501011115610d5757600080fd5b60209290920196919550909350505050565b6020808252825182820181905260009190848201906040850190845b81811015610da157835183529284019291840191600101610d85565b50909695505050505050565b600080600060608486031215610dc257600080fd5b8335610dcd81610b7b565b92506020840135610ddd81610b7b565b929592945050506040919091013590565b634e487b7160e01b600052602160045260246000fd5b60048110610e2257634e487b7160e01b600052602160045260246000fd5b9052565b81516001600160a01b031681526020808301519082015260408083015160c0830191610e5490840182610e04565b50606083015160608301526080830151608083015260a0830151151560a083015292915050565b600060c08284031215610e8d57600080fd5b50919050565b60008060408385031215610ea657600080fd5b8235610eb181610b7b565b946020939093013593505050565b815160009082906020808601845b83811015610f3257815180516001600160a01b031686528381015184870152604080820151610eff9082890190610e04565b50606081810151908701526080808201519087015260a09081015115159086015260c09094019390820190600101610ecd565b50929695505050505050565b634e487b7160e01b600052603260045260246000fd5b634e487b7160e01b600052601160045260246000fd5b600060018201610f7c57610f7c610f54565b5060010190565b600060208284031215610f9557600080fd5b8135610fa081610b7b565b9392505050565b600060208284031215610fb957600080fd5b5051919050565b600060c08284031215610fd257600080fd5b610fa08383610bae565b60008219821115610fef57610fef610f54565b500190565b60008184825b8581101561108957813561100d81610b7b565b6001600160a01b031683526020828101359084015260408083013561103181610b93565b61103d82860182610e04565b5050606082810135908401526080808301359084015260a08083013561106281610ba0565b611073828601821515815260200190565b50505060c0928301929190910190600101610ffa565b509095945050505050565b6000828210156110a6576110a6610f54565b500390565b600081356110b881610ba0565b92915050565b81356110c981610b7b565b81546001600160a01b0319166001600160a01b03919091161781556020820135600182015560028101604083013561110081610b93565b6004811061111e57634e487b7160e01b600052602160045260246000fd5b60ff1982541660ff821681178355505050606082013560038201556080820135600482015561018f61115260a084016110ab565b6005830160ff1981541660ff831515168117825550505056fe8b117bd00ff7f24909474612aef1fcccae97e6cfcfa5d1ab18278f0659a33e6ca164736f6c634300080d000a",
    "linkReferences": {}
  }
}